{
  "address": "0x65604D04A2ab139aFDE66bf2FF39388FDaa993d5",
  "abi": [
    {
      "inputs": [],
      "stateMutability": "nonpayable",
      "type": "constructor"
    },
    {
      "anonymous": false,
      "inputs": [
        {
          "indexed": true,
          "internalType": "address",
          "name": "owner",
          "type": "address"
        },
        {
          "indexed": true,
          "internalType": "address",
          "name": "approved",
          "type": "address"
        },
        {
          "indexed": true,
          "internalType": "uint256",
          "name": "tokenId",
          "type": "uint256"
        }
      ],
      "name": "Approval",
      "type": "event"
    },
    {
      "anonymous": false,
      "inputs": [
        {
          "indexed": true,
          "internalType": "address",
          "name": "owner",
          "type": "address"
        },
        {
          "indexed": true,
          "internalType": "address",
          "name": "operator",
          "type": "address"
        },
        {
          "indexed": false,
          "internalType": "bool",
          "name": "approved",
          "type": "bool"
        }
      ],
      "name": "ApprovalForAll",
      "type": "event"
    },
    {
      "anonymous": false,
      "inputs": [
        {
          "indexed": false,
          "internalType": "bytes32",
          "name": "facilityID",
          "type": "bytes32"
        },
        {
          "indexed": true,
          "internalType": "address",
          "name": "owner",
          "type": "address"
        },
        {
          "indexed": false,
          "internalType": "string",
          "name": "dataURI",
          "type": "string"
        }
      ],
      "name": "LodgingFacilityCreated",
      "type": "event"
    },
    {
      "anonymous": false,
      "inputs": [
        {
          "indexed": false,
          "internalType": "bytes32",
          "name": "spaceID",
          "type": "bytes32"
        },
        {
          "indexed": false,
          "internalType": "uint256",
          "name": "tokenId",
          "type": "uint256"
        }
      ],
      "name": "NewStay",
      "type": "event"
    },
    {
      "anonymous": false,
      "inputs": [
        {
          "indexed": false,
          "internalType": "bytes32",
          "name": "facilityID",
          "type": "bytes32"
        },
        {
          "indexed": false,
          "internalType": "uint64",
          "name": "capacity",
          "type": "uint64"
        },
        {
          "indexed": false,
          "internalType": "uint64",
          "name": "pricePerNightWei",
          "type": "uint64"
        },
        {
          "indexed": false,
          "internalType": "bool",
          "name": "active",
          "type": "bool"
        },
        {
          "indexed": false,
          "internalType": "string",
          "name": "dataURI",
          "type": "string"
        }
      ],
      "name": "SpaceAdded",
      "type": "event"
    },
    {
      "anonymous": false,
      "inputs": [
        {
          "indexed": false,
          "internalType": "bytes32",
          "name": "facilityID",
          "type": "bytes32"
        },
        {
          "indexed": false,
          "internalType": "uint256",
          "name": "index",
          "type": "uint256"
        },
        {
          "indexed": false,
          "internalType": "uint64",
          "name": "capacity",
          "type": "uint64"
        },
        {
          "indexed": false,
          "internalType": "uint64",
          "name": "pricePerNightWei",
          "type": "uint64"
        },
        {
          "indexed": false,
          "internalType": "bool",
          "name": "active",
          "type": "bool"
        },
        {
          "indexed": false,
          "internalType": "string",
          "name": "dataURI",
          "type": "string"
        }
      ],
      "name": "SpaceUpdated",
      "type": "event"
    },
    {
      "anonymous": false,
      "inputs": [
        {
          "indexed": true,
          "internalType": "address",
          "name": "from",
          "type": "address"
        },
        {
          "indexed": true,
          "internalType": "address",
          "name": "to",
          "type": "address"
        },
        {
          "indexed": true,
          "internalType": "uint256",
          "name": "tokenId",
          "type": "uint256"
        }
      ],
      "name": "Transfer",
      "type": "event"
    },
    {
      "inputs": [
        {
          "internalType": "bytes32",
          "name": "_lodgingFacilityId",
          "type": "bytes32"
        },
        {
          "internalType": "uint16",
          "name": "_capacity",
          "type": "uint16"
        },
        {
          "internalType": "uint64",
          "name": "_pricePerNightWei",
          "type": "uint64"
        },
        {
          "internalType": "bool",
          "name": "_active",
          "type": "bool"
        },
        {
          "internalType": "string",
          "name": "_dataURI",
          "type": "string"
        }
      ],
      "name": "addSpace",
      "outputs": [],
      "stateMutability": "nonpayable",
      "type": "function"
    },
    {
      "inputs": [
        {
          "internalType": "address",
          "name": "to",
          "type": "address"
        },
        {
          "internalType": "uint256",
          "name": "tokenId",
          "type": "uint256"
        }
      ],
      "name": "approve",
      "outputs": [],
      "stateMutability": "nonpayable",
      "type": "function"
    },
    {
      "inputs": [
        {
          "internalType": "address",
          "name": "owner",
          "type": "address"
        }
      ],
      "name": "balanceOf",
      "outputs": [
        {
          "internalType": "uint256",
          "name": "",
          "type": "uint256"
        }
      ],
      "stateMutability": "view",
      "type": "function"
    },
    {
      "inputs": [],
      "name": "dayZero",
      "outputs": [
        {
          "internalType": "uint32",
          "name": "",
          "type": "uint32"
        }
      ],
      "stateMutability": "view",
      "type": "function"
    },
    {
      "inputs": [
        {
          "internalType": "uint256",
          "name": "_lodgingFacilityId",
          "type": "uint256"
        }
      ],
      "name": "deactivateLodgingFacility",
      "outputs": [],
      "stateMutability": "nonpayable",
      "type": "function"
    },
    {
      "inputs": [
        {
          "internalType": "uint256",
          "name": "_lodgingFacilityId",
          "type": "uint256"
        }
      ],
      "name": "deleteLodgingFacility",
      "outputs": [],
      "stateMutability": "nonpayable",
      "type": "function"
    },
    {
      "inputs": [],
      "name": "getAllLodgingFacilityIds",
      "outputs": [
        {
          "internalType": "bytes32[]",
          "name": "",
          "type": "bytes32[]"
        }
      ],
      "stateMutability": "view",
      "type": "function"
    },
    {
      "inputs": [
        {
          "internalType": "uint256",
          "name": "tokenId",
          "type": "uint256"
        }
      ],
      "name": "getApproved",
      "outputs": [
        {
          "internalType": "address",
          "name": "",
          "type": "address"
        }
      ],
      "stateMutability": "view",
      "type": "function"
    },
    {
      "inputs": [
        {
          "internalType": "bytes32",
          "name": "_spaceId",
          "type": "bytes32"
        },
        {
          "internalType": "uint16",
          "name": "_startDay",
          "type": "uint16"
        },
        {
          "internalType": "uint16",
          "name": "_numberOfDays",
          "type": "uint16"
        }
      ],
      "name": "getAvailability",
      "outputs": [
        {
          "internalType": "uint16[]",
          "name": "",
          "type": "uint16[]"
        }
      ],
      "stateMutability": "view",
      "type": "function"
    },
    {
      "inputs": [],
      "name": "getMyLodgingFacilityIds",
      "outputs": [
        {
          "internalType": "bytes32[]",
          "name": "",
          "type": "bytes32[]"
        }
      ],
      "stateMutability": "view",
      "type": "function"
    },
    {
      "inputs": [
        {
          "internalType": "bytes32",
          "name": "_lodgingFacilityId",
          "type": "bytes32"
        }
      ],
      "name": "getSpaceIdsByFacilityId",
      "outputs": [
        {
          "internalType": "bytes32[]",
          "name": "",
          "type": "bytes32[]"
        }
      ],
      "stateMutability": "view",
      "type": "function"
    },
    {
      "inputs": [
        {
          "internalType": "address",
          "name": "owner",
          "type": "address"
        },
        {
          "internalType": "address",
          "name": "operator",
          "type": "address"
        }
      ],
      "name": "isApprovedForAll",
      "outputs": [
        {
          "internalType": "bool",
          "name": "",
          "type": "bool"
        }
      ],
      "stateMutability": "view",
      "type": "function"
    },
    {
      "inputs": [
        {
          "internalType": "bytes32",
          "name": "",
          "type": "bytes32"
        }
      ],
      "name": "lodgingFacilities",
      "outputs": [
        {
          "internalType": "address",
          "name": "owner",
          "type": "address"
        },
        {
          "internalType": "bool",
          "name": "active",
          "type": "bool"
        },
        {
          "internalType": "bool",
          "name": "exists",
          "type": "bool"
        },
        {
          "internalType": "string",
          "name": "dataURI",
          "type": "string"
        }
      ],
      "stateMutability": "view",
      "type": "function"
    },
    {
      "inputs": [],
      "name": "lodgingFacilitySchemaURI",
      "outputs": [
        {
          "internalType": "string",
          "name": "",
          "type": "string"
        }
      ],
      "stateMutability": "view",
      "type": "function"
    },
    {
      "inputs": [],
      "name": "name",
      "outputs": [
        {
          "internalType": "string",
          "name": "",
          "type": "string"
        }
      ],
      "stateMutability": "view",
      "type": "function"
    },
    {
      "inputs": [
        {
          "internalType": "bytes32",
          "name": "_spaceId",
          "type": "bytes32"
        },
        {
          "internalType": "uint16",
          "name": "_startDay",
          "type": "uint16"
        },
        {
          "internalType": "uint16",
          "name": "_numberOfDays",
          "type": "uint16"
        },
        {
          "internalType": "uint16",
          "name": "_quantity",
          "type": "uint16"
        },
        {
          "internalType": "string",
          "name": "_tokenURI",
          "type": "string"
        }
      ],
      "name": "newStay",
      "outputs": [
        {
          "internalType": "uint256",
          "name": "",
          "type": "uint256"
        }
      ],
      "stateMutability": "payable",
      "type": "function"
    },
    {
      "inputs": [
        {
          "internalType": "uint256",
          "name": "tokenId",
          "type": "uint256"
        }
      ],
      "name": "ownerOf",
      "outputs": [
        {
          "internalType": "address",
          "name": "",
          "type": "address"
        }
      ],
      "stateMutability": "view",
      "type": "function"
    },
    {
      "inputs": [
        {
          "internalType": "string",
          "name": "_dataURI",
          "type": "string"
        },
        {
          "internalType": "bool",
          "name": "_active",
          "type": "bool"
        }
      ],
      "name": "registerLodgingFacility",
      "outputs": [],
      "stateMutability": "nonpayable",
      "type": "function"
    },
    {
      "inputs": [
        {
          "internalType": "address",
          "name": "from",
          "type": "address"
        },
        {
          "internalType": "address",
          "name": "to",
          "type": "address"
        },
        {
          "internalType": "uint256",
          "name": "tokenId",
          "type": "uint256"
        }
      ],
      "name": "safeTransferFrom",
      "outputs": [],
      "stateMutability": "nonpayable",
      "type": "function"
    },
    {
      "inputs": [
        {
          "internalType": "address",
          "name": "from",
          "type": "address"
        },
        {
          "internalType": "address",
          "name": "to",
          "type": "address"
        },
        {
          "internalType": "uint256",
          "name": "tokenId",
          "type": "uint256"
        },
        {
          "internalType": "bytes",
          "name": "_data",
          "type": "bytes"
        }
      ],
      "name": "safeTransferFrom",
      "outputs": [],
      "stateMutability": "nonpayable",
      "type": "function"
    },
    {
      "inputs": [
        {
          "internalType": "address",
          "name": "operator",
          "type": "address"
        },
        {
          "internalType": "bool",
          "name": "approved",
          "type": "bool"
        }
      ],
      "name": "setApprovalForAll",
      "outputs": [],
      "stateMutability": "nonpayable",
      "type": "function"
    },
    {
      "inputs": [],
      "name": "spaceSchemaURI",
      "outputs": [
        {
          "internalType": "string",
          "name": "",
          "type": "string"
        }
      ],
      "stateMutability": "view",
      "type": "function"
    },
    {
      "inputs": [
        {
          "internalType": "bytes32",
          "name": "",
          "type": "bytes32"
        }
      ],
      "name": "spaces",
      "outputs": [
        {
          "internalType": "bytes32",
          "name": "lodgingFacilityId",
          "type": "bytes32"
        },
        {
          "internalType": "uint16",
          "name": "capacity",
          "type": "uint16"
        },
        {
          "internalType": "uint256",
          "name": "pricePerNightWei",
          "type": "uint256"
        },
        {
          "internalType": "bool",
          "name": "active",
          "type": "bool"
        },
        {
          "internalType": "bool",
          "name": "exists",
          "type": "bool"
        },
        {
          "internalType": "string",
          "name": "dataURI",
          "type": "string"
        }
      ],
      "stateMutability": "view",
      "type": "function"
    },
    {
      "inputs": [],
      "name": "staySchemaURI",
      "outputs": [
        {
          "internalType": "string",
          "name": "",
          "type": "string"
        }
      ],
      "stateMutability": "view",
      "type": "function"
    },
    {
      "inputs": [
        {
          "internalType": "bytes4",
          "name": "interfaceId",
          "type": "bytes4"
        }
      ],
      "name": "supportsInterface",
      "outputs": [
        {
          "internalType": "bool",
          "name": "",
          "type": "bool"
        }
      ],
      "stateMutability": "view",
      "type": "function"
    },
    {
      "inputs": [],
      "name": "symbol",
      "outputs": [
        {
          "internalType": "string",
          "name": "",
          "type": "string"
        }
      ],
      "stateMutability": "view",
      "type": "function"
    },
    {
      "inputs": [
        {
          "internalType": "uint256",
          "name": "tokenId",
          "type": "uint256"
        }
      ],
      "name": "tokenURI",
      "outputs": [
        {
          "internalType": "string",
          "name": "",
          "type": "string"
        }
      ],
      "stateMutability": "view",
      "type": "function"
    },
    {
      "inputs": [
        {
          "internalType": "address",
          "name": "from",
          "type": "address"
        },
        {
          "internalType": "address",
          "name": "to",
          "type": "address"
        },
        {
          "internalType": "uint256",
          "name": "tokenId",
          "type": "uint256"
        }
      ],
      "name": "transferFrom",
      "outputs": [],
      "stateMutability": "nonpayable",
      "type": "function"
    },
    {
      "inputs": [
        {
          "internalType": "uint256",
          "name": "_lodgingFacilityId",
          "type": "uint256"
        },
        {
          "internalType": "string",
          "name": "_newDataURI",
          "type": "string"
        }
      ],
      "name": "updateLodgingFacility",
      "outputs": [],
      "stateMutability": "nonpayable",
      "type": "function"
    },
    {
      "inputs": [
        {
          "internalType": "uint256",
          "name": "_spaceIndex",
          "type": "uint256"
        },
        {
          "internalType": "uint16",
          "name": "_capacity",
          "type": "uint16"
        },
        {
          "internalType": "uint64",
          "name": "_pricePerNightWei",
          "type": "uint64"
        },
        {
          "internalType": "bool",
          "name": "_active",
          "type": "bool"
        },
        {
          "internalType": "string",
          "name": "_dataURI",
          "type": "string"
        }
      ],
      "name": "updateSpace",
      "outputs": [],
      "stateMutability": "nonpayable",
      "type": "function"
    },
    {
      "inputs": [
        {
          "internalType": "uint256",
          "name": "_lodgingFacilityId",
          "type": "uint256"
        },
        {
          "internalType": "address",
          "name": "_newOwner",
          "type": "address"
        }
      ],
      "name": "yieldLodgingFacility",
      "outputs": [],
      "stateMutability": "nonpayable",
      "type": "function"
    }
  ],
  "transactionHash": "0x0ac768242defb368b5b4553bd8d69b14748fa028d9c3358ad3b862eb8ff094dc",
  "args": [],
  "numDeployments": 1,
  "solcInputHash": "8ca357797e3ef8ec18bc8bf6f31c0115",
  "bytecode": "0x60806040523480156200001157600080fd5b50604080518082018252600b81526a45746852696f537461797360a81b60208083019182528351808501909452600584526422a929991960d91b908401528151919291620000629160009162000081565b5080516200007890600190602084019062000081565b50505062000164565b8280546200008f9062000127565b90600052602060002090601f016020900481019282620000b35760008555620000fe565b82601f10620000ce57805160ff1916838001178555620000fe565b82800160010185558215620000fe579182015b82811115620000fe578251825591602001919060010190620000e1565b506200010c92915062000110565b5090565b5b808211156200010c576000815560010162000111565b600181811c908216806200013c57607f821691505b602082108114156200015e57634e487b7160e01b600052602260045260246000fd5b50919050565b612dd180620001746000396000f3fe6080604052600436106101d85760003560e01c806395d89b4111610102578063c87b56dd11610095578063e3aae3a511610064578063e3aae3a514610330578063e985e9c514610538578063e994529e14610581578063ffae7415146105b357600080fd5b8063c87b56dd146104f8578063cf63247e14610330578063d9462b2c146103ce578063e1e33b9c1461051857600080fd5b8063a728da33116100d1578063a728da331461049b578063b38759fd146104b0578063b88d4fde146104c5578063c4bfd3cf146104e557600080fd5b806395d89b41146104195780639ff682141461042e578063a22cb4651461045b578063a6bce27b1461047b57600080fd5b80633c5754be1161017a5780636352211e116101495780636352211e1461038057806370a08231146103a057806372e84c7a146103ce5780639518f5fa146103ec57600080fd5b80633c5754be146102ed57806342842e0e14610310578063462ef5ed146103305780635b5d206d1461035357600080fd5b8063095ea7b3116101b6578063095ea7b31461026c5780630f0fc5011461028e57806313936766146102ad57806323b872dd146102cd57600080fd5b806301ffc9a7146101dd57806306fdde0314610212578063081812fc14610234575b600080fd5b3480156101e957600080fd5b506101fd6101f83660046123c4565b6105e3565b60405190151581526020015b60405180910390f35b34801561021e57600080fd5b50610227610635565b6040516102099190612439565b34801561024057600080fd5b5061025461024f36600461244c565b6106c7565b6040516001600160a01b039091168152602001610209565b34801561027857600080fd5b5061028c610287366004612481565b610754565b005b34801561029a57600080fd5b5061028c6102a93660046124ab565b5050565b3480156102b957600080fd5b5061028c6102c8366004612520565b505050565b3480156102d957600080fd5b5061028c6102e836600461256c565b610865565b3480156102f957600080fd5b5061028c6103083660046125e2565b505050505050565b34801561031c57600080fd5b5061028c61032b36600461256c565b610896565b34801561033c57600080fd5b506102276040518060200160405280600081525081565b34801561035f57600080fd5b5061037361036e366004612661565b6108b1565b604051610209919061269d565b34801561038c57600080fd5b5061025461039b36600461244c565b610a9a565b3480156103ac57600080fd5b506103c06103bb3660046126e5565b610b11565b604051908152602001610209565b3480156103da57600080fd5b5061028c6103e936600461244c565b50565b3480156103f857600080fd5b5061040c61040736600461244c565b610b98565b6040516102099190612700565b34801561042557600080fd5b50610227610bfa565b34801561043a57600080fd5b506104466362155d6e81565b60405163ffffffff9091168152602001610209565b34801561046757600080fd5b5061028c610476366004612738565b610c09565b34801561048757600080fd5b5061028c6104963660046125e2565b610c14565b3480156104a757600080fd5b5061040c610e71565b3480156104bc57600080fd5b5061040c610ed1565b3480156104d157600080fd5b5061028c6104e03660046127ee565b610f27565b6103c06104f336600461286a565b610f5f565b34801561050457600080fd5b5061022761051336600461244c565b61124e565b34801561052457600080fd5b5061028c6105333660046128f7565b6113c5565b34801561054457600080fd5b506101fd610553366004612942565b6001600160a01b03918216600090815260056020908152604080832093909416825291909152205460ff1690565b34801561058d57600080fd5b506105a161059c36600461244c565b611613565b6040516102099695949392919061296c565b3480156105bf57600080fd5b506105d36105ce36600461244c565b6116e0565b60405161020994939291906129b1565b60006001600160e01b031982166380ac58cd60e01b148061061457506001600160e01b03198216635b5e139f60e01b145b8061062f57506301ffc9a760e01b6001600160e01b03198316145b92915050565b606060008054610644906129ef565b80601f0160208091040260200160405190810160405280929190818152602001828054610670906129ef565b80156106bd5780601f10610692576101008083540402835291602001916106bd565b820191906000526020600020905b8154815290600101906020018083116106a057829003601f168201915b5050505050905090565b60006106d2826117a4565b6107385760405162461bcd60e51b815260206004820152602c60248201527f4552433732313a20617070726f76656420717565727920666f72206e6f6e657860448201526b34b9ba32b73a103a37b5b2b760a11b60648201526084015b60405180910390fd5b506000908152600460205260409020546001600160a01b031690565b600061075f82610a9a565b9050806001600160a01b0316836001600160a01b031614156107cd5760405162461bcd60e51b815260206004820152602160248201527f4552433732313a20617070726f76616c20746f2063757272656e74206f776e656044820152603960f91b606482015260840161072f565b336001600160a01b03821614806107e957506107e98133610553565b61085b5760405162461bcd60e51b815260206004820152603860248201527f4552433732313a20617070726f76652063616c6c6572206973206e6f74206f7760448201527f6e6572206e6f7220617070726f76656420666f7220616c6c0000000000000000606482015260840161072f565b6102c883836117c1565b61086f338261182f565b61088b5760405162461bcd60e51b815260040161072f90612a2a565b6102c8838383611915565b6102c883838360405180602001604052806000815250610f27565b60606108c2848461ffff1684611ab1565b6000848152600b60209081526040808320815160c08101835281548152600182015461ffff1693810193909352600281015491830191909152600381015460ff80821615156060850152610100909104161515608083015260048101805460a08401919061092f906129ef565b80601f016020809104026020016040519081016040528092919081815260200182805461095b906129ef565b80156109a85780601f1061097d576101008083540402835291602001916109a8565b820191906000526020600020905b81548152906001019060200180831161098b57829003601f168201915b505050505081525050905060008361ffff1667ffffffffffffffff8111156109d2576109d2612762565b6040519080825280602002602001820160405280156109fb578160200160208202803683370190505b50905060005b8461ffff168161ffff161015610a90576000878152600d6020526040812090610a2a8389612a91565b61ffff908116825260208083019390935260409091016000205491850151610a559290911690612ab7565b828261ffff1681518110610a6b57610a6b612ada565b61ffff9092166020928302919091019091015280610a8881612af0565b915050610a01565b5095945050505050565b6000818152600260205260408120546001600160a01b03168061062f5760405162461bcd60e51b815260206004820152602960248201527f4552433732313a206f776e657220717565727920666f72206e6f6e657869737460448201526832b73a103a37b5b2b760b91b606482015260840161072f565b60006001600160a01b038216610b7c5760405162461bcd60e51b815260206004820152602a60248201527f4552433732313a2062616c616e636520717565727920666f7220746865207a65604482015269726f206164647265737360b01b606482015260840161072f565b506001600160a01b031660009081526003602052604090205490565b6000818152600a6020908152604091829020805483518184028101840190945280845260609392830182828015610bee57602002820191906000526020600020905b815481526020019060010190808311610bda575b50505050509050919050565b606060018054610644906129ef565b6102a9338383611c45565b85610c1e81611d14565b610c4081604051806060016040528060228152602001612d7a60229139611d79565b610c7f83838080601f016020809104026020016040519081016040528093929190818152602001838380828437600092019190915250611db292505050565b6000818484604051602001610c9693929190612b12565b60408051808303601f1901815291815281516020928301206000818152600b909352912060030154909150610100900460ff1615610d0d5760405162461bcd60e51b8152602060048201526014602482015273537061636520616c72656164792065786973747360601b604482015260640161072f565b6040518060c001604052808381526020018861ffff1681526020018767ffffffffffffffff168152602001861515815260200160011515815260200185858080601f0160208091040260200160405190810160405280939291908181526020018383808284376000920182905250939094525050838152600b6020908152604091829020845181558482015160018201805461ffff90921661ffff199283161790559285015160028201556060850151600382018054608088015115156101000261ff0019931515939093169516949094171790925560a08401518051929350610e009260048501929190910190612315565b5050506000828152600a6020908152604080832080546001810182559084529190922001829055517f7993127b29bb7eb5c740a2bdf13dbe1721be38172db915f7767aefe0bae7936e90610e5f9084908a908a908a908a908a90612b55565b60405180910390a15050505050505050565b336000908152600860209081526040918290208054835181840281018401909452808452606093928301828280156106bd57602002820191906000526020600020905b815481526020019060010190808311610eb4575050505050905090565b606060078054806020026020016040519081016040528092919081815260200182805480156106bd5760200282019190600052602060002090815481526020019060010190808311610eb4575050505050905090565b610f31338361182f565b610f4d5760405162461bcd60e51b815260040161072f90612a2a565b610f5984848484611e03565b50505050565b6000610f70868661ffff1686611ab1565b6000868152600b60209081526040808320815160c08101835281548152600182015461ffff1693810193909352600281015491830191909152600381015460ff80821615156060850152610100909104161515608083015260048101805460a084019190610fdd906129ef565b80601f0160208091040260200160405190810160405280929190818152602001828054611009906129ef565b80156110565780601f1061102b57610100808354040283529160200191611056565b820191906000526020600020905b81548152906001019060200180831161103957829003601f168201915b5050505050815250509050806040015184866110729190612b91565b61ffff166110809190612bbb565b3410156110c45760405162461bcd60e51b81526020600482015260126024820152714e6565642e204d6f72652e204d6f6e65792160701b604482015260640161072f565b60005b8561ffff168161ffff1610156111da576000888152600d6020526040812061ffff8716916110f5848b612a91565b61ffff9081168252602080830193909352604090910160002054918501516111209290911690612ab7565b61ffff16101561116b5760405162461bcd60e51b8152602060048201526016602482015275496e73756666696369656e7420696e76656e746f727960501b604482015260640161072f565b6000888152600d602052604081208691611185848b612a91565b61ffff908116825260208201929092526040016000908120805490926111ad91859116612a91565b92506101000a81548161ffff021916908361ffff16021790555080806111d290612af0565b9150506110c7565b506111e9600c80546001019055565b60006111f4600c5490565b90506112003382611e36565b61120a8185611e50565b60408051898152602081018390527fe04083eb622e3cb7d063f319076c83270c24acb409a3bc13abcfb36af60f8617910160405180910390a1979650505050505050565b6060611259826117a4565b6112bf5760405162461bcd60e51b815260206004820152603160248201527f45524337323155524953746f726167653a2055524920717565727920666f72206044820152703737b732bc34b9ba32b73a103a37b5b2b760791b606482015260840161072f565b600082815260066020526040812080546112d8906129ef565b80601f0160208091040260200160405190810160405280929190818152602001828054611304906129ef565b80156113515780601f1061132657610100808354040283529160200191611351565b820191906000526020600020905b81548152906001019060200180831161133457829003601f168201915b50505050509050600061136f60408051602081019091526000815290565b9050805160001415611382575092915050565b8151156113b457808260405160200161139c929190612bda565b60405160208183030381529060405292505050919050565b6113bd84611edb565b949350505050565b61140483838080601f016020809104026020016040519081016040528093929190818152602001838380828437600092019190915250611db292505050565b600033848460405160200161141b93929190612c00565b60408051808303601f19018152918152815160209283012060008181526009909352912054909150600160a81b900460ff161561149a5760405162461bcd60e51b815260206004820152601760248201527f466163696c69747920616c726561647920657869737473000000000000000000604482015260640161072f565b60405180608001604052806114ac3390565b6001600160a01b03168152602001831515815260200160011515815260200185858080601f0160208091040260200160405190810160405280939291908181526020018383808284376000920182905250939094525050838152600960209081526040918290208451815486840151948701511515600160a81b0260ff60a81b19951515600160a01b026001600160a81b03199092166001600160a01b03909316929092171793909316929092178255606084015180519293506115799260018501929190910190612315565b50506007805460018082019092557fa66cc928b5edb82af9bd49922954155ab7b0942694bea4ce44661d9a8736c68801839055336000818152600860209081526040808320805495860181558352912090920184905590519091507f28c9a25063d40c8cf423202182ed575cc97982c1fd1771bd9721e19a38cc491d9061160590849088908890612c2c565b60405180910390a250505050565b600b6020526000908152604090208054600182015460028301546003840154600485018054949561ffff90941694929360ff80841694610100909404169290919061165d906129ef565b80601f0160208091040260200160405190810160405280929190818152602001828054611689906129ef565b80156116d65780601f106116ab576101008083540402835291602001916116d6565b820191906000526020600020905b8154815290600101906020018083116116b957829003601f168201915b5050505050905086565b600960205260009081526040902080546001820180546001600160a01b0383169360ff600160a01b8504811694600160a81b900416929091611721906129ef565b80601f016020809104026020016040519081016040528092919081815260200182805461174d906129ef565b801561179a5780601f1061176f5761010080835404028352916020019161179a565b820191906000526020600020905b81548152906001019060200180831161177d57829003601f168201915b5050505050905084565b6000908152600260205260409020546001600160a01b0316151590565b600081815260046020526040902080546001600160a01b0319166001600160a01b03841690811790915581906117f682610a9a565b6001600160a01b03167f8c5be1e5ebec7d5bd14f71427d1e84f3dd0314c0f7b2291e5b200ac8c7c3b92560405160405180910390a45050565b600061183a826117a4565b61189b5760405162461bcd60e51b815260206004820152602c60248201527f4552433732313a206f70657261746f7220717565727920666f72206e6f6e657860448201526b34b9ba32b73a103a37b5b2b760a11b606482015260840161072f565b60006118a683610a9a565b9050806001600160a01b0316846001600160a01b031614806118e15750836001600160a01b03166118d6846106c7565b6001600160a01b0316145b806113bd57506001600160a01b0380821660009081526005602090815260408083209388168352929052205460ff166113bd565b826001600160a01b031661192882610a9a565b6001600160a01b03161461198c5760405162461bcd60e51b815260206004820152602560248201527f4552433732313a207472616e736665722066726f6d20696e636f72726563742060448201526437bbb732b960d91b606482015260840161072f565b6001600160a01b0382166119ee5760405162461bcd60e51b8152602060048201526024808201527f4552433732313a207472616e7366657220746f20746865207a65726f206164646044820152637265737360e01b606482015260840161072f565b6119f96000826117c1565b6001600160a01b0383166000908152600360205260408120805460019290611a22908490612c4f565b90915550506001600160a01b0382166000908152600360205260408120805460019290611a50908490612c66565b909155505060008181526002602052604080822080546001600160a01b0319166001600160a01b0386811691821790925591518493918716917fddf252ad1be2c89b69c2b068fc378daa952ba7f163c4a11628f55a4df523b3ef91a4505050565b611abe6202a30042612c4f565b611acb8362015180612bbb565b611ad9906362155d6e612c66565b11611b1f5760405162461bcd60e51b8152602060048201526016602482015275111bdb89dd081cdd185e481a5b881d1a19481c185cdd60521b604482015260640161072f565b6000838152600b602090815260408083205483526009909152902054600160a01b900460ff16611b915760405162461bcd60e51b815260206004820152601c60248201527f4c6f6467696e6720466163696c69747920697320696e61637469766500000000604482015260640161072f565b6000838152600b602052604090206003015460ff16611be65760405162461bcd60e51b8152602060048201526011602482015270537061636520697320696e61637469766560781b604482015260640161072f565b60008161ffff16116102c85760405162461bcd60e51b815260206004820152602260248201527f4e756d626572206f6620646179732073686f756c642062652031206f72206d6f604482015261726560f01b606482015260840161072f565b816001600160a01b0316836001600160a01b03161415611ca75760405162461bcd60e51b815260206004820152601960248201527f4552433732313a20617070726f766520746f2063616c6c657200000000000000604482015260640161072f565b6001600160a01b03838116600081815260056020908152604080832094871680845294825291829020805460ff191686151590811790915591519182527f17307eab39ab6107e8899845ad3d59bd9653f200f220920489ca2b5937696c31910160405180910390a3505050565b600081815260096020526040902054600160a81b900460ff166103e95760405162461bcd60e51b815260206004820152601760248201527f466163696c69747920646f6573206e6f74206578697374000000000000000000604482015260640161072f565b60008281526009602052604090205481906001600160a01b031633146102c85760405162461bcd60e51b815260040161072f9190612439565b60008151116103e95760405162461bcd60e51b815260206004820152601960248201527f4461746120555249206d7573742062652070726f766964656400000000000000604482015260640161072f565b611e0e848484611915565b611e1a84848484611fb3565b610f595760405162461bcd60e51b815260040161072f90612c7e565b6102a98282604051806020016040528060008152506120b1565b611e59826117a4565b611ebc5760405162461bcd60e51b815260206004820152602e60248201527f45524337323155524953746f726167653a2055524920736574206f66206e6f6e60448201526d32bc34b9ba32b73a103a37b5b2b760911b606482015260840161072f565b600082815260066020908152604090912082516102c892840190612315565b6060611ee6826117a4565b611f4a5760405162461bcd60e51b815260206004820152602f60248201527f4552433732314d657461646174613a2055524920717565727920666f72206e6f60448201526e3732bc34b9ba32b73a103a37b5b2b760891b606482015260840161072f565b6000611f6160408051602081019091526000815290565b90506000815111611f815760405180602001604052806000815250611fac565b80611f8b846120e4565b604051602001611f9c929190612bda565b6040516020818303038152906040525b9392505050565b60006001600160a01b0384163b156120a657604051630a85bd0160e11b81526001600160a01b0385169063150b7a0290611ff7903390899088908890600401612cd0565b6020604051808303816000875af1925050508015612032575060408051601f3d908101601f1916820190925261202f91810190612d03565b60015b61208c573d808015612060576040519150601f19603f3d011682016040523d82523d6000602084013e612065565b606091505b5080516120845760405162461bcd60e51b815260040161072f90612c7e565b805181602001fd5b6001600160e01b031916630a85bd0160e11b1490506113bd565b506001949350505050565b6120bb83836121e2565b6120c86000848484611fb3565b6102c85760405162461bcd60e51b815260040161072f90612c7e565b6060816121085750506040805180820190915260018152600360fc1b602082015290565b8160005b8115612132578061211c81612d20565b915061212b9050600a83612d51565b915061210c565b60008167ffffffffffffffff81111561214d5761214d612762565b6040519080825280601f01601f191660200182016040528015612177576020820181803683370190505b5090505b84156113bd5761218c600183612c4f565b9150612199600a86612d65565b6121a4906030612c66565b60f81b8183815181106121b9576121b9612ada565b60200101906001600160f81b031916908160001a9053506121db600a86612d51565b945061217b565b6001600160a01b0382166122385760405162461bcd60e51b815260206004820181905260248201527f4552433732313a206d696e7420746f20746865207a65726f2061646472657373604482015260640161072f565b612241816117a4565b1561228e5760405162461bcd60e51b815260206004820152601c60248201527f4552433732313a20746f6b656e20616c7265616479206d696e74656400000000604482015260640161072f565b6001600160a01b03821660009081526003602052604081208054600192906122b7908490612c66565b909155505060008181526002602052604080822080546001600160a01b0319166001600160a01b03861690811790915590518392907fddf252ad1be2c89b69c2b068fc378daa952ba7f163c4a11628f55a4df523b3ef908290a45050565b828054612321906129ef565b90600052602060002090601f0160209004810192826123435760008555612389565b82601f1061235c57805160ff1916838001178555612389565b82800160010185558215612389579182015b8281111561238957825182559160200191906001019061236e565b50612395929150612399565b5090565b5b80821115612395576000815560010161239a565b6001600160e01b0319811681146103e957600080fd5b6000602082840312156123d657600080fd5b8135611fac816123ae565b60005b838110156123fc5781810151838201526020016123e4565b83811115610f595750506000910152565b600081518084526124258160208601602086016123e1565b601f01601f19169290920160200192915050565b602081526000611fac602083018461240d565b60006020828403121561245e57600080fd5b5035919050565b80356001600160a01b038116811461247c57600080fd5b919050565b6000806040838503121561249457600080fd5b61249d83612465565b946020939093013593505050565b600080604083850312156124be57600080fd5b823591506124ce60208401612465565b90509250929050565b60008083601f8401126124e957600080fd5b50813567ffffffffffffffff81111561250157600080fd5b60208301915083602082850101111561251957600080fd5b9250929050565b60008060006040848603121561253557600080fd5b83359250602084013567ffffffffffffffff81111561255357600080fd5b61255f868287016124d7565b9497909650939450505050565b60008060006060848603121561258157600080fd5b61258a84612465565b925061259860208501612465565b9150604084013590509250925092565b803561ffff8116811461247c57600080fd5b803567ffffffffffffffff8116811461247c57600080fd5b8035801515811461247c57600080fd5b60008060008060008060a087890312156125fb57600080fd5b8635955061260b602088016125a8565b9450612619604088016125ba565b9350612627606088016125d2565b9250608087013567ffffffffffffffff81111561264357600080fd5b61264f89828a016124d7565b979a9699509497509295939492505050565b60008060006060848603121561267657600080fd5b83359250612686602085016125a8565b9150612694604085016125a8565b90509250925092565b6020808252825182820181905260009190848201906040850190845b818110156126d957835161ffff16835292840192918401916001016126b9565b50909695505050505050565b6000602082840312156126f757600080fd5b611fac82612465565b6020808252825182820181905260009190848201906040850190845b818110156126d95783518352928401929184019160010161271c565b6000806040838503121561274b57600080fd5b61275483612465565b91506124ce602084016125d2565b634e487b7160e01b600052604160045260246000fd5b600067ffffffffffffffff8084111561279357612793612762565b604051601f8501601f19908116603f011681019082821181831017156127bb576127bb612762565b816040528093508581528686860111156127d457600080fd5b858560208301376000602087830101525050509392505050565b6000806000806080858703121561280457600080fd5b61280d85612465565b935061281b60208601612465565b925060408501359150606085013567ffffffffffffffff81111561283e57600080fd5b8501601f8101871361284f57600080fd5b61285e87823560208401612778565b91505092959194509250565b600080600080600060a0868803121561288257600080fd5b85359450612892602087016125a8565b93506128a0604087016125a8565b92506128ae606087016125a8565b9150608086013567ffffffffffffffff8111156128ca57600080fd5b8601601f810188136128db57600080fd5b6128ea88823560208401612778565b9150509295509295909350565b60008060006040848603121561290c57600080fd5b833567ffffffffffffffff81111561292357600080fd5b61292f868287016124d7565b90945092506126949050602085016125d2565b6000806040838503121561295557600080fd5b61295e83612465565b91506124ce60208401612465565b86815261ffff861660208201528460408201528315156060820152821515608082015260c060a082015260006129a560c083018461240d565b98975050505050505050565b6001600160a01b0385168152831515602082015282151560408201526080606082018190526000906129e59083018461240d565b9695505050505050565b600181811c90821680612a0357607f821691505b60208210811415612a2457634e487b7160e01b600052602260045260246000fd5b50919050565b60208082526031908201527f4552433732313a207472616e736665722063616c6c6572206973206e6f74206f6040820152701ddb995c881b9bdc88185c1c1c9bdd9959607a1b606082015260800190565b634e487b7160e01b600052601160045260246000fd5b600061ffff808316818516808303821115612aae57612aae612a7b565b01949350505050565b600061ffff83811690831681811015612ad257612ad2612a7b565b039392505050565b634e487b7160e01b600052603260045260246000fd5b600061ffff80831681811415612b0857612b08612a7b565b6001019392505050565b838152818360208301376000910160200190815292915050565b81835281816020850137506000828201602090810191909152601f909101601f19169091010190565b86815261ffff8616602082015267ffffffffffffffff85166040820152831515606082015260a0608082015260006129a560a083018486612b2c565b600061ffff80831681851681830481118215151615612bb257612bb2612a7b565b02949350505050565b6000816000190483118215151615612bd557612bd5612a7b565b500290565b60008351612bec8184602088016123e1565b835190830190612aae8183602088016123e1565b6bffffffffffffffffffffffff198460601b168152818360148301376000910160140190815292915050565b838152604060208201526000612c46604083018486612b2c565b95945050505050565b600082821015612c6157612c61612a7b565b500390565b60008219821115612c7957612c79612a7b565b500190565b60208082526032908201527f4552433732313a207472616e7366657220746f206e6f6e20455243373231526560408201527131b2b4bb32b91034b6b83632b6b2b73a32b960711b606082015260800190565b6001600160a01b03858116825284166020820152604081018390526080606082018190526000906129e59083018461240d565b600060208284031215612d1557600080fd5b8151611fac816123ae565b6000600019821415612d3457612d34612a7b565b5060010190565b634e487b7160e01b600052601260045260246000fd5b600082612d6057612d60612d3b565b500490565b600082612d7457612d74612d3b565b50069056fe4f6e6c7920666163696c697479206f776e6572206d61792061646420537061636573a26469706673582212200b916d7a422fbe7dfaa4cd8b946d989308269794b80db6cf8d0a83f12c63a5f464736f6c634300080a0033",
  "devdoc": {
    "kind": "dev",
    "methods": {
      "approve(address,uint256)": {
        "details": "See {IERC721-approve}."
      },
      "balanceOf(address)": {
        "details": "See {IERC721-balanceOf}."
      },
      "getApproved(uint256)": {
        "details": "See {IERC721-getApproved}."
      },
      "isApprovedForAll(address,address)": {
        "details": "See {IERC721-isApprovedForAll}."
      },
      "name()": {
        "details": "See {IERC721Metadata-name}."
      },
      "ownerOf(uint256)": {
        "details": "See {IERC721-ownerOf}."
      },
      "safeTransferFrom(address,address,uint256)": {
        "details": "See {IERC721-safeTransferFrom}."
      },
      "safeTransferFrom(address,address,uint256,bytes)": {
        "details": "See {IERC721-safeTransferFrom}."
      },
      "setApprovalForAll(address,bool)": {
        "details": "See {IERC721-setApprovalForAll}."
      },
      "supportsInterface(bytes4)": {
        "details": "See {IERC165-supportsInterface}."
      },
      "symbol()": {
        "details": "See {IERC721Metadata-symbol}."
      },
      "tokenURI(uint256)": {
        "details": "See {IERC721Metadata-tokenURI}."
      },
      "transferFrom(address,address,uint256)": {
        "details": "See {IERC721-transferFrom}."
      }
    },
    "version": 1
  },
  "userdoc": {
    "kind": "user",
    "methods": {},
    "version": 1
  },
  "storageLayout": {
    "storage": [
      {
        "astId": 130,
        "contract": "contracts/EthRioStays.sol:EthRioStays",
        "label": "_name",
        "offset": 0,
        "slot": "0",
        "type": "t_string_storage"
      },
      {
        "astId": 132,
        "contract": "contracts/EthRioStays.sol:EthRioStays",
        "label": "_symbol",
        "offset": 0,
        "slot": "1",
        "type": "t_string_storage"
      },
      {
        "astId": 136,
        "contract": "contracts/EthRioStays.sol:EthRioStays",
        "label": "_owners",
        "offset": 0,
        "slot": "2",
        "type": "t_mapping(t_uint256,t_address)"
      },
      {
        "astId": 140,
        "contract": "contracts/EthRioStays.sol:EthRioStays",
        "label": "_balances",
        "offset": 0,
        "slot": "3",
        "type": "t_mapping(t_address,t_uint256)"
      },
      {
        "astId": 144,
        "contract": "contracts/EthRioStays.sol:EthRioStays",
        "label": "_tokenApprovals",
        "offset": 0,
        "slot": "4",
        "type": "t_mapping(t_uint256,t_address)"
      },
      {
        "astId": 150,
        "contract": "contracts/EthRioStays.sol:EthRioStays",
        "label": "_operatorApprovals",
        "offset": 0,
        "slot": "5",
        "type": "t_mapping(t_address,t_mapping(t_address,t_bool))"
      },
      {
        "astId": 1117,
        "contract": "contracts/EthRioStays.sol:EthRioStays",
        "label": "_tokenURIs",
        "offset": 0,
        "slot": "6",
        "type": "t_mapping(t_uint256,t_string_storage)"
      },
      {
        "astId": 2080,
        "contract": "contracts/EthRioStays.sol:EthRioStays",
        "label": "_lodgingFacilityIds",
        "offset": 0,
        "slot": "7",
        "type": "t_array(t_bytes32)dyn_storage"
      },
      {
        "astId": 2085,
        "contract": "contracts/EthRioStays.sol:EthRioStays",
        "label": "_facilityIdsByOwner",
        "offset": 0,
        "slot": "8",
        "type": "t_mapping(t_address,t_array(t_bytes32)dyn_storage)"
      },
      {
        "astId": 2090,
        "contract": "contracts/EthRioStays.sol:EthRioStays",
        "label": "lodgingFacilities",
        "offset": 0,
        "slot": "9",
        "type": "t_mapping(t_bytes32,t_struct(LodgingFacility)2064_storage)"
      },
      {
        "astId": 2095,
        "contract": "contracts/EthRioStays.sol:EthRioStays",
        "label": "_spaceIdsByFacilityId",
        "offset": 0,
        "slot": "10",
        "type": "t_mapping(t_bytes32,t_array(t_bytes32)dyn_storage)"
      },
      {
        "astId": 2100,
        "contract": "contracts/EthRioStays.sol:EthRioStays",
        "label": "spaces",
        "offset": 0,
        "slot": "11",
        "type": "t_mapping(t_bytes32,t_struct(Space)2077_storage)"
      },
      {
        "astId": 2326,
        "contract": "contracts/EthRioStays.sol:EthRioStays",
        "label": "_stayTokenIds",
        "offset": 0,
        "slot": "12",
        "type": "t_struct(Counter)1582_storage"
      },
      {
        "astId": 2332,
        "contract": "contracts/EthRioStays.sol:EthRioStays",
        "label": "_booked",
        "offset": 0,
        "slot": "13",
        "type": "t_mapping(t_bytes32,t_mapping(t_uint16,t_uint16))"
      }
    ],
    "types": {
      "t_address": {
        "encoding": "inplace",
        "label": "address",
        "numberOfBytes": "20"
      },
      "t_array(t_bytes32)dyn_storage": {
        "base": "t_bytes32",
        "encoding": "dynamic_array",
        "label": "bytes32[]",
        "numberOfBytes": "32"
      },
      "t_bool": {
        "encoding": "inplace",
        "label": "bool",
        "numberOfBytes": "1"
      },
      "t_bytes32": {
        "encoding": "inplace",
        "label": "bytes32",
        "numberOfBytes": "32"
      },
      "t_mapping(t_address,t_array(t_bytes32)dyn_storage)": {
        "encoding": "mapping",
        "key": "t_address",
        "label": "mapping(address => bytes32[])",
        "numberOfBytes": "32",
        "value": "t_array(t_bytes32)dyn_storage"
      },
      "t_mapping(t_address,t_bool)": {
        "encoding": "mapping",
        "key": "t_address",
        "label": "mapping(address => bool)",
        "numberOfBytes": "32",
        "value": "t_bool"
      },
      "t_mapping(t_address,t_mapping(t_address,t_bool))": {
        "encoding": "mapping",
        "key": "t_address",
        "label": "mapping(address => mapping(address => bool))",
        "numberOfBytes": "32",
        "value": "t_mapping(t_address,t_bool)"
      },
      "t_mapping(t_address,t_uint256)": {
        "encoding": "mapping",
        "key": "t_address",
        "label": "mapping(address => uint256)",
        "numberOfBytes": "32",
        "value": "t_uint256"
      },
      "t_mapping(t_bytes32,t_array(t_bytes32)dyn_storage)": {
        "encoding": "mapping",
        "key": "t_bytes32",
        "label": "mapping(bytes32 => bytes32[])",
        "numberOfBytes": "32",
        "value": "t_array(t_bytes32)dyn_storage"
      },
      "t_mapping(t_bytes32,t_mapping(t_uint16,t_uint16))": {
        "encoding": "mapping",
        "key": "t_bytes32",
        "label": "mapping(bytes32 => mapping(uint16 => uint16))",
        "numberOfBytes": "32",
        "value": "t_mapping(t_uint16,t_uint16)"
      },
      "t_mapping(t_bytes32,t_struct(LodgingFacility)2064_storage)": {
        "encoding": "mapping",
        "key": "t_bytes32",
        "label": "mapping(bytes32 => struct EthRioStays.LodgingFacility)",
        "numberOfBytes": "32",
        "value": "t_struct(LodgingFacility)2064_storage"
      },
      "t_mapping(t_bytes32,t_struct(Space)2077_storage)": {
        "encoding": "mapping",
        "key": "t_bytes32",
        "label": "mapping(bytes32 => struct EthRioStays.Space)",
        "numberOfBytes": "32",
        "value": "t_struct(Space)2077_storage"
      },
      "t_mapping(t_uint16,t_uint16)": {
        "encoding": "mapping",
        "key": "t_uint16",
        "label": "mapping(uint16 => uint16)",
        "numberOfBytes": "32",
        "value": "t_uint16"
      },
      "t_mapping(t_uint256,t_address)": {
        "encoding": "mapping",
        "key": "t_uint256",
        "label": "mapping(uint256 => address)",
        "numberOfBytes": "32",
        "value": "t_address"
      },
      "t_mapping(t_uint256,t_string_storage)": {
        "encoding": "mapping",
        "key": "t_uint256",
        "label": "mapping(uint256 => string)",
        "numberOfBytes": "32",
        "value": "t_string_storage"
      },
      "t_string_storage": {
        "encoding": "bytes",
        "label": "string",
        "numberOfBytes": "32"
      },
      "t_struct(Counter)1582_storage": {
        "encoding": "inplace",
        "label": "struct Counters.Counter",
        "members": [
          {
            "astId": 1581,
            "contract": "contracts/EthRioStays.sol:EthRioStays",
            "label": "_value",
            "offset": 0,
            "slot": "0",
            "type": "t_uint256"
          }
        ],
        "numberOfBytes": "32"
      },
      "t_struct(LodgingFacility)2064_storage": {
        "encoding": "inplace",
        "label": "struct EthRioStays.LodgingFacility",
        "members": [
          {
            "astId": 2057,
            "contract": "contracts/EthRioStays.sol:EthRioStays",
            "label": "owner",
            "offset": 0,
            "slot": "0",
            "type": "t_address"
          },
          {
            "astId": 2059,
            "contract": "contracts/EthRioStays.sol:EthRioStays",
            "label": "active",
            "offset": 20,
            "slot": "0",
            "type": "t_bool"
          },
          {
            "astId": 2061,
            "contract": "contracts/EthRioStays.sol:EthRioStays",
            "label": "exists",
            "offset": 21,
            "slot": "0",
            "type": "t_bool"
          },
          {
            "astId": 2063,
            "contract": "contracts/EthRioStays.sol:EthRioStays",
            "label": "dataURI",
            "offset": 0,
            "slot": "1",
            "type": "t_string_storage"
          }
        ],
        "numberOfBytes": "64"
      },
      "t_struct(Space)2077_storage": {
        "encoding": "inplace",
        "label": "struct EthRioStays.Space",
        "members": [
          {
            "astId": 2066,
            "contract": "contracts/EthRioStays.sol:EthRioStays",
            "label": "lodgingFacilityId",
            "offset": 0,
            "slot": "0",
            "type": "t_bytes32"
          },
          {
            "astId": 2068,
            "contract": "contracts/EthRioStays.sol:EthRioStays",
            "label": "capacity",
            "offset": 0,
            "slot": "1",
            "type": "t_uint16"
          },
          {
            "astId": 2070,
            "contract": "contracts/EthRioStays.sol:EthRioStays",
            "label": "pricePerNightWei",
            "offset": 0,
            "slot": "2",
            "type": "t_uint256"
          },
          {
            "astId": 2072,
            "contract": "contracts/EthRioStays.sol:EthRioStays",
            "label": "active",
            "offset": 0,
            "slot": "3",
            "type": "t_bool"
          },
          {
            "astId": 2074,
            "contract": "contracts/EthRioStays.sol:EthRioStays",
            "label": "exists",
            "offset": 1,
            "slot": "3",
            "type": "t_bool"
          },
          {
            "astId": 2076,
            "contract": "contracts/EthRioStays.sol:EthRioStays",
            "label": "dataURI",
            "offset": 0,
            "slot": "4",
            "type": "t_string_storage"
          }
        ],
        "numberOfBytes": "160"
      },
      "t_uint16": {
        "encoding": "inplace",
        "label": "uint16",
        "numberOfBytes": "2"
      },
      "t_uint256": {
        "encoding": "inplace",
        "label": "uint256",
        "numberOfBytes": "32"
      }
    }
  }
}