{
  "address": "0x5FbDB2315678afecb367f032d93F642f64180aa3",
  "abi": [
    {
      "inputs": [],
      "stateMutability": "nonpayable",
      "type": "constructor"
    },
    {
      "anonymous": false,
      "inputs": [
        {
          "indexed": true,
          "internalType": "address",
          "name": "owner",
          "type": "address"
        },
        {
          "indexed": true,
          "internalType": "address",
          "name": "approved",
          "type": "address"
        },
        {
          "indexed": true,
          "internalType": "uint256",
          "name": "tokenId",
          "type": "uint256"
        }
      ],
      "name": "Approval",
      "type": "event"
    },
    {
      "anonymous": false,
      "inputs": [
        {
          "indexed": true,
          "internalType": "address",
          "name": "owner",
          "type": "address"
        },
        {
          "indexed": true,
          "internalType": "address",
          "name": "operator",
          "type": "address"
        },
        {
          "indexed": false,
          "internalType": "bool",
          "name": "approved",
          "type": "bool"
        }
      ],
      "name": "ApprovalForAll",
      "type": "event"
    },
    {
      "anonymous": false,
      "inputs": [
        {
          "indexed": false,
          "internalType": "uint256",
          "name": "tokenId",
          "type": "uint256"
        }
      ],
      "name": "CheckIn",
      "type": "event"
    },
    {
      "anonymous": false,
      "inputs": [
        {
          "indexed": false,
          "internalType": "uint256",
          "name": "tokenId",
          "type": "uint256"
        }
      ],
      "name": "CheckOut",
      "type": "event"
    },
    {
      "anonymous": false,
      "inputs": [
        {
          "indexed": true,
          "internalType": "address",
          "name": "payee",
          "type": "address"
        },
        {
          "indexed": false,
          "internalType": "uint256",
          "name": "weiAmount",
          "type": "uint256"
        },
        {
          "indexed": false,
          "internalType": "bytes32",
          "name": "spaceId",
          "type": "bytes32"
        }
      ],
      "name": "Deposited",
      "type": "event"
    },
    {
      "anonymous": false,
      "inputs": [
        {
          "indexed": false,
          "internalType": "bytes32",
          "name": "facilityId",
          "type": "bytes32"
        },
        {
          "indexed": false,
          "internalType": "bool",
          "name": "active",
          "type": "bool"
        }
      ],
      "name": "LodgingFacilityActiveState",
      "type": "event"
    },
    {
      "anonymous": false,
      "inputs": [
        {
          "indexed": false,
          "internalType": "bytes32",
          "name": "facilityId",
          "type": "bytes32"
        },
        {
          "indexed": true,
          "internalType": "address",
          "name": "owner",
          "type": "address"
        },
        {
          "indexed": false,
          "internalType": "string",
          "name": "dataURI",
          "type": "string"
        }
      ],
      "name": "LodgingFacilityCreated",
      "type": "event"
    },
    {
      "anonymous": false,
      "inputs": [
        {
          "indexed": false,
          "internalType": "bytes32",
          "name": "facilityId",
          "type": "bytes32"
        },
        {
          "indexed": true,
          "internalType": "address",
          "name": "prevOwner",
          "type": "address"
        },
        {
          "indexed": true,
          "internalType": "address",
          "name": "newOwner",
          "type": "address"
        }
      ],
      "name": "LodgingFacilityOwnershipTransfer",
      "type": "event"
    },
    {
      "anonymous": false,
      "inputs": [
        {
          "indexed": false,
          "internalType": "bytes32",
          "name": "facilityId",
          "type": "bytes32"
        }
      ],
      "name": "LodgingFacilityRemoved",
      "type": "event"
    },
    {
      "anonymous": false,
      "inputs": [
        {
          "indexed": false,
          "internalType": "bytes32",
          "name": "facilityId",
          "type": "bytes32"
        },
        {
          "indexed": false,
          "internalType": "string",
          "name": "dataURI",
          "type": "string"
        }
      ],
      "name": "LodgingFacilityUpdated",
      "type": "event"
    },
    {
      "anonymous": false,
      "inputs": [
        {
          "indexed": false,
          "internalType": "bytes32",
          "name": "spaceId",
          "type": "bytes32"
        },
        {
          "indexed": false,
          "internalType": "uint256",
          "name": "tokenId",
          "type": "uint256"
        }
      ],
      "name": "NewStay",
      "type": "event"
    },
    {
      "anonymous": false,
      "inputs": [
        {
          "indexed": false,
          "internalType": "bytes32",
          "name": "facilityId",
          "type": "bytes32"
        },
        {
          "indexed": false,
          "internalType": "uint64",
          "name": "capacity",
          "type": "uint64"
        },
        {
          "indexed": false,
          "internalType": "uint64",
          "name": "pricePerNightWei",
          "type": "uint64"
        },
        {
          "indexed": false,
          "internalType": "bool",
          "name": "active",
          "type": "bool"
        },
        {
          "indexed": false,
          "internalType": "string",
          "name": "dataURI",
          "type": "string"
        }
      ],
      "name": "SpaceAdded",
      "type": "event"
    },
    {
      "anonymous": false,
      "inputs": [
        {
          "indexed": false,
          "internalType": "bytes32",
          "name": "facilityId",
          "type": "bytes32"
        },
        {
          "indexed": false,
          "internalType": "uint256",
          "name": "index",
          "type": "uint256"
        },
        {
          "indexed": false,
          "internalType": "uint64",
          "name": "capacity",
          "type": "uint64"
        },
        {
          "indexed": false,
          "internalType": "uint64",
          "name": "pricePerNightWei",
          "type": "uint64"
        },
        {
          "indexed": false,
          "internalType": "bool",
          "name": "active",
          "type": "bool"
        },
        {
          "indexed": false,
          "internalType": "string",
          "name": "dataURI",
          "type": "string"
        }
      ],
      "name": "SpaceUpdated",
      "type": "event"
    },
    {
      "anonymous": false,
      "inputs": [
        {
          "indexed": true,
          "internalType": "address",
          "name": "from",
          "type": "address"
        },
        {
          "indexed": true,
          "internalType": "address",
          "name": "to",
          "type": "address"
        },
        {
          "indexed": true,
          "internalType": "uint256",
          "name": "tokenId",
          "type": "uint256"
        }
      ],
      "name": "Transfer",
      "type": "event"
    },
    {
      "anonymous": false,
      "inputs": [
        {
          "indexed": true,
          "internalType": "address",
          "name": "payee",
          "type": "address"
        },
        {
          "indexed": false,
          "internalType": "uint256",
          "name": "weiAmount",
          "type": "uint256"
        },
        {
          "indexed": false,
          "internalType": "bytes32",
          "name": "spaceId",
          "type": "bytes32"
        }
      ],
      "name": "Withdrawn",
      "type": "event"
    },
    {
      "inputs": [
        {
          "internalType": "bytes32",
          "name": "_lodgingFacilityId",
          "type": "bytes32"
        }
      ],
      "name": "activateLodgingFacility",
      "outputs": [],
      "stateMutability": "nonpayable",
      "type": "function"
    },
    {
      "inputs": [
        {
          "internalType": "bytes32",
          "name": "_lodgingFacilityId",
          "type": "bytes32"
        },
        {
          "internalType": "uint16",
          "name": "_capacity",
          "type": "uint16"
        },
        {
          "internalType": "uint64",
          "name": "_pricePerNightWei",
          "type": "uint64"
        },
        {
          "internalType": "bool",
          "name": "_active",
          "type": "bool"
        },
        {
          "internalType": "string",
          "name": "_dataURI",
          "type": "string"
        }
      ],
      "name": "addSpace",
      "outputs": [],
      "stateMutability": "nonpayable",
      "type": "function"
    },
    {
      "inputs": [
        {
          "internalType": "address",
          "name": "to",
          "type": "address"
        },
        {
          "internalType": "uint256",
          "name": "tokenId",
          "type": "uint256"
        }
      ],
      "name": "approve",
      "outputs": [],
      "stateMutability": "nonpayable",
      "type": "function"
    },
    {
      "inputs": [
        {
          "internalType": "address",
          "name": "owner",
          "type": "address"
        }
      ],
      "name": "balanceOf",
      "outputs": [
        {
          "internalType": "uint256",
          "name": "",
          "type": "uint256"
        }
      ],
      "stateMutability": "view",
      "type": "function"
    },
    {
      "inputs": [
        {
          "internalType": "uint256",
          "name": "_tokenId",
          "type": "uint256"
        }
      ],
      "name": "checkIn",
      "outputs": [],
      "stateMutability": "nonpayable",
      "type": "function"
    },
    {
      "inputs": [
        {
          "internalType": "uint256",
          "name": "_tokenId",
          "type": "uint256"
        }
      ],
      "name": "checkOut",
      "outputs": [],
      "stateMutability": "nonpayable",
      "type": "function"
    },
    {
      "inputs": [],
      "name": "dayZero",
      "outputs": [
        {
          "internalType": "uint32",
          "name": "",
          "type": "uint32"
        }
      ],
      "stateMutability": "view",
      "type": "function"
    },
    {
      "inputs": [
        {
          "internalType": "bytes32",
          "name": "_lodgingFacilityId",
          "type": "bytes32"
        }
      ],
      "name": "deactivateLodgingFacility",
      "outputs": [],
      "stateMutability": "nonpayable",
      "type": "function"
    },
    {
      "inputs": [
        {
          "internalType": "bytes32",
          "name": "_lodgingFacilityId",
          "type": "bytes32"
        }
      ],
      "name": "deleteLodgingFacility",
      "outputs": [],
      "stateMutability": "nonpayable",
      "type": "function"
    },
    {
      "inputs": [
        {
          "internalType": "address",
          "name": "payee",
          "type": "address"
        },
        {
          "internalType": "bytes32",
          "name": "spaceId",
          "type": "bytes32"
        }
      ],
      "name": "deposit",
      "outputs": [],
      "stateMutability": "payable",
      "type": "function"
    },
    {
      "inputs": [
        {
          "internalType": "address",
          "name": "payee",
          "type": "address"
        },
        {
          "internalType": "bytes32",
          "name": "spaceId",
          "type": "bytes32"
        }
      ],
      "name": "depositsOf",
      "outputs": [
        {
          "internalType": "uint256",
          "name": "",
          "type": "uint256"
        }
      ],
      "stateMutability": "view",
      "type": "function"
    },
    {
      "inputs": [
        {
          "internalType": "address",
          "name": "payee",
          "type": "address"
        },
        {
          "internalType": "bytes32",
          "name": "spaceId",
          "type": "bytes32"
        }
      ],
      "name": "depositsState",
      "outputs": [
        {
          "internalType": "enum StayEscrow.State",
          "name": "",
          "type": "uint8"
        }
      ],
      "stateMutability": "view",
      "type": "function"
    },
    {
      "inputs": [],
      "name": "getActiveLodgingFacilityIds",
      "outputs": [
        {
          "internalType": "bytes32[]",
          "name": "activeLodgingFacilityIds",
          "type": "bytes32[]"
        }
      ],
      "stateMutability": "view",
      "type": "function"
    },
    {
      "inputs": [
        {
          "internalType": "bytes32",
          "name": "_lodgingFacilityId",
          "type": "bytes32"
        }
      ],
      "name": "getActiveSpaceIdsByFacilityId",
      "outputs": [
        {
          "internalType": "bytes32[]",
          "name": "activeSpacesIds",
          "type": "bytes32[]"
        }
      ],
      "stateMutability": "view",
      "type": "function"
    },
    {
      "inputs": [],
      "name": "getAllLodgingFacilityIds",
      "outputs": [
        {
          "internalType": "bytes32[]",
          "name": "",
          "type": "bytes32[]"
        }
      ],
      "stateMutability": "view",
      "type": "function"
    },
    {
      "inputs": [
        {
          "internalType": "uint256",
          "name": "tokenId",
          "type": "uint256"
        }
      ],
      "name": "getApproved",
      "outputs": [
        {
          "internalType": "address",
          "name": "",
          "type": "address"
        }
      ],
      "stateMutability": "view",
      "type": "function"
    },
    {
      "inputs": [
        {
          "internalType": "bytes32",
          "name": "_spaceId",
          "type": "bytes32"
        },
        {
          "internalType": "uint16",
          "name": "_startDay",
          "type": "uint16"
        },
        {
          "internalType": "uint16",
          "name": "_numberOfDays",
          "type": "uint16"
        }
      ],
      "name": "getAvailability",
      "outputs": [
        {
          "internalType": "uint16[]",
          "name": "",
          "type": "uint16[]"
        }
      ],
      "stateMutability": "view",
      "type": "function"
    },
    {
      "inputs": [
        {
          "internalType": "bytes32",
          "name": "_lodgingFacilityId",
          "type": "bytes32"
        }
      ],
      "name": "getLodgingFacilityById",
      "outputs": [
        {
          "internalType": "bool",
          "name": "exists",
          "type": "bool"
        },
        {
          "internalType": "address",
          "name": "owner",
          "type": "address"
        },
        {
          "internalType": "bool",
          "name": "active",
          "type": "bool"
        },
        {
          "internalType": "string",
          "name": "dataURI",
          "type": "string"
        }
      ],
      "stateMutability": "view",
      "type": "function"
    },
    {
      "inputs": [
        {
          "internalType": "address",
          "name": "_owner",
          "type": "address"
        }
      ],
      "name": "getLodgingFacilityIdsByOwner",
      "outputs": [
        {
          "internalType": "bytes32[]",
          "name": "",
          "type": "bytes32[]"
        }
      ],
      "stateMutability": "view",
      "type": "function"
    },
    {
      "inputs": [
        {
          "internalType": "bytes32",
          "name": "_spaceId",
          "type": "bytes32"
        }
      ],
      "name": "getSpaceById",
      "outputs": [
        {
          "internalType": "bool",
          "name": "exists",
          "type": "bool"
        },
        {
          "internalType": "bytes32",
          "name": "lodgingFacilityId",
          "type": "bytes32"
        },
        {
          "internalType": "uint16",
          "name": "capacity",
          "type": "uint16"
        },
        {
          "internalType": "uint256",
          "name": "pricePerNightWei",
          "type": "uint256"
        },
        {
          "internalType": "bool",
          "name": "active",
          "type": "bool"
        },
        {
          "internalType": "string",
          "name": "dataURI",
          "type": "string"
        }
      ],
      "stateMutability": "view",
      "type": "function"
    },
    {
      "inputs": [
        {
          "internalType": "bytes32",
          "name": "_lodgingFacilityId",
          "type": "bytes32"
        }
      ],
      "name": "getSpaceIdsByFacilityId",
      "outputs": [
        {
          "internalType": "bytes32[]",
          "name": "",
          "type": "bytes32[]"
        }
      ],
      "stateMutability": "view",
      "type": "function"
    },
    {
      "inputs": [
        {
          "internalType": "address",
          "name": "owner",
          "type": "address"
        },
        {
          "internalType": "address",
          "name": "operator",
          "type": "address"
        }
      ],
      "name": "isApprovedForAll",
      "outputs": [
        {
          "internalType": "bool",
          "name": "",
          "type": "bool"
        }
      ],
      "stateMutability": "view",
      "type": "function"
    },
    {
      "inputs": [
        {
          "internalType": "bytes32",
          "name": "",
          "type": "bytes32"
        }
      ],
      "name": "lodgingFacilities",
      "outputs": [
        {
          "internalType": "address",
          "name": "owner",
          "type": "address"
        },
        {
          "internalType": "bool",
          "name": "active",
          "type": "bool"
        },
        {
          "internalType": "bool",
          "name": "exists",
          "type": "bool"
        },
        {
          "internalType": "string",
          "name": "dataURI",
          "type": "string"
        },
        {
          "internalType": "address",
          "name": "fren",
          "type": "address"
        }
      ],
      "stateMutability": "view",
      "type": "function"
    },
    {
      "inputs": [],
      "name": "lodgingFacilitySchemaURI",
      "outputs": [
        {
          "internalType": "string",
          "name": "",
          "type": "string"
        }
      ],
      "stateMutability": "view",
      "type": "function"
    },
    {
      "inputs": [],
      "name": "name",
      "outputs": [
        {
          "internalType": "string",
          "name": "",
          "type": "string"
        }
      ],
      "stateMutability": "view",
      "type": "function"
    },
    {
      "inputs": [
        {
          "internalType": "bytes32",
          "name": "_spaceId",
          "type": "bytes32"
        },
        {
          "internalType": "uint16",
          "name": "_startDay",
          "type": "uint16"
        },
        {
          "internalType": "uint16",
          "name": "_numberOfDays",
          "type": "uint16"
        },
        {
          "internalType": "uint16",
          "name": "_quantity",
          "type": "uint16"
        }
      ],
      "name": "newStay",
      "outputs": [
        {
          "internalType": "uint256",
          "name": "",
          "type": "uint256"
        }
      ],
      "stateMutability": "payable",
      "type": "function"
    },
    {
      "inputs": [
        {
          "internalType": "uint256",
          "name": "tokenId",
          "type": "uint256"
        }
      ],
      "name": "ownerOf",
      "outputs": [
        {
          "internalType": "address",
          "name": "",
          "type": "address"
        }
      ],
      "stateMutability": "view",
      "type": "function"
    },
    {
      "inputs": [
        {
          "internalType": "string",
          "name": "_dataURI",
          "type": "string"
        },
        {
          "internalType": "bool",
          "name": "_active",
          "type": "bool"
        }
      ],
      "name": "registerLodgingFacility",
      "outputs": [],
      "stateMutability": "nonpayable",
      "type": "function"
    },
    {
      "inputs": [
        {
          "internalType": "string",
          "name": "_dataURI",
          "type": "string"
        },
        {
          "internalType": "bool",
          "name": "_active",
          "type": "bool"
        },
        {
          "internalType": "address",
          "name": "_fren",
          "type": "address"
        }
      ],
      "name": "registerLodgingFacility",
      "outputs": [],
      "stateMutability": "nonpayable",
      "type": "function"
    },
    {
      "inputs": [
        {
          "internalType": "address",
          "name": "from",
          "type": "address"
        },
        {
          "internalType": "address",
          "name": "to",
          "type": "address"
        },
        {
          "internalType": "uint256",
          "name": "tokenId",
          "type": "uint256"
        }
      ],
      "name": "safeTransferFrom",
      "outputs": [],
      "stateMutability": "nonpayable",
      "type": "function"
    },
    {
      "inputs": [
        {
          "internalType": "address",
          "name": "from",
          "type": "address"
        },
        {
          "internalType": "address",
          "name": "to",
          "type": "address"
        },
        {
          "internalType": "uint256",
          "name": "tokenId",
          "type": "uint256"
        },
        {
          "internalType": "bytes",
          "name": "_data",
          "type": "bytes"
        }
      ],
      "name": "safeTransferFrom",
      "outputs": [],
      "stateMutability": "nonpayable",
      "type": "function"
    },
    {
      "inputs": [
        {
          "internalType": "address",
          "name": "operator",
          "type": "address"
        },
        {
          "internalType": "bool",
          "name": "approved",
          "type": "bool"
        }
      ],
      "name": "setApprovalForAll",
      "outputs": [],
      "stateMutability": "nonpayable",
      "type": "function"
    },
    {
      "inputs": [],
      "name": "spaceSchemaURI",
      "outputs": [
        {
          "internalType": "string",
          "name": "",
          "type": "string"
        }
      ],
      "stateMutability": "view",
      "type": "function"
    },
    {
      "inputs": [
        {
          "internalType": "bytes32",
          "name": "",
          "type": "bytes32"
        }
      ],
      "name": "spaces",
      "outputs": [
        {
          "internalType": "bytes32",
          "name": "lodgingFacilityId",
          "type": "bytes32"
        },
        {
          "internalType": "uint16",
          "name": "capacity",
          "type": "uint16"
        },
        {
          "internalType": "uint256",
          "name": "pricePerNightWei",
          "type": "uint256"
        },
        {
          "internalType": "bool",
          "name": "active",
          "type": "bool"
        },
        {
          "internalType": "bool",
          "name": "exists",
          "type": "bool"
        },
        {
          "internalType": "string",
          "name": "dataURI",
          "type": "string"
        }
      ],
      "stateMutability": "view",
      "type": "function"
    },
    {
      "inputs": [],
      "name": "staySchemaURI",
      "outputs": [
        {
          "internalType": "string",
          "name": "",
          "type": "string"
        }
      ],
      "stateMutability": "view",
      "type": "function"
    },
    {
      "inputs": [
        {
          "internalType": "bytes4",
          "name": "interfaceId",
          "type": "bytes4"
        }
      ],
      "name": "supportsInterface",
      "outputs": [
        {
          "internalType": "bool",
          "name": "",
          "type": "bool"
        }
      ],
      "stateMutability": "view",
      "type": "function"
    },
    {
      "inputs": [],
      "name": "symbol",
      "outputs": [
        {
          "internalType": "string",
          "name": "",
          "type": "string"
        }
      ],
      "stateMutability": "view",
      "type": "function"
    },
    {
      "inputs": [
        {
          "internalType": "uint256",
          "name": "tokenId",
          "type": "uint256"
        }
      ],
      "name": "tokenURI",
      "outputs": [
        {
          "internalType": "string",
          "name": "",
          "type": "string"
        }
      ],
      "stateMutability": "view",
      "type": "function"
    },
    {
      "inputs": [
        {
          "internalType": "address",
          "name": "from",
          "type": "address"
        },
        {
          "internalType": "address",
          "name": "to",
          "type": "address"
        },
        {
          "internalType": "uint256",
          "name": "tokenId",
          "type": "uint256"
        }
      ],
      "name": "transferFrom",
      "outputs": [],
      "stateMutability": "nonpayable",
      "type": "function"
    },
    {
      "inputs": [
        {
          "internalType": "bytes32",
          "name": "_lodgingFacilityId",
          "type": "bytes32"
        },
        {
          "internalType": "string",
          "name": "_newDataURI",
          "type": "string"
        }
      ],
      "name": "updateLodgingFacility",
      "outputs": [],
      "stateMutability": "nonpayable",
      "type": "function"
    },
    {
      "inputs": [
        {
          "internalType": "uint256",
          "name": "_spaceIndex",
          "type": "uint256"
        },
        {
          "internalType": "uint16",
          "name": "_capacity",
          "type": "uint16"
        },
        {
          "internalType": "uint64",
          "name": "_pricePerNightWei",
          "type": "uint64"
        },
        {
          "internalType": "bool",
          "name": "_active",
          "type": "bool"
        },
        {
          "internalType": "string",
          "name": "_dataURI",
          "type": "string"
        }
      ],
      "name": "updateSpace",
      "outputs": [],
      "stateMutability": "nonpayable",
      "type": "function"
    },
    {
      "inputs": [
        {
          "internalType": "bytes32",
          "name": "_lodgingFacilityId",
          "type": "bytes32"
        },
        {
          "internalType": "address",
          "name": "_newOwner",
          "type": "address"
        }
      ],
      "name": "yieldLodgingFacility",
      "outputs": [],
      "stateMutability": "nonpayable",
      "type": "function"
    }
  ],
  "transactionHash": "0x64d013d199dcb7f2865a6b6ab99da15db29efc30c98f9cad5a99e1d138b48eea",
  "args": [],
  "numDeployments": 1,
  "solcInputHash": "38a59fc4f256aecdfafac7a196264e36",
  "bytecode": "0x60806040523480156200001157600080fd5b50604080518082018252600b81526a45746852696f537461797360a81b60208083019182528351808501909452600584526422a929991960d91b908401528151919291620000629160029162000081565b5080516200007890600390602084019062000081565b50505062000164565b8280546200008f9062000127565b90600052602060002090601f016020900481019282620000b35760008555620000fe565b82601f10620000ce57805160ff1916838001178555620000fe565b82800160010185558215620000fe579182015b82811115620000fe578251825591602001919060010190620000e1565b506200010c92915062000110565b5090565b5b808211156200010c576000815560010162000111565b600181811c908216806200013c57607f821691505b602082108114156200015e57634e487b7160e01b600052602260045260246000fd5b50919050565b6149d880620001746000396000f3fe60806040526004361061024f5760003560e01c806370a0823111610139578063b9e1aa03116100b6578063e95a644f1161007a578063e95a644f1461073d578063e985e9c51461075d578063e994529e146107a6578063f7cdbc9d146107d8578063ffae7415146107f8578063ffc1e09a1461082957600080fd5b8063b9e1aa03146106ea578063c87b56dd146106fd578063cf63247e146104a1578063e1e33b9c1461071d578063e3aae3a5146104a157600080fd5b8063a22cb465116100fd578063a22cb46514610655578063a468803214610675578063a6bce27b14610695578063b38759fd146106b5578063b88d4fde146106ca57600080fd5b806370a08231146105b35780638f201f5f146105d35780639518f5fa146105f357806395d89b41146106135780639ff682141461062857600080fd5b806323b872dd116101d2578063462ef5ed11610196578063462ef5ed146104a15780634c18a8ec146104c45780635b5d206d146104f45780636352211e14610521578063650ba0a3146105415780636a22dd261461059357600080fd5b806323b872dd146103ec578063342df9b21461040c5780633c5754be1461043e57806342842e0e14610461578063438c9cab1461048157600080fd5b8063095ea7b311610219578063095ea7b31461032b5780631aa9e7421461034b5780631bd2eeee146103995780631be378de146103b95780631bf7509b146103cc57600080fd5b806244253614610254578062d34b541461027657806301ffc9a7146102a157806306fdde03146102d1578063081812fc146102f3575b600080fd5b34801561026057600080fd5b5061027461026f366004613e28565b610849565b005b34801561028257600080fd5b5061028b6108eb565b6040516102989190614443565b60405180910390f35b3480156102ad57600080fd5b506102c16102bc366004613fb6565b6109ec565b6040519015158152602001610298565b3480156102dd57600080fd5b506102e6610a3e565b60405161029891906145fb565b3480156102ff57600080fd5b5061031361030e366004613e28565b610ad0565b6040516001600160a01b039091168152602001610298565b34801561033757600080fd5b50610274610346366004613dfe565b610b58565b34801561035757600080fd5b5061038b610366366004613dfe565b6000908152602081815260408083206001600160a01b03949094168352929052205490565b604051908152602001610298565b3480156103a557600080fd5b506102746103b4366004613e28565b610c6e565b61038b6103c7366004613eeb565b610e32565b3480156103d857600080fd5b5061028b6103e7366004613c6f565b611130565b3480156103f857600080fd5b50610274610407366004613cbd565b61119c565b34801561041857600080fd5b5061042c610427366004613e28565b6111cd565b604051610298969594939291906144f7565b34801561044a57600080fd5b50610274610459366004613f38565b505050505050565b34801561046d57600080fd5b5061027461047c366004613cbd565b6112a1565b34801561048d57600080fd5b5061027461049c366004613e64565b6112bc565b3480156104ad57600080fd5b506102e66040518060200160405280600081525081565b3480156104d057600080fd5b506104e46104df366004613e28565b61134d565b60405161029894939291906144c3565b34801561050057600080fd5b5061051461050f366004613eaf565b611419565b6040516102989190614487565b34801561052d57600080fd5b5061031361053c366004613e28565b611601565b34801561054d57600080fd5b5061058661055c366004613dfe565b60009081526001602090815260408083206001600160a01b03949094168352929052205460ff1690565b60405161029891906145d3565b34801561059f57600080fd5b506102746105ae366004613e28565b611678565b3480156105bf57600080fd5b5061038b6105ce366004613c6f565b611704565b3480156105df57600080fd5b506102746105ee366004613e41565b61178b565b3480156105ff57600080fd5b5061028b61060e366004613e28565b61184c565b34801561061f57600080fd5b506102e66118ac565b34801561063457600080fd5b506106406362155d6e81565b60405163ffffffff9091168152602001610298565b34801561066157600080fd5b50610274610670366004613dd4565b6118bb565b34801561068157600080fd5b50610274610690366004613e28565b6118ca565b3480156106a157600080fd5b506102746106b0366004613f38565b611968565b3480156106c157600080fd5b5061028b611bc4565b3480156106d657600080fd5b506102746106e5366004613cf9565b611c1b565b6102746106f8366004613dfe565b611c53565b34801561070957600080fd5b506102e6610718366004613e28565b611c5d565b34801561072957600080fd5b50610274610738366004613ff0565b611dcc565b34801561074957600080fd5b50610274610758366004613e28565b611dd9565b34801561076957600080fd5b506102c1610778366004613c8a565b6001600160a01b03918216600090815260076020908152604080832093909416825291909152205460ff1690565b3480156107b257600080fd5b506107c66107c1366004613e28565b611f2d565b6040516102989695949392919061455f565b3480156107e457600080fd5b506102746107f336600461403a565b611ffa565b34801561080457600080fd5b50610818610813366004613e28565b612270565b6040516102989594939291906143fc565b34801561083557600080fd5b5061028b610844366004613e28565b612343565b6000818152600c602052604090205481906001600160a01b0316336001600160a01b0316146108935760405162461bcd60e51b815260040161088a90614660565b60405180910390fd5b6000828152600c60209081526040808320805460ff60a01b191690558051858152918201929092527f5c33859dfe8722791b5d72ad942a0895181f8a694288ec429394f620de15032091015b60405180910390a15050565b60606108f561249b565b6001600160401b0381111561090c5761090c614914565b604051908082528060200260200182016040528015610935578160200160208202803683370190505b5090506000805b600a548110156109e757600c6000600a838154811061095d5761095d6148fe565b9060005260206000200154815260200190815260200160002060000160149054906101000a900460ff16156109d557600a818154811061099f5761099f6148fe565b90600052602060002001548383815181106109bc576109bc6148fe565b6020908102919091010152816109d18161488d565b9250505b806109df8161488d565b91505061093c565b505090565b60006001600160e01b031982166380ac58cd60e01b1480610a1d57506001600160e01b03198216635b5e139f60e01b145b80610a3857506301ffc9a760e01b6001600160e01b03198316145b92915050565b606060028054610a4d90614830565b80601f0160208091040260200160405190810160405280929190818152602001828054610a7990614830565b8015610ac65780601f10610a9b57610100808354040283529160200191610ac6565b820191906000526020600020905b815481529060010190602001808311610aa957829003601f168201915b5050505050905090565b6000610adb82612513565b610b3c5760405162461bcd60e51b815260206004820152602c60248201527f4552433732313a20617070726f76656420717565727920666f72206e6f6e657860448201526b34b9ba32b73a103a37b5b2b760a11b606482015260840161088a565b506000908152600660205260409020546001600160a01b031690565b6000610b6382611601565b9050806001600160a01b0316836001600160a01b03161415610bd15760405162461bcd60e51b815260206004820152602160248201527f4552433732313a20617070726f76616c20746f2063757272656e74206f776e656044820152603960f91b606482015260840161088a565b336001600160a01b0382161480610bed5750610bed8133610778565b610c5f5760405162461bcd60e51b815260206004820152603860248201527f4552433732313a20617070726f76652063616c6c6572206973206e6f74206f7760448201527f6e6572206e6f7220617070726f76656420666f7220616c6c0000000000000000606482015260840161088a565b610c698383612530565b505050565b60008181526010602052604090206001810154600160381b900460ff1615610cce5760405162461bcd60e51b8152602060048201526013602482015272105b1c9958591e4818da1958dad959081bdd5d606a1b604482015260640161088a565b80546000818152600e60209081526040808320548352600c9091529020546001600160a01b0316338114610d445760405162461bcd60e51b815260206004820152601b60248201527f4f6e6c79207370616365206f776e657220697320616c6c6f7765640000000000604482015260640161088a565b60018301544290610d619061ffff620100008204811691166146f7565b610d729061ffff1662015180614789565b610d859062ffffff166362155d6e61472c565b63ffffffff161015610dd95760405162461bcd60e51b815260206004820152601e60248201527f466f7262696464656e20756e6c65737320636865636b6f757420646174650000604482015260640161088a565b60018301805460ff60381b1916600160381b179055610df8818361259e565b6040518481527f2c276699fefbad45f18509233bc03bb9cfdf41b18f32756933188bdef35fef55906020015b60405180910390a150505050565b6000610e43858561ffff16856125a8565b6000858152600e602052604081206002810154909190610e63858761475f565b61ffff16610e7191906147ab565b905080341015610eb85760405162461bcd60e51b81526020600482015260126024820152714e6565642e204d6f72652e204d6f6e65792160701b604482015260640161088a565b60005b8561ffff168161ffff161015610fcd576000888152600f6020526040812061ffff871691610ee9848b6146f7565b61ffff90811682526020820192909252604001600020546001860154610f139291821691166147ca565b61ffff161015610f5e5760405162461bcd60e51b8152602060048201526016602482015275496e73756666696369656e7420696e76656e746f727960501b604482015260640161088a565b6000888152600f602052604081208691610f78848b6146f7565b61ffff90811682526020820192909252604001600090812080549092610fa0918591166146f7565b92506101000a81548161ffff021916908361ffff1602179055508080610fc59061486b565b915050610ebb565b50610fd83388611c53565b610fe6600980546001019055565b6000610ff160095490565b9050610ffd338261273c565b60006110118285600001548b8b8b8b612756565b905061101d82826127f7565b6040805160c0810182528a815261ffff808b1660208084019182528b83168486019081528b84166060860190815260006080870181815260a088018281528b8352601090955290889020965187559351600196909601805492519151945193511515600160381b0260ff60381b19941515600160301b0266ff00000000000019968816640100000000029690961666ffffff0000000019938816620100000263ffffffff1990951698909716979097179290921716939093179190911716919091179055517fe04083eb622e3cb7d063f319076c83270c24acb409a3bc13abcfb36af60f86179061111a908b908590918252602082015260400190565b60405180910390a150925050505b949350505050565b6001600160a01b0381166000908152600b602090815260409182902080548351818402810184019094528084526060939283018282801561119057602002820191906000526020600020905b81548152602001906001019080831161117c575b50505050509050919050565b6111a63382612882565b6111c25760405162461bcd60e51b815260040161088a906146a6565b610c69838383612968565b6000818152600e60205260409020600381015481546001830154600284015460048501805460ff6101008704811697959661ffff9095169593941692606092909161121790614830565b80601f016020809104026020016040519081016040528092919081815260200182805461124390614830565b80156112905780601f1061126557610100808354040283529160200191611290565b820191906000526020600020905b81548152906001019060200180831161127357829003601f168201915b505050505091505091939550919395565b610c6983838360405180602001604052806000815250611c1b565b6000838152600c602052604090205483906001600160a01b0316336001600160a01b0316146112fd5760405162461bcd60e51b815260040161088a90614660565b6000848152600c60205260409020611319906001018484613ac9565b507fb252d91e8d424ba6f9f1647d21d7b0bbd8e2a3cbb318aaecb0d735fba9f62c7f848484604051610e249392919061453c565b6000818152600c60205260409020805460018201805460ff600160a81b84048116946001600160a01b03851694600160a01b90049091169260609261139190614830565b80601f01602080910402602001604051908101604052809291908181526020018280546113bd90614830565b801561140a5780601f106113df5761010080835404028352916020019161140a565b820191906000526020600020905b8154815290600101906020018083116113ed57829003601f168201915b50505050509150509193509193565b606061142a848461ffff16846125a8565b6000848152600e60209081526040808320815160c08101835281548152600182015461ffff1693810193909352600281015491830191909152600381015460ff80821615156060850152610100909104161515608083015260048101805460a08401919061149790614830565b80601f01602080910402602001604051908101604052809291908181526020018280546114c390614830565b80156115105780601f106114e557610100808354040283529160200191611510565b820191906000526020600020905b8154815290600101906020018083116114f357829003601f168201915b505050505081525050905060008361ffff166001600160401b0381111561153957611539614914565b604051908082528060200260200182016040528015611562578160200160208202803683370190505b50905060005b8461ffff168161ffff1610156115f7576000878152600f602052604081209061159183896146f7565b61ffff9081168252602080830193909352604090910160002054918501516115bc92909116906147ca565b828261ffff16815181106115d2576115d26148fe565b61ffff90921660209283029190910190910152806115ef8161486b565b915050611568565b5095945050505050565b6000818152600460205260408120546001600160a01b031680610a385760405162461bcd60e51b815260206004820152602960248201527f4552433732313a206f776e657220717565727920666f72206e6f6e657869737460448201526832b73a103a37b5b2b760b91b606482015260840161088a565b6000818152600c602052604090205481906001600160a01b0316336001600160a01b0316146116b95760405162461bcd60e51b815260040161088a90614660565b6000828152600c602052604090819020805460ff60a81b19169055517f9cb52f05776b0f321eb9ca8c9e1b26b978036072417bf384bd406189f43864f8906108df9084815260200190565b60006001600160a01b03821661176f5760405162461bcd60e51b815260206004820152602a60248201527f4552433732313a2062616c616e636520717565727920666f7220746865207a65604482015269726f206164647265737360b01b606482015260840161088a565b506001600160a01b031660009081526005602052604090205490565b6000828152600c602052604090205482906001600160a01b0316336001600160a01b0316146117cc5760405162461bcd60e51b815260040161088a90614660565b6000838152600c60209081526040918290205491518581526001600160a01b038581169316917f11a520c5c4bfade8b450399ea67096dba36478d23d9a45f02e32989cfe307dde910160405180910390a3506000918252600c602052604090912080546001600160a01b0319166001600160a01b03909216919091179055565b6000818152600d6020908152604091829020805483518184028101840190945280845260609392830182828015611190576020028201919060005260206000209081548152602001906001019080831161117c5750505050509050919050565b606060038054610a4d90614830565b6118c6338383612b04565b5050565b6000818152600c602052604090205481906001600160a01b0316336001600160a01b03161461190b5760405162461bcd60e51b815260040161088a90614660565b6000828152600c602052604090819020805460ff60a01b1916600160a01b179055517f5c33859dfe8722791b5d72ad942a0895181f8a694288ec429394f620de150320906108df9084906001909182521515602082015260400190565b8561197281612bd3565b6119948160405180606001604052806022815260200161494160229139612c3b565b6119d383838080601f016020809104026020016040519081016040528093929190818152602001838380828437600092019190915250612c7492505050565b60008184846040516020016119ea93929190614130565b60408051808303601f1901815291815281516020928301206000818152600e909352912060030154909150610100900460ff1615611a615760405162461bcd60e51b8152602060048201526014602482015273537061636520616c72656164792065786973747360601b604482015260640161088a565b6040518060c001604052808381526020018861ffff168152602001876001600160401b03168152602001861515815260200160011515815260200185858080601f0160208091040260200160405190810160405280939291908181526020018383808284376000920182905250939094525050838152600e6020908152604091829020845181558482015160018201805461ffff90921661ffff199283161790559285015160028201556060850151600382018054608088015115156101000261ff0019931515939093169516949094171790925560a08401518051929350611b539260048501929190910190613b49565b5050506000828152600d6020908152604080832080546001810182559084529190922001829055517f7993127b29bb7eb5c740a2bdf13dbe1721be38172db915f7767aefe0bae7936e90611bb29084908a908a908a908a908a90614598565b60405180910390a15050505050505050565b6060600a805480602002602001604051908101604052809291908181526020018280548015610ac657602002820191906000526020600020905b815481526020019060010190808311611bfe575050505050905090565b611c253383612882565b611c415760405162461bcd60e51b815260040161088a906146a6565b611c4d84848484612cc5565b50505050565b6118c68282612cf8565b6060611c6882612513565b611cce5760405162461bcd60e51b815260206004820152603160248201527f45524337323155524953746f726167653a2055524920717565727920666f72206044820152703737b732bc34b9ba32b73a103a37b5b2b760791b606482015260840161088a565b60008281526008602052604081208054611ce790614830565b80601f0160208091040260200160405190810160405280929190818152602001828054611d1390614830565b8015611d605780601f10611d3557610100808354040283529160200191611d60565b820191906000526020600020905b815481529060010190602001808311611d4357829003601f168201915b505050505090506000611d7e60408051602081019091526000815290565b9050805160001415611d91575092915050565b815115611dc3578082604051602001611dab92919061414a565b60405160208183030381529060405292505050919050565b61112884612d98565b610c698383836000611ffa565b80611de381611601565b6001600160a01b0316336001600160a01b031614611e435760405162461bcd60e51b815260206004820181905260248201527f4f6e6c79207374617920746f6b656e206f776e657220697320616c6c6f776564604482015260640161088a565b60008281526010602052604090206001810154600160301b900460ff1615611ea25760405162461bcd60e51b815260206004820152601260248201527120b63932b0b23c9031b432b1b5b2b21034b760711b604482015260640161088a565b80546000818152600e60209081526040808320600281015460018701805466ff0000000000001916600160301b17905590548452600c90925290912054611ef3906001600160a01b03168284612e70565b6040518581527fdf06c27528e294967ba5e32e69b9c5fe102a58c699c44740c2c4c6afc71925359060200160405180910390a15050505050565b600e6020526000908152604090208054600182015460028301546003840154600485018054949561ffff90941694929360ff808416946101009094041692909190611f7790614830565b80601f0160208091040260200160405190810160405280929190818152602001828054611fa390614830565b8015611ff05780601f10611fc557610100808354040283529160200191611ff0565b820191906000526020600020905b815481529060010190602001808311611fd357829003601f168201915b5050505050905086565b61203984848080601f016020809104026020016040519081016040528093929190818152602001838380828437600092019190915250612c7492505050565b600033858560405160200161205093929190614104565b60408051808303601f1901815291815281516020928301206000818152600c909352912054909150600160a81b900460ff16156120cf5760405162461bcd60e51b815260206004820152601760248201527f466163696c69747920616c726561647920657869737473000000000000000000604482015260640161088a565b6040518060a001604052806120e13390565b6001600160a01b03168152602001841515815260200160011515815260200186868080601f01602080910402602001604051908101604052809392919081815260200183838082843760009201829052509385525050506001600160a01b03808616602093840152848252600c83526040918290208451815486860151948701511515600160a81b0260ff60a81b19951515600160a01b026001600160a81b0319909216929094169190911717929092161781556060830151805191926121b092600185019290910190613b49565b5060809190910151600290910180546001600160a01b0319166001600160a01b03909216919091179055600a805460018181019092557fc65a7bb8d6351c1cf70c95a316cc6a92839c986682d98bc35f958f4883f9d2a801829055336000818152600b60209081526040808320805495860181558352912090920183905590517f28c9a25063d40c8cf423202182ed575cc97982c1fd1771bd9721e19a38cc491d906122619084908990899061453c565b60405180910390a25050505050565b600c60205260009081526040902080546001820180546001600160a01b0383169360ff600160a01b8504811694600160a81b9004169290916122b190614830565b80601f01602080910402602001604051908101604052809291908181526020018280546122dd90614830565b801561232a5780601f106122ff5761010080835404028352916020019161232a565b820191906000526020600020905b81548152906001019060200180831161230d57829003601f168201915b505050600290930154919250506001600160a01b031685565b606061234e82612eed565b6001600160401b0381111561236557612365614914565b60405190808252806020026020018201604052801561238e578160200160208202803683370190505b506000838152600d60209081526040808320805482518185028101850190935280835294955092939092918301828280156123e857602002820191906000526020600020905b8154815260200190600101908083116123d4575b50505050509050600080600090505b825181101561249357600e6000848381518110612416576124166148fe565b60209081029190910181015182528101919091526040016000206003015460ff16156124815782818151811061244e5761244e6148fe565b6020026020010151848381518110612468576124686148fe565b60209081029190910101528161247d8161488d565b9250505b8061248b8161488d565b9150506123f7565b505050919050565b6000805b600a5481101561250f57600c6000600a83815481106124c0576124c06148fe565b9060005260206000200154815260200190815260200160002060000160149054906101000a900460ff16156124fd57816124f98161488d565b9250505b806125078161488d565b91505061249f565b5090565b6000908152600460205260409020546001600160a01b0316151590565b600081815260066020526040902080546001600160a01b0319166001600160a01b038416908117909155819061256582611601565b6001600160a01b03167f8c5be1e5ebec7d5bd14f71427d1e84f3dd0314c0f7b2291e5b200ac8c7c3b92560405160405180910390a45050565b6118c68282612f6a565b6125b56202a300426147ed565b6125c283620151806147ab565b6125d0906362155d6e614714565b116126165760405162461bcd60e51b8152602060048201526016602482015275111bdb89dd081cdd185e481a5b881d1a19481c185cdd60521b604482015260640161088a565b6000838152600e60209081526040808320548352600c909152902054600160a01b900460ff166126885760405162461bcd60e51b815260206004820152601c60248201527f4c6f6467696e6720466163696c69747920697320696e61637469766500000000604482015260640161088a565b6000838152600e602052604090206003015460ff166126dd5760405162461bcd60e51b8152602060048201526011602482015270537061636520697320696e61637469766560781b604482015260640161088a565b60008161ffff1611610c695760405162461bcd60e51b815260206004820152602260248201527f4e756d626572206f6620646179732073686f756c642062652031206f72206d6f604482015261726560f01b606482015260840161088a565b6118c68282604051806020016040528060008152506130d4565b606060006127c861276689613107565b61276f89613204565b61277889613204565b6127858961ffff16613107565b6127928961ffff16613107565b61279f8961ffff16613107565b6040516020016127b496959493929190614179565b604051602081830303815290604052613250565b9050806040516020016127db919061437a565b6040516020818303038152906040529150509695505050505050565b61280082612513565b6128635760405162461bcd60e51b815260206004820152602e60248201527f45524337323155524953746f726167653a2055524920736574206f66206e6f6e60448201526d32bc34b9ba32b73a103a37b5b2b760911b606482015260840161088a565b60008281526008602090815260409091208251610c6992840190613b49565b600061288d82612513565b6128ee5760405162461bcd60e51b815260206004820152602c60248201527f4552433732313a206f70657261746f7220717565727920666f72206e6f6e657860448201526b34b9ba32b73a103a37b5b2b760a11b606482015260840161088a565b60006128f983611601565b9050806001600160a01b0316846001600160a01b031614806129345750836001600160a01b031661292984610ad0565b6001600160a01b0316145b8061112857506001600160a01b0380821660009081526007602090815260408083209388168352929052205460ff16611128565b826001600160a01b031661297b82611601565b6001600160a01b0316146129df5760405162461bcd60e51b815260206004820152602560248201527f4552433732313a207472616e736665722066726f6d20696e636f72726563742060448201526437bbb732b960d91b606482015260840161088a565b6001600160a01b038216612a415760405162461bcd60e51b8152602060048201526024808201527f4552433732313a207472616e7366657220746f20746865207a65726f206164646044820152637265737360e01b606482015260840161088a565b612a4c600082612530565b6001600160a01b0383166000908152600560205260408120805460019290612a759084906147ed565b90915550506001600160a01b0382166000908152600560205260408120805460019290612aa3908490614714565b909155505060008181526004602052604080822080546001600160a01b0319166001600160a01b0386811691821790925591518493918716917fddf252ad1be2c89b69c2b068fc378daa952ba7f163c4a11628f55a4df523b3ef91a4505050565b816001600160a01b0316836001600160a01b03161415612b665760405162461bcd60e51b815260206004820152601960248201527f4552433732313a20617070726f766520746f2063616c6c657200000000000000604482015260640161088a565b6001600160a01b03838116600081815260076020908152604080832094871680845294825291829020805460ff191686151590811790915591519182527f17307eab39ab6107e8899845ad3d59bd9653f200f220920489ca2b5937696c31910160405180910390a3505050565b6000818152600c6020526040902054600160a81b900460ff16612c385760405162461bcd60e51b815260206004820152601760248201527f466163696c69747920646f6573206e6f74206578697374000000000000000000604482015260640161088a565b50565b6000828152600c602052604090205481906001600160a01b03163314610c695760405162461bcd60e51b815260040161088a91906145fb565b6000815111612c385760405162461bcd60e51b815260206004820152601960248201527f4461746120555249206d7573742062652070726f766964656400000000000000604482015260640161088a565b612cd0848484612968565b612cdc848484846133a3565b611c4d5760405162461bcd60e51b815260040161088a9061460e565b6000818152602081815260408083206001600160a01b0386168452909152812080543492839291612d2a908490614714565b909155505060008281526001602090815260408083206001600160a01b03871680855290835292819020805460ff1916905580518481529182018590527fd7eda976cf4919f13172eb15bb39c64cecb7172258c741dab31d14c855eff40291015b60405180910390a2505050565b6060612da382612513565b612e075760405162461bcd60e51b815260206004820152602f60248201527f4552433732314d657461646174613a2055524920717565727920666f72206e6f60448201526e3732bc34b9ba32b73a103a37b5b2b760891b606482015260840161088a565b6000612e1e60408051602081019091526000815290565b90506000815111612e3e5760405180602001604052806000815250612e69565b80612e48846134ad565b604051602001612e5992919061414a565b6040516020818303038152906040525b9392505050565b6000818152600e6020526040902060020154821115612ee25760405162461bcd60e51b815260206004820152602860248201527f576974686472617720616d6f756e74206e6f7420616c6c6f777320696e207468604482015267697320737461746560c01b606482015260840161088a565b610c698383836135aa565b6000818152600d60205260408120815b8154811015612f6357600e6000838381548110612f1c57612f1c6148fe565b6000918252602080832090910154835282019290925260400190206003015460ff1615612f515782612f4d8161488d565b9350505b80612f5b8161488d565b915050612efd565b5050919050565b6000818152602081815260408083206001600160a01b038616845290915290205480612fcd5760405162461bcd60e51b8152602060048201526012602482015271496e73756666696369656e742066756e647360701b604482015260640161088a565b60008281526001602081815260408084206001600160a01b03881685529091529091205460ff1681811115613004576130046148e8565b146130655760405162461bcd60e51b815260206004820152602b60248201527f436f6d706c657465207769746864726177206e6f7420616c6c6f77656420696e60448201526a207468697320737461746560a81b606482015260840161088a565b6000828152602081815260408083206001600160a01b038716808552925282209190915561309390826136cb565b60408051828152602081018490526001600160a01b038516917f510b30a02fc9b7506980950b9c615af8c13e88658555c0ea22acffd73d9ea2229101612d8b565b6130de83836137e4565b6130eb60008484846133a3565b610c695760405162461bcd60e51b815260040161088a9061460e565b60608161312b5750506040805180820190915260018152600360fc1b602082015290565b8160005b8115613155578061313f8161488d565b915061314e9050600a8361474b565b915061312f565b6000816001600160401b0381111561316f5761316f614914565b6040519080825280601f01601f191660200182016040528015613199576020820181803683370190505b5090505b8415611128576131ae6001836147ed565b91506131bb600a866148a8565b6131c6906030614714565b60f81b8183815181106131db576131db6148fe565b60200101906001600160f81b031916908160001a9053506131fd600a8661474b565b945061319d565b606061320f82613917565b61321c608084901b613917565b60405161060f60f31b6020820152602281019290925260428201526062016040516020818303038152906040529050919050565b606081516000141561327057505060408051602081019091526000815290565b6000604051806060016040528060408152602001614963604091399050600060038451600261329f9190614714565b6132a9919061474b565b6132b49060046147ab565b6001600160401b038111156132cb576132cb614914565b6040519080825280601f01601f1916602001820160405280156132f5576020820181803683370190505b509050600182016020820185865187015b80821015613361576003820191508151603f8160121c168501518453600184019350603f81600c1c168501518453600184019350603f8160061c168501518453600184019350603f8116850151845350600183019250613306565b505060038651066001811461337d576002811461339057613398565b603d6001830353603d6002830353613398565b603d60018303535b509195945050505050565b60006001600160a01b0384163b156134a557604051630a85bd0160e11b81526001600160a01b0385169063150b7a02906133e79033908990889088906004016143bf565b602060405180830381600087803b15801561340157600080fd5b505af1925050508015613431575060408051601f3d908101601f1916820190925261342e91810190613fd3565b60015b61348b573d80801561345f576040519150601f19603f3d011682016040523d82523d6000602084013e613464565b606091505b5080516134835760405162461bcd60e51b815260040161088a9061460e565b805181602001fd5b6001600160e01b031916630a85bd0160e11b149050611128565b506001611128565b6060816134d15750506040805180820190915260018152600360fc1b602082015290565b8160005b81156134fb57806134e58161488d565b91506134f49050600a8361474b565b91506134d5565b6000816001600160401b0381111561351557613515614914565b6040519080825280601f01601f19166020018201604052801561353f576020820181803683370190505b5090505b8415611128576135546001836147ed565b9150613561600a866148a8565b61356c906030614714565b60f81b818381518110613581576135816148fe565b60200101906001600160f81b031916908160001a9053506135a3600a8661474b565b9450613543565b6000818152602081815260408083206001600160a01b038716845290915290205482101561360f5760405162461bcd60e51b8152602060048201526012602482015271496e73756666696369656e742066756e647360701b604482015260640161088a565b6000818152602081815260408083206001600160a01b038716845290915290205461363b9083906147ed565b6000828152602081815260408083206001600160a01b038816808552908352818420949094558483526001808352818420858552909252909120805460ff1916909117905561368a90836136cb565b60408051838152602081018390526001600160a01b038516917f510b30a02fc9b7506980950b9c615af8c13e88658555c0ea22acffd73d9ea2229101612d8b565b8047101561371b5760405162461bcd60e51b815260206004820152601d60248201527f416464726573733a20696e73756666696369656e742062616c616e6365000000604482015260640161088a565b6000826001600160a01b03168260405160006040518083038185875af1925050503d8060008114613768576040519150601f19603f3d011682016040523d82523d6000602084013e61376d565b606091505b5050905080610c695760405162461bcd60e51b815260206004820152603a60248201527f416464726573733a20756e61626c6520746f2073656e642076616c75652c207260448201527f6563697069656e74206d61792068617665207265766572746564000000000000606482015260840161088a565b6001600160a01b03821661383a5760405162461bcd60e51b815260206004820181905260248201527f4552433732313a206d696e7420746f20746865207a65726f2061646472657373604482015260640161088a565b61384381612513565b156138905760405162461bcd60e51b815260206004820152601c60248201527f4552433732313a20746f6b656e20616c7265616479206d696e74656400000000604482015260640161088a565b6001600160a01b03821660009081526005602052604081208054600192906138b9908490614714565b909155505060008181526004602052604080822080546001600160a01b0319166001600160a01b03861690811790915590518392907fddf252ad1be2c89b69c2b068fc378daa952ba7f163c4a11628f55a4df523b3ef908290a45050565b7aff00000000000000ff00000000000000ff00000000000000ff00006bffffffff0000000000000000604083901c90811663ffffffff60c01b84161760201c63ffffffff60601b919091166001600160e01b031984161717601081901c9182167eff00000000000000ff00000000000000ff00000000000000ff000000000000821617600890811c7bff00000000000000ff00000000000000ff00000000000000ff000000939093167fff00000000000000ff00000000000000ff00000000000000ff000000000000009290921691909117919091179081901c7e0f000f000f000f000f000f000f000f000f000f000f000f000f000f000f000f167f0f000f000f000f000f000f000f000f000f000f000f000f000f000f000f000f00600492831c161790613a65827f0606060606060606060606060606060606060606060606060606060606060606614714565b901c7f0f0f0f0f0f0f0f0f0f0f0f0f0f0f0f0f0f0f0f0f0f0f0f0f0f0f0f0f0f0f0f0f166007613a9591906147ab565b613abf827f3030303030303030303030303030303030303030303030303030303030303030614714565b610a389190614714565b828054613ad590614830565b90600052602060002090601f016020900481019282613af75760008555613b3d565b82601f10613b105782800160ff19823516178555613b3d565b82800160010185558215613b3d579182015b82811115613b3d578235825591602001919060010190613b22565b5061250f929150613bbd565b828054613b5590614830565b90600052602060002090601f016020900481019282613b775760008555613b3d565b82601f10613b9057805160ff1916838001178555613b3d565b82800160010185558215613b3d579182015b82811115613b3d578251825591602001919060010190613ba2565b5b8082111561250f5760008155600101613bbe565b80356001600160a01b0381168114613be957600080fd5b919050565b80358015158114613be957600080fd5b60008083601f840112613c1057600080fd5b5081356001600160401b03811115613c2757600080fd5b602083019150836020828501011115613c3f57600080fd5b9250929050565b803561ffff81168114613be957600080fd5b80356001600160401b0381168114613be957600080fd5b600060208284031215613c8157600080fd5b612e6982613bd2565b60008060408385031215613c9d57600080fd5b613ca683613bd2565b9150613cb460208401613bd2565b90509250929050565b600080600060608486031215613cd257600080fd5b613cdb84613bd2565b9250613ce960208501613bd2565b9150604084013590509250925092565b60008060008060808587031215613d0f57600080fd5b613d1885613bd2565b9350613d2660208601613bd2565b92506040850135915060608501356001600160401b0380821115613d4957600080fd5b818701915087601f830112613d5d57600080fd5b813581811115613d6f57613d6f614914565b604051601f8201601f19908116603f01168101908382118183101715613d9757613d97614914565b816040528281528a6020848701011115613db057600080fd5b82602086016020830137600060208483010152809550505050505092959194509250565b60008060408385031215613de757600080fd5b613df083613bd2565b9150613cb460208401613bee565b60008060408385031215613e1157600080fd5b613e1a83613bd2565b946020939093013593505050565b600060208284031215613e3a57600080fd5b5035919050565b60008060408385031215613e5457600080fd5b82359150613cb460208401613bd2565b600080600060408486031215613e7957600080fd5b8335925060208401356001600160401b03811115613e9657600080fd5b613ea286828701613bfe565b9497909650939450505050565b600080600060608486031215613ec457600080fd5b83359250613ed460208501613c46565b9150613ee260408501613c46565b90509250925092565b60008060008060808587031215613f0157600080fd5b84359350613f1160208601613c46565b9250613f1f60408601613c46565b9150613f2d60608601613c46565b905092959194509250565b60008060008060008060a08789031215613f5157600080fd5b86359550613f6160208801613c46565b9450613f6f60408801613c58565b9350613f7d60608801613bee565b925060808701356001600160401b03811115613f9857600080fd5b613fa489828a01613bfe565b979a9699509497509295939492505050565b600060208284031215613fc857600080fd5b8135612e698161492a565b600060208284031215613fe557600080fd5b8151612e698161492a565b60008060006040848603121561400557600080fd5b83356001600160401b0381111561401b57600080fd5b61402786828701613bfe565b9094509250613ee2905060208501613bee565b6000806000806060858703121561405057600080fd5b84356001600160401b0381111561406657600080fd5b61407287828801613bfe565b9095509350614085905060208601613bee565b9150613f2d60408601613bd2565b600081518084526140ab816020860160208601614804565b601f01601f19169290920160200192915050565b81835281816020850137506000828201602090810191909152601f909101601f19169091010190565b600081516140fa818560208601614804565b9290920192915050565b6bffffffffffffffffffffffff198460601b168152818360148301376000910160140190815292915050565b838152818360208301376000910160200190815292915050565b6000835161415c818460208801614804565b835190830190614170818360208801614804565b01949350505050565b7f7b226e616d65223a202245746852696f537461797320230000000000000000008152600087516141b1816017850160208c01614804565b7f222c20226465736372697074696f6e223a202253746179206174206c6f6467696017918401918201526c1b99c8199858da5b1a5d1e488b609a1b60378201527f2261747472696275746573223a5b7b2274726169745f74797065223a2266616360448201527134b634ba3ca4b21116113b30b63ab2911d1160711b60648201528751614245816076840160208c01614804565b7f227d2c7b2274726169745f74797065223a2273706163654964222c2276616c75607692909101918201526332911d1160e11b609682015261436d61435d61435761431f6143196142dd6142d761429f609a89018f6140e8565b7f227d2c7b2274726169745f74797065223a20227374617274446179222c227661815265363ab2911d1160d11b602082015260260190565b8c6140e8565b7f227d2c7b2274726169745f74797065223a20226e756d6265724f66446179732281526916113b30b63ab2911d1160b11b6020820152602a0190565b896140e8565b7f227d2c7b2274726169745f74797065223a20227175616e74697479222c227661815265363ab2911d1160d11b602082015260260190565b866140e8565b63227d5d7d60e01b815260040190565b9998505050505050505050565b7f646174613a6170706c69636174696f6e2f6a736f6e3b6261736536342c0000008152600082516143b281601d850160208701614804565b91909101601d0192915050565b6001600160a01b03858116825284166020820152604081018390526080606082018190526000906143f290830184614093565b9695505050505050565b600060018060a01b0380881683528615156020840152851515604084015260a0606084015261442e60a0840186614093565b91508084166080840152509695505050505050565b6020808252825182820181905260009190848201906040850190845b8181101561447b5783518352928401929184019160010161445f565b50909695505050505050565b6020808252825182820181905260009190848201906040850190845b8181101561447b57835161ffff16835292840192918401916001016144a3565b84151581526001600160a01b038416602082015282151560408201526080606082018190526000906143f290830184614093565b861515815285602082015261ffff85166040820152836060820152821515608082015260c060a0820152600061453060c0830184614093565b98975050505050505050565b8381526040602082015260006145566040830184866140bf565b95945050505050565b86815261ffff861660208201528460408201528315156060820152821515608082015260c060a0820152600061453060c0830184614093565b86815261ffff861660208201526001600160401b0385166040820152831515606082015260a06080820152600061453060a0830184866140bf565b60208101600283106145f557634e487b7160e01b600052602160045260246000fd5b91905290565b602081526000612e696020830184614093565b60208082526032908201527f4552433732313a207472616e7366657220746f206e6f6e20455243373231526560408201527131b2b4bb32b91034b6b83632b6b2b73a32b960711b606082015260800190565b60208082526026908201527f4f6e6c79206c6f6467696e6720666163696c697479206f776e657220697320616040820152651b1b1bddd95960d21b606082015260800190565b60208082526031908201527f4552433732313a207472616e736665722063616c6c6572206973206e6f74206f6040820152701ddb995c881b9bdc88185c1c1c9bdd9959607a1b606082015260800190565b600061ffff808316818516808303821115614170576141706148bc565b60008219821115614727576147276148bc565b500190565b600063ffffffff808316818516808303821115614170576141706148bc565b60008261475a5761475a6148d2565b500490565b600061ffff80831681851681830481118215151615614780576147806148bc565b02949350505050565b600062ffffff80831681851681830481118215151615614780576147806148bc565b60008160001904831182151516156147c5576147c56148bc565b500290565b600061ffff838116908316818110156147e5576147e56148bc565b039392505050565b6000828210156147ff576147ff6148bc565b500390565b60005b8381101561481f578181015183820152602001614807565b83811115611c4d5750506000910152565b600181811c9082168061484457607f821691505b6020821081141561486557634e487b7160e01b600052602260045260246000fd5b50919050565b600061ffff80831681811415614883576148836148bc565b6001019392505050565b60006000198214156148a1576148a16148bc565b5060010190565b6000826148b7576148b76148d2565b500690565b634e487b7160e01b600052601160045260246000fd5b634e487b7160e01b600052601260045260246000fd5b634e487b7160e01b600052602160045260246000fd5b634e487b7160e01b600052603260045260246000fd5b634e487b7160e01b600052604160045260246000fd5b6001600160e01b031981168114612c3857600080fdfe4f6e6c7920666163696c697479206f776e6572206d617920616464205370616365734142434445464748494a4b4c4d4e4f505152535455565758595a6162636465666768696a6b6c6d6e6f707172737475767778797a303132333435363738392b2fa264697066735822122008df9a904d59f052b18b16652a518ddaa150d13a0e006a2938f2c8933f51c17864736f6c63430008070033",
  "devdoc": {
    "kind": "dev",
    "methods": {
      "approve(address,uint256)": {
        "details": "See {IERC721-approve}."
      },
      "balanceOf(address)": {
        "details": "See {IERC721-balanceOf}."
      },
      "getApproved(uint256)": {
        "details": "See {IERC721-getApproved}."
      },
      "isApprovedForAll(address,address)": {
        "details": "See {IERC721-isApprovedForAll}."
      },
      "name()": {
        "details": "See {IERC721Metadata-name}."
      },
      "ownerOf(uint256)": {
        "details": "See {IERC721-ownerOf}."
      },
      "safeTransferFrom(address,address,uint256)": {
        "details": "See {IERC721-safeTransferFrom}."
      },
      "safeTransferFrom(address,address,uint256,bytes)": {
        "details": "See {IERC721-safeTransferFrom}."
      },
      "setApprovalForAll(address,bool)": {
        "details": "See {IERC721-setApprovalForAll}."
      },
      "supportsInterface(bytes4)": {
        "details": "See {IERC165-supportsInterface}."
      },
      "symbol()": {
        "details": "See {IERC721Metadata-symbol}."
      },
      "tokenURI(uint256)": {
        "details": "See {IERC721Metadata-tokenURI}."
      },
      "transferFrom(address,address,uint256)": {
        "details": "See {IERC721-transferFrom}."
      }
    },
    "version": 1
  },
  "userdoc": {
    "kind": "user",
    "methods": {
      "checkIn(uint256)": {
        "notice": "CheckIn"
      },
      "checkOut(uint256)": {
        "notice": "CheckOut"
      },
      "deposit(address,bytes32)": {
        "notice": "Stay escrow"
      },
      "getAllLodgingFacilityIds()": {
        "notice": "Lodging Facilities Getters"
      },
      "newStay(bytes32,uint16,uint16,uint16)": {
        "notice": "Glider"
      }
    },
    "version": 1
  },
  "storageLayout": {
    "storage": [
      {
        "astId": 3411,
        "contract": "contracts/EthRioStays.sol:EthRioStays",
        "label": "_deposits",
        "offset": 0,
        "slot": "0",
        "type": "t_mapping(t_bytes32,t_mapping(t_address,t_uint256))"
      },
      {
        "astId": 3418,
        "contract": "contracts/EthRioStays.sol:EthRioStays",
        "label": "_states",
        "offset": 0,
        "slot": "1",
        "type": "t_mapping(t_bytes32,t_mapping(t_address,t_enum(State)3389))"
      },
      {
        "astId": 25,
        "contract": "contracts/EthRioStays.sol:EthRioStays",
        "label": "_name",
        "offset": 0,
        "slot": "2",
        "type": "t_string_storage"
      },
      {
        "astId": 27,
        "contract": "contracts/EthRioStays.sol:EthRioStays",
        "label": "_symbol",
        "offset": 0,
        "slot": "3",
        "type": "t_string_storage"
      },
      {
        "astId": 31,
        "contract": "contracts/EthRioStays.sol:EthRioStays",
        "label": "_owners",
        "offset": 0,
        "slot": "4",
        "type": "t_mapping(t_uint256,t_address)"
      },
      {
        "astId": 35,
        "contract": "contracts/EthRioStays.sol:EthRioStays",
        "label": "_balances",
        "offset": 0,
        "slot": "5",
        "type": "t_mapping(t_address,t_uint256)"
      },
      {
        "astId": 39,
        "contract": "contracts/EthRioStays.sol:EthRioStays",
        "label": "_tokenApprovals",
        "offset": 0,
        "slot": "6",
        "type": "t_mapping(t_uint256,t_address)"
      },
      {
        "astId": 45,
        "contract": "contracts/EthRioStays.sol:EthRioStays",
        "label": "_operatorApprovals",
        "offset": 0,
        "slot": "7",
        "type": "t_mapping(t_address,t_mapping(t_address,t_bool))"
      },
      {
        "astId": 1012,
        "contract": "contracts/EthRioStays.sol:EthRioStays",
        "label": "_tokenURIs",
        "offset": 0,
        "slot": "8",
        "type": "t_mapping(t_uint256,t_string_storage)"
      },
      {
        "astId": 1852,
        "contract": "contracts/EthRioStays.sol:EthRioStays",
        "label": "_stayTokenIds",
        "offset": 0,
        "slot": "9",
        "type": "t_struct(Counter)1524_storage"
      },
      {
        "astId": 1910,
        "contract": "contracts/EthRioStays.sol:EthRioStays",
        "label": "_lodgingFacilityIds",
        "offset": 0,
        "slot": "10",
        "type": "t_array(t_bytes32)dyn_storage"
      },
      {
        "astId": 1915,
        "contract": "contracts/EthRioStays.sol:EthRioStays",
        "label": "_facilityIdsByOwner",
        "offset": 0,
        "slot": "11",
        "type": "t_mapping(t_address,t_array(t_bytes32)dyn_storage)"
      },
      {
        "astId": 1920,
        "contract": "contracts/EthRioStays.sol:EthRioStays",
        "label": "lodgingFacilities",
        "offset": 0,
        "slot": "12",
        "type": "t_mapping(t_bytes32,t_struct(LodgingFacility)1881_storage)"
      },
      {
        "astId": 1925,
        "contract": "contracts/EthRioStays.sol:EthRioStays",
        "label": "_spaceIdsByFacilityId",
        "offset": 0,
        "slot": "13",
        "type": "t_mapping(t_bytes32,t_array(t_bytes32)dyn_storage)"
      },
      {
        "astId": 1930,
        "contract": "contracts/EthRioStays.sol:EthRioStays",
        "label": "spaces",
        "offset": 0,
        "slot": "14",
        "type": "t_mapping(t_bytes32,t_struct(Space)1894_storage)"
      },
      {
        "astId": 1936,
        "contract": "contracts/EthRioStays.sol:EthRioStays",
        "label": "_booked",
        "offset": 0,
        "slot": "15",
        "type": "t_mapping(t_bytes32,t_mapping(t_uint16,t_uint16))"
      },
      {
        "astId": 1941,
        "contract": "contracts/EthRioStays.sol:EthRioStays",
        "label": "_stays",
        "offset": 0,
        "slot": "16",
        "type": "t_mapping(t_uint256,t_struct(Stay)1907_storage)"
      }
    ],
    "types": {
      "t_address": {
        "encoding": "inplace",
        "label": "address",
        "numberOfBytes": "20"
      },
      "t_array(t_bytes32)dyn_storage": {
        "base": "t_bytes32",
        "encoding": "dynamic_array",
        "label": "bytes32[]",
        "numberOfBytes": "32"
      },
      "t_bool": {
        "encoding": "inplace",
        "label": "bool",
        "numberOfBytes": "1"
      },
      "t_bytes32": {
        "encoding": "inplace",
        "label": "bytes32",
        "numberOfBytes": "32"
      },
      "t_enum(State)3389": {
        "encoding": "inplace",
        "label": "enum StayEscrow.State",
        "numberOfBytes": "1"
      },
      "t_mapping(t_address,t_array(t_bytes32)dyn_storage)": {
        "encoding": "mapping",
        "key": "t_address",
        "label": "mapping(address => bytes32[])",
        "numberOfBytes": "32",
        "value": "t_array(t_bytes32)dyn_storage"
      },
      "t_mapping(t_address,t_bool)": {
        "encoding": "mapping",
        "key": "t_address",
        "label": "mapping(address => bool)",
        "numberOfBytes": "32",
        "value": "t_bool"
      },
      "t_mapping(t_address,t_enum(State)3389)": {
        "encoding": "mapping",
        "key": "t_address",
        "label": "mapping(address => enum StayEscrow.State)",
        "numberOfBytes": "32",
        "value": "t_enum(State)3389"
      },
      "t_mapping(t_address,t_mapping(t_address,t_bool))": {
        "encoding": "mapping",
        "key": "t_address",
        "label": "mapping(address => mapping(address => bool))",
        "numberOfBytes": "32",
        "value": "t_mapping(t_address,t_bool)"
      },
      "t_mapping(t_address,t_uint256)": {
        "encoding": "mapping",
        "key": "t_address",
        "label": "mapping(address => uint256)",
        "numberOfBytes": "32",
        "value": "t_uint256"
      },
      "t_mapping(t_bytes32,t_array(t_bytes32)dyn_storage)": {
        "encoding": "mapping",
        "key": "t_bytes32",
        "label": "mapping(bytes32 => bytes32[])",
        "numberOfBytes": "32",
        "value": "t_array(t_bytes32)dyn_storage"
      },
      "t_mapping(t_bytes32,t_mapping(t_address,t_enum(State)3389))": {
        "encoding": "mapping",
        "key": "t_bytes32",
        "label": "mapping(bytes32 => mapping(address => enum StayEscrow.State))",
        "numberOfBytes": "32",
        "value": "t_mapping(t_address,t_enum(State)3389)"
      },
      "t_mapping(t_bytes32,t_mapping(t_address,t_uint256))": {
        "encoding": "mapping",
        "key": "t_bytes32",
        "label": "mapping(bytes32 => mapping(address => uint256))",
        "numberOfBytes": "32",
        "value": "t_mapping(t_address,t_uint256)"
      },
      "t_mapping(t_bytes32,t_mapping(t_uint16,t_uint16))": {
        "encoding": "mapping",
        "key": "t_bytes32",
        "label": "mapping(bytes32 => mapping(uint16 => uint16))",
        "numberOfBytes": "32",
        "value": "t_mapping(t_uint16,t_uint16)"
      },
      "t_mapping(t_bytes32,t_struct(LodgingFacility)1881_storage)": {
        "encoding": "mapping",
        "key": "t_bytes32",
        "label": "mapping(bytes32 => struct EthRioStays.LodgingFacility)",
        "numberOfBytes": "32",
        "value": "t_struct(LodgingFacility)1881_storage"
      },
      "t_mapping(t_bytes32,t_struct(Space)1894_storage)": {
        "encoding": "mapping",
        "key": "t_bytes32",
        "label": "mapping(bytes32 => struct EthRioStays.Space)",
        "numberOfBytes": "32",
        "value": "t_struct(Space)1894_storage"
      },
      "t_mapping(t_uint16,t_uint16)": {
        "encoding": "mapping",
        "key": "t_uint16",
        "label": "mapping(uint16 => uint16)",
        "numberOfBytes": "32",
        "value": "t_uint16"
      },
      "t_mapping(t_uint256,t_address)": {
        "encoding": "mapping",
        "key": "t_uint256",
        "label": "mapping(uint256 => address)",
        "numberOfBytes": "32",
        "value": "t_address"
      },
      "t_mapping(t_uint256,t_string_storage)": {
        "encoding": "mapping",
        "key": "t_uint256",
        "label": "mapping(uint256 => string)",
        "numberOfBytes": "32",
        "value": "t_string_storage"
      },
      "t_mapping(t_uint256,t_struct(Stay)1907_storage)": {
        "encoding": "mapping",
        "key": "t_uint256",
        "label": "mapping(uint256 => struct EthRioStays.Stay)",
        "numberOfBytes": "32",
        "value": "t_struct(Stay)1907_storage"
      },
      "t_string_storage": {
        "encoding": "bytes",
        "label": "string",
        "numberOfBytes": "32"
      },
      "t_struct(Counter)1524_storage": {
        "encoding": "inplace",
        "label": "struct Counters.Counter",
        "members": [
          {
            "astId": 1523,
            "contract": "contracts/EthRioStays.sol:EthRioStays",
            "label": "_value",
            "offset": 0,
            "slot": "0",
            "type": "t_uint256"
          }
        ],
        "numberOfBytes": "32"
      },
      "t_struct(LodgingFacility)1881_storage": {
        "encoding": "inplace",
        "label": "struct EthRioStays.LodgingFacility",
        "members": [
          {
            "astId": 1872,
            "contract": "contracts/EthRioStays.sol:EthRioStays",
            "label": "owner",
            "offset": 0,
            "slot": "0",
            "type": "t_address"
          },
          {
            "astId": 1874,
            "contract": "contracts/EthRioStays.sol:EthRioStays",
            "label": "active",
            "offset": 20,
            "slot": "0",
            "type": "t_bool"
          },
          {
            "astId": 1876,
            "contract": "contracts/EthRioStays.sol:EthRioStays",
            "label": "exists",
            "offset": 21,
            "slot": "0",
            "type": "t_bool"
          },
          {
            "astId": 1878,
            "contract": "contracts/EthRioStays.sol:EthRioStays",
            "label": "dataURI",
            "offset": 0,
            "slot": "1",
            "type": "t_string_storage"
          },
          {
            "astId": 1880,
            "contract": "contracts/EthRioStays.sol:EthRioStays",
            "label": "fren",
            "offset": 0,
            "slot": "2",
            "type": "t_address"
          }
        ],
        "numberOfBytes": "96"
      },
      "t_struct(Space)1894_storage": {
        "encoding": "inplace",
        "label": "struct EthRioStays.Space",
        "members": [
          {
            "astId": 1883,
            "contract": "contracts/EthRioStays.sol:EthRioStays",
            "label": "lodgingFacilityId",
            "offset": 0,
            "slot": "0",
            "type": "t_bytes32"
          },
          {
            "astId": 1885,
            "contract": "contracts/EthRioStays.sol:EthRioStays",
            "label": "capacity",
            "offset": 0,
            "slot": "1",
            "type": "t_uint16"
          },
          {
            "astId": 1887,
            "contract": "contracts/EthRioStays.sol:EthRioStays",
            "label": "pricePerNightWei",
            "offset": 0,
            "slot": "2",
            "type": "t_uint256"
          },
          {
            "astId": 1889,
            "contract": "contracts/EthRioStays.sol:EthRioStays",
            "label": "active",
            "offset": 0,
            "slot": "3",
            "type": "t_bool"
          },
          {
            "astId": 1891,
            "contract": "contracts/EthRioStays.sol:EthRioStays",
            "label": "exists",
            "offset": 1,
            "slot": "3",
            "type": "t_bool"
          },
          {
            "astId": 1893,
            "contract": "contracts/EthRioStays.sol:EthRioStays",
            "label": "dataURI",
            "offset": 0,
            "slot": "4",
            "type": "t_string_storage"
          }
        ],
        "numberOfBytes": "160"
      },
      "t_struct(Stay)1907_storage": {
        "encoding": "inplace",
        "label": "struct EthRioStays.Stay",
        "members": [
          {
            "astId": 1896,
            "contract": "contracts/EthRioStays.sol:EthRioStays",
            "label": "spaceId",
            "offset": 0,
            "slot": "0",
            "type": "t_bytes32"
          },
          {
            "astId": 1898,
            "contract": "contracts/EthRioStays.sol:EthRioStays",
            "label": "startDay",
            "offset": 0,
            "slot": "1",
            "type": "t_uint16"
          },
          {
            "astId": 1900,
            "contract": "contracts/EthRioStays.sol:EthRioStays",
            "label": "numberOfDays",
            "offset": 2,
            "slot": "1",
            "type": "t_uint16"
          },
          {
            "astId": 1902,
            "contract": "contracts/EthRioStays.sol:EthRioStays",
            "label": "quantity",
            "offset": 4,
            "slot": "1",
            "type": "t_uint16"
          },
          {
            "astId": 1904,
            "contract": "contracts/EthRioStays.sol:EthRioStays",
            "label": "checkIn",
            "offset": 6,
            "slot": "1",
            "type": "t_bool"
          },
          {
            "astId": 1906,
            "contract": "contracts/EthRioStays.sol:EthRioStays",
            "label": "checkOut",
            "offset": 7,
            "slot": "1",
            "type": "t_bool"
          }
        ],
        "numberOfBytes": "64"
      },
      "t_uint16": {
        "encoding": "inplace",
        "label": "uint16",
        "numberOfBytes": "2"
      },
      "t_uint256": {
        "encoding": "inplace",
        "label": "uint256",
        "numberOfBytes": "32"
      }
    }
  }
}