{
  "_format": "hh-sol-artifact-1",
  "contractName": "Stays",
  "sourceName": "contracts/Stays.sol",
  "abi": [
    {
      "inputs": [],
      "stateMutability": "nonpayable",
      "type": "constructor"
    },
    {
      "anonymous": false,
      "inputs": [
        {
          "indexed": true,
          "internalType": "address",
          "name": "owner",
          "type": "address"
        },
        {
          "indexed": true,
          "internalType": "address",
          "name": "approved",
          "type": "address"
        },
        {
          "indexed": true,
          "internalType": "uint256",
          "name": "tokenId",
          "type": "uint256"
        }
      ],
      "name": "Approval",
      "type": "event"
    },
    {
      "anonymous": false,
      "inputs": [
        {
          "indexed": true,
          "internalType": "address",
          "name": "owner",
          "type": "address"
        },
        {
          "indexed": true,
          "internalType": "address",
          "name": "operator",
          "type": "address"
        },
        {
          "indexed": false,
          "internalType": "bool",
          "name": "approved",
          "type": "bool"
        }
      ],
      "name": "ApprovalForAll",
      "type": "event"
    },
    {
      "anonymous": false,
      "inputs": [
        {
          "indexed": false,
          "internalType": "uint256",
          "name": "tokenId",
          "type": "uint256"
        }
      ],
      "name": "Cancel",
      "type": "event"
    },
    {
      "anonymous": false,
      "inputs": [
        {
          "indexed": false,
          "internalType": "uint256",
          "name": "tokenId",
          "type": "uint256"
        }
      ],
      "name": "CheckIn",
      "type": "event"
    },
    {
      "anonymous": false,
      "inputs": [
        {
          "indexed": false,
          "internalType": "uint256",
          "name": "tokenId",
          "type": "uint256"
        }
      ],
      "name": "CheckOut",
      "type": "event"
    },
    {
      "anonymous": false,
      "inputs": [
        {
          "indexed": true,
          "internalType": "address",
          "name": "payee",
          "type": "address"
        },
        {
          "indexed": false,
          "internalType": "uint256",
          "name": "weiAmount",
          "type": "uint256"
        },
        {
          "indexed": false,
          "internalType": "bytes32",
          "name": "spaceId",
          "type": "bytes32"
        },
        {
          "indexed": false,
          "internalType": "uint256",
          "name": "tokenId",
          "type": "uint256"
        }
      ],
      "name": "Deposited",
      "type": "event"
    },
    {
      "anonymous": false,
      "inputs": [
        {
          "indexed": false,
          "internalType": "bytes32",
          "name": "facilityId",
          "type": "bytes32"
        },
        {
          "indexed": false,
          "internalType": "bool",
          "name": "active",
          "type": "bool"
        }
      ],
      "name": "LodgingFacilityActiveState",
      "type": "event"
    },
    {
      "anonymous": false,
      "inputs": [
        {
          "indexed": false,
          "internalType": "bytes32",
          "name": "facilityId",
          "type": "bytes32"
        },
        {
          "indexed": true,
          "internalType": "address",
          "name": "owner",
          "type": "address"
        },
        {
          "indexed": false,
          "internalType": "string",
          "name": "dataURI",
          "type": "string"
        }
      ],
      "name": "LodgingFacilityCreated",
      "type": "event"
    },
    {
      "anonymous": false,
      "inputs": [
        {
          "indexed": false,
          "internalType": "bytes32",
          "name": "facilityId",
          "type": "bytes32"
        },
        {
          "indexed": true,
          "internalType": "address",
          "name": "prevOwner",
          "type": "address"
        },
        {
          "indexed": true,
          "internalType": "address",
          "name": "newOwner",
          "type": "address"
        }
      ],
      "name": "LodgingFacilityOwnershipTransfer",
      "type": "event"
    },
    {
      "anonymous": false,
      "inputs": [
        {
          "indexed": false,
          "internalType": "bytes32",
          "name": "facilityId",
          "type": "bytes32"
        }
      ],
      "name": "LodgingFacilityRemoved",
      "type": "event"
    },
    {
      "anonymous": false,
      "inputs": [
        {
          "indexed": false,
          "internalType": "bytes32",
          "name": "facilityId",
          "type": "bytes32"
        },
        {
          "indexed": false,
          "internalType": "string",
          "name": "dataURI",
          "type": "string"
        }
      ],
      "name": "LodgingFacilityUpdated",
      "type": "event"
    },
    {
      "anonymous": false,
      "inputs": [
        {
          "indexed": false,
          "internalType": "bytes32",
          "name": "spaceId",
          "type": "bytes32"
        },
        {
          "indexed": false,
          "internalType": "uint256",
          "name": "tokenId",
          "type": "uint256"
        }
      ],
      "name": "NewStay",
      "type": "event"
    },
    {
      "anonymous": false,
      "inputs": [
        {
          "indexed": true,
          "internalType": "address",
          "name": "previousOwner",
          "type": "address"
        },
        {
          "indexed": true,
          "internalType": "address",
          "name": "newOwner",
          "type": "address"
        }
      ],
      "name": "OwnershipTransferred",
      "type": "event"
    },
    {
      "anonymous": false,
      "inputs": [
        {
          "indexed": false,
          "internalType": "address",
          "name": "account",
          "type": "address"
        }
      ],
      "name": "Paused",
      "type": "event"
    },
    {
      "anonymous": false,
      "inputs": [
        {
          "indexed": true,
          "internalType": "address",
          "name": "payee",
          "type": "address"
        },
        {
          "indexed": false,
          "internalType": "uint256",
          "name": "weiAmount",
          "type": "uint256"
        },
        {
          "indexed": false,
          "internalType": "bytes32",
          "name": "spaceId",
          "type": "bytes32"
        },
        {
          "indexed": false,
          "internalType": "uint256",
          "name": "tokenId",
          "type": "uint256"
        }
      ],
      "name": "Refund",
      "type": "event"
    },
    {
      "anonymous": false,
      "inputs": [
        {
          "indexed": false,
          "internalType": "bytes32",
          "name": "spaceId",
          "type": "bytes32"
        },
        {
          "indexed": false,
          "internalType": "bool",
          "name": "active",
          "type": "bool"
        }
      ],
      "name": "SpaceActiveState",
      "type": "event"
    },
    {
      "anonymous": false,
      "inputs": [
        {
          "indexed": false,
          "internalType": "bytes32",
          "name": "spaceId",
          "type": "bytes32"
        },
        {
          "indexed": false,
          "internalType": "bytes32",
          "name": "facilityId",
          "type": "bytes32"
        },
        {
          "indexed": false,
          "internalType": "uint256",
          "name": "capacity",
          "type": "uint256"
        },
        {
          "indexed": false,
          "internalType": "uint256",
          "name": "pricePerNightWei",
          "type": "uint256"
        },
        {
          "indexed": false,
          "internalType": "bool",
          "name": "active",
          "type": "bool"
        },
        {
          "indexed": false,
          "internalType": "string",
          "name": "dataURI",
          "type": "string"
        }
      ],
      "name": "SpaceAdded",
      "type": "event"
    },
    {
      "anonymous": false,
      "inputs": [
        {
          "indexed": false,
          "internalType": "bytes32",
          "name": "spaceId",
          "type": "bytes32"
        }
      ],
      "name": "SpaceRemoved",
      "type": "event"
    },
    {
      "anonymous": false,
      "inputs": [
        {
          "indexed": false,
          "internalType": "bytes32",
          "name": "spaceId",
          "type": "bytes32"
        },
        {
          "indexed": false,
          "internalType": "uint256",
          "name": "capacity",
          "type": "uint256"
        },
        {
          "indexed": false,
          "internalType": "uint256",
          "name": "pricePerNightWei",
          "type": "uint256"
        },
        {
          "indexed": false,
          "internalType": "string",
          "name": "dataURI",
          "type": "string"
        }
      ],
      "name": "SpaceUpdated",
      "type": "event"
    },
    {
      "anonymous": false,
      "inputs": [
        {
          "indexed": true,
          "internalType": "address",
          "name": "from",
          "type": "address"
        },
        {
          "indexed": true,
          "internalType": "address",
          "name": "to",
          "type": "address"
        },
        {
          "indexed": true,
          "internalType": "uint256",
          "name": "tokenId",
          "type": "uint256"
        }
      ],
      "name": "Transfer",
      "type": "event"
    },
    {
      "anonymous": false,
      "inputs": [
        {
          "indexed": false,
          "internalType": "address",
          "name": "account",
          "type": "address"
        }
      ],
      "name": "Unpaused",
      "type": "event"
    },
    {
      "anonymous": false,
      "inputs": [
        {
          "indexed": true,
          "internalType": "address",
          "name": "payer",
          "type": "address"
        },
        {
          "indexed": true,
          "internalType": "address",
          "name": "payee",
          "type": "address"
        },
        {
          "indexed": false,
          "internalType": "uint256",
          "name": "weiAmount",
          "type": "uint256"
        },
        {
          "indexed": false,
          "internalType": "bytes32",
          "name": "spaceId",
          "type": "bytes32"
        },
        {
          "indexed": false,
          "internalType": "uint256",
          "name": "tokenId",
          "type": "uint256"
        }
      ],
      "name": "Withdraw",
      "type": "event"
    },
    {
      "inputs": [
        {
          "internalType": "bytes32",
          "name": "_lodgingFacilityId",
          "type": "bytes32"
        }
      ],
      "name": "activateLodgingFacility",
      "outputs": [],
      "stateMutability": "nonpayable",
      "type": "function"
    },
    {
      "inputs": [
        {
          "internalType": "bytes32",
          "name": "_spaceId",
          "type": "bytes32"
        }
      ],
      "name": "activateSpace",
      "outputs": [],
      "stateMutability": "nonpayable",
      "type": "function"
    },
    {
      "inputs": [
        {
          "internalType": "bytes32",
          "name": "_lodgingFacilityId",
          "type": "bytes32"
        },
        {
          "internalType": "uint256",
          "name": "_capacity",
          "type": "uint256"
        },
        {
          "internalType": "uint256",
          "name": "_pricePerNightWei",
          "type": "uint256"
        },
        {
          "internalType": "bool",
          "name": "_active",
          "type": "bool"
        },
        {
          "internalType": "string",
          "name": "_dataURI",
          "type": "string"
        }
      ],
      "name": "addSpace",
      "outputs": [],
      "stateMutability": "nonpayable",
      "type": "function"
    },
    {
      "inputs": [
        {
          "internalType": "address",
          "name": "to",
          "type": "address"
        },
        {
          "internalType": "uint256",
          "name": "tokenId",
          "type": "uint256"
        }
      ],
      "name": "approve",
      "outputs": [],
      "stateMutability": "nonpayable",
      "type": "function"
    },
    {
      "inputs": [
        {
          "internalType": "address",
          "name": "owner",
          "type": "address"
        }
      ],
      "name": "balanceOf",
      "outputs": [
        {
          "internalType": "uint256",
          "name": "",
          "type": "uint256"
        }
      ],
      "stateMutability": "view",
      "type": "function"
    },
    {
      "inputs": [
        {
          "internalType": "uint256",
          "name": "_tokenId",
          "type": "uint256"
        },
        {
          "components": [
            {
              "internalType": "address",
              "name": "from",
              "type": "address"
            },
            {
              "internalType": "address",
              "name": "to",
              "type": "address"
            },
            {
              "internalType": "uint256",
              "name": "tokenId",
              "type": "uint256"
            },
            {
              "internalType": "bytes",
              "name": "signature",
              "type": "bytes"
            }
          ],
          "internalType": "struct IStays.CheckInVoucher",
          "name": "voucher",
          "type": "tuple"
        }
      ],
      "name": "checkIn",
      "outputs": [],
      "stateMutability": "nonpayable",
      "type": "function"
    },
    {
      "inputs": [
        {
          "internalType": "uint256",
          "name": "_tokenId",
          "type": "uint256"
        }
      ],
      "name": "checkOut",
      "outputs": [],
      "stateMutability": "nonpayable",
      "type": "function"
    },
    {
      "inputs": [],
      "name": "dayZero",
      "outputs": [
        {
          "internalType": "uint32",
          "name": "",
          "type": "uint32"
        }
      ],
      "stateMutability": "view",
      "type": "function"
    },
    {
      "inputs": [
        {
          "internalType": "bytes32",
          "name": "_lodgingFacilityId",
          "type": "bytes32"
        }
      ],
      "name": "deactivateLodgingFacility",
      "outputs": [],
      "stateMutability": "nonpayable",
      "type": "function"
    },
    {
      "inputs": [
        {
          "internalType": "bytes32",
          "name": "_spaceId",
          "type": "bytes32"
        }
      ],
      "name": "deactivateSpace",
      "outputs": [],
      "stateMutability": "nonpayable",
      "type": "function"
    },
    {
      "inputs": [
        {
          "internalType": "bytes32",
          "name": "_lodgingFacilityId",
          "type": "bytes32"
        }
      ],
      "name": "deleteLodgingFacility",
      "outputs": [],
      "stateMutability": "nonpayable",
      "type": "function"
    },
    {
      "inputs": [
        {
          "internalType": "address",
          "name": "payee",
          "type": "address"
        },
        {
          "internalType": "bytes32",
          "name": "spaceId",
          "type": "bytes32"
        },
        {
          "internalType": "uint256",
          "name": "tokenId",
          "type": "uint256"
        }
      ],
      "name": "deposit",
      "outputs": [],
      "stateMutability": "payable",
      "type": "function"
    },
    {
      "inputs": [
        {
          "internalType": "address",
          "name": "payer",
          "type": "address"
        },
        {
          "internalType": "bytes32",
          "name": "spaceId",
          "type": "bytes32"
        },
        {
          "internalType": "uint256",
          "name": "tokenId",
          "type": "uint256"
        }
      ],
      "name": "depositOf",
      "outputs": [
        {
          "internalType": "uint256",
          "name": "",
          "type": "uint256"
        }
      ],
      "stateMutability": "view",
      "type": "function"
    },
    {
      "inputs": [
        {
          "internalType": "uint256",
          "name": "tokenId",
          "type": "uint256"
        }
      ],
      "name": "depositState",
      "outputs": [
        {
          "internalType": "enum IStayEscrow.State",
          "name": "",
          "type": "uint8"
        }
      ],
      "stateMutability": "view",
      "type": "function"
    },
    {
      "inputs": [],
      "name": "getActiveLodgingFacilityIds",
      "outputs": [
        {
          "internalType": "bytes32[]",
          "name": "activeLodgingFacilityIds",
          "type": "bytes32[]"
        }
      ],
      "stateMutability": "view",
      "type": "function"
    },
    {
      "inputs": [
        {
          "internalType": "bytes32",
          "name": "_lodgingFacilityId",
          "type": "bytes32"
        }
      ],
      "name": "getActiveSpaceIdsByFacilityId",
      "outputs": [
        {
          "internalType": "bytes32[]",
          "name": "activeSpacesIds",
          "type": "bytes32[]"
        }
      ],
      "stateMutability": "view",
      "type": "function"
    },
    {
      "inputs": [],
      "name": "getAllLodgingFacilityIds",
      "outputs": [
        {
          "internalType": "bytes32[]",
          "name": "",
          "type": "bytes32[]"
        }
      ],
      "stateMutability": "view",
      "type": "function"
    },
    {
      "inputs": [
        {
          "internalType": "uint256",
          "name": "tokenId",
          "type": "uint256"
        }
      ],
      "name": "getApproved",
      "outputs": [
        {
          "internalType": "address",
          "name": "",
          "type": "address"
        }
      ],
      "stateMutability": "view",
      "type": "function"
    },
    {
      "inputs": [
        {
          "internalType": "bytes32",
          "name": "_spaceId",
          "type": "bytes32"
        },
        {
          "internalType": "uint256",
          "name": "_startDay",
          "type": "uint256"
        },
        {
          "internalType": "uint256",
          "name": "_numberOfDays",
          "type": "uint256"
        }
      ],
      "name": "getAvailability",
      "outputs": [
        {
          "internalType": "uint256[]",
          "name": "",
          "type": "uint256[]"
        }
      ],
      "stateMutability": "view",
      "type": "function"
    },
    {
      "inputs": [
        {
          "internalType": "bytes32",
          "name": "_lodgingFacilityId",
          "type": "bytes32"
        }
      ],
      "name": "getLodgingFacilityById",
      "outputs": [
        {
          "internalType": "bool",
          "name": "exists",
          "type": "bool"
        },
        {
          "internalType": "address",
          "name": "owner",
          "type": "address"
        },
        {
          "internalType": "bool",
          "name": "active",
          "type": "bool"
        },
        {
          "internalType": "string",
          "name": "dataURI",
          "type": "string"
        }
      ],
      "stateMutability": "view",
      "type": "function"
    },
    {
      "inputs": [
        {
          "internalType": "address",
          "name": "_owner",
          "type": "address"
        }
      ],
      "name": "getLodgingFacilityIdsByOwner",
      "outputs": [
        {
          "internalType": "bytes32[]",
          "name": "facilities",
          "type": "bytes32[]"
        }
      ],
      "stateMutability": "view",
      "type": "function"
    },
    {
      "inputs": [
        {
          "internalType": "bytes32",
          "name": "_spaceId",
          "type": "bytes32"
        }
      ],
      "name": "getSpaceById",
      "outputs": [
        {
          "internalType": "bool",
          "name": "exists",
          "type": "bool"
        },
        {
          "internalType": "bytes32",
          "name": "lodgingFacilityId",
          "type": "bytes32"
        },
        {
          "internalType": "uint256",
          "name": "capacity",
          "type": "uint256"
        },
        {
          "internalType": "uint256",
          "name": "pricePerNightWei",
          "type": "uint256"
        },
        {
          "internalType": "bool",
          "name": "active",
          "type": "bool"
        },
        {
          "internalType": "string",
          "name": "dataURI",
          "type": "string"
        }
      ],
      "stateMutability": "view",
      "type": "function"
    },
    {
      "inputs": [
        {
          "internalType": "uint256",
          "name": "_tokenId",
          "type": "uint256"
        }
      ],
      "name": "getSpaceByTokenId",
      "outputs": [
        {
          "internalType": "bool",
          "name": "exists",
          "type": "bool"
        },
        {
          "internalType": "bytes32",
          "name": "lodgingFacilityId",
          "type": "bytes32"
        },
        {
          "internalType": "uint256",
          "name": "capacity",
          "type": "uint256"
        },
        {
          "internalType": "uint256",
          "name": "pricePerNightWei",
          "type": "uint256"
        },
        {
          "internalType": "bool",
          "name": "active",
          "type": "bool"
        },
        {
          "internalType": "string",
          "name": "dataURI",
          "type": "string"
        }
      ],
      "stateMutability": "view",
      "type": "function"
    },
    {
      "inputs": [
        {
          "internalType": "bytes32",
          "name": "_lodgingFacilityId",
          "type": "bytes32"
        }
      ],
      "name": "getSpaceIdsByFacilityId",
      "outputs": [
        {
          "internalType": "bytes32[]",
          "name": "",
          "type": "bytes32[]"
        }
      ],
      "stateMutability": "view",
      "type": "function"
    },
    {
      "inputs": [
        {
          "internalType": "bytes32",
          "name": "_spaceId",
          "type": "bytes32"
        },
        {
          "internalType": "enum IStayEscrow.State",
          "name": "_state",
          "type": "uint8"
        }
      ],
      "name": "getTokensBySpaceId",
      "outputs": [
        {
          "internalType": "uint256[]",
          "name": "",
          "type": "uint256[]"
        }
      ],
      "stateMutability": "view",
      "type": "function"
    },
    {
      "inputs": [],
      "name": "initialize",
      "outputs": [],
      "stateMutability": "nonpayable",
      "type": "function"
    },
    {
      "inputs": [
        {
          "internalType": "address",
          "name": "owner",
          "type": "address"
        },
        {
          "internalType": "address",
          "name": "operator",
          "type": "address"
        }
      ],
      "name": "isApprovedForAll",
      "outputs": [
        {
          "internalType": "bool",
          "name": "",
          "type": "bool"
        }
      ],
      "stateMutability": "view",
      "type": "function"
    },
    {
      "inputs": [
        {
          "internalType": "bytes32",
          "name": "",
          "type": "bytes32"
        }
      ],
      "name": "lodgingFacilities",
      "outputs": [
        {
          "internalType": "address",
          "name": "owner",
          "type": "address"
        },
        {
          "internalType": "bool",
          "name": "active",
          "type": "bool"
        },
        {
          "internalType": "bool",
          "name": "exists",
          "type": "bool"
        },
        {
          "internalType": "string",
          "name": "dataURI",
          "type": "string"
        },
        {
          "internalType": "address",
          "name": "fren",
          "type": "address"
        }
      ],
      "stateMutability": "view",
      "type": "function"
    },
    {
      "inputs": [],
      "name": "name",
      "outputs": [
        {
          "internalType": "string",
          "name": "",
          "type": "string"
        }
      ],
      "stateMutability": "view",
      "type": "function"
    },
    {
      "inputs": [
        {
          "internalType": "bytes32",
          "name": "_spaceId",
          "type": "bytes32"
        },
        {
          "internalType": "uint256",
          "name": "_startDay",
          "type": "uint256"
        },
        {
          "internalType": "uint256",
          "name": "_numberOfDays",
          "type": "uint256"
        },
        {
          "internalType": "uint256",
          "name": "_quantity",
          "type": "uint256"
        }
      ],
      "name": "newStay",
      "outputs": [
        {
          "internalType": "uint256",
          "name": "",
          "type": "uint256"
        }
      ],
      "stateMutability": "payable",
      "type": "function"
    },
    {
      "inputs": [],
      "name": "owner",
      "outputs": [
        {
          "internalType": "address",
          "name": "",
          "type": "address"
        }
      ],
      "stateMutability": "view",
      "type": "function"
    },
    {
      "inputs": [
        {
          "internalType": "uint256",
          "name": "tokenId",
          "type": "uint256"
        }
      ],
      "name": "ownerOf",
      "outputs": [
        {
          "internalType": "address",
          "name": "",
          "type": "address"
        }
      ],
      "stateMutability": "view",
      "type": "function"
    },
    {
      "inputs": [],
      "name": "pause",
      "outputs": [],
      "stateMutability": "nonpayable",
      "type": "function"
    },
    {
      "inputs": [],
      "name": "paused",
      "outputs": [
        {
          "internalType": "bool",
          "name": "",
          "type": "bool"
        }
      ],
      "stateMutability": "view",
      "type": "function"
    },
    {
      "inputs": [
        {
          "internalType": "string",
          "name": "_dataURI",
          "type": "string"
        },
        {
          "internalType": "bool",
          "name": "_active",
          "type": "bool"
        }
      ],
      "name": "registerLodgingFacility",
      "outputs": [],
      "stateMutability": "nonpayable",
      "type": "function"
    },
    {
      "inputs": [
        {
          "internalType": "string",
          "name": "_dataURI",
          "type": "string"
        },
        {
          "internalType": "bool",
          "name": "_active",
          "type": "bool"
        },
        {
          "internalType": "address",
          "name": "_fren",
          "type": "address"
        }
      ],
      "name": "registerLodgingFacility",
      "outputs": [],
      "stateMutability": "nonpayable",
      "type": "function"
    },
    {
      "inputs": [],
      "name": "renounceOwnership",
      "outputs": [],
      "stateMutability": "nonpayable",
      "type": "function"
    },
    {
      "inputs": [
        {
          "internalType": "address",
          "name": "from",
          "type": "address"
        },
        {
          "internalType": "address",
          "name": "to",
          "type": "address"
        },
        {
          "internalType": "uint256",
          "name": "tokenId",
          "type": "uint256"
        }
      ],
      "name": "safeTransferFrom",
      "outputs": [],
      "stateMutability": "nonpayable",
      "type": "function"
    },
    {
      "inputs": [
        {
          "internalType": "address",
          "name": "from",
          "type": "address"
        },
        {
          "internalType": "address",
          "name": "to",
          "type": "address"
        },
        {
          "internalType": "uint256",
          "name": "tokenId",
          "type": "uint256"
        },
        {
          "internalType": "bytes",
          "name": "_data",
          "type": "bytes"
        }
      ],
      "name": "safeTransferFrom",
      "outputs": [],
      "stateMutability": "nonpayable",
      "type": "function"
    },
    {
      "inputs": [],
      "name": "serviceURI",
      "outputs": [
        {
          "internalType": "string",
          "name": "",
          "type": "string"
        }
      ],
      "stateMutability": "view",
      "type": "function"
    },
    {
      "inputs": [
        {
          "internalType": "address",
          "name": "operator",
          "type": "address"
        },
        {
          "internalType": "bool",
          "name": "approved",
          "type": "bool"
        }
      ],
      "name": "setApprovalForAll",
      "outputs": [],
      "stateMutability": "nonpayable",
      "type": "function"
    },
    {
      "inputs": [
        {
          "internalType": "bytes32",
          "name": "",
          "type": "bytes32"
        }
      ],
      "name": "spaces",
      "outputs": [
        {
          "internalType": "bytes32",
          "name": "lodgingFacilityId",
          "type": "bytes32"
        },
        {
          "internalType": "uint256",
          "name": "capacity",
          "type": "uint256"
        },
        {
          "internalType": "uint256",
          "name": "pricePerNightWei",
          "type": "uint256"
        },
        {
          "internalType": "bool",
          "name": "active",
          "type": "bool"
        },
        {
          "internalType": "bool",
          "name": "exists",
          "type": "bool"
        },
        {
          "internalType": "string",
          "name": "dataURI",
          "type": "string"
        }
      ],
      "stateMutability": "view",
      "type": "function"
    },
    {
      "inputs": [
        {
          "internalType": "bytes4",
          "name": "interfaceId",
          "type": "bytes4"
        }
      ],
      "name": "supportsInterface",
      "outputs": [
        {
          "internalType": "bool",
          "name": "",
          "type": "bool"
        }
      ],
      "stateMutability": "view",
      "type": "function"
    },
    {
      "inputs": [],
      "name": "symbol",
      "outputs": [
        {
          "internalType": "string",
          "name": "",
          "type": "string"
        }
      ],
      "stateMutability": "view",
      "type": "function"
    },
    {
      "inputs": [
        {
          "internalType": "uint256",
          "name": "index",
          "type": "uint256"
        }
      ],
      "name": "tokenByIndex",
      "outputs": [
        {
          "internalType": "uint256",
          "name": "",
          "type": "uint256"
        }
      ],
      "stateMutability": "view",
      "type": "function"
    },
    {
      "inputs": [
        {
          "internalType": "address",
          "name": "owner",
          "type": "address"
        },
        {
          "internalType": "uint256",
          "name": "index",
          "type": "uint256"
        }
      ],
      "name": "tokenOfOwnerByIndex",
      "outputs": [
        {
          "internalType": "uint256",
          "name": "",
          "type": "uint256"
        }
      ],
      "stateMutability": "view",
      "type": "function"
    },
    {
      "inputs": [
        {
          "internalType": "uint256",
          "name": "tokenId",
          "type": "uint256"
        }
      ],
      "name": "tokenURI",
      "outputs": [
        {
          "internalType": "string",
          "name": "",
          "type": "string"
        }
      ],
      "stateMutability": "view",
      "type": "function"
    },
    {
      "inputs": [],
      "name": "totalSupply",
      "outputs": [
        {
          "internalType": "uint256",
          "name": "",
          "type": "uint256"
        }
      ],
      "stateMutability": "view",
      "type": "function"
    },
    {
      "inputs": [
        {
          "internalType": "address",
          "name": "from",
          "type": "address"
        },
        {
          "internalType": "address",
          "name": "to",
          "type": "address"
        },
        {
          "internalType": "uint256",
          "name": "tokenId",
          "type": "uint256"
        }
      ],
      "name": "transferFrom",
      "outputs": [],
      "stateMutability": "nonpayable",
      "type": "function"
    },
    {
      "inputs": [
        {
          "internalType": "address",
          "name": "newOwner",
          "type": "address"
        }
      ],
      "name": "transferOwnership",
      "outputs": [],
      "stateMutability": "nonpayable",
      "type": "function"
    },
    {
      "inputs": [],
      "name": "unpause",
      "outputs": [],
      "stateMutability": "nonpayable",
      "type": "function"
    },
    {
      "inputs": [
        {
          "internalType": "bytes32",
          "name": "_lodgingFacilityId",
          "type": "bytes32"
        },
        {
          "internalType": "string",
          "name": "_newDataURI",
          "type": "string"
        }
      ],
      "name": "updateLodgingFacility",
      "outputs": [],
      "stateMutability": "nonpayable",
      "type": "function"
    },
    {
      "inputs": [
        {
          "internalType": "bytes32",
          "name": "_spaceId",
          "type": "bytes32"
        },
        {
          "internalType": "uint256",
          "name": "_capacity",
          "type": "uint256"
        },
        {
          "internalType": "uint256",
          "name": "_pricePerNightWei",
          "type": "uint256"
        },
        {
          "internalType": "string",
          "name": "_dataURI",
          "type": "string"
        }
      ],
      "name": "updateSpace",
      "outputs": [],
      "stateMutability": "nonpayable",
      "type": "function"
    },
    {
      "inputs": [
        {
          "internalType": "bytes32",
          "name": "_lodgingFacilityId",
          "type": "bytes32"
        },
        {
          "internalType": "address",
          "name": "_newOwner",
          "type": "address"
        }
      ],
      "name": "yieldLodgingFacility",
      "outputs": [],
      "stateMutability": "nonpayable",
      "type": "function"
    }
  ],
  "bytecode": "0x60806040523480156200001157600080fd5b50600054610100900460ff166200002f5760005460ff161562000039565b62000039620000de565b620000a15760405162461bcd60e51b815260206004820152602e60248201527f496e697469616c697a61626c653a20636f6e747261637420697320616c72656160448201526d191e481a5b9a5d1a585b1a5e995960921b606482015260840160405180910390fd5b600054610100900460ff16158015620000c4576000805461ffff19166101011790555b8015620000d7576000805461ff00191690555b506200010b565b6000620000f630620000fc60201b62002df51760201c565b15905090565b6001600160a01b03163b151590565b6163b8806200011b6000396000f3fe6080604052600436106103335760003560e01c80636a22dd26116101ab578063b38759fd116100f7578063e985e9c511610095578063f2fde38b1161006f578063f2fde38b14610a17578063f7cdbc9d14610a37578063ffae741514610a57578063ffc1e09a14610a8857600080fd5b8063e985e9c514610989578063e994529e146109d2578063eb2243f814610a0457600080fd5b8063c87b56dd116100d1578063c87b56dd146108ee578063cad302e41461090e578063e1e33b9c14610949578063e6ccb4ce1461096957600080fd5b8063b38759fd14610899578063b88d4fde146108ae578063bfef4d40146108ce57600080fd5b80638f201f5f116101645780639bc190db1161013e5780639bc190db1461080c5780639ff682141461082c578063a22cb46514610859578063a46880321461087957600080fd5b80638f201f5f146107b75780639518f5fa146107d757806395d89b41146107f757600080fd5b80636a22dd261461071957806370a0823114610739578063715018a6146107595780638129fc1c1461076e5780638456cb59146107835780638da5cb5b1461079857600080fd5b806327d7cedb116102855780634ce0a872116102235780635d45d919116101fd5780635d45d919146106995780635ee7aa13146106b95780636352211e146106d9578063673f0dd5146106f957600080fd5b80634ce0a872146106405780634f6ccce7146106605780635c975abb1461068057600080fd5b80633f4ba83a1161025f5780633f4ba83a146105bb57806342842e0e146105d0578063438c9cab146105f05780634c18a8ec1461061057600080fd5b806327d7cedb146105495780632f745c5914610569578063342df9b21461058957600080fd5b8063095ea7b3116102f25780631bd2eeee116102cc5780631bd2eeee146104d65780631bf7509b146104f657806320bf6ddb1461051657806323b872dd1461052957600080fd5b8063095ea7b31461044d57806318160ddd1461046d5780631b9bdb121461048c57600080fd5b806244253614610338578062d34b541461035a57806301ffc9a714610385578063038c8975146103b557806306fdde03146103f3578063081812fc14610415575b600080fd5b34801561034457600080fd5b50610358610353366004615590565b610aa8565b005b34801561036657600080fd5b5061036f610b4c565b60405161037c9190615dcf565b60405180910390f35b34801561039157600080fd5b506103a56103a0366004615779565b610c23565b604051901515815260200161037c565b3480156103c157600080fd5b506103e66103d0366004615590565b6000908152610130602052604090205460ff1690565b60405161037c9190615f2d565b3480156103ff57600080fd5b50610408610c34565b60405161037c9190615f55565b34801561042157600080fd5b50610435610430366004615590565b610cc6565b6040516001600160a01b03909116815260200161037c565b34801561045957600080fd5b50610358610468366004615566565b610d4e565b34801561047957600080fd5b506099545b60405190815260200161037c565b34801561049857600080fd5b5061047e6104a7366004615533565b600091825261012f602090815260408084206001600160a01b0395909516845293815283832091835252205490565b3480156104e257600080fd5b506103586104f1366004615590565b610e64565b34801561050257600080fd5b5061036f610511366004615418565b611027565b61047e610524366004615747565b61104c565b34801561053557600080fd5b50610358610544366004615466565b611353565b34801561055557600080fd5b5061036f61056436600461564b565b611384565b34801561057557600080fd5b5061047e610584366004615566565b611541565b34801561059557600080fd5b506105a96105a4366004615590565b6115d7565b60405161037c96959493929190615e3b565b3480156105c757600080fd5b506103586116a7565b3480156105dc57600080fd5b506103586105eb366004615466565b611726565b3480156105fc57600080fd5b5061035861060b366004615600565b611741565b34801561061c57600080fd5b5061063061062b366004615590565b611813565b60405161037c9493929190615e07565b34801561064c57600080fd5b5061035861065b3660046156e7565b6118e0565b34801561066c57600080fd5b5061047e61067b366004615590565b6119a4565b34801561068c57600080fd5b506101315460ff166103a5565b3480156106a557600080fd5b506103586106b4366004615590565b611a37565b3480156106c557600080fd5b506103586106d4366004615677565b611adc565b3480156106e557600080fd5b506104356106f4366004615590565b611d47565b34801561070557600080fd5b506105a9610714366004615590565b611dbe565b34801561072557600080fd5b50610358610734366004615590565b611df6565b34801561074557600080fd5b5061047e610754366004615418565b611e84565b34801561076557600080fd5b50610358611f0b565b34801561077a57600080fd5b50610358611f40565b34801561078f57600080fd5b506103586120b1565b3480156107a457600080fd5b50610163546001600160a01b0316610435565b3480156107c357600080fd5b506103586107d23660046155a9565b612108565b3480156107e357600080fd5b5061036f6107f2366004615590565b612206565b34801561080357600080fd5b50610408612269565b34801561081857600080fd5b50610358610827366004615590565b612278565b34801561083857600080fd5b506108446362155d6e81565b60405163ffffffff909116815260200161037c565b34801561086557600080fd5b50610358610874366004615509565b612319565b34801561088557600080fd5b50610358610894366004615590565b612328565b3480156108a557600080fd5b5061036f6123c8565b3480156108ba57600080fd5b506103586108c93660046154a2565b6123da565b3480156108da57600080fd5b5061036f6108e93660046155cc565b612412565b3480156108fa57600080fd5b50610408610909366004615590565b6125a6565b34801561091a57600080fd5b506104086040518060400160405280600f81526020016e68747470733a2f2f77696e2e736f2f60881b81525081565b34801561095557600080fd5b506103586109643660046157b3565b6125b1565b34801561097557600080fd5b5061035861098436600461586a565b6125e2565b34801561099557600080fd5b506103a56109a4366004615433565b6001600160a01b039182166000908152606a6020908152604080832093909416825291909152205460ff1690565b3480156109de57600080fd5b506109f26109ed366004615590565b6127e0565b60405161037c96959493929190615ec7565b610358610a12366004615533565b6128a9565b348015610a2357600080fd5b50610358610a32366004615418565b6128b4565b348015610a4357600080fd5b50610358610a52366004615806565b61294d565b348015610a6357600080fd5b50610a77610a72366004615590565b612bc7565b60405161037c959493929190615d88565b348015610a9457600080fd5b5061036f610aa3366004615590565b612c9b565b6000818152610199602052604090205481906001600160a01b0316336001600160a01b031614610af35760405162461bcd60e51b8152600401610aea90615fba565b60405180910390fd5b600082815261019960209081526040808320805460ff60a01b191690558051858152918201929092527f5c33859dfe8722791b5d72ad942a0895181f8a694288ec429394f620de15032091015b60405180910390a15050565b6060610b56612e04565b6001600160401b03811115610b6d57610b6d616298565b604051908082528060200260200182016040528015610b96578160200160208202803683370190505b5090506000805b610ba8610196612e6f565b811015610c1e576000610bbd61019683612e79565b60008181526101996020526040902054909150600160a01b900460ff1615610c0b5780848481518110610bf257610bf2616282565b602090810291909101015282610c07816161fb565b9350505b5080610c16816161fb565b915050610b9d565b505090565b6000610c2e82612e8c565b92915050565b606060658054610c43906161c0565b80601f0160208091040260200160405190810160405280929190818152602001828054610c6f906161c0565b8015610cbc5780601f10610c9157610100808354040283529160200191610cbc565b820191906000526020600020905b815481529060010190602001808311610c9f57829003601f168201915b5050505050905090565b6000610cd182612eb1565b610d325760405162461bcd60e51b815260206004820152602c60248201527f4552433732313a20617070726f76656420717565727920666f72206e6f6e657860448201526b34b9ba32b73a103a37b5b2b760a11b6064820152608401610aea565b506000908152606960205260409020546001600160a01b031690565b6000610d5982611d47565b9050806001600160a01b0316836001600160a01b03161415610dc75760405162461bcd60e51b815260206004820152602160248201527f4552433732313a20617070726f76616c20746f2063757272656e74206f776e656044820152603960f91b6064820152608401610aea565b336001600160a01b0382161480610de35750610de381336109a4565b610e555760405162461bcd60e51b815260206004820152603860248201527f4552433732313a20617070726f76652063616c6c6572206973206e6f74206f7760448201527f6e6572206e6f7220617070726f76656420666f7220616c6c00000000000000006064820152608401610aea565b610e5f8383612ece565b505050565b600081815261019d602052604090208054610eb25760405162461bcd60e51b815260206004820152600e60248201526d14dd185e481b9bdd08199bdd5b9960921b6044820152606401610aea565b6004810154610100900460ff1615610f025760405162461bcd60e51b8152602060048201526013602482015272105b1c9958591e4818da1958dad959081bdd5d606a1b6044820152606401610aea565b8054600081815261019b602090815260408083205483526101999091529020546001600160a01b0316338114610f4a5760405162461bcd60e51b8152600401610aea9061602a565b82600201548360010154610f5e9190616132565b610f6b906201518061615e565b610f79906362155d6e616132565b421015610fc85760405162461bcd60e51b815260206004820152601e60248201527f466f7262696464656e20756e6c65737320636865636b6f7574206461746500006044820152606401610aea565b60048301805461ff001916610100179055610fed610fe585611d47565b828487612f3c565b6040518481527f2c276699fefbad45f18509233bc03bb9cfdf41b18f32756933188bdef35fef55906020015b60405180910390a150505050565b6001600160a01b038116600090815261019860205260409020606090610c2e90612f48565b600061105b6101315460ff1690565b156110785760405162461bcd60e51b8152600401610aea90616000565b611083858585612f53565b600085815261019b6020526040812060028101549091906110a4858761615e565b6110ae919061615e565b9050803410156110f55760405162461bcd60e51b81526020600482015260126024820152714e6565642e204d6f72652e204d6f6e65792160701b6044820152606401610aea565b60005b858110156111d057600088815261019c60205260408120869161111b848b616132565b8152602001908152602001600020548460010154611139919061617d565b10156111805760405162461bcd60e51b8152602060048201526016602482015275496e73756666696369656e7420696e76656e746f727960501b6044820152606401610aea565b600088815261019c60205260408120869161119b848b616132565b815260200190815260200160002060008282546111b89190616132565b909155508190506111c8816161fb565b9150506110f8565b506111e061019580546001019055565b60006111ec6101955490565b90506111f833826130e6565b600061124d8285600001548b8b8b8b6040518060800160405280605c81526020016162e7605c91396040518060400160405280600f81526020016e68747470733a2f2f77696e2e736f2f60881b815250613100565b9050611259828261314f565b6040805160c0810182528a815260208082018b81528284018b8152606084018b815260006080860181815260a087018281528a835261019d87528883209751885594516001888101919091559351600288015591516003870155905160049095018054935115156101000261ff00199615159690961661ffff1990941693909317949094179091558c835261019e825292822080549384018155825290200182905561130c6113053390565b8a846128a9565b604080518a8152602081018490527fe04083eb622e3cb7d063f319076c83270c24acb409a3bc13abcfb36af60f8617910160405180910390a150925050505b949350505050565b61135d33826131da565b6113795760405162461bcd60e51b8152600401610aea90616096565b610e5f8383836132c0565b6060611391848484612f53565b600084815261019b60209081526040808320815160c08101835281548152600182015493810193909352600281015491830191909152600381015460ff80821615156060850152610100909104161515608083015260048101805460a0840191906113fb906161c0565b80601f0160208091040260200160405190810160405280929190818152602001828054611427906161c0565b80156114745780601f1061144957610100808354040283529160200191611474565b820191906000526020600020905b81548152906001019060200180831161145757829003601f168201915b50505050508152505090506000836001600160401b0381111561149957611499616298565b6040519080825280602002602001820160405280156114c2578160200160208202803683370190505b50905060005b8481101561153757600087815261019c60205260408120906114ea8389616132565b8152602001908152602001600020548360200151611508919061617d565b82828151811061151a5761151a616282565b60209081029190910101528061152f816161fb565b9150506114c8565b5095945050505050565b600061154c83611e84565b82106115ae5760405162461bcd60e51b815260206004820152602b60248201527f455243373231456e756d657261626c653a206f776e657220696e646578206f7560448201526a74206f6620626f756e647360a81b6064820152608401610aea565b506001600160a01b03919091166000908152609760209081526040808320938352929052205490565b600081815261019b60205260409020600381015481546001830154600284015460048501805460ff61010087048116979596949593941692606092909161161d906161c0565b80601f0160208091040260200160405190810160405280929190818152602001828054611649906161c0565b80156116965780601f1061166b57610100808354040283529160200191611696565b820191906000526020600020905b81548152906001019060200180831161167957829003601f168201915b505050505091505091939550919395565b6101315460ff166116f15760405162461bcd60e51b815260206004820152601460248201527314185d5cd8589b194e881b9bdd081c185d5cd95960621b6044820152606401610aea565b610163546001600160a01b0316331461171c5760405162461bcd60e51b8152600401610aea90616061565b611724613467565b565b610e5f838383604051806020016040528060008152506123da565b6000838152610199602052604090205483906001600160a01b0316336001600160a01b0316146117835760405162461bcd60e51b8152600401610aea90615fba565b6117c283838080601f0160208091040260200160405190810160405280939291908181526020018383808284376000920191909152506134fc92505050565b6000848152610199602052604090206117df906001018484615216565b507fb252d91e8d424ba6f9f1647d21d7b0bbd8e2a3cbb318aaecb0d735fba9f62c7f84848460405161101993929190615ea4565b600081815261019960205260409020805460018201805460ff600160a81b84048116946001600160a01b03851694600160a01b900490911692606092611858906161c0565b80601f0160208091040260200160405190810160405280929190818152602001828054611884906161c0565b80156118d15780601f106118a6576101008083540402835291602001916118d1565b820191906000526020600020905b8154815290600101906020018083116118b457829003601f168201915b50505050509150509193509193565b600085815261019b6020908152604080832054835261019990915290205485906001600160a01b0316336001600160a01b0316146119305760405162461bcd60e51b8152600401610aea9061602a565b600086815261019b60205260409020600181018690556002810185905561195b600482018585615216565b507f0cdd46b7a456c1e6514d3c451f487eb2ea5039ac3f54fc210e98ce69ecdb00758787878787604051611993959493929190615efc565b60405180910390a150505050505050565b60006119af60995490565b8210611a125760405162461bcd60e51b815260206004820152602c60248201527f455243373231456e756d657261626c653a20676c6f62616c20696e646578206f60448201526b7574206f6620626f756e647360a01b6064820152608401610aea565b60998281548110611a2557611a25616282565b90600052602060002001549050919050565b600081815261019b6020908152604080832054835261019990915290205481906001600160a01b0316336001600160a01b031614611a875760405162461bcd60e51b8152600401610aea9061602a565b600082815261019b6020908152604091829020600301805460ff191660019081179091558251858152918201527ff95c289b48e2e0dc7c8f639934e871675404b92cf01f600493194c43e7949e859101610b40565b6101315460ff1615611b005760405162461bcd60e51b8152600401610aea90616000565b85611b0a8161354d565b611b2c816040518060600160405280602281526020016162c5602291396135b3565b611b6b83838080601f0160208091040260200160405190810160405280939291908181526020018383808284376000920191909152506134fc92505050565b6000818484604051602001611b82939291906159c1565b60408051808303601f190181529181528151602092830120600081815261019b909352912060030154909150610100900460ff1615611bfa5760405162461bcd60e51b8152602060048201526014602482015273537061636520616c72656164792065786973747360601b6044820152606401610aea565b6040518060c00160405280838152602001888152602001878152602001861515815260200160011515815260200185858080601f016020809104026020016040519081016040528093929190818152602001838380828437600092018290525093909452505083815261019b6020908152604091829020845181558482015160018201559184015160028301556060840151600383018054608087015115156101000261ff00199315159390931661ffff199091161791909117905560a08401518051929350611cd39260048501929190910190615296565b505050600082815261019a6020908152604080832080546001810182559084529190922001829055517f335958c15e70938d2bfae6c90457d7732a3e398f2423c491dc6503b67334745a90611d3590839085908b908b908b908b908b90615e70565b60405180910390a15050505050505050565b6000818152606760205260408120546001600160a01b031680610c2e5760405162461bcd60e51b815260206004820152602960248201527f4552433732313a206f776e657220717565727920666f72206e6f6e657869737460448201526832b73a103a37b5b2b760b91b6064820152608401610aea565b600081815261019d60205260408120548190819081908190606090611de2906115d7565b949c939b5091995097509550909350915050565b6000818152610199602052604090205481906001600160a01b0316336001600160a01b031614611e385760405162461bcd60e51b8152600401610aea90615fba565b6000828152610199602052604090819020805460ff60a81b19169055517f9cb52f05776b0f321eb9ca8c9e1b26b978036072417bf384bd406189f43864f890610b409084815260200190565b60006001600160a01b038216611eef5760405162461bcd60e51b815260206004820152602a60248201527f4552433732313a2062616c616e636520717565727920666f7220746865207a65604482015269726f206164647265737360b01b6064820152608401610aea565b506001600160a01b031660009081526068602052604090205490565b610163546001600160a01b03163314611f365760405162461bcd60e51b8152600401610aea90616061565b61172460006135ed565b600054610100900460ff16611f5b5760005460ff1615611f5f565b303b155b611fc25760405162461bcd60e51b815260206004820152602e60248201527f496e697469616c697a61626c653a20636f6e747261637420697320616c72656160448201526d191e481a5b9a5d1a585b1a5e995960921b6064820152608401610aea565b600054610100900460ff16158015611fe4576000805461ffff19166101011790555b6120336040518060400160405280600e81526020016d5374617920416d7374657264616d60901b8152506040518060400160405280600781526020016653544159414d5360c81b815250613640565b61207c6040518060400160405280600e81526020016d5374617920416d7374657264616d60901b815250604051806040016040528060018152602001603160f81b815250613671565b6120846136a2565b61208c6136a2565b6120946136c9565b61209c6136f8565b80156120ae576000805461ff00191690555b50565b6101315460ff16156120d55760405162461bcd60e51b8152600401610aea90616000565b610163546001600160a01b031633146121005760405162461bcd60e51b8152600401610aea90616061565b611724613727565b6000828152610199602052604090205482906001600160a01b0316336001600160a01b03161461214a5760405162461bcd60e51b8152600401610aea90615fba565b6001600160a01b03821660009081526101986020526040902061216d9084613781565b50600083815261019960209081526040808320546001600160a01b03168352610198909152902061219e908461378d565b506000838152610199602090815260409182902080546001600160a01b0319166001600160a01b038616908117909155915185815282917f11a520c5c4bfade8b450399ea67096dba36478d23d9a45f02e32989cfe307dde91015b60405180910390a3505050565b600081815261019a602090815260409182902080548351818402810184019094528084526060939283018282801561225d57602002820191906000526020600020905b815481526020019060010190808311612249575b50505050509050919050565b606060668054610c43906161c0565b600081815261019b6020908152604080832054835261019990915290205481906001600160a01b0316336001600160a01b0316146122c85760405162461bcd60e51b8152600401610aea9061602a565b600082815261019b60209081526040808320600301805460ff191690558051858152918201929092527ff95c289b48e2e0dc7c8f639934e871675404b92cf01f600493194c43e7949e859101610b40565b612324338383613799565b5050565b6000818152610199602052604090205481906001600160a01b0316336001600160a01b03161461236a5760405162461bcd60e51b8152600401610aea90615fba565b6000828152610199602052604090819020805460ff60a01b1916600160a01b179055517f5c33859dfe8722791b5d72ad942a0895181f8a694288ec429394f620de15032090610b409084906001909182521515602082015260400190565b60606123d5610196612f48565b905090565b6123e433836131da565b6124005760405162461bcd60e51b8152600401610aea90616096565b61240c84848484613860565b50505050565b600082815261019e60205260408120606091805b82548110156124ae5784600281111561244157612441616256565b61247784838154811061245657612456616282565b90600052602060002001546000908152610130602052604090205460ff1690565b600281111561248857612488616256565b141561249c5781612498816161fb565b9250505b806124a6816161fb565b915050612426565b506000816001600160401b038111156124c9576124c9616298565b6040519080825280602002602001820160405280156124f2578160200160208202803683370190505b5090506000805b845481101561259a5786600281111561251457612514616256565b61252986838154811061245657612456616282565b600281111561253a5761253a616256565b14156125885784818154811061255257612552616282565b906000526020600020015483838151811061256f5761256f616282565b602090810291909101015281612584816161fb565b9250505b80612592816161fb565b9150506124f9565b50909695505050505050565b6060610c2e82613893565b6101315460ff16156125d55760405162461bcd60e51b8152600401610aea90616000565b610e5f838383600061294d565b60006125ed82613a02565b600084815261019d60205260409020805491925090806126405760405162461bcd60e51b815260206004820152600e60248201526d14dd185e481b9bdd08199bdd5b9960921b6044820152606401610aea565b600482015460ff161561268a5760405162461bcd60e51b815260206004820152601260248201527120b63932b0b23c9031b432b1b5b2b21034b760711b6044820152606401610aea565b600081815261019b60209081526040808320805484526101999092529091206126b287611d47565b6001600160a01b0316856001600160a01b031614806126dd575080546001600160a01b038681169116145b6127295760405162461bcd60e51b815260206004820152601d60248201527f566f7563686572207369676e6572206973206e6f7420616c6c6f7765640000006044820152606401610aea565b60208601516001600160a01b0316336001600160a01b03161461277d5760405162461bcd60e51b815260206004820152600c60248201526b2bb937b7339031b0b63632b960a11b6044820152606401610aea565b600282015460048501805460ff191660011790556127b061279d89611d47565b83546001600160a01b031683878c613b10565b6040518881527fdf06c27528e294967ba5e32e69b9c5fe102a58c699c44740c2c4c6afc719253590602001611d35565b61019b602052600090815260409020805460018201546002830154600384015460048501805494959394929360ff808416946101009094041692909190612826906161c0565b80601f0160208091040260200160405190810160405280929190818152602001828054612852906161c0565b801561289f5780601f106128745761010080835404028352916020019161289f565b820191906000526020600020905b81548152906001019060200180831161288257829003601f168201915b5050505050905086565b610e5f838383613b98565b610163546001600160a01b031633146128df5760405162461bcd60e51b8152600401610aea90616061565b6001600160a01b0381166129445760405162461bcd60e51b815260206004820152602660248201527f4f776e61626c653a206e6577206f776e657220697320746865207a65726f206160448201526564647265737360d01b6064820152608401610aea565b6120ae816135ed565b6101315460ff16156129715760405162461bcd60e51b8152600401610aea90616000565b6129b084848080601f0160208091040260200160405190810160405280939291908181526020018383808284376000920191909152506134fc92505050565b60003385856040516020016129c793929190615995565b60408051808303601f1901815291815281516020928301206000818152610199909352912054909150600160a81b900460ff1615612a475760405162461bcd60e51b815260206004820152601760248201527f466163696c69747920616c7265616479206578697374730000000000000000006044820152606401610aea565b6040518060a00160405280612a593390565b6001600160a01b03168152602001841515815260200160011515815260200186868080601f01602080910402602001604051908101604052809392919081815260200183838082843760009201829052509385525050506001600160a01b0380861660209384015284825261019983526040918290208451815486860151948701511515600160a81b0260ff60a81b19951515600160a01b026001600160a81b031990921692909416919091171792909216178155606083015180519192612b2992600185019290910190615296565b5060809190910151600290910180546001600160a01b0319166001600160a01b03909216919091179055612b5f61019682613781565b5033600090815261019860205260409020612b7a9082613781565b50336001600160a01b03167f28c9a25063d40c8cf423202182ed575cc97982c1fd1771bd9721e19a38cc491d828787604051612bb893929190615ea4565b60405180910390a25050505050565b61019960205260009081526040902080546001820180546001600160a01b0383169360ff600160a01b8504811694600160a81b900416929091612c09906161c0565b80601f0160208091040260200160405190810160405280929190818152602001828054612c35906161c0565b8015612c825780601f10612c5757610100808354040283529160200191612c82565b820191906000526020600020905b815481529060010190602001808311612c6557829003601f168201915b505050600290930154919250506001600160a01b031685565b6060612ca682613c44565b6001600160401b03811115612cbd57612cbd616298565b604051908082528060200260200182016040528015612ce6578160200160208202803683370190505b50600083815261019a6020908152604080832080548251818502810185019093528083529495509293909291830182828015612d4157602002820191906000526020600020905b815481526020019060010190808311612d2d575b50505050509050600080600090505b8251811015612ded5761019b6000848381518110612d7057612d70616282565b60209081029190910181015182528101919091526040016000206003015460ff1615612ddb57828181518110612da857612da8616282565b6020026020010151848381518110612dc257612dc2616282565b602090810291909101015281612dd7816161fb565b9250505b80612de5816161fb565b915050612d50565b505050919050565b6001600160a01b03163b151590565b6000805b612e13610196612e6f565b811015612e6b576101996000612e2b61019684612e79565b8152602081019190915260400160002054600160a01b900460ff1615612e595781612e55816161fb565b9250505b80612e63816161fb565b915050612e08565b5090565b6000610c2e825490565b6000612e858383613cc3565b9392505050565b60006001600160e01b0319821663780e9d6360e01b1480610c2e5750610c2e82613ced565b6000908152606760205260409020546001600160a01b0316151590565b600081815260696020526040902080546001600160a01b0319166001600160a01b0384169081179091558190612f0382611d47565b6001600160a01b03167f8c5be1e5ebec7d5bd14f71427d1e84f3dd0314c0f7b2291e5b200ac8c7c3b92560405160405180910390a45050565b61240c84848484613d3d565b6060610c2e82613e9e565b612f606202a3004261617d565b612f6d836201518061615e565b612f7b906362155d6e616132565b11612fc15760405162461bcd60e51b8152602060048201526016602482015275111bdb89dd081cdd185e481a5b881d1a19481c185cdd60521b6044820152606401610aea565b600083815261019b60209081526040808320548352610199909152902054600160a01b900460ff166130355760405162461bcd60e51b815260206004820152601c60248201527f4c6f6467696e6720466163696c69747920697320696e616374697665000000006044820152606401610aea565b600083815261019b602052604090206003015460ff1661308b5760405162461bcd60e51b8152602060048201526011602482015270537061636520697320696e61637469766560781b6044820152606401610aea565b60008111610e5f5760405162461bcd60e51b815260206004820152602260248201527f4e756d626572206f6620646179732073686f756c642062652031206f72206d6f604482015261726560f01b6064820152608401610aea565b612324828260405180602001604052806000815250613ef8565b60606131426131108a8585613f2b565b61311d8a8a8a8a8a613f6c565b60405160200161312e929190615caf565b604051602081830303815290604052613fc9565b9998505050505050505050565b61315882612eb1565b6131bb5760405162461bcd60e51b815260206004820152602e60248201527f45524337323155524953746f726167653a2055524920736574206f66206e6f6e60448201526d32bc34b9ba32b73a103a37b5b2b760911b6064820152608401610aea565b600082815260c9602090815260409091208251610e5f92840190615296565b60006131e582612eb1565b6132465760405162461bcd60e51b815260206004820152602c60248201527f4552433732313a206f70657261746f7220717565727920666f72206e6f6e657860448201526b34b9ba32b73a103a37b5b2b760a11b6064820152608401610aea565b600061325183611d47565b9050806001600160a01b0316846001600160a01b0316148061328c5750836001600160a01b031661328184610cc6565b6001600160a01b0316145b8061134b57506001600160a01b038082166000908152606a602090815260408083209388168352929052205460ff1661134b565b826001600160a01b03166132d382611d47565b6001600160a01b0316146133375760405162461bcd60e51b815260206004820152602560248201527f4552433732313a207472616e736665722066726f6d20696e636f72726563742060448201526437bbb732b960d91b6064820152608401610aea565b6001600160a01b0382166133995760405162461bcd60e51b8152602060048201526024808201527f4552433732313a207472616e7366657220746f20746865207a65726f206164646044820152637265737360e01b6064820152608401610aea565b6133a4838383613ffa565b6133af600082612ece565b6001600160a01b03831660009081526068602052604081208054600192906133d890849061617d565b90915550506001600160a01b0382166000908152606860205260408120805460019290613406908490616132565b909155505060008181526067602052604080822080546001600160a01b0319166001600160a01b0386811691821790925591518493918716917fddf252ad1be2c89b69c2b068fc378daa952ba7f163c4a11628f55a4df523b3ef91a4505050565b6101315460ff166134b15760405162461bcd60e51b815260206004820152601460248201527314185d5cd8589b194e881b9bdd081c185d5cd95960621b6044820152606401610aea565b610131805460ff191690557f5db9ee0a495bf2e6ff9c91a7834c1ba4fdd244a5e8aa4e537bd38aeae4b073aa335b6040516001600160a01b03909116815260200160405180910390a1565b60008151116120ae5760405162461bcd60e51b815260206004820152601960248201527f4461746120555249206d7573742062652070726f7669646564000000000000006044820152606401610aea565b60008181526101996020526040902054600160a81b900460ff166120ae5760405162461bcd60e51b815260206004820152601760248201527f466163696c69747920646f6573206e6f742065786973740000000000000000006044820152606401610aea565b6000828152610199602052604090205481906001600160a01b03163314610e5f5760405162461bcd60e51b8152600401610aea9190615f55565b61016380546001600160a01b038381166001600160a01b0319831681179093556040519116919082907f8be0079c531659141344cd1fd0a4f28419497f9722a3daafe3b4186f6b6457e090600090a35050565b600054610100900460ff166136675760405162461bcd60e51b8152600401610aea906160e7565b6123248282614082565b600054610100900460ff166136985760405162461bcd60e51b8152600401610aea906160e7565b61232482826140d0565b600054610100900460ff166117245760405162461bcd60e51b8152600401610aea906160e7565b600054610100900460ff166136f05760405162461bcd60e51b8152600401610aea906160e7565b611724614111565b600054610100900460ff1661371f5760405162461bcd60e51b8152600401610aea906160e7565b611724614145565b6101315460ff161561374b5760405162461bcd60e51b8152600401610aea90616000565b610131805460ff191660011790557f62e78cea01bee320cd4e420270b5ea74000d11b0c9f74754ebdbfc544b05a2586134df3390565b6000612e858383614175565b6000612e8583836141c4565b816001600160a01b0316836001600160a01b031614156137fb5760405162461bcd60e51b815260206004820152601960248201527f4552433732313a20617070726f766520746f2063616c6c6572000000000000006044820152606401610aea565b6001600160a01b038381166000818152606a6020908152604080832094871680845294825291829020805460ff191686151590811790915591519182527f17307eab39ab6107e8899845ad3d59bd9653f200f220920489ca2b5937696c3191016121f9565b61386b8484846132c0565b613877848484846142b7565b61240c5760405162461bcd60e51b8152600401610aea90615f68565b606061389e82612eb1565b6139045760405162461bcd60e51b815260206004820152603160248201527f45524337323155524953746f726167653a2055524920717565727920666f72206044820152703737b732bc34b9ba32b73a103a37b5b2b760791b6064820152608401610aea565b600082815260c960205260408120805461391d906161c0565b80601f0160208091040260200160405190810160405280929190818152602001828054613949906161c0565b80156139965780601f1061396b57610100808354040283529160200191613996565b820191906000526020600020905b81548152906001019060200180831161397957829003601f168201915b5050505050905060006139b460408051602081019091526000815290565b90508051600014156139c7575092915050565b8151156139f95780826040516020016139e19291906159db565b60405160208183030381529060405292505050919050565b61134b846143c1565b600080613a867fe14fce867d3bcfe3e7c779de069d9e179b67b9288baf649805c61c495483896b846000015185602001518660400151604051602001613a6b94939291909384526001600160a01b03928316602085015291166040830152606082015260800190565b60405160208183030381529060405280519060200120614498565b9050600080613a998386606001516144e6565b90925090506000816004811115613ab257613ab2616256565b148015613acb575084516001600160a01b038381169116145b613b085760405162461bcd60e51b815260206004820152600e60248201526d213937b5b2b7103b37bab1b432b960911b6044820152606401610aea565b509392505050565b600082815261019b6020526040902060020154831115613b845760405162461bcd60e51b815260206004820152602960248201527f576974686472617720616d6f756e74206e6f7420616c6c6f77656420696e207460448201526868697320737461746560b81b6064820152608401610aea565b613b918585858585614556565b5050505050565b600082815261012f602090815260408083206001600160a01b03871684528252808320848452909152812080543492839291613bd5908490616132565b909155505060008281526101306020908152604091829020805460ff1916905581518381529081018590529081018390526001600160a01b038516907f4eef3d1efb11f00508d9b7bb632ddcfa6da9d7105bd39f404bdd7362e6c59dbc9060600160405180910390a250505050565b600081815261019a60205260408120815b8154811015613cbc5761019b6000838381548110613c7557613c75616282565b6000918252602080832090910154835282019290925260400190206003015460ff1615613caa5782613ca6816161fb565b9350505b80613cb4816161fb565b915050613c55565b5050919050565b6000826000018281548110613cda57613cda616282565b9060005260206000200154905092915050565b60006001600160e01b031982166380ac58cd60e01b1480613d1e57506001600160e01b03198216635b5e139f60e01b145b80610c2e57506301ffc9a760e01b6001600160e01b0319831614610c2e565b600082815261012f602090815260408083206001600160a01b038816845282528083208484528252808320546101309092529091205460019060ff166002811115613d8a57613d8a616256565b14613deb5760405162461bcd60e51b815260206004820152602b60248201527f436f6d706c657465207769746864726177206e6f7420616c6c6f77656420696e60448201526a207468697320737461746560a81b6064820152608401610aea565b600083815261012f602090815260408083206001600160a01b0389168452825280832085845282528083208390556101309091529020805460ff191660021790558015613b9157613e456001600160a01b0385168261469b565b60408051828152602081018590529081018390526001600160a01b0380861691908716907f89eeb38ad2da123e4b3662ad415c1856733f76deaccee072a5234ab427ffdb70906060015b60405180910390a35050505050565b60608160000180548060200260200160405190810160405280929190818152602001828054801561225d57602002820191906000526020600020908154815260200190600101908083116122495750505050509050919050565b613f0283836147b4565b613f0f60008484846142b7565b610e5f5760405162461bcd60e51b8152600401610aea90615f68565b6060613f36846148f3565b8383613f41876148f3565b604051602001613f549493929190615b9e565b60405160208183030381529060405290509392505050565b6060613f77866149f0565b613f80866149f0565b613f89866148f3565b613f92866148f3565b613f9b866148f3565b604051602001613faf959493929190615a0a565b604051602081830303815290604052905095945050505050565b6060613fd482614a2b565b604051602001613fe49190615d06565b6040516020818303038152906040529050919050565b614005838383614b7e565b6001600160a01b0383161580159061402557506001600160a01b03821615155b15610e5f57600081815261019d6020908152604080832054835261012f82528083206001600160a01b0380881685528184528285208686528452828520805490869055908716855290835281842085855290925290912055505050565b600054610100900460ff166140a95760405162461bcd60e51b8152600401610aea906160e7565b81516140bc906065906020850190615296565b508051610e5f906066906020840190615296565b600054610100900460ff166140f75760405162461bcd60e51b8152600401610aea906160e7565b81516020928301208151919092012060fb9190915560fc55565b600054610100900460ff166141385760405162461bcd60e51b8152600401610aea906160e7565b610131805460ff19169055565b600054610100900460ff1661416c5760405162461bcd60e51b8152600401610aea906160e7565b611724336135ed565b60008181526001830160205260408120546141bc57508154600181810184556000848152602080822090930184905584548482528286019093526040902091909155610c2e565b506000610c2e565b600081815260018301602052604081205480156142ad5760006141e860018361617d565b85549091506000906141fc9060019061617d565b905081811461426157600086600001828154811061421c5761421c616282565b906000526020600020015490508087600001848154811061423f5761423f616282565b6000918252602080832090910192909255918252600188019052604090208390555b85548690806142725761427261626c565b600190038181906000526020600020016000905590558560010160008681526020019081526020016000206000905560019350505050610c2e565b6000915050610c2e565b60006001600160a01b0384163b156143b957604051630a85bd0160e11b81526001600160a01b0385169063150b7a02906142fb903390899088908890600401615d4b565b602060405180830381600087803b15801561431557600080fd5b505af1925050508015614345575060408051601f3d908101601f1916820190925261434291810190615796565b60015b61439f573d808015614373576040519150601f19603f3d011682016040523d82523d6000602084013e614378565b606091505b5080516143975760405162461bcd60e51b8152600401610aea90615f68565b805181602001fd5b6001600160e01b031916630a85bd0160e11b14905061134b565b50600161134b565b60606143cc82612eb1565b6144305760405162461bcd60e51b815260206004820152602f60248201527f4552433732314d657461646174613a2055524920717565727920666f72206e6f60448201526e3732bc34b9ba32b73a103a37b5b2b760891b6064820152608401610aea565b600061444760408051602081019091526000815290565b905060008151116144675760405180602001604052806000815250612e85565b8061447184614c36565b6040516020016144829291906159db565b6040516020818303038152906040529392505050565b6000610c2e6144a5614d33565b8360405161190160f01b6020820152602281018390526042810182905260009060620160405160208183030381529060405280519060200120905092915050565b60008082516041141561451d5760208301516040840151606085015160001a61451187828585614dae565b9450945050505061454f565b825160401415614547576020830151604084015161453c868383614e9b565b93509350505061454f565b506000905060025b9250929050565b600082815261012f602090815260408083206001600160a01b038916845282528083208484529091529020548311156145c65760405162461bcd60e51b8152602060048201526012602482015271496e73756666696369656e742066756e647360701b6044820152606401610aea565b600082815261012f602090815260408083206001600160a01b038916845282528083208484529091529020546145fd90849061617d565b600083815261012f602090815260408083206001600160a01b038a811685529083528184208685528352818420949094556101309091529020805460ff1916600117905561464d9085168461469b565b60408051848152602081018490529081018290526001600160a01b0380861691908716907f89eeb38ad2da123e4b3662ad415c1856733f76deaccee072a5234ab427ffdb7090606001613e8f565b804710156146eb5760405162461bcd60e51b815260206004820152601d60248201527f416464726573733a20696e73756666696369656e742062616c616e63650000006044820152606401610aea565b6000826001600160a01b03168260405160006040518083038185875af1925050503d8060008114614738576040519150601f19603f3d011682016040523d82523d6000602084013e61473d565b606091505b5050905080610e5f5760405162461bcd60e51b815260206004820152603a60248201527f416464726573733a20756e61626c6520746f2073656e642076616c75652c207260448201527f6563697069656e74206d617920686176652072657665727465640000000000006064820152608401610aea565b6001600160a01b03821661480a5760405162461bcd60e51b815260206004820181905260248201527f4552433732313a206d696e7420746f20746865207a65726f20616464726573736044820152606401610aea565b61481381612eb1565b156148605760405162461bcd60e51b815260206004820152601c60248201527f4552433732313a20746f6b656e20616c7265616479206d696e746564000000006044820152606401610aea565b61486c60008383613ffa565b6001600160a01b0382166000908152606860205260408120805460019290614895908490616132565b909155505060008181526067602052604080822080546001600160a01b0319166001600160a01b03861690811790915590518392907fddf252ad1be2c89b69c2b068fc378daa952ba7f163c4a11628f55a4df523b3ef908290a45050565b6060816149175750506040805180820190915260018152600360fc1b602082015290565b8160005b8115614941578061492b816161fb565b915061493a9050600a8361614a565b915061491b565b6000816001600160401b0381111561495b5761495b616298565b6040519080825280601f01601f191660200182016040528015614985576020820181803683370190505b5090505b841561134b5761499a60018361617d565b91506149a7600a86616216565b6149b2906030616132565b60f81b8183815181106149c7576149c7616282565b60200101906001600160f81b031916908160001a9053506149e9600a8661614a565b9450614989565b60606149fb82614ed4565b614a08608084901b614ed4565b60405161060f60f31b602082015260228101929092526042820152606201613fe4565b6060815160001415614a4b57505060408051602081019091526000815290565b60006040518060600160405280604081526020016163436040913990506000600384516002614a7a9190616132565b614a84919061614a565b614a8f90600461615e565b6001600160401b03811115614aa657614aa6616298565b6040519080825280601f01601f191660200182016040528015614ad0576020820181803683370190505b509050600182016020820185865187015b80821015614b3c576003820191508151603f8160121c168501518453600184019350603f81600c1c168501518453600184019350603f8160061c168501518453600184019350603f8116850151845350600183019250614ae1565b5050600386510660018114614b585760028114614b6b57614b73565b603d6001830353603d6002830353614b73565b603d60018303535b509195945050505050565b6001600160a01b038316614bd957614bd481609980546000838152609a60205260408120829055600182018355919091527f72a152ddfb8e864297c917af52ea6c1c68aead0fee1a62673fcc7e0c94979d000155565b614bfc565b816001600160a01b0316836001600160a01b031614614bfc57614bfc8382615086565b6001600160a01b038216614c1357610e5f81615123565b826001600160a01b0316826001600160a01b031614610e5f57610e5f82826151d2565b606081614c5a5750506040805180820190915260018152600360fc1b602082015290565b8160005b8115614c845780614c6e816161fb565b9150614c7d9050600a8361614a565b9150614c5e565b6000816001600160401b03811115614c9e57614c9e616298565b6040519080825280601f01601f191660200182016040528015614cc8576020820181803683370190505b5090505b841561134b57614cdd60018361617d565b9150614cea600a86616216565b614cf5906030616132565b60f81b818381518110614d0a57614d0a616282565b60200101906001600160f81b031916908160001a905350614d2c600a8661614a565b9450614ccc565b60006123d57f8b73c3c69bb8fe3d512ecc4cf759cc79239f7b179b0ffacaa9a75d522b39400f614d6260fb5490565b60fc546040805160208101859052908101839052606081018290524660808201523060a082015260009060c0016040516020818303038152906040528051906020012090509392505050565b6000807f7fffffffffffffffffffffffffffffff5d576e7357a4501ddfe92f46681b20a0831115614de55750600090506003614e92565b8460ff16601b14158015614dfd57508460ff16601c14155b15614e0e5750600090506004614e92565b6040805160008082526020820180845289905260ff881692820192909252606081018690526080810185905260019060a0016020604051602081039080840390855afa158015614e62573d6000803e3d6000fd5b5050604051601f1901519150506001600160a01b038116614e8b57600060019250925050614e92565b9150600090505b94509492505050565b6000806001600160ff1b03831681614eb860ff86901c601b616132565b9050614ec687828885614dae565b935093505050935093915050565b7aff00000000000000ff00000000000000ff00000000000000ff00006bffffffff0000000000000000604083901c90811663ffffffff60c01b84161760201c63ffffffff60601b919091166001600160e01b031984161717601081901c9182167eff00000000000000ff00000000000000ff00000000000000ff000000000000821617600890811c7bff00000000000000ff00000000000000ff00000000000000ff000000939093167fff00000000000000ff00000000000000ff00000000000000ff000000000000009290921691909117919091179081901c7e0f000f000f000f000f000f000f000f000f000f000f000f000f000f000f000f167f0f000f000f000f000f000f000f000f000f000f000f000f000f000f000f000f00600492831c161790615022827f0606060606060606060606060606060606060606060606060606060606060606616132565b901c7f0f0f0f0f0f0f0f0f0f0f0f0f0f0f0f0f0f0f0f0f0f0f0f0f0f0f0f0f0f0f0f0f166007615052919061615e565b61507c827f3030303030303030303030303030303030303030303030303030303030303030616132565b610c2e9190616132565b6000600161509384611e84565b61509d919061617d565b6000838152609860205260409020549091508082146150f0576001600160a01b03841660009081526097602090815260408083208584528252808320548484528184208190558352609890915290208190555b5060009182526098602090815260408084208490556001600160a01b039094168352609781528383209183525290812055565b6099546000906151359060019061617d565b6000838152609a60205260408120546099805493945090928490811061515d5761515d616282565b90600052602060002001549050806099838154811061517e5761517e616282565b6000918252602080832090910192909255828152609a909152604080822084905585825281205560998054806151b6576151b661626c565b6001900381819060005260206000200160009055905550505050565b60006151dd83611e84565b6001600160a01b039093166000908152609760209081526040808320868452825280832085905593825260989052919091209190915550565b828054615222906161c0565b90600052602060002090601f016020900481019282615244576000855561528a565b82601f1061525d5782800160ff1982351617855561528a565b8280016001018555821561528a579182015b8281111561528a57823582559160200191906001019061526f565b50612e6b92915061530a565b8280546152a2906161c0565b90600052602060002090601f0160209004810192826152c4576000855561528a565b82601f106152dd57805160ff191683800117855561528a565b8280016001018555821561528a579182015b8281111561528a5782518255916020019190600101906152ef565b5b80821115612e6b576000815560010161530b565b80356001600160a01b038116811461533657600080fd5b919050565b8035801515811461533657600080fd5b600082601f83011261535c57600080fd5b81356001600160401b038082111561537657615376616298565b604051601f8301601f19908116603f0116810190828211818310171561539e5761539e616298565b816040528381528660208588010111156153b757600080fd5b836020870160208301376000602085830101528094505050505092915050565b60008083601f8401126153e957600080fd5b5081356001600160401b0381111561540057600080fd5b60208301915083602082850101111561454f57600080fd5b60006020828403121561542a57600080fd5b612e858261531f565b6000806040838503121561544657600080fd5b61544f8361531f565b915061545d6020840161531f565b90509250929050565b60008060006060848603121561547b57600080fd5b6154848461531f565b92506154926020850161531f565b9150604084013590509250925092565b600080600080608085870312156154b857600080fd5b6154c18561531f565b93506154cf6020860161531f565b92506040850135915060608501356001600160401b038111156154f157600080fd5b6154fd8782880161534b565b91505092959194509250565b6000806040838503121561551c57600080fd5b6155258361531f565b915061545d6020840161533b565b60008060006060848603121561554857600080fd5b6155518461531f565b95602085013595506040909401359392505050565b6000806040838503121561557957600080fd5b6155828361531f565b946020939093013593505050565b6000602082840312156155a257600080fd5b5035919050565b600080604083850312156155bc57600080fd5b8235915061545d6020840161531f565b600080604083850312156155df57600080fd5b823591506020830135600381106155f557600080fd5b809150509250929050565b60008060006040848603121561561557600080fd5b8335925060208401356001600160401b0381111561563257600080fd5b61563e868287016153d7565b9497909650939450505050565b60008060006060848603121561566057600080fd5b505081359360208301359350604090920135919050565b60008060008060008060a0878903121561569057600080fd5b8635955060208701359450604087013593506156ae6060880161533b565b925060808701356001600160401b038111156156c957600080fd5b6156d589828a016153d7565b979a9699509497509295939492505050565b6000806000806000608086880312156156ff57600080fd5b85359450602086013593506040860135925060608601356001600160401b0381111561572a57600080fd5b615736888289016153d7565b969995985093965092949392505050565b6000806000806080858703121561575d57600080fd5b5050823594602084013594506040840135936060013592509050565b60006020828403121561578b57600080fd5b8135612e85816162ae565b6000602082840312156157a857600080fd5b8151612e85816162ae565b6000806000604084860312156157c857600080fd5b83356001600160401b038111156157de57600080fd5b6157ea868287016153d7565b90945092506157fd90506020850161533b565b90509250925092565b6000806000806060858703121561581c57600080fd5b84356001600160401b0381111561583257600080fd5b61583e878288016153d7565b909550935061585190506020860161533b565b915061585f6040860161531f565b905092959194509250565b6000806040838503121561587d57600080fd5b8235915060208301356001600160401b038082111561589b57600080fd5b90840190608082870312156158af57600080fd5b6040516080810181811083821117156158ca576158ca616298565b6040526158d68361531f565b81526158e46020840161531f565b60208201526040830135604082015260608301358281111561590557600080fd5b6159118882860161534b565b6060830152508093505050509250929050565b6000815180845261593c816020860160208601616194565b601f01601f19169290920160200192915050565b81835281816020850137506000828201602090810191909152601f909101601f19169091010190565b6000815161598b818560208601616194565b9290920192915050565b6bffffffffffffffffffffffff198460601b168152818360148301376000910160140190815292915050565b838152818360208301376000910160200190815292915050565b600083516159ed818460208801616194565b835190830190615a01818360208801616194565b01949350505050565b7f2261747472696275746573223a5b7b2274726169745f74797065223a2266616381527134b634ba3ca4b21116113b30b63ab2911d1160711b602082015260008651615a5d816032850160208b01616194565b7f227d2c7b2274726169745f74797065223a2273706163654964222c2276616c756032918401918201526332911d1160e11b60528201528651615aa7816056840160208b01616194565b7f227d2c7b2274726169745f74797065223a227374617274446179222c2276616c60569290910191820152643ab2911d1160d91b60768201528551615af381607b840160208a01616194565b7f227d2c7b2274726169745f74797065223a226e756d6265724f6644617973222c607b929091019182015268113b30b63ab2911d1160b91b609b820152615b92615b83615b7d615b4660a4850189615979565b7f227d2c7b2274726169745f74797065223a227175616e74697479222c2276616c8152643ab2911d1160d91b602082015260250190565b86615979565b62227d5d60e81b815260030190565b98975050505050505050565b7f226e616d65223a225374617920416d7374657264616d20230000000000000000815260008551615bd6816018850160208a01616194565b7f222c226465736372697074696f6e223a2253746179206174206c6f6467696e6760189184019182015273103330b1b4b634ba3c91161134b6b0b3b2911d1160611b60388201528551615c3081604c840160208a01616194565b7111161132bc3a32b93730b62fbab936111d1160711b604c92909101918201528451615c6381605e840160208901616194565b6e746f6b656e733f746f6b656e49643d60881b605e92909101918201528351615c9381606d840160208801616194565b601160f91b606d9290910191820152606e019695505050505050565b607b60f81b815260008351615ccb816001850160208801616194565b600b60fa1b6001918401918201528351615cec816002840160208801616194565b607d60f81b60029290910191820152600301949350505050565b7f646174613a6170706c69636174696f6e2f6a736f6e3b6261736536342c000000815260008251615d3e81601d850160208701616194565b91909101601d0192915050565b6001600160a01b0385811682528416602082015260408101839052608060608201819052600090615d7e90830184615924565b9695505050505050565b600060018060a01b0380881683528615156020840152851515604084015260a06060840152615dba60a0840186615924565b91508084166080840152509695505050505050565b6020808252825182820181905260009190848201906040850190845b8181101561259a57835183529284019291840191600101615deb565b84151581526001600160a01b03841660208201528215156040820152608060608201819052600090615d7e90830184615924565b8615158152856020820152846040820152836060820152821515608082015260c060a08201526000615b9260c0830184615924565b878152866020820152856040820152846060820152831515608082015260c060a0820152600061314260c083018486615950565b838152604060208201526000615ebe604083018486615950565b95945050505050565b8681528560208201528460408201528315156060820152821515608082015260c060a08201526000615b9260c0830184615924565b858152846020820152836040820152608060608201526000615f22608083018486615950565b979650505050505050565b6020810160038310615f4f57634e487b7160e01b600052602160045260246000fd5b91905290565b602081526000612e856020830184615924565b60208082526032908201527f4552433732313a207472616e7366657220746f206e6f6e20455243373231526560408201527131b2b4bb32b91034b6b83632b6b2b73a32b960711b606082015260800190565b60208082526026908201527f4f6e6c79206c6f6467696e6720666163696c697479206f776e657220697320616040820152651b1b1bddd95960d21b606082015260800190565b60208082526010908201526f14185d5cd8589b194e881c185d5cd95960821b604082015260600190565b6020808252601b908201527f4f6e6c79207370616365206f776e657220697320616c6c6f7765640000000000604082015260600190565b6020808252818101527f4f776e61626c653a2063616c6c6572206973206e6f7420746865206f776e6572604082015260600190565b60208082526031908201527f4552433732313a207472616e736665722063616c6c6572206973206e6f74206f6040820152701ddb995c881b9bdc88185c1c1c9bdd9959607a1b606082015260800190565b6020808252602b908201527f496e697469616c697a61626c653a20636f6e7472616374206973206e6f74206960408201526a6e697469616c697a696e6760a81b606082015260800190565b600082198211156161455761614561622a565b500190565b60008261615957616159616240565b500490565b60008160001904831182151516156161785761617861622a565b500290565b60008282101561618f5761618f61622a565b500390565b60005b838110156161af578181015183820152602001616197565b8381111561240c5750506000910152565b600181811c908216806161d457607f821691505b602082108114156161f557634e487b7160e01b600052602260045260246000fd5b50919050565b600060001982141561620f5761620f61622a565b5060010190565b60008261622557616225616240565b500690565b634e487b7160e01b600052601160045260246000fd5b634e487b7160e01b600052601260045260246000fd5b634e487b7160e01b600052602160045260246000fd5b634e487b7160e01b600052603160045260246000fd5b634e487b7160e01b600052603260045260246000fd5b634e487b7160e01b600052604160045260246000fd5b6001600160e01b0319811681146120ae57600080fdfe4f6e6c7920666163696c697479206f776e6572206d6179206164642053706163657368747470733a2f2f62616679626569616b6a726862676d7635346c346e73647778786364666b7065716833336d343561736d7736726b7768756a727977327161376e342e697066732e647765622e6c696e6b2f746f6b656e2e706e674142434445464748494a4b4c4d4e4f505152535455565758595a6162636465666768696a6b6c6d6e6f707172737475767778797a303132333435363738392b2fa26469706673582212201096c9df6cc4a9e78450b15a31479941a166b68e9e80f4d107f9b1b9357284bb64736f6c63430008070033",
  "linkReferences": {},
  "deployedLinkReferences": {}
}