{
  "_format": "hh-sol-artifact-1",
  "contractName": "Stays",
  "sourceName": "contracts/Stays.sol",
  "abi": [
    {
      "inputs": [],
      "stateMutability": "nonpayable",
      "type": "constructor"
    },
    {
      "anonymous": false,
      "inputs": [
        {
          "indexed": true,
          "internalType": "address",
          "name": "owner",
          "type": "address"
        },
        {
          "indexed": true,
          "internalType": "address",
          "name": "approved",
          "type": "address"
        },
        {
          "indexed": true,
          "internalType": "uint256",
          "name": "tokenId",
          "type": "uint256"
        }
      ],
      "name": "Approval",
      "type": "event"
    },
    {
      "anonymous": false,
      "inputs": [
        {
          "indexed": true,
          "internalType": "address",
          "name": "owner",
          "type": "address"
        },
        {
          "indexed": true,
          "internalType": "address",
          "name": "operator",
          "type": "address"
        },
        {
          "indexed": false,
          "internalType": "bool",
          "name": "approved",
          "type": "bool"
        }
      ],
      "name": "ApprovalForAll",
      "type": "event"
    },
    {
      "anonymous": false,
      "inputs": [
        {
          "indexed": false,
          "internalType": "uint256",
          "name": "tokenId",
          "type": "uint256"
        }
      ],
      "name": "Cancel",
      "type": "event"
    },
    {
      "anonymous": false,
      "inputs": [
        {
          "indexed": false,
          "internalType": "uint256",
          "name": "tokenId",
          "type": "uint256"
        }
      ],
      "name": "CheckIn",
      "type": "event"
    },
    {
      "anonymous": false,
      "inputs": [
        {
          "indexed": false,
          "internalType": "uint256",
          "name": "tokenId",
          "type": "uint256"
        }
      ],
      "name": "CheckOut",
      "type": "event"
    },
    {
      "anonymous": false,
      "inputs": [
        {
          "indexed": true,
          "internalType": "address",
          "name": "payee",
          "type": "address"
        },
        {
          "indexed": false,
          "internalType": "uint256",
          "name": "weiAmount",
          "type": "uint256"
        },
        {
          "indexed": false,
          "internalType": "bytes32",
          "name": "spaceId",
          "type": "bytes32"
        },
        {
          "indexed": false,
          "internalType": "uint256",
          "name": "tokenId",
          "type": "uint256"
        }
      ],
      "name": "Deposited",
      "type": "event"
    },
    {
      "anonymous": false,
      "inputs": [
        {
          "indexed": false,
          "internalType": "bytes32",
          "name": "facilityId",
          "type": "bytes32"
        },
        {
          "indexed": false,
          "internalType": "bool",
          "name": "active",
          "type": "bool"
        }
      ],
      "name": "LodgingFacilityActiveState",
      "type": "event"
    },
    {
      "anonymous": false,
      "inputs": [
        {
          "indexed": false,
          "internalType": "bytes32",
          "name": "facilityId",
          "type": "bytes32"
        },
        {
          "indexed": true,
          "internalType": "address",
          "name": "owner",
          "type": "address"
        },
        {
          "indexed": false,
          "internalType": "string",
          "name": "dataURI",
          "type": "string"
        }
      ],
      "name": "LodgingFacilityCreated",
      "type": "event"
    },
    {
      "anonymous": false,
      "inputs": [
        {
          "indexed": false,
          "internalType": "bytes32",
          "name": "facilityId",
          "type": "bytes32"
        },
        {
          "indexed": true,
          "internalType": "address",
          "name": "prevOwner",
          "type": "address"
        },
        {
          "indexed": true,
          "internalType": "address",
          "name": "newOwner",
          "type": "address"
        }
      ],
      "name": "LodgingFacilityOwnershipTransfer",
      "type": "event"
    },
    {
      "anonymous": false,
      "inputs": [
        {
          "indexed": false,
          "internalType": "bytes32",
          "name": "facilityId",
          "type": "bytes32"
        }
      ],
      "name": "LodgingFacilityRemoved",
      "type": "event"
    },
    {
      "anonymous": false,
      "inputs": [
        {
          "indexed": false,
          "internalType": "bytes32",
          "name": "facilityId",
          "type": "bytes32"
        },
        {
          "indexed": false,
          "internalType": "string",
          "name": "dataURI",
          "type": "string"
        }
      ],
      "name": "LodgingFacilityUpdated",
      "type": "event"
    },
    {
      "anonymous": false,
      "inputs": [
        {
          "indexed": false,
          "internalType": "bytes32",
          "name": "spaceId",
          "type": "bytes32"
        },
        {
          "indexed": false,
          "internalType": "uint256",
          "name": "tokenId",
          "type": "uint256"
        }
      ],
      "name": "NewStay",
      "type": "event"
    },
    {
      "anonymous": false,
      "inputs": [
        {
          "indexed": true,
          "internalType": "address",
          "name": "previousOwner",
          "type": "address"
        },
        {
          "indexed": true,
          "internalType": "address",
          "name": "newOwner",
          "type": "address"
        }
      ],
      "name": "OwnershipTransferred",
      "type": "event"
    },
    {
      "anonymous": false,
      "inputs": [
        {
          "indexed": false,
          "internalType": "address",
          "name": "account",
          "type": "address"
        }
      ],
      "name": "Paused",
      "type": "event"
    },
    {
      "anonymous": false,
      "inputs": [
        {
          "indexed": true,
          "internalType": "address",
          "name": "payee",
          "type": "address"
        },
        {
          "indexed": false,
          "internalType": "uint256",
          "name": "weiAmount",
          "type": "uint256"
        },
        {
          "indexed": false,
          "internalType": "bytes32",
          "name": "spaceId",
          "type": "bytes32"
        },
        {
          "indexed": false,
          "internalType": "uint256",
          "name": "tokenId",
          "type": "uint256"
        }
      ],
      "name": "Refund",
      "type": "event"
    },
    {
      "anonymous": false,
      "inputs": [
        {
          "indexed": false,
          "internalType": "bytes32",
          "name": "spaceId",
          "type": "bytes32"
        },
        {
          "indexed": false,
          "internalType": "bool",
          "name": "active",
          "type": "bool"
        }
      ],
      "name": "SpaceActiveState",
      "type": "event"
    },
    {
      "anonymous": false,
      "inputs": [
        {
          "indexed": false,
          "internalType": "bytes32",
          "name": "spaceId",
          "type": "bytes32"
        },
        {
          "indexed": false,
          "internalType": "bytes32",
          "name": "facilityId",
          "type": "bytes32"
        },
        {
          "indexed": false,
          "internalType": "uint256",
          "name": "capacity",
          "type": "uint256"
        },
        {
          "indexed": false,
          "internalType": "uint256",
          "name": "pricePerNightWei",
          "type": "uint256"
        },
        {
          "indexed": false,
          "internalType": "bool",
          "name": "active",
          "type": "bool"
        },
        {
          "indexed": false,
          "internalType": "string",
          "name": "dataURI",
          "type": "string"
        }
      ],
      "name": "SpaceAdded",
      "type": "event"
    },
    {
      "anonymous": false,
      "inputs": [
        {
          "indexed": false,
          "internalType": "bytes32",
          "name": "spaceId",
          "type": "bytes32"
        }
      ],
      "name": "SpaceRemoved",
      "type": "event"
    },
    {
      "anonymous": false,
      "inputs": [
        {
          "indexed": false,
          "internalType": "bytes32",
          "name": "spaceId",
          "type": "bytes32"
        },
        {
          "indexed": false,
          "internalType": "uint256",
          "name": "capacity",
          "type": "uint256"
        },
        {
          "indexed": false,
          "internalType": "uint256",
          "name": "pricePerNightWei",
          "type": "uint256"
        },
        {
          "indexed": false,
          "internalType": "string",
          "name": "dataURI",
          "type": "string"
        }
      ],
      "name": "SpaceUpdated",
      "type": "event"
    },
    {
      "anonymous": false,
      "inputs": [
        {
          "indexed": true,
          "internalType": "address",
          "name": "from",
          "type": "address"
        },
        {
          "indexed": true,
          "internalType": "address",
          "name": "to",
          "type": "address"
        },
        {
          "indexed": true,
          "internalType": "uint256",
          "name": "tokenId",
          "type": "uint256"
        }
      ],
      "name": "Transfer",
      "type": "event"
    },
    {
      "anonymous": false,
      "inputs": [
        {
          "indexed": false,
          "internalType": "address",
          "name": "account",
          "type": "address"
        }
      ],
      "name": "Unpaused",
      "type": "event"
    },
    {
      "anonymous": false,
      "inputs": [
        {
          "indexed": true,
          "internalType": "address",
          "name": "payer",
          "type": "address"
        },
        {
          "indexed": true,
          "internalType": "address",
          "name": "payee",
          "type": "address"
        },
        {
          "indexed": false,
          "internalType": "uint256",
          "name": "weiAmount",
          "type": "uint256"
        },
        {
          "indexed": false,
          "internalType": "bytes32",
          "name": "spaceId",
          "type": "bytes32"
        },
        {
          "indexed": false,
          "internalType": "uint256",
          "name": "tokenId",
          "type": "uint256"
        }
      ],
      "name": "Withdraw",
      "type": "event"
    },
    {
      "inputs": [
        {
          "internalType": "bytes32",
          "name": "_lodgingFacilityId",
          "type": "bytes32"
        }
      ],
      "name": "activateLodgingFacility",
      "outputs": [],
      "stateMutability": "nonpayable",
      "type": "function"
    },
    {
      "inputs": [
        {
          "internalType": "bytes32",
          "name": "_spaceId",
          "type": "bytes32"
        }
      ],
      "name": "activateSpace",
      "outputs": [],
      "stateMutability": "nonpayable",
      "type": "function"
    },
    {
      "inputs": [
        {
          "internalType": "bytes32",
          "name": "_lodgingFacilityId",
          "type": "bytes32"
        },
        {
          "internalType": "uint256",
          "name": "_capacity",
          "type": "uint256"
        },
        {
          "internalType": "uint256",
          "name": "_pricePerNightWei",
          "type": "uint256"
        },
        {
          "internalType": "bool",
          "name": "_active",
          "type": "bool"
        },
        {
          "internalType": "string",
          "name": "_dataURI",
          "type": "string"
        }
      ],
      "name": "addSpace",
      "outputs": [],
      "stateMutability": "nonpayable",
      "type": "function"
    },
    {
      "inputs": [
        {
          "internalType": "address",
          "name": "to",
          "type": "address"
        },
        {
          "internalType": "uint256",
          "name": "tokenId",
          "type": "uint256"
        }
      ],
      "name": "approve",
      "outputs": [],
      "stateMutability": "nonpayable",
      "type": "function"
    },
    {
      "inputs": [
        {
          "internalType": "address",
          "name": "owner",
          "type": "address"
        }
      ],
      "name": "balanceOf",
      "outputs": [
        {
          "internalType": "uint256",
          "name": "",
          "type": "uint256"
        }
      ],
      "stateMutability": "view",
      "type": "function"
    },
    {
      "inputs": [
        {
          "internalType": "uint256",
          "name": "_tokenId",
          "type": "uint256"
        },
        {
          "components": [
            {
              "internalType": "address",
              "name": "from",
              "type": "address"
            },
            {
              "internalType": "address",
              "name": "to",
              "type": "address"
            },
            {
              "internalType": "uint256",
              "name": "tokenId",
              "type": "uint256"
            },
            {
              "internalType": "bytes",
              "name": "signature",
              "type": "bytes"
            }
          ],
          "internalType": "struct IStays.CheckInVoucher",
          "name": "voucher",
          "type": "tuple"
        }
      ],
      "name": "checkIn",
      "outputs": [],
      "stateMutability": "nonpayable",
      "type": "function"
    },
    {
      "inputs": [
        {
          "internalType": "uint256",
          "name": "_tokenId",
          "type": "uint256"
        }
      ],
      "name": "checkOut",
      "outputs": [],
      "stateMutability": "nonpayable",
      "type": "function"
    },
    {
      "inputs": [],
      "name": "dayZero",
      "outputs": [
        {
          "internalType": "uint32",
          "name": "",
          "type": "uint32"
        }
      ],
      "stateMutability": "view",
      "type": "function"
    },
    {
      "inputs": [
        {
          "internalType": "bytes32",
          "name": "_lodgingFacilityId",
          "type": "bytes32"
        }
      ],
      "name": "deactivateLodgingFacility",
      "outputs": [],
      "stateMutability": "nonpayable",
      "type": "function"
    },
    {
      "inputs": [
        {
          "internalType": "bytes32",
          "name": "_spaceId",
          "type": "bytes32"
        }
      ],
      "name": "deactivateSpace",
      "outputs": [],
      "stateMutability": "nonpayable",
      "type": "function"
    },
    {
      "inputs": [
        {
          "internalType": "bytes32",
          "name": "_lodgingFacilityId",
          "type": "bytes32"
        }
      ],
      "name": "deleteLodgingFacility",
      "outputs": [],
      "stateMutability": "nonpayable",
      "type": "function"
    },
    {
      "inputs": [
        {
          "internalType": "address",
          "name": "payee",
          "type": "address"
        },
        {
          "internalType": "bytes32",
          "name": "spaceId",
          "type": "bytes32"
        },
        {
          "internalType": "uint256",
          "name": "tokenId",
          "type": "uint256"
        }
      ],
      "name": "deposit",
      "outputs": [],
      "stateMutability": "payable",
      "type": "function"
    },
    {
      "inputs": [
        {
          "internalType": "address",
          "name": "payer",
          "type": "address"
        },
        {
          "internalType": "bytes32",
          "name": "spaceId",
          "type": "bytes32"
        },
        {
          "internalType": "uint256",
          "name": "tokenId",
          "type": "uint256"
        }
      ],
      "name": "depositOf",
      "outputs": [
        {
          "internalType": "uint256",
          "name": "",
          "type": "uint256"
        }
      ],
      "stateMutability": "view",
      "type": "function"
    },
    {
      "inputs": [
        {
          "internalType": "uint256",
          "name": "tokenId",
          "type": "uint256"
        }
      ],
      "name": "depositState",
      "outputs": [
        {
          "internalType": "enum IStayEscrow.State",
          "name": "",
          "type": "uint8"
        }
      ],
      "stateMutability": "view",
      "type": "function"
    },
    {
      "inputs": [],
      "name": "getActiveLodgingFacilityIds",
      "outputs": [
        {
          "internalType": "bytes32[]",
          "name": "activeLodgingFacilityIds",
          "type": "bytes32[]"
        }
      ],
      "stateMutability": "view",
      "type": "function"
    },
    {
      "inputs": [
        {
          "internalType": "bytes32",
          "name": "_lodgingFacilityId",
          "type": "bytes32"
        }
      ],
      "name": "getActiveSpaceIdsByFacilityId",
      "outputs": [
        {
          "internalType": "bytes32[]",
          "name": "activeSpacesIds",
          "type": "bytes32[]"
        }
      ],
      "stateMutability": "view",
      "type": "function"
    },
    {
      "inputs": [],
      "name": "getAllLodgingFacilityIds",
      "outputs": [
        {
          "internalType": "bytes32[]",
          "name": "",
          "type": "bytes32[]"
        }
      ],
      "stateMutability": "view",
      "type": "function"
    },
    {
      "inputs": [
        {
          "internalType": "uint256",
          "name": "tokenId",
          "type": "uint256"
        }
      ],
      "name": "getApproved",
      "outputs": [
        {
          "internalType": "address",
          "name": "",
          "type": "address"
        }
      ],
      "stateMutability": "view",
      "type": "function"
    },
    {
      "inputs": [
        {
          "internalType": "bytes32",
          "name": "_spaceId",
          "type": "bytes32"
        },
        {
          "internalType": "uint256",
          "name": "_startDay",
          "type": "uint256"
        },
        {
          "internalType": "uint256",
          "name": "_numberOfDays",
          "type": "uint256"
        }
      ],
      "name": "getAvailability",
      "outputs": [
        {
          "internalType": "uint256[]",
          "name": "",
          "type": "uint256[]"
        }
      ],
      "stateMutability": "view",
      "type": "function"
    },
    {
      "inputs": [
        {
          "internalType": "bytes32",
          "name": "_lodgingFacilityId",
          "type": "bytes32"
        }
      ],
      "name": "getLodgingFacilityById",
      "outputs": [
        {
          "internalType": "bool",
          "name": "exists",
          "type": "bool"
        },
        {
          "internalType": "address",
          "name": "owner",
          "type": "address"
        },
        {
          "internalType": "bool",
          "name": "active",
          "type": "bool"
        },
        {
          "internalType": "string",
          "name": "dataURI",
          "type": "string"
        }
      ],
      "stateMutability": "view",
      "type": "function"
    },
    {
      "inputs": [
        {
          "internalType": "address",
          "name": "_owner",
          "type": "address"
        }
      ],
      "name": "getLodgingFacilityIdsByOwner",
      "outputs": [
        {
          "internalType": "bytes32[]",
          "name": "facilities",
          "type": "bytes32[]"
        }
      ],
      "stateMutability": "view",
      "type": "function"
    },
    {
      "inputs": [
        {
          "internalType": "bytes32",
          "name": "_spaceId",
          "type": "bytes32"
        }
      ],
      "name": "getSpaceById",
      "outputs": [
        {
          "internalType": "bool",
          "name": "exists",
          "type": "bool"
        },
        {
          "internalType": "bytes32",
          "name": "lodgingFacilityId",
          "type": "bytes32"
        },
        {
          "internalType": "uint256",
          "name": "capacity",
          "type": "uint256"
        },
        {
          "internalType": "uint256",
          "name": "pricePerNightWei",
          "type": "uint256"
        },
        {
          "internalType": "bool",
          "name": "active",
          "type": "bool"
        },
        {
          "internalType": "string",
          "name": "dataURI",
          "type": "string"
        }
      ],
      "stateMutability": "view",
      "type": "function"
    },
    {
      "inputs": [
        {
          "internalType": "uint256",
          "name": "_tokenId",
          "type": "uint256"
        }
      ],
      "name": "getSpaceByTokenId",
      "outputs": [
        {
          "internalType": "bool",
          "name": "exists",
          "type": "bool"
        },
        {
          "internalType": "bytes32",
          "name": "lodgingFacilityId",
          "type": "bytes32"
        },
        {
          "internalType": "uint256",
          "name": "capacity",
          "type": "uint256"
        },
        {
          "internalType": "uint256",
          "name": "pricePerNightWei",
          "type": "uint256"
        },
        {
          "internalType": "bool",
          "name": "active",
          "type": "bool"
        },
        {
          "internalType": "string",
          "name": "dataURI",
          "type": "string"
        }
      ],
      "stateMutability": "view",
      "type": "function"
    },
    {
      "inputs": [
        {
          "internalType": "bytes32",
          "name": "_lodgingFacilityId",
          "type": "bytes32"
        }
      ],
      "name": "getSpaceIdsByFacilityId",
      "outputs": [
        {
          "internalType": "bytes32[]",
          "name": "",
          "type": "bytes32[]"
        }
      ],
      "stateMutability": "view",
      "type": "function"
    },
    {
      "inputs": [
        {
          "internalType": "bytes32",
          "name": "_spaceId",
          "type": "bytes32"
        },
        {
          "internalType": "enum IStayEscrow.State",
          "name": "_state",
          "type": "uint8"
        }
      ],
      "name": "getTokensBySpaceId",
      "outputs": [
        {
          "internalType": "uint256[]",
          "name": "",
          "type": "uint256[]"
        }
      ],
      "stateMutability": "view",
      "type": "function"
    },
    {
      "inputs": [],
      "name": "initialize",
      "outputs": [],
      "stateMutability": "nonpayable",
      "type": "function"
    },
    {
      "inputs": [
        {
          "internalType": "address",
          "name": "owner",
          "type": "address"
        },
        {
          "internalType": "address",
          "name": "operator",
          "type": "address"
        }
      ],
      "name": "isApprovedForAll",
      "outputs": [
        {
          "internalType": "bool",
          "name": "",
          "type": "bool"
        }
      ],
      "stateMutability": "view",
      "type": "function"
    },
    {
      "inputs": [
        {
          "internalType": "bytes32",
          "name": "",
          "type": "bytes32"
        }
      ],
      "name": "lodgingFacilities",
      "outputs": [
        {
          "internalType": "address",
          "name": "owner",
          "type": "address"
        },
        {
          "internalType": "bool",
          "name": "active",
          "type": "bool"
        },
        {
          "internalType": "bool",
          "name": "exists",
          "type": "bool"
        },
        {
          "internalType": "string",
          "name": "dataURI",
          "type": "string"
        },
        {
          "internalType": "address",
          "name": "fren",
          "type": "address"
        }
      ],
      "stateMutability": "view",
      "type": "function"
    },
    {
      "inputs": [],
      "name": "name",
      "outputs": [
        {
          "internalType": "string",
          "name": "",
          "type": "string"
        }
      ],
      "stateMutability": "view",
      "type": "function"
    },
    {
      "inputs": [
        {
          "internalType": "bytes32",
          "name": "_spaceId",
          "type": "bytes32"
        },
        {
          "internalType": "uint256",
          "name": "_startDay",
          "type": "uint256"
        },
        {
          "internalType": "uint256",
          "name": "_numberOfDays",
          "type": "uint256"
        },
        {
          "internalType": "uint256",
          "name": "_quantity",
          "type": "uint256"
        }
      ],
      "name": "newStay",
      "outputs": [
        {
          "internalType": "uint256",
          "name": "",
          "type": "uint256"
        }
      ],
      "stateMutability": "payable",
      "type": "function"
    },
    {
      "inputs": [],
      "name": "owner",
      "outputs": [
        {
          "internalType": "address",
          "name": "",
          "type": "address"
        }
      ],
      "stateMutability": "view",
      "type": "function"
    },
    {
      "inputs": [
        {
          "internalType": "uint256",
          "name": "tokenId",
          "type": "uint256"
        }
      ],
      "name": "ownerOf",
      "outputs": [
        {
          "internalType": "address",
          "name": "",
          "type": "address"
        }
      ],
      "stateMutability": "view",
      "type": "function"
    },
    {
      "inputs": [],
      "name": "pause",
      "outputs": [],
      "stateMutability": "nonpayable",
      "type": "function"
    },
    {
      "inputs": [],
      "name": "paused",
      "outputs": [
        {
          "internalType": "bool",
          "name": "",
          "type": "bool"
        }
      ],
      "stateMutability": "view",
      "type": "function"
    },
    {
      "inputs": [
        {
          "internalType": "string",
          "name": "_dataURI",
          "type": "string"
        },
        {
          "internalType": "bool",
          "name": "_active",
          "type": "bool"
        }
      ],
      "name": "registerLodgingFacility",
      "outputs": [],
      "stateMutability": "nonpayable",
      "type": "function"
    },
    {
      "inputs": [
        {
          "internalType": "string",
          "name": "_dataURI",
          "type": "string"
        },
        {
          "internalType": "bool",
          "name": "_active",
          "type": "bool"
        },
        {
          "internalType": "address",
          "name": "_fren",
          "type": "address"
        }
      ],
      "name": "registerLodgingFacility",
      "outputs": [],
      "stateMutability": "nonpayable",
      "type": "function"
    },
    {
      "inputs": [],
      "name": "renounceOwnership",
      "outputs": [],
      "stateMutability": "nonpayable",
      "type": "function"
    },
    {
      "inputs": [
        {
          "internalType": "address",
          "name": "from",
          "type": "address"
        },
        {
          "internalType": "address",
          "name": "to",
          "type": "address"
        },
        {
          "internalType": "uint256",
          "name": "tokenId",
          "type": "uint256"
        }
      ],
      "name": "safeTransferFrom",
      "outputs": [],
      "stateMutability": "nonpayable",
      "type": "function"
    },
    {
      "inputs": [
        {
          "internalType": "address",
          "name": "from",
          "type": "address"
        },
        {
          "internalType": "address",
          "name": "to",
          "type": "address"
        },
        {
          "internalType": "uint256",
          "name": "tokenId",
          "type": "uint256"
        },
        {
          "internalType": "bytes",
          "name": "_data",
          "type": "bytes"
        }
      ],
      "name": "safeTransferFrom",
      "outputs": [],
      "stateMutability": "nonpayable",
      "type": "function"
    },
    {
      "inputs": [],
      "name": "serviceURI",
      "outputs": [
        {
          "internalType": "string",
          "name": "",
          "type": "string"
        }
      ],
      "stateMutability": "view",
      "type": "function"
    },
    {
      "inputs": [
        {
          "internalType": "address",
          "name": "operator",
          "type": "address"
        },
        {
          "internalType": "bool",
          "name": "approved",
          "type": "bool"
        }
      ],
      "name": "setApprovalForAll",
      "outputs": [],
      "stateMutability": "nonpayable",
      "type": "function"
    },
    {
      "inputs": [
        {
          "internalType": "bytes32",
          "name": "",
          "type": "bytes32"
        }
      ],
      "name": "spaces",
      "outputs": [
        {
          "internalType": "bytes32",
          "name": "lodgingFacilityId",
          "type": "bytes32"
        },
        {
          "internalType": "uint256",
          "name": "capacity",
          "type": "uint256"
        },
        {
          "internalType": "uint256",
          "name": "pricePerNightWei",
          "type": "uint256"
        },
        {
          "internalType": "bool",
          "name": "active",
          "type": "bool"
        },
        {
          "internalType": "bool",
          "name": "exists",
          "type": "bool"
        },
        {
          "internalType": "string",
          "name": "dataURI",
          "type": "string"
        }
      ],
      "stateMutability": "view",
      "type": "function"
    },
    {
      "inputs": [
        {
          "internalType": "bytes4",
          "name": "interfaceId",
          "type": "bytes4"
        }
      ],
      "name": "supportsInterface",
      "outputs": [
        {
          "internalType": "bool",
          "name": "",
          "type": "bool"
        }
      ],
      "stateMutability": "view",
      "type": "function"
    },
    {
      "inputs": [],
      "name": "symbol",
      "outputs": [
        {
          "internalType": "string",
          "name": "",
          "type": "string"
        }
      ],
      "stateMutability": "view",
      "type": "function"
    },
    {
      "inputs": [
        {
          "internalType": "uint256",
          "name": "index",
          "type": "uint256"
        }
      ],
      "name": "tokenByIndex",
      "outputs": [
        {
          "internalType": "uint256",
          "name": "",
          "type": "uint256"
        }
      ],
      "stateMutability": "view",
      "type": "function"
    },
    {
      "inputs": [
        {
          "internalType": "address",
          "name": "owner",
          "type": "address"
        },
        {
          "internalType": "uint256",
          "name": "index",
          "type": "uint256"
        }
      ],
      "name": "tokenOfOwnerByIndex",
      "outputs": [
        {
          "internalType": "uint256",
          "name": "",
          "type": "uint256"
        }
      ],
      "stateMutability": "view",
      "type": "function"
    },
    {
      "inputs": [
        {
          "internalType": "uint256",
          "name": "tokenId",
          "type": "uint256"
        }
      ],
      "name": "tokenURI",
      "outputs": [
        {
          "internalType": "string",
          "name": "",
          "type": "string"
        }
      ],
      "stateMutability": "view",
      "type": "function"
    },
    {
      "inputs": [],
      "name": "totalSupply",
      "outputs": [
        {
          "internalType": "uint256",
          "name": "",
          "type": "uint256"
        }
      ],
      "stateMutability": "view",
      "type": "function"
    },
    {
      "inputs": [
        {
          "internalType": "address",
          "name": "from",
          "type": "address"
        },
        {
          "internalType": "address",
          "name": "to",
          "type": "address"
        },
        {
          "internalType": "uint256",
          "name": "tokenId",
          "type": "uint256"
        }
      ],
      "name": "transferFrom",
      "outputs": [],
      "stateMutability": "nonpayable",
      "type": "function"
    },
    {
      "inputs": [
        {
          "internalType": "address",
          "name": "newOwner",
          "type": "address"
        }
      ],
      "name": "transferOwnership",
      "outputs": [],
      "stateMutability": "nonpayable",
      "type": "function"
    },
    {
      "inputs": [],
      "name": "unpause",
      "outputs": [],
      "stateMutability": "nonpayable",
      "type": "function"
    },
    {
      "inputs": [
        {
          "internalType": "bytes32",
          "name": "_lodgingFacilityId",
          "type": "bytes32"
        },
        {
          "internalType": "string",
          "name": "_newDataURI",
          "type": "string"
        }
      ],
      "name": "updateLodgingFacility",
      "outputs": [],
      "stateMutability": "nonpayable",
      "type": "function"
    },
    {
      "inputs": [
        {
          "internalType": "bytes32",
          "name": "_spaceId",
          "type": "bytes32"
        },
        {
          "internalType": "uint256",
          "name": "_capacity",
          "type": "uint256"
        },
        {
          "internalType": "uint256",
          "name": "_pricePerNightWei",
          "type": "uint256"
        },
        {
          "internalType": "string",
          "name": "_dataURI",
          "type": "string"
        }
      ],
      "name": "updateSpace",
      "outputs": [],
      "stateMutability": "nonpayable",
      "type": "function"
    },
    {
      "inputs": [
        {
          "internalType": "bytes32",
          "name": "_lodgingFacilityId",
          "type": "bytes32"
        },
        {
          "internalType": "address",
          "name": "_newOwner",
          "type": "address"
        }
      ],
      "name": "yieldLodgingFacility",
      "outputs": [],
      "stateMutability": "nonpayable",
      "type": "function"
    }
  ],
  "bytecode": "0x60806040523480156200001157600080fd5b50600054610100900460ff166200002f5760005460ff161562000039565b62000039620000de565b620000a15760405162461bcd60e51b815260206004820152602e60248201527f496e697469616c697a61626c653a20636f6e747261637420697320616c72656160448201526d191e481a5b9a5d1a585b1a5e995960921b606482015260840160405180910390fd5b600054610100900460ff16158015620000c4576000805461ffff19166101011790555b8015620000d7576000805461ff00191690555b506200010b565b6000620000f630620000fc60201b62002df51760201c565b15905090565b6001600160a01b03163b151590565b61633b806200011b6000396000f3fe6080604052600436106103335760003560e01c80636a22dd26116101ab578063b38759fd116100f7578063e985e9c511610095578063f2fde38b1161006f578063f2fde38b14610a17578063f7cdbc9d14610a37578063ffae741514610a57578063ffc1e09a14610a8857600080fd5b8063e985e9c514610989578063e994529e146109d2578063eb2243f814610a0457600080fd5b8063c87b56dd116100d1578063c87b56dd146108ee578063cad302e41461090e578063e1e33b9c14610949578063e6ccb4ce1461096957600080fd5b8063b38759fd14610899578063b88d4fde146108ae578063bfef4d40146108ce57600080fd5b80638f201f5f116101645780639bc190db1161013e5780639bc190db1461080c5780639ff682141461082c578063a22cb46514610859578063a46880321461087957600080fd5b80638f201f5f146107b75780639518f5fa146107d757806395d89b41146107f757600080fd5b80636a22dd261461071957806370a0823114610739578063715018a6146107595780638129fc1c1461076e5780638456cb59146107835780638da5cb5b1461079857600080fd5b806327d7cedb116102855780634ce0a872116102235780635d45d919116101fd5780635d45d919146106995780635ee7aa13146106b95780636352211e146106d9578063673f0dd5146106f957600080fd5b80634ce0a872146106405780634f6ccce7146106605780635c975abb1461068057600080fd5b80633f4ba83a1161025f5780633f4ba83a146105bb57806342842e0e146105d0578063438c9cab146105f05780634c18a8ec1461061057600080fd5b806327d7cedb146105495780632f745c5914610569578063342df9b21461058957600080fd5b8063095ea7b3116102f25780631bd2eeee116102cc5780631bd2eeee146104d65780631bf7509b146104f657806320bf6ddb1461051657806323b872dd1461052957600080fd5b8063095ea7b31461044d57806318160ddd1461046d5780631b9bdb121461048c57600080fd5b806244253614610338578062d34b541461035a57806301ffc9a714610385578063038c8975146103b557806306fdde03146103f3578063081812fc14610415575b600080fd5b34801561034457600080fd5b50610358610353366004615513565b610aa8565b005b34801561036657600080fd5b5061036f610b4c565b60405161037c9190615d52565b60405180910390f35b34801561039157600080fd5b506103a56103a03660046156fc565b610c23565b604051901515815260200161037c565b3480156103c157600080fd5b506103e66103d0366004615513565b6000908152610130602052604090205460ff1690565b60405161037c9190615eb0565b3480156103ff57600080fd5b50610408610c34565b60405161037c9190615ed8565b34801561042157600080fd5b50610435610430366004615513565b610cc6565b6040516001600160a01b03909116815260200161037c565b34801561045957600080fd5b506103586104683660046154e9565b610d4e565b34801561047957600080fd5b506099545b60405190815260200161037c565b34801561049857600080fd5b5061047e6104a73660046154b6565b600091825261012f602090815260408084206001600160a01b0395909516845293815283832091835252205490565b3480156104e257600080fd5b506103586104f1366004615513565b610e64565b34801561050257600080fd5b5061036f61051136600461539b565b611027565b61047e6105243660046156ca565b61104c565b34801561053557600080fd5b506103586105443660046153e9565b611353565b34801561055557600080fd5b5061036f6105643660046155ce565b611384565b34801561057557600080fd5b5061047e6105843660046154e9565b611541565b34801561059557600080fd5b506105a96105a4366004615513565b6115d7565b60405161037c96959493929190615dbe565b3480156105c757600080fd5b506103586116a7565b3480156105dc57600080fd5b506103586105eb3660046153e9565b611726565b3480156105fc57600080fd5b5061035861060b366004615583565b611741565b34801561061c57600080fd5b5061063061062b366004615513565b611813565b60405161037c9493929190615d8a565b34801561064c57600080fd5b5061035861065b36600461566a565b6118e0565b34801561066c57600080fd5b5061047e61067b366004615513565b6119a4565b34801561068c57600080fd5b506101315460ff166103a5565b3480156106a557600080fd5b506103586106b4366004615513565b611a37565b3480156106c557600080fd5b506103586106d43660046155fa565b611adc565b3480156106e557600080fd5b506104356106f4366004615513565b611d47565b34801561070557600080fd5b506105a9610714366004615513565b611dbe565b34801561072557600080fd5b50610358610734366004615513565b611df6565b34801561074557600080fd5b5061047e61075436600461539b565b611e84565b34801561076557600080fd5b50610358611f0b565b34801561077a57600080fd5b50610358611f40565b34801561078f57600080fd5b506103586120b1565b3480156107a457600080fd5b50610163546001600160a01b0316610435565b3480156107c357600080fd5b506103586107d236600461552c565b612108565b3480156107e357600080fd5b5061036f6107f2366004615513565b612206565b34801561080357600080fd5b50610408612269565b34801561081857600080fd5b50610358610827366004615513565b612278565b34801561083857600080fd5b506108446362155d6e81565b60405163ffffffff909116815260200161037c565b34801561086557600080fd5b5061035861087436600461548c565b612319565b34801561088557600080fd5b50610358610894366004615513565b612328565b3480156108a557600080fd5b5061036f6123c8565b3480156108ba57600080fd5b506103586108c9366004615425565b6123da565b3480156108da57600080fd5b5061036f6108e936600461554f565b612412565b3480156108fa57600080fd5b50610408610909366004615513565b6125a6565b34801561091a57600080fd5b506104086040518060400160405280600f81526020016e68747470733a2f2f77696e2e736f2f60881b81525081565b34801561095557600080fd5b50610358610964366004615736565b6125b1565b34801561097557600080fd5b506103586109843660046157ed565b6125e2565b34801561099557600080fd5b506103a56109a43660046153b6565b6001600160a01b039182166000908152606a6020908152604080832093909416825291909152205460ff1690565b3480156109de57600080fd5b506109f26109ed366004615513565b6127e0565b60405161037c96959493929190615e4a565b610358610a123660046154b6565b6128a9565b348015610a2357600080fd5b50610358610a3236600461539b565b6128b4565b348015610a4357600080fd5b50610358610a52366004615789565b61294d565b348015610a6357600080fd5b50610a77610a72366004615513565b612bc7565b60405161037c959493929190615d0b565b348015610a9457600080fd5b5061036f610aa3366004615513565b612c9b565b6000818152610199602052604090205481906001600160a01b0316336001600160a01b031614610af35760405162461bcd60e51b8152600401610aea90615f3d565b60405180910390fd5b600082815261019960209081526040808320805460ff60a01b191690558051858152918201929092527f5c33859dfe8722791b5d72ad942a0895181f8a694288ec429394f620de15032091015b60405180910390a15050565b6060610b56612e04565b6001600160401b03811115610b6d57610b6d61621b565b604051908082528060200260200182016040528015610b96578160200160208202803683370190505b5090506000805b610ba8610196612e6f565b811015610c1e576000610bbd61019683612e79565b60008181526101996020526040902054909150600160a01b900460ff1615610c0b5780848481518110610bf257610bf2616205565b602090810291909101015282610c078161617e565b9350505b5080610c168161617e565b915050610b9d565b505090565b6000610c2e82612e8c565b92915050565b606060658054610c4390616143565b80601f0160208091040260200160405190810160405280929190818152602001828054610c6f90616143565b8015610cbc5780601f10610c9157610100808354040283529160200191610cbc565b820191906000526020600020905b815481529060010190602001808311610c9f57829003601f168201915b5050505050905090565b6000610cd182612eb1565b610d325760405162461bcd60e51b815260206004820152602c60248201527f4552433732313a20617070726f76656420717565727920666f72206e6f6e657860448201526b34b9ba32b73a103a37b5b2b760a11b6064820152608401610aea565b506000908152606960205260409020546001600160a01b031690565b6000610d5982611d47565b9050806001600160a01b0316836001600160a01b03161415610dc75760405162461bcd60e51b815260206004820152602160248201527f4552433732313a20617070726f76616c20746f2063757272656e74206f776e656044820152603960f91b6064820152608401610aea565b336001600160a01b0382161480610de35750610de381336109a4565b610e555760405162461bcd60e51b815260206004820152603860248201527f4552433732313a20617070726f76652063616c6c6572206973206e6f74206f7760448201527f6e6572206e6f7220617070726f76656420666f7220616c6c00000000000000006064820152608401610aea565b610e5f8383612ece565b505050565b600081815261019d602052604090208054610eb25760405162461bcd60e51b815260206004820152600e60248201526d14dd185e481b9bdd08199bdd5b9960921b6044820152606401610aea565b6004810154610100900460ff1615610f025760405162461bcd60e51b8152602060048201526013602482015272105b1c9958591e4818da1958dad959081bdd5d606a1b6044820152606401610aea565b8054600081815261019b602090815260408083205483526101999091529020546001600160a01b0316338114610f4a5760405162461bcd60e51b8152600401610aea90615fad565b82600201548360010154610f5e91906160b5565b610f6b90620151806160e1565b610f79906362155d6e6160b5565b421015610fc85760405162461bcd60e51b815260206004820152601e60248201527f466f7262696464656e20756e6c65737320636865636b6f7574206461746500006044820152606401610aea565b60048301805461ff001916610100179055610fed610fe585611d47565b828487612f3c565b6040518481527f2c276699fefbad45f18509233bc03bb9cfdf41b18f32756933188bdef35fef55906020015b60405180910390a150505050565b6001600160a01b038116600090815261019860205260409020606090610c2e90612f48565b600061105b6101315460ff1690565b156110785760405162461bcd60e51b8152600401610aea90615f83565b611083858585612f53565b600085815261019b6020526040812060028101549091906110a485876160e1565b6110ae91906160e1565b9050803410156110f55760405162461bcd60e51b81526020600482015260126024820152714e6565642e204d6f72652e204d6f6e65792160701b6044820152606401610aea565b60005b858110156111d057600088815261019c60205260408120869161111b848b6160b5565b81526020019081526020016000205484600101546111399190616100565b10156111805760405162461bcd60e51b8152602060048201526016602482015275496e73756666696369656e7420696e76656e746f727960501b6044820152606401610aea565b600088815261019c60205260408120869161119b848b6160b5565b815260200190815260200160002060008282546111b891906160b5565b909155508190506111c88161617e565b9150506110f8565b506111e061019580546001019055565b60006111ec6101955490565b90506111f833826130e6565b600061124d8285600001548b8b8b8b6040518060800160405280605c815260200161626a605c91396040518060400160405280600f81526020016e68747470733a2f2f77696e2e736f2f60881b815250613100565b9050611259828261314f565b6040805160c0810182528a815260208082018b81528284018b8152606084018b815260006080860181815260a087018281528a835261019d87528883209751885594516001888101919091559351600288015591516003870155905160049095018054935115156101000261ff00199615159690961661ffff1990941693909317949094179091558c835261019e825292822080549384018155825290200182905561130c6113053390565b8a846128a9565b604080518a8152602081018490527fe04083eb622e3cb7d063f319076c83270c24acb409a3bc13abcfb36af60f8617910160405180910390a150925050505b949350505050565b61135d33826131da565b6113795760405162461bcd60e51b8152600401610aea90616019565b610e5f8383836132c0565b6060611391848484612f53565b600084815261019b60209081526040808320815160c08101835281548152600182015493810193909352600281015491830191909152600381015460ff80821615156060850152610100909104161515608083015260048101805460a0840191906113fb90616143565b80601f016020809104026020016040519081016040528092919081815260200182805461142790616143565b80156114745780601f1061144957610100808354040283529160200191611474565b820191906000526020600020905b81548152906001019060200180831161145757829003601f168201915b50505050508152505090506000836001600160401b038111156114995761149961621b565b6040519080825280602002602001820160405280156114c2578160200160208202803683370190505b50905060005b8481101561153757600087815261019c60205260408120906114ea83896160b5565b81526020019081526020016000205483602001516115089190616100565b82828151811061151a5761151a616205565b60209081029190910101528061152f8161617e565b9150506114c8565b5095945050505050565b600061154c83611e84565b82106115ae5760405162461bcd60e51b815260206004820152602b60248201527f455243373231456e756d657261626c653a206f776e657220696e646578206f7560448201526a74206f6620626f756e647360a81b6064820152608401610aea565b506001600160a01b03919091166000908152609760209081526040808320938352929052205490565b600081815261019b60205260409020600381015481546001830154600284015460048501805460ff61010087048116979596949593941692606092909161161d90616143565b80601f016020809104026020016040519081016040528092919081815260200182805461164990616143565b80156116965780601f1061166b57610100808354040283529160200191611696565b820191906000526020600020905b81548152906001019060200180831161167957829003601f168201915b505050505091505091939550919395565b6101315460ff166116f15760405162461bcd60e51b815260206004820152601460248201527314185d5cd8589b194e881b9bdd081c185d5cd95960621b6044820152606401610aea565b610163546001600160a01b0316331461171c5760405162461bcd60e51b8152600401610aea90615fe4565b611724613467565b565b610e5f838383604051806020016040528060008152506123da565b6000838152610199602052604090205483906001600160a01b0316336001600160a01b0316146117835760405162461bcd60e51b8152600401610aea90615f3d565b6117c283838080601f0160208091040260200160405190810160405280939291908181526020018383808284376000920191909152506134fc92505050565b6000848152610199602052604090206117df906001018484615199565b507fb252d91e8d424ba6f9f1647d21d7b0bbd8e2a3cbb318aaecb0d735fba9f62c7f84848460405161101993929190615e27565b600081815261019960205260409020805460018201805460ff600160a81b84048116946001600160a01b03851694600160a01b90049091169260609261185890616143565b80601f016020809104026020016040519081016040528092919081815260200182805461188490616143565b80156118d15780601f106118a6576101008083540402835291602001916118d1565b820191906000526020600020905b8154815290600101906020018083116118b457829003601f168201915b50505050509150509193509193565b600085815261019b6020908152604080832054835261019990915290205485906001600160a01b0316336001600160a01b0316146119305760405162461bcd60e51b8152600401610aea90615fad565b600086815261019b60205260409020600181018690556002810185905561195b600482018585615199565b507f0cdd46b7a456c1e6514d3c451f487eb2ea5039ac3f54fc210e98ce69ecdb00758787878787604051611993959493929190615e7f565b60405180910390a150505050505050565b60006119af60995490565b8210611a125760405162461bcd60e51b815260206004820152602c60248201527f455243373231456e756d657261626c653a20676c6f62616c20696e646578206f60448201526b7574206f6620626f756e647360a01b6064820152608401610aea565b60998281548110611a2557611a25616205565b90600052602060002001549050919050565b600081815261019b6020908152604080832054835261019990915290205481906001600160a01b0316336001600160a01b031614611a875760405162461bcd60e51b8152600401610aea90615fad565b600082815261019b6020908152604091829020600301805460ff191660019081179091558251858152918201527ff95c289b48e2e0dc7c8f639934e871675404b92cf01f600493194c43e7949e859101610b40565b6101315460ff1615611b005760405162461bcd60e51b8152600401610aea90615f83565b85611b0a8161354d565b611b2c81604051806060016040528060228152602001616248602291396135b3565b611b6b83838080601f0160208091040260200160405190810160405280939291908181526020018383808284376000920191909152506134fc92505050565b6000818484604051602001611b8293929190615944565b60408051808303601f190181529181528151602092830120600081815261019b909352912060030154909150610100900460ff1615611bfa5760405162461bcd60e51b8152602060048201526014602482015273537061636520616c72656164792065786973747360601b6044820152606401610aea565b6040518060c00160405280838152602001888152602001878152602001861515815260200160011515815260200185858080601f016020809104026020016040519081016040528093929190818152602001838380828437600092018290525093909452505083815261019b6020908152604091829020845181558482015160018201559184015160028301556060840151600383018054608087015115156101000261ff00199315159390931661ffff199091161791909117905560a08401518051929350611cd39260048501929190910190615219565b505050600082815261019a6020908152604080832080546001810182559084529190922001829055517f335958c15e70938d2bfae6c90457d7732a3e398f2423c491dc6503b67334745a90611d3590839085908b908b908b908b908b90615df3565b60405180910390a15050505050505050565b6000818152606760205260408120546001600160a01b031680610c2e5760405162461bcd60e51b815260206004820152602960248201527f4552433732313a206f776e657220717565727920666f72206e6f6e657869737460448201526832b73a103a37b5b2b760b91b6064820152608401610aea565b600081815261019d60205260408120548190819081908190606090611de2906115d7565b949c939b5091995097509550909350915050565b6000818152610199602052604090205481906001600160a01b0316336001600160a01b031614611e385760405162461bcd60e51b8152600401610aea90615f3d565b6000828152610199602052604090819020805460ff60a81b19169055517f9cb52f05776b0f321eb9ca8c9e1b26b978036072417bf384bd406189f43864f890610b409084815260200190565b60006001600160a01b038216611eef5760405162461bcd60e51b815260206004820152602a60248201527f4552433732313a2062616c616e636520717565727920666f7220746865207a65604482015269726f206164647265737360b01b6064820152608401610aea565b506001600160a01b031660009081526068602052604090205490565b610163546001600160a01b03163314611f365760405162461bcd60e51b8152600401610aea90615fe4565b61172460006135ed565b600054610100900460ff16611f5b5760005460ff1615611f5f565b303b155b611fc25760405162461bcd60e51b815260206004820152602e60248201527f496e697469616c697a61626c653a20636f6e747261637420697320616c72656160448201526d191e481a5b9a5d1a585b1a5e995960921b6064820152608401610aea565b600054610100900460ff16158015611fe4576000805461ffff19166101011790555b6120336040518060400160405280600e81526020016d5374617920416d7374657264616d60901b8152506040518060400160405280600781526020016653544159414d5360c81b815250613640565b61207c6040518060400160405280600e81526020016d5374617920416d7374657264616d60901b815250604051806040016040528060018152602001603160f81b815250613671565b6120846136a2565b61208c6136a2565b6120946136c9565b61209c6136f8565b80156120ae576000805461ff00191690555b50565b6101315460ff16156120d55760405162461bcd60e51b8152600401610aea90615f83565b610163546001600160a01b031633146121005760405162461bcd60e51b8152600401610aea90615fe4565b611724613727565b6000828152610199602052604090205482906001600160a01b0316336001600160a01b03161461214a5760405162461bcd60e51b8152600401610aea90615f3d565b6001600160a01b03821660009081526101986020526040902061216d9084613781565b50600083815261019960209081526040808320546001600160a01b03168352610198909152902061219e908461378d565b506000838152610199602090815260409182902080546001600160a01b0319166001600160a01b038616908117909155915185815282917f11a520c5c4bfade8b450399ea67096dba36478d23d9a45f02e32989cfe307dde91015b60405180910390a3505050565b600081815261019a602090815260409182902080548351818402810184019094528084526060939283018282801561225d57602002820191906000526020600020905b815481526020019060010190808311612249575b50505050509050919050565b606060668054610c4390616143565b600081815261019b6020908152604080832054835261019990915290205481906001600160a01b0316336001600160a01b0316146122c85760405162461bcd60e51b8152600401610aea90615fad565b600082815261019b60209081526040808320600301805460ff191690558051858152918201929092527ff95c289b48e2e0dc7c8f639934e871675404b92cf01f600493194c43e7949e859101610b40565b612324338383613799565b5050565b6000818152610199602052604090205481906001600160a01b0316336001600160a01b03161461236a5760405162461bcd60e51b8152600401610aea90615f3d565b6000828152610199602052604090819020805460ff60a01b1916600160a01b179055517f5c33859dfe8722791b5d72ad942a0895181f8a694288ec429394f620de15032090610b409084906001909182521515602082015260400190565b60606123d5610196612f48565b905090565b6123e433836131da565b6124005760405162461bcd60e51b8152600401610aea90616019565b61240c84848484613860565b50505050565b600082815261019e60205260408120606091805b82548110156124ae57846002811115612441576124416161d9565b61247784838154811061245657612456616205565b90600052602060002001546000908152610130602052604090205460ff1690565b6002811115612488576124886161d9565b141561249c57816124988161617e565b9250505b806124a68161617e565b915050612426565b506000816001600160401b038111156124c9576124c961621b565b6040519080825280602002602001820160405280156124f2578160200160208202803683370190505b5090506000805b845481101561259a57866002811115612514576125146161d9565b61252986838154811061245657612456616205565b600281111561253a5761253a6161d9565b14156125885784818154811061255257612552616205565b906000526020600020015483838151811061256f5761256f616205565b6020908102919091010152816125848161617e565b9250505b806125928161617e565b9150506124f9565b50909695505050505050565b6060610c2e82613893565b6101315460ff16156125d55760405162461bcd60e51b8152600401610aea90615f83565b610e5f838383600061294d565b60006125ed82613a02565b600084815261019d60205260409020805491925090806126405760405162461bcd60e51b815260206004820152600e60248201526d14dd185e481b9bdd08199bdd5b9960921b6044820152606401610aea565b600482015460ff161561268a5760405162461bcd60e51b815260206004820152601260248201527120b63932b0b23c9031b432b1b5b2b21034b760711b6044820152606401610aea565b600081815261019b60209081526040808320805484526101999092529091206126b287611d47565b6001600160a01b0316856001600160a01b031614806126dd575080546001600160a01b038681169116145b6127295760405162461bcd60e51b815260206004820152601d60248201527f566f7563686572207369676e6572206973206e6f7420616c6c6f7765640000006044820152606401610aea565b60208601516001600160a01b0316336001600160a01b03161461277d5760405162461bcd60e51b815260206004820152600c60248201526b2bb937b7339031b0b63632b960a11b6044820152606401610aea565b600282015460048501805460ff191660011790556127b061279d89611d47565b83546001600160a01b031683878c613b10565b6040518881527fdf06c27528e294967ba5e32e69b9c5fe102a58c699c44740c2c4c6afc719253590602001611d35565b61019b602052600090815260409020805460018201546002830154600384015460048501805494959394929360ff80841694610100909404169290919061282690616143565b80601f016020809104026020016040519081016040528092919081815260200182805461285290616143565b801561289f5780601f106128745761010080835404028352916020019161289f565b820191906000526020600020905b81548152906001019060200180831161288257829003601f168201915b5050505050905086565b610e5f838383613b98565b610163546001600160a01b031633146128df5760405162461bcd60e51b8152600401610aea90615fe4565b6001600160a01b0381166129445760405162461bcd60e51b815260206004820152602660248201527f4f776e61626c653a206e6577206f776e657220697320746865207a65726f206160448201526564647265737360d01b6064820152608401610aea565b6120ae816135ed565b6101315460ff16156129715760405162461bcd60e51b8152600401610aea90615f83565b6129b084848080601f0160208091040260200160405190810160405280939291908181526020018383808284376000920191909152506134fc92505050565b60003385856040516020016129c793929190615918565b60408051808303601f1901815291815281516020928301206000818152610199909352912054909150600160a81b900460ff1615612a475760405162461bcd60e51b815260206004820152601760248201527f466163696c69747920616c7265616479206578697374730000000000000000006044820152606401610aea565b6040518060a00160405280612a593390565b6001600160a01b03168152602001841515815260200160011515815260200186868080601f01602080910402602001604051908101604052809392919081815260200183838082843760009201829052509385525050506001600160a01b0380861660209384015284825261019983526040918290208451815486860151948701511515600160a81b0260ff60a81b19951515600160a01b026001600160a81b031990921692909416919091171792909216178155606083015180519192612b2992600185019290910190615219565b5060809190910151600290910180546001600160a01b0319166001600160a01b03909216919091179055612b5f61019682613781565b5033600090815261019860205260409020612b7a9082613781565b50336001600160a01b03167f28c9a25063d40c8cf423202182ed575cc97982c1fd1771bd9721e19a38cc491d828787604051612bb893929190615e27565b60405180910390a25050505050565b61019960205260009081526040902080546001820180546001600160a01b0383169360ff600160a01b8504811694600160a81b900416929091612c0990616143565b80601f0160208091040260200160405190810160405280929190818152602001828054612c3590616143565b8015612c825780601f10612c5757610100808354040283529160200191612c82565b820191906000526020600020905b815481529060010190602001808311612c6557829003601f168201915b505050600290930154919250506001600160a01b031685565b6060612ca682613c44565b6001600160401b03811115612cbd57612cbd61621b565b604051908082528060200260200182016040528015612ce6578160200160208202803683370190505b50600083815261019a6020908152604080832080548251818502810185019093528083529495509293909291830182828015612d4157602002820191906000526020600020905b815481526020019060010190808311612d2d575b50505050509050600080600090505b8251811015612ded5761019b6000848381518110612d7057612d70616205565b60209081029190910181015182528101919091526040016000206003015460ff1615612ddb57828181518110612da857612da8616205565b6020026020010151848381518110612dc257612dc2616205565b602090810291909101015281612dd78161617e565b9250505b80612de58161617e565b915050612d50565b505050919050565b6001600160a01b03163b151590565b6000805b612e13610196612e6f565b811015612e6b576101996000612e2b61019684612e79565b8152602081019190915260400160002054600160a01b900460ff1615612e595781612e558161617e565b9250505b80612e638161617e565b915050612e08565b5090565b6000610c2e825490565b6000612e858383613cc3565b9392505050565b60006001600160e01b0319821663780e9d6360e01b1480610c2e5750610c2e82613ced565b6000908152606760205260409020546001600160a01b0316151590565b600081815260696020526040902080546001600160a01b0319166001600160a01b0384169081179091558190612f0382611d47565b6001600160a01b03167f8c5be1e5ebec7d5bd14f71427d1e84f3dd0314c0f7b2291e5b200ac8c7c3b92560405160405180910390a45050565b61240c84848484613d3d565b6060610c2e82613e9e565b612f606202a30042616100565b612f6d83620151806160e1565b612f7b906362155d6e6160b5565b11612fc15760405162461bcd60e51b8152602060048201526016602482015275111bdb89dd081cdd185e481a5b881d1a19481c185cdd60521b6044820152606401610aea565b600083815261019b60209081526040808320548352610199909152902054600160a01b900460ff166130355760405162461bcd60e51b815260206004820152601c60248201527f4c6f6467696e6720466163696c69747920697320696e616374697665000000006044820152606401610aea565b600083815261019b602052604090206003015460ff1661308b5760405162461bcd60e51b8152602060048201526011602482015270537061636520697320696e61637469766560781b6044820152606401610aea565b60008111610e5f5760405162461bcd60e51b815260206004820152602260248201527f4e756d626572206f6620646179732073686f756c642062652031206f72206d6f604482015261726560f01b6064820152608401610aea565b612324828260405180602001604052806000815250613ef8565b60606131426131108a8585613f2b565b61311d8a8a8a8a8a613f6c565b60405160200161312e929190615c32565b604051602081830303815290604052613fc9565b9998505050505050505050565b61315882612eb1565b6131bb5760405162461bcd60e51b815260206004820152602e60248201527f45524337323155524953746f726167653a2055524920736574206f66206e6f6e60448201526d32bc34b9ba32b73a103a37b5b2b760911b6064820152608401610aea565b600082815260c9602090815260409091208251610e5f92840190615219565b60006131e582612eb1565b6132465760405162461bcd60e51b815260206004820152602c60248201527f4552433732313a206f70657261746f7220717565727920666f72206e6f6e657860448201526b34b9ba32b73a103a37b5b2b760a11b6064820152608401610aea565b600061325183611d47565b9050806001600160a01b0316846001600160a01b0316148061328c5750836001600160a01b031661328184610cc6565b6001600160a01b0316145b8061134b57506001600160a01b038082166000908152606a602090815260408083209388168352929052205460ff1661134b565b826001600160a01b03166132d382611d47565b6001600160a01b0316146133375760405162461bcd60e51b815260206004820152602560248201527f4552433732313a207472616e736665722066726f6d20696e636f72726563742060448201526437bbb732b960d91b6064820152608401610aea565b6001600160a01b0382166133995760405162461bcd60e51b8152602060048201526024808201527f4552433732313a207472616e7366657220746f20746865207a65726f206164646044820152637265737360e01b6064820152608401610aea565b6133a4838383613ffa565b6133af600082612ece565b6001600160a01b03831660009081526068602052604081208054600192906133d8908490616100565b90915550506001600160a01b03821660009081526068602052604081208054600192906134069084906160b5565b909155505060008181526067602052604080822080546001600160a01b0319166001600160a01b0386811691821790925591518493918716917fddf252ad1be2c89b69c2b068fc378daa952ba7f163c4a11628f55a4df523b3ef91a4505050565b6101315460ff166134b15760405162461bcd60e51b815260206004820152601460248201527314185d5cd8589b194e881b9bdd081c185d5cd95960621b6044820152606401610aea565b610131805460ff191690557f5db9ee0a495bf2e6ff9c91a7834c1ba4fdd244a5e8aa4e537bd38aeae4b073aa335b6040516001600160a01b03909116815260200160405180910390a1565b60008151116120ae5760405162461bcd60e51b815260206004820152601960248201527f4461746120555249206d7573742062652070726f7669646564000000000000006044820152606401610aea565b60008181526101996020526040902054600160a81b900460ff166120ae5760405162461bcd60e51b815260206004820152601760248201527f466163696c69747920646f6573206e6f742065786973740000000000000000006044820152606401610aea565b6000828152610199602052604090205481906001600160a01b03163314610e5f5760405162461bcd60e51b8152600401610aea9190615ed8565b61016380546001600160a01b038381166001600160a01b0319831681179093556040519116919082907f8be0079c531659141344cd1fd0a4f28419497f9722a3daafe3b4186f6b6457e090600090a35050565b600054610100900460ff166136675760405162461bcd60e51b8152600401610aea9061606a565b6123248282614005565b600054610100900460ff166136985760405162461bcd60e51b8152600401610aea9061606a565b6123248282614053565b600054610100900460ff166117245760405162461bcd60e51b8152600401610aea9061606a565b600054610100900460ff166136f05760405162461bcd60e51b8152600401610aea9061606a565b611724614094565b600054610100900460ff1661371f5760405162461bcd60e51b8152600401610aea9061606a565b6117246140c8565b6101315460ff161561374b5760405162461bcd60e51b8152600401610aea90615f83565b610131805460ff191660011790557f62e78cea01bee320cd4e420270b5ea74000d11b0c9f74754ebdbfc544b05a2586134df3390565b6000612e8583836140f8565b6000612e858383614147565b816001600160a01b0316836001600160a01b031614156137fb5760405162461bcd60e51b815260206004820152601960248201527f4552433732313a20617070726f766520746f2063616c6c6572000000000000006044820152606401610aea565b6001600160a01b038381166000818152606a6020908152604080832094871680845294825291829020805460ff191686151590811790915591519182527f17307eab39ab6107e8899845ad3d59bd9653f200f220920489ca2b5937696c3191016121f9565b61386b8484846132c0565b6138778484848461423a565b61240c5760405162461bcd60e51b8152600401610aea90615eeb565b606061389e82612eb1565b6139045760405162461bcd60e51b815260206004820152603160248201527f45524337323155524953746f726167653a2055524920717565727920666f72206044820152703737b732bc34b9ba32b73a103a37b5b2b760791b6064820152608401610aea565b600082815260c960205260408120805461391d90616143565b80601f016020809104026020016040519081016040528092919081815260200182805461394990616143565b80156139965780601f1061396b57610100808354040283529160200191613996565b820191906000526020600020905b81548152906001019060200180831161397957829003601f168201915b5050505050905060006139b460408051602081019091526000815290565b90508051600014156139c7575092915050565b8151156139f95780826040516020016139e192919061595e565b60405160208183030381529060405292505050919050565b61134b84614344565b600080613a867fe14fce867d3bcfe3e7c779de069d9e179b67b9288baf649805c61c495483896b846000015185602001518660400151604051602001613a6b94939291909384526001600160a01b03928316602085015291166040830152606082015260800190565b6040516020818303038152906040528051906020012061441b565b9050600080613a99838660600151614469565b90925090506000816004811115613ab257613ab26161d9565b148015613acb575084516001600160a01b038381169116145b613b085760405162461bcd60e51b815260206004820152600e60248201526d213937b5b2b7103b37bab1b432b960911b6044820152606401610aea565b509392505050565b600082815261019b6020526040902060020154831115613b845760405162461bcd60e51b815260206004820152602960248201527f576974686472617720616d6f756e74206e6f7420616c6c6f77656420696e207460448201526868697320737461746560b81b6064820152608401610aea565b613b9185858585856144d9565b5050505050565b600082815261012f602090815260408083206001600160a01b03871684528252808320848452909152812080543492839291613bd59084906160b5565b909155505060008281526101306020908152604091829020805460ff1916905581518381529081018590529081018390526001600160a01b038516907f4eef3d1efb11f00508d9b7bb632ddcfa6da9d7105bd39f404bdd7362e6c59dbc9060600160405180910390a250505050565b600081815261019a60205260408120815b8154811015613cbc5761019b6000838381548110613c7557613c75616205565b6000918252602080832090910154835282019290925260400190206003015460ff1615613caa5782613ca68161617e565b9350505b80613cb48161617e565b915050613c55565b5050919050565b6000826000018281548110613cda57613cda616205565b9060005260206000200154905092915050565b60006001600160e01b031982166380ac58cd60e01b1480613d1e57506001600160e01b03198216635b5e139f60e01b145b80610c2e57506301ffc9a760e01b6001600160e01b0319831614610c2e565b600082815261012f602090815260408083206001600160a01b038816845282528083208484528252808320546101309092529091205460019060ff166002811115613d8a57613d8a6161d9565b14613deb5760405162461bcd60e51b815260206004820152602b60248201527f436f6d706c657465207769746864726177206e6f7420616c6c6f77656420696e60448201526a207468697320737461746560a81b6064820152608401610aea565b600083815261012f602090815260408083206001600160a01b0389168452825280832085845282528083208390556101309091529020805460ff191660021790558015613b9157613e456001600160a01b0385168261461e565b60408051828152602081018590529081018390526001600160a01b0380861691908716907f89eeb38ad2da123e4b3662ad415c1856733f76deaccee072a5234ab427ffdb70906060015b60405180910390a35050505050565b60608160000180548060200260200160405190810160405280929190818152602001828054801561225d57602002820191906000526020600020908154815260200190600101908083116122495750505050509050919050565b613f028383614737565b613f0f600084848461423a565b610e5f5760405162461bcd60e51b8152600401610aea90615eeb565b6060613f3684614876565b8383613f4187614876565b604051602001613f549493929190615b21565b60405160208183030381529060405290509392505050565b6060613f7786614973565b613f8086614973565b613f8986614876565b613f9286614876565b613f9b86614876565b604051602001613faf95949392919061598d565b604051602081830303815290604052905095945050505050565b6060613fd4826149ae565b604051602001613fe49190615c89565b6040516020818303038152906040529050919050565b610e5f838383614b01565b600054610100900460ff1661402c5760405162461bcd60e51b8152600401610aea9061606a565b815161403f906065906020850190615219565b508051610e5f906066906020840190615219565b600054610100900460ff1661407a5760405162461bcd60e51b8152600401610aea9061606a565b81516020928301208151919092012060fb9190915560fc55565b600054610100900460ff166140bb5760405162461bcd60e51b8152600401610aea9061606a565b610131805460ff19169055565b600054610100900460ff166140ef5760405162461bcd60e51b8152600401610aea9061606a565b611724336135ed565b600081815260018301602052604081205461413f57508154600181810184556000848152602080822090930184905584548482528286019093526040902091909155610c2e565b506000610c2e565b6000818152600183016020526040812054801561423057600061416b600183616100565b855490915060009061417f90600190616100565b90508181146141e457600086600001828154811061419f5761419f616205565b90600052602060002001549050808760000184815481106141c2576141c2616205565b6000918252602080832090910192909255918252600188019052604090208390555b85548690806141f5576141f56161ef565b600190038181906000526020600020016000905590558560010160008681526020019081526020016000206000905560019350505050610c2e565b6000915050610c2e565b60006001600160a01b0384163b1561433c57604051630a85bd0160e11b81526001600160a01b0385169063150b7a029061427e903390899088908890600401615cce565b602060405180830381600087803b15801561429857600080fd5b505af19250505080156142c8575060408051601f3d908101601f191682019092526142c591810190615719565b60015b614322573d8080156142f6576040519150601f19603f3d011682016040523d82523d6000602084013e6142fb565b606091505b50805161431a5760405162461bcd60e51b8152600401610aea90615eeb565b805181602001fd5b6001600160e01b031916630a85bd0160e11b14905061134b565b50600161134b565b606061434f82612eb1565b6143b35760405162461bcd60e51b815260206004820152602f60248201527f4552433732314d657461646174613a2055524920717565727920666f72206e6f60448201526e3732bc34b9ba32b73a103a37b5b2b760891b6064820152608401610aea565b60006143ca60408051602081019091526000815290565b905060008151116143ea5760405180602001604052806000815250612e85565b806143f484614bb9565b60405160200161440592919061595e565b6040516020818303038152906040529392505050565b6000610c2e614428614cb6565b8360405161190160f01b6020820152602281018390526042810182905260009060620160405160208183030381529060405280519060200120905092915050565b6000808251604114156144a05760208301516040840151606085015160001a61449487828585614d31565b945094505050506144d2565b8251604014156144ca57602083015160408401516144bf868383614e1e565b9350935050506144d2565b506000905060025b9250929050565b600082815261012f602090815260408083206001600160a01b038916845282528083208484529091529020548311156145495760405162461bcd60e51b8152602060048201526012602482015271496e73756666696369656e742066756e647360701b6044820152606401610aea565b600082815261012f602090815260408083206001600160a01b03891684528252808320848452909152902054614580908490616100565b600083815261012f602090815260408083206001600160a01b038a811685529083528184208685528352818420949094556101309091529020805460ff191660011790556145d09085168461461e565b60408051848152602081018490529081018290526001600160a01b0380861691908716907f89eeb38ad2da123e4b3662ad415c1856733f76deaccee072a5234ab427ffdb7090606001613e8f565b8047101561466e5760405162461bcd60e51b815260206004820152601d60248201527f416464726573733a20696e73756666696369656e742062616c616e63650000006044820152606401610aea565b6000826001600160a01b03168260405160006040518083038185875af1925050503d80600081146146bb576040519150601f19603f3d011682016040523d82523d6000602084013e6146c0565b606091505b5050905080610e5f5760405162461bcd60e51b815260206004820152603a60248201527f416464726573733a20756e61626c6520746f2073656e642076616c75652c207260448201527f6563697069656e74206d617920686176652072657665727465640000000000006064820152608401610aea565b6001600160a01b03821661478d5760405162461bcd60e51b815260206004820181905260248201527f4552433732313a206d696e7420746f20746865207a65726f20616464726573736044820152606401610aea565b61479681612eb1565b156147e35760405162461bcd60e51b815260206004820152601c60248201527f4552433732313a20746f6b656e20616c7265616479206d696e746564000000006044820152606401610aea565b6147ef60008383613ffa565b6001600160a01b03821660009081526068602052604081208054600192906148189084906160b5565b909155505060008181526067602052604080822080546001600160a01b0319166001600160a01b03861690811790915590518392907fddf252ad1be2c89b69c2b068fc378daa952ba7f163c4a11628f55a4df523b3ef908290a45050565b60608161489a5750506040805180820190915260018152600360fc1b602082015290565b8160005b81156148c457806148ae8161617e565b91506148bd9050600a836160cd565b915061489e565b6000816001600160401b038111156148de576148de61621b565b6040519080825280601f01601f191660200182016040528015614908576020820181803683370190505b5090505b841561134b5761491d600183616100565b915061492a600a86616199565b6149359060306160b5565b60f81b81838151811061494a5761494a616205565b60200101906001600160f81b031916908160001a90535061496c600a866160cd565b945061490c565b606061497e82614e57565b61498b608084901b614e57565b60405161060f60f31b602082015260228101929092526042820152606201613fe4565b60608151600014156149ce57505060408051602081019091526000815290565b60006040518060600160405280604081526020016162c660409139905060006003845160026149fd91906160b5565b614a0791906160cd565b614a129060046160e1565b6001600160401b03811115614a2957614a2961621b565b6040519080825280601f01601f191660200182016040528015614a53576020820181803683370190505b509050600182016020820185865187015b80821015614abf576003820191508151603f8160121c168501518453600184019350603f81600c1c168501518453600184019350603f8160061c168501518453600184019350603f8116850151845350600183019250614a64565b5050600386510660018114614adb5760028114614aee57614af6565b603d6001830353603d6002830353614af6565b603d60018303535b509195945050505050565b6001600160a01b038316614b5c57614b5781609980546000838152609a60205260408120829055600182018355919091527f72a152ddfb8e864297c917af52ea6c1c68aead0fee1a62673fcc7e0c94979d000155565b614b7f565b816001600160a01b0316836001600160a01b031614614b7f57614b7f8382615009565b6001600160a01b038216614b9657610e5f816150a6565b826001600160a01b0316826001600160a01b031614610e5f57610e5f8282615155565b606081614bdd5750506040805180820190915260018152600360fc1b602082015290565b8160005b8115614c075780614bf18161617e565b9150614c009050600a836160cd565b9150614be1565b6000816001600160401b03811115614c2157614c2161621b565b6040519080825280601f01601f191660200182016040528015614c4b576020820181803683370190505b5090505b841561134b57614c60600183616100565b9150614c6d600a86616199565b614c789060306160b5565b60f81b818381518110614c8d57614c8d616205565b60200101906001600160f81b031916908160001a905350614caf600a866160cd565b9450614c4f565b60006123d57f8b73c3c69bb8fe3d512ecc4cf759cc79239f7b179b0ffacaa9a75d522b39400f614ce560fb5490565b60fc546040805160208101859052908101839052606081018290524660808201523060a082015260009060c0016040516020818303038152906040528051906020012090509392505050565b6000807f7fffffffffffffffffffffffffffffff5d576e7357a4501ddfe92f46681b20a0831115614d685750600090506003614e15565b8460ff16601b14158015614d8057508460ff16601c14155b15614d915750600090506004614e15565b6040805160008082526020820180845289905260ff881692820192909252606081018690526080810185905260019060a0016020604051602081039080840390855afa158015614de5573d6000803e3d6000fd5b5050604051601f1901519150506001600160a01b038116614e0e57600060019250925050614e15565b9150600090505b94509492505050565b6000806001600160ff1b03831681614e3b60ff86901c601b6160b5565b9050614e4987828885614d31565b935093505050935093915050565b7aff00000000000000ff00000000000000ff00000000000000ff00006bffffffff0000000000000000604083901c90811663ffffffff60c01b84161760201c63ffffffff60601b919091166001600160e01b031984161717601081901c9182167eff00000000000000ff00000000000000ff00000000000000ff000000000000821617600890811c7bff00000000000000ff00000000000000ff00000000000000ff000000939093167fff00000000000000ff00000000000000ff00000000000000ff000000000000009290921691909117919091179081901c7e0f000f000f000f000f000f000f000f000f000f000f000f000f000f000f000f167f0f000f000f000f000f000f000f000f000f000f000f000f000f000f000f000f00600492831c161790614fa5827f06060606060606060606060606060606060606060606060606060606060606066160b5565b901c7f0f0f0f0f0f0f0f0f0f0f0f0f0f0f0f0f0f0f0f0f0f0f0f0f0f0f0f0f0f0f0f0f166007614fd591906160e1565b614fff827f30303030303030303030303030303030303030303030303030303030303030306160b5565b610c2e91906160b5565b6000600161501684611e84565b6150209190616100565b600083815260986020526040902054909150808214615073576001600160a01b03841660009081526097602090815260408083208584528252808320548484528184208190558352609890915290208190555b5060009182526098602090815260408084208490556001600160a01b039094168352609781528383209183525290812055565b6099546000906150b890600190616100565b6000838152609a6020526040812054609980549394509092849081106150e0576150e0616205565b90600052602060002001549050806099838154811061510157615101616205565b6000918252602080832090910192909255828152609a90915260408082208490558582528120556099805480615139576151396161ef565b6001900381819060005260206000200160009055905550505050565b600061516083611e84565b6001600160a01b039093166000908152609760209081526040808320868452825280832085905593825260989052919091209190915550565b8280546151a590616143565b90600052602060002090601f0160209004810192826151c7576000855561520d565b82601f106151e05782800160ff1982351617855561520d565b8280016001018555821561520d579182015b8281111561520d5782358255916020019190600101906151f2565b50612e6b92915061528d565b82805461522590616143565b90600052602060002090601f016020900481019282615247576000855561520d565b82601f1061526057805160ff191683800117855561520d565b8280016001018555821561520d579182015b8281111561520d578251825591602001919060010190615272565b5b80821115612e6b576000815560010161528e565b80356001600160a01b03811681146152b957600080fd5b919050565b803580151581146152b957600080fd5b600082601f8301126152df57600080fd5b81356001600160401b03808211156152f9576152f961621b565b604051601f8301601f19908116603f011681019082821181831017156153215761532161621b565b8160405283815286602085880101111561533a57600080fd5b836020870160208301376000602085830101528094505050505092915050565b60008083601f84011261536c57600080fd5b5081356001600160401b0381111561538357600080fd5b6020830191508360208285010111156144d257600080fd5b6000602082840312156153ad57600080fd5b612e85826152a2565b600080604083850312156153c957600080fd5b6153d2836152a2565b91506153e0602084016152a2565b90509250929050565b6000806000606084860312156153fe57600080fd5b615407846152a2565b9250615415602085016152a2565b9150604084013590509250925092565b6000806000806080858703121561543b57600080fd5b615444856152a2565b9350615452602086016152a2565b92506040850135915060608501356001600160401b0381111561547457600080fd5b615480878288016152ce565b91505092959194509250565b6000806040838503121561549f57600080fd5b6154a8836152a2565b91506153e0602084016152be565b6000806000606084860312156154cb57600080fd5b6154d4846152a2565b95602085013595506040909401359392505050565b600080604083850312156154fc57600080fd5b615505836152a2565b946020939093013593505050565b60006020828403121561552557600080fd5b5035919050565b6000806040838503121561553f57600080fd5b823591506153e0602084016152a2565b6000806040838503121561556257600080fd5b8235915060208301356003811061557857600080fd5b809150509250929050565b60008060006040848603121561559857600080fd5b8335925060208401356001600160401b038111156155b557600080fd5b6155c18682870161535a565b9497909650939450505050565b6000806000606084860312156155e357600080fd5b505081359360208301359350604090920135919050565b60008060008060008060a0878903121561561357600080fd5b863595506020870135945060408701359350615631606088016152be565b925060808701356001600160401b0381111561564c57600080fd5b61565889828a0161535a565b979a9699509497509295939492505050565b60008060008060006080868803121561568257600080fd5b85359450602086013593506040860135925060608601356001600160401b038111156156ad57600080fd5b6156b98882890161535a565b969995985093965092949392505050565b600080600080608085870312156156e057600080fd5b5050823594602084013594506040840135936060013592509050565b60006020828403121561570e57600080fd5b8135612e8581616231565b60006020828403121561572b57600080fd5b8151612e8581616231565b60008060006040848603121561574b57600080fd5b83356001600160401b0381111561576157600080fd5b61576d8682870161535a565b90945092506157809050602085016152be565b90509250925092565b6000806000806060858703121561579f57600080fd5b84356001600160401b038111156157b557600080fd5b6157c18782880161535a565b90955093506157d49050602086016152be565b91506157e2604086016152a2565b905092959194509250565b6000806040838503121561580057600080fd5b8235915060208301356001600160401b038082111561581e57600080fd5b908401906080828703121561583257600080fd5b60405160808101818110838211171561584d5761584d61621b565b604052615859836152a2565b8152615867602084016152a2565b60208201526040830135604082015260608301358281111561588857600080fd5b615894888286016152ce565b6060830152508093505050509250929050565b600081518084526158bf816020860160208601616117565b601f01601f19169290920160200192915050565b81835281816020850137506000828201602090810191909152601f909101601f19169091010190565b6000815161590e818560208601616117565b9290920192915050565b6bffffffffffffffffffffffff198460601b168152818360148301376000910160140190815292915050565b838152818360208301376000910160200190815292915050565b60008351615970818460208801616117565b835190830190615984818360208801616117565b01949350505050565b7f2261747472696275746573223a5b7b2274726169745f74797065223a2266616381527134b634ba3ca4b21116113b30b63ab2911d1160711b6020820152600086516159e0816032850160208b01616117565b7f227d2c7b2274726169745f74797065223a2273706163654964222c2276616c756032918401918201526332911d1160e11b60528201528651615a2a816056840160208b01616117565b7f227d2c7b2274726169745f74797065223a227374617274446179222c2276616c60569290910191820152643ab2911d1160d91b60768201528551615a7681607b840160208a01616117565b7f227d2c7b2274726169745f74797065223a226e756d6265724f6644617973222c607b929091019182015268113b30b63ab2911d1160b91b609b820152615b15615b06615b00615ac960a48501896158fc565b7f227d2c7b2274726169745f74797065223a227175616e74697479222c2276616c8152643ab2911d1160d91b602082015260250190565b866158fc565b62227d5d60e81b815260030190565b98975050505050505050565b7f226e616d65223a225374617920416d7374657264616d20230000000000000000815260008551615b59816018850160208a01616117565b7f222c226465736372697074696f6e223a2253746179206174206c6f6467696e6760189184019182015273103330b1b4b634ba3c91161134b6b0b3b2911d1160611b60388201528551615bb381604c840160208a01616117565b7111161132bc3a32b93730b62fbab936111d1160711b604c92909101918201528451615be681605e840160208901616117565b6e746f6b656e733f746f6b656e49643d60881b605e92909101918201528351615c1681606d840160208801616117565b601160f91b606d9290910191820152606e019695505050505050565b607b60f81b815260008351615c4e816001850160208801616117565b600b60fa1b6001918401918201528351615c6f816002840160208801616117565b607d60f81b60029290910191820152600301949350505050565b7f646174613a6170706c69636174696f6e2f6a736f6e3b6261736536342c000000815260008251615cc181601d850160208701616117565b91909101601d0192915050565b6001600160a01b0385811682528416602082015260408101839052608060608201819052600090615d01908301846158a7565b9695505050505050565b600060018060a01b0380881683528615156020840152851515604084015260a06060840152615d3d60a08401866158a7565b91508084166080840152509695505050505050565b6020808252825182820181905260009190848201906040850190845b8181101561259a57835183529284019291840191600101615d6e565b84151581526001600160a01b03841660208201528215156040820152608060608201819052600090615d01908301846158a7565b8615158152856020820152846040820152836060820152821515608082015260c060a08201526000615b1560c08301846158a7565b878152866020820152856040820152846060820152831515608082015260c060a0820152600061314260c0830184866158d3565b838152604060208201526000615e416040830184866158d3565b95945050505050565b8681528560208201528460408201528315156060820152821515608082015260c060a08201526000615b1560c08301846158a7565b858152846020820152836040820152608060608201526000615ea56080830184866158d3565b979650505050505050565b6020810160038310615ed257634e487b7160e01b600052602160045260246000fd5b91905290565b602081526000612e8560208301846158a7565b60208082526032908201527f4552433732313a207472616e7366657220746f206e6f6e20455243373231526560408201527131b2b4bb32b91034b6b83632b6b2b73a32b960711b606082015260800190565b60208082526026908201527f4f6e6c79206c6f6467696e6720666163696c697479206f776e657220697320616040820152651b1b1bddd95960d21b606082015260800190565b60208082526010908201526f14185d5cd8589b194e881c185d5cd95960821b604082015260600190565b6020808252601b908201527f4f6e6c79207370616365206f776e657220697320616c6c6f7765640000000000604082015260600190565b6020808252818101527f4f776e61626c653a2063616c6c6572206973206e6f7420746865206f776e6572604082015260600190565b60208082526031908201527f4552433732313a207472616e736665722063616c6c6572206973206e6f74206f6040820152701ddb995c881b9bdc88185c1c1c9bdd9959607a1b606082015260800190565b6020808252602b908201527f496e697469616c697a61626c653a20636f6e7472616374206973206e6f74206960408201526a6e697469616c697a696e6760a81b606082015260800190565b600082198211156160c8576160c86161ad565b500190565b6000826160dc576160dc6161c3565b500490565b60008160001904831182151516156160fb576160fb6161ad565b500290565b600082821015616112576161126161ad565b500390565b60005b8381101561613257818101518382015260200161611a565b8381111561240c5750506000910152565b600181811c9082168061615757607f821691505b6020821081141561617857634e487b7160e01b600052602260045260246000fd5b50919050565b6000600019821415616192576161926161ad565b5060010190565b6000826161a8576161a86161c3565b500690565b634e487b7160e01b600052601160045260246000fd5b634e487b7160e01b600052601260045260246000fd5b634e487b7160e01b600052602160045260246000fd5b634e487b7160e01b600052603160045260246000fd5b634e487b7160e01b600052603260045260246000fd5b634e487b7160e01b600052604160045260246000fd5b6001600160e01b0319811681146120ae57600080fdfe4f6e6c7920666163696c697479206f776e6572206d6179206164642053706163657368747470733a2f2f62616679626569616b6a726862676d7635346c346e73647778786364666b7065716833336d343561736d7736726b7768756a727977327161376e342e697066732e647765622e6c696e6b2f746f6b656e2e706e674142434445464748494a4b4c4d4e4f505152535455565758595a6162636465666768696a6b6c6d6e6f707172737475767778797a303132333435363738392b2fa2646970667358221220ce463dadeb537e437a0854a6f385e94e79c6be1d283328b7f7183638d96828cc64736f6c63430008070033",
  "linkReferences": {},
  "deployedLinkReferences": {}
}