{
  "_format": "hh-sol-artifact-1",
  "contractName": "Stays",
  "sourceName": "contracts/Stays.sol",
  "abi": [
    {
      "inputs": [],
      "stateMutability": "nonpayable",
      "type": "constructor"
    },
    {
      "anonymous": false,
      "inputs": [
        {
          "indexed": true,
          "internalType": "address",
          "name": "owner",
          "type": "address"
        },
        {
          "indexed": true,
          "internalType": "address",
          "name": "approved",
          "type": "address"
        },
        {
          "indexed": true,
          "internalType": "uint256",
          "name": "tokenId",
          "type": "uint256"
        }
      ],
      "name": "Approval",
      "type": "event"
    },
    {
      "anonymous": false,
      "inputs": [
        {
          "indexed": true,
          "internalType": "address",
          "name": "owner",
          "type": "address"
        },
        {
          "indexed": true,
          "internalType": "address",
          "name": "operator",
          "type": "address"
        },
        {
          "indexed": false,
          "internalType": "bool",
          "name": "approved",
          "type": "bool"
        }
      ],
      "name": "ApprovalForAll",
      "type": "event"
    },
    {
      "anonymous": false,
      "inputs": [
        {
          "indexed": false,
          "internalType": "uint256",
          "name": "tokenId",
          "type": "uint256"
        }
      ],
      "name": "CheckIn",
      "type": "event"
    },
    {
      "anonymous": false,
      "inputs": [
        {
          "indexed": false,
          "internalType": "uint256",
          "name": "tokenId",
          "type": "uint256"
        }
      ],
      "name": "CheckOut",
      "type": "event"
    },
    {
      "anonymous": false,
      "inputs": [
        {
          "indexed": true,
          "internalType": "address",
          "name": "payee",
          "type": "address"
        },
        {
          "indexed": false,
          "internalType": "uint256",
          "name": "weiAmount",
          "type": "uint256"
        },
        {
          "indexed": false,
          "internalType": "bytes32",
          "name": "spaceId",
          "type": "bytes32"
        }
      ],
      "name": "Deposited",
      "type": "event"
    },
    {
      "anonymous": false,
      "inputs": [
        {
          "indexed": false,
          "internalType": "bytes32",
          "name": "facilityId",
          "type": "bytes32"
        },
        {
          "indexed": false,
          "internalType": "bool",
          "name": "active",
          "type": "bool"
        }
      ],
      "name": "LodgingFacilityActiveState",
      "type": "event"
    },
    {
      "anonymous": false,
      "inputs": [
        {
          "indexed": false,
          "internalType": "bytes32",
          "name": "facilityId",
          "type": "bytes32"
        },
        {
          "indexed": true,
          "internalType": "address",
          "name": "owner",
          "type": "address"
        },
        {
          "indexed": false,
          "internalType": "string",
          "name": "dataURI",
          "type": "string"
        }
      ],
      "name": "LodgingFacilityCreated",
      "type": "event"
    },
    {
      "anonymous": false,
      "inputs": [
        {
          "indexed": false,
          "internalType": "bytes32",
          "name": "facilityId",
          "type": "bytes32"
        },
        {
          "indexed": true,
          "internalType": "address",
          "name": "prevOwner",
          "type": "address"
        },
        {
          "indexed": true,
          "internalType": "address",
          "name": "newOwner",
          "type": "address"
        }
      ],
      "name": "LodgingFacilityOwnershipTransfer",
      "type": "event"
    },
    {
      "anonymous": false,
      "inputs": [
        {
          "indexed": false,
          "internalType": "bytes32",
          "name": "facilityId",
          "type": "bytes32"
        }
      ],
      "name": "LodgingFacilityRemoved",
      "type": "event"
    },
    {
      "anonymous": false,
      "inputs": [
        {
          "indexed": false,
          "internalType": "bytes32",
          "name": "facilityId",
          "type": "bytes32"
        },
        {
          "indexed": false,
          "internalType": "string",
          "name": "dataURI",
          "type": "string"
        }
      ],
      "name": "LodgingFacilityUpdated",
      "type": "event"
    },
    {
      "anonymous": false,
      "inputs": [
        {
          "indexed": false,
          "internalType": "bytes32",
          "name": "spaceId",
          "type": "bytes32"
        },
        {
          "indexed": false,
          "internalType": "uint256",
          "name": "tokenId",
          "type": "uint256"
        }
      ],
      "name": "NewStay",
      "type": "event"
    },
    {
      "anonymous": false,
      "inputs": [
        {
          "indexed": false,
          "internalType": "bytes32",
          "name": "spaceId",
          "type": "bytes32"
        },
        {
          "indexed": false,
          "internalType": "bytes32",
          "name": "facilityId",
          "type": "bytes32"
        },
        {
          "indexed": false,
          "internalType": "uint256",
          "name": "capacity",
          "type": "uint256"
        },
        {
          "indexed": false,
          "internalType": "uint256",
          "name": "pricePerNightWei",
          "type": "uint256"
        },
        {
          "indexed": false,
          "internalType": "bool",
          "name": "active",
          "type": "bool"
        },
        {
          "indexed": false,
          "internalType": "string",
          "name": "dataURI",
          "type": "string"
        }
      ],
      "name": "SpaceAdded",
      "type": "event"
    },
    {
      "anonymous": false,
      "inputs": [
        {
          "indexed": false,
          "internalType": "bytes32",
          "name": "spaceId",
          "type": "bytes32"
        }
      ],
      "name": "SpaceRemoved",
      "type": "event"
    },
    {
      "anonymous": false,
      "inputs": [
        {
          "indexed": false,
          "internalType": "bytes32",
          "name": "spaceId",
          "type": "bytes32"
        },
        {
          "indexed": false,
          "internalType": "bytes32",
          "name": "facilityId",
          "type": "bytes32"
        },
        {
          "indexed": false,
          "internalType": "uint256",
          "name": "capacity",
          "type": "uint256"
        },
        {
          "indexed": false,
          "internalType": "uint256",
          "name": "pricePerNightWei",
          "type": "uint256"
        },
        {
          "indexed": false,
          "internalType": "bool",
          "name": "active",
          "type": "bool"
        },
        {
          "indexed": false,
          "internalType": "string",
          "name": "dataURI",
          "type": "string"
        }
      ],
      "name": "SpaceUpdated",
      "type": "event"
    },
    {
      "anonymous": false,
      "inputs": [
        {
          "indexed": true,
          "internalType": "address",
          "name": "from",
          "type": "address"
        },
        {
          "indexed": true,
          "internalType": "address",
          "name": "to",
          "type": "address"
        },
        {
          "indexed": true,
          "internalType": "uint256",
          "name": "tokenId",
          "type": "uint256"
        }
      ],
      "name": "Transfer",
      "type": "event"
    },
    {
      "anonymous": false,
      "inputs": [
        {
          "indexed": true,
          "internalType": "address",
          "name": "payer",
          "type": "address"
        },
        {
          "indexed": true,
          "internalType": "address",
          "name": "payee",
          "type": "address"
        },
        {
          "indexed": false,
          "internalType": "uint256",
          "name": "weiAmount",
          "type": "uint256"
        },
        {
          "indexed": false,
          "internalType": "bytes32",
          "name": "spaceId",
          "type": "bytes32"
        }
      ],
      "name": "Withdraw",
      "type": "event"
    },
    {
      "inputs": [
        {
          "internalType": "bytes32",
          "name": "_lodgingFacilityId",
          "type": "bytes32"
        }
      ],
      "name": "activateLodgingFacility",
      "outputs": [],
      "stateMutability": "nonpayable",
      "type": "function"
    },
    {
      "inputs": [
        {
          "internalType": "bytes32",
          "name": "_lodgingFacilityId",
          "type": "bytes32"
        },
        {
          "internalType": "uint256",
          "name": "_capacity",
          "type": "uint256"
        },
        {
          "internalType": "uint256",
          "name": "_pricePerNightWei",
          "type": "uint256"
        },
        {
          "internalType": "bool",
          "name": "_active",
          "type": "bool"
        },
        {
          "internalType": "string",
          "name": "_dataURI",
          "type": "string"
        }
      ],
      "name": "addSpace",
      "outputs": [],
      "stateMutability": "nonpayable",
      "type": "function"
    },
    {
      "inputs": [
        {
          "internalType": "address",
          "name": "to",
          "type": "address"
        },
        {
          "internalType": "uint256",
          "name": "tokenId",
          "type": "uint256"
        }
      ],
      "name": "approve",
      "outputs": [],
      "stateMutability": "nonpayable",
      "type": "function"
    },
    {
      "inputs": [
        {
          "internalType": "address",
          "name": "owner",
          "type": "address"
        }
      ],
      "name": "balanceOf",
      "outputs": [
        {
          "internalType": "uint256",
          "name": "",
          "type": "uint256"
        }
      ],
      "stateMutability": "view",
      "type": "function"
    },
    {
      "inputs": [
        {
          "internalType": "uint256",
          "name": "_tokenId",
          "type": "uint256"
        }
      ],
      "name": "checkIn",
      "outputs": [],
      "stateMutability": "nonpayable",
      "type": "function"
    },
    {
      "inputs": [
        {
          "internalType": "uint256",
          "name": "_tokenId",
          "type": "uint256"
        }
      ],
      "name": "checkOut",
      "outputs": [],
      "stateMutability": "nonpayable",
      "type": "function"
    },
    {
      "inputs": [],
      "name": "dayZero",
      "outputs": [
        {
          "internalType": "uint32",
          "name": "",
          "type": "uint32"
        }
      ],
      "stateMutability": "view",
      "type": "function"
    },
    {
      "inputs": [
        {
          "internalType": "bytes32",
          "name": "_lodgingFacilityId",
          "type": "bytes32"
        }
      ],
      "name": "deactivateLodgingFacility",
      "outputs": [],
      "stateMutability": "nonpayable",
      "type": "function"
    },
    {
      "inputs": [
        {
          "internalType": "bytes32",
          "name": "_lodgingFacilityId",
          "type": "bytes32"
        }
      ],
      "name": "deleteLodgingFacility",
      "outputs": [],
      "stateMutability": "nonpayable",
      "type": "function"
    },
    {
      "inputs": [
        {
          "internalType": "bytes32",
          "name": "_spaceId",
          "type": "bytes32"
        }
      ],
      "name": "deleteSpace",
      "outputs": [],
      "stateMutability": "nonpayable",
      "type": "function"
    },
    {
      "inputs": [
        {
          "internalType": "address",
          "name": "payee",
          "type": "address"
        },
        {
          "internalType": "bytes32",
          "name": "spaceId",
          "type": "bytes32"
        }
      ],
      "name": "deposit",
      "outputs": [],
      "stateMutability": "payable",
      "type": "function"
    },
    {
      "inputs": [
        {
          "internalType": "address",
          "name": "payer",
          "type": "address"
        },
        {
          "internalType": "bytes32",
          "name": "spaceId",
          "type": "bytes32"
        }
      ],
      "name": "depositOf",
      "outputs": [
        {
          "internalType": "uint256",
          "name": "",
          "type": "uint256"
        }
      ],
      "stateMutability": "view",
      "type": "function"
    },
    {
      "inputs": [
        {
          "internalType": "address",
          "name": "payer",
          "type": "address"
        },
        {
          "internalType": "bytes32",
          "name": "spaceId",
          "type": "bytes32"
        }
      ],
      "name": "depositState",
      "outputs": [
        {
          "internalType": "enum StayEscrow.State",
          "name": "",
          "type": "uint8"
        }
      ],
      "stateMutability": "view",
      "type": "function"
    },
    {
      "inputs": [],
      "name": "getActiveLodgingFacilityIds",
      "outputs": [
        {
          "internalType": "bytes32[]",
          "name": "activeLodgingFacilityIds",
          "type": "bytes32[]"
        }
      ],
      "stateMutability": "view",
      "type": "function"
    },
    {
      "inputs": [
        {
          "internalType": "bytes32",
          "name": "_lodgingFacilityId",
          "type": "bytes32"
        }
      ],
      "name": "getActiveSpaceIdsByFacilityId",
      "outputs": [
        {
          "internalType": "bytes32[]",
          "name": "activeSpacesIds",
          "type": "bytes32[]"
        }
      ],
      "stateMutability": "view",
      "type": "function"
    },
    {
      "inputs": [],
      "name": "getAllLodgingFacilityIds",
      "outputs": [
        {
          "internalType": "bytes32[]",
          "name": "",
          "type": "bytes32[]"
        }
      ],
      "stateMutability": "view",
      "type": "function"
    },
    {
      "inputs": [
        {
          "internalType": "uint256",
          "name": "tokenId",
          "type": "uint256"
        }
      ],
      "name": "getApproved",
      "outputs": [
        {
          "internalType": "address",
          "name": "",
          "type": "address"
        }
      ],
      "stateMutability": "view",
      "type": "function"
    },
    {
      "inputs": [
        {
          "internalType": "bytes32",
          "name": "_spaceId",
          "type": "bytes32"
        },
        {
          "internalType": "uint256",
          "name": "_startDay",
          "type": "uint256"
        },
        {
          "internalType": "uint256",
          "name": "_numberOfDays",
          "type": "uint256"
        }
      ],
      "name": "getAvailability",
      "outputs": [
        {
          "internalType": "uint256[]",
          "name": "",
          "type": "uint256[]"
        }
      ],
      "stateMutability": "view",
      "type": "function"
    },
    {
      "inputs": [
        {
          "internalType": "bytes32",
          "name": "_lodgingFacilityId",
          "type": "bytes32"
        }
      ],
      "name": "getCurrentStayIdsByFacilityId",
      "outputs": [
        {
          "internalType": "bytes32[]",
          "name": "",
          "type": "bytes32[]"
        }
      ],
      "stateMutability": "view",
      "type": "function"
    },
    {
      "inputs": [
        {
          "internalType": "bytes32",
          "name": "_lodgingFacilityId",
          "type": "bytes32"
        }
      ],
      "name": "getFutureStayIdsByFacilityId",
      "outputs": [
        {
          "internalType": "bytes32[]",
          "name": "",
          "type": "bytes32[]"
        }
      ],
      "stateMutability": "view",
      "type": "function"
    },
    {
      "inputs": [
        {
          "internalType": "bytes32",
          "name": "_lodgingFacilityId",
          "type": "bytes32"
        }
      ],
      "name": "getLodgingFacilityById",
      "outputs": [
        {
          "internalType": "bool",
          "name": "exists",
          "type": "bool"
        },
        {
          "internalType": "address",
          "name": "owner",
          "type": "address"
        },
        {
          "internalType": "bool",
          "name": "active",
          "type": "bool"
        },
        {
          "internalType": "string",
          "name": "dataURI",
          "type": "string"
        }
      ],
      "stateMutability": "view",
      "type": "function"
    },
    {
      "inputs": [
        {
          "internalType": "address",
          "name": "_owner",
          "type": "address"
        }
      ],
      "name": "getLodgingFacilityIdsByOwner",
      "outputs": [
        {
          "internalType": "bytes32[]",
          "name": "",
          "type": "bytes32[]"
        }
      ],
      "stateMutability": "view",
      "type": "function"
    },
    {
      "inputs": [
        {
          "internalType": "bytes32",
          "name": "_spaceId",
          "type": "bytes32"
        }
      ],
      "name": "getSpaceById",
      "outputs": [
        {
          "internalType": "bool",
          "name": "exists",
          "type": "bool"
        },
        {
          "internalType": "bytes32",
          "name": "lodgingFacilityId",
          "type": "bytes32"
        },
        {
          "internalType": "uint256",
          "name": "capacity",
          "type": "uint256"
        },
        {
          "internalType": "uint256",
          "name": "pricePerNightWei",
          "type": "uint256"
        },
        {
          "internalType": "bool",
          "name": "active",
          "type": "bool"
        },
        {
          "internalType": "string",
          "name": "dataURI",
          "type": "string"
        }
      ],
      "stateMutability": "view",
      "type": "function"
    },
    {
      "inputs": [
        {
          "internalType": "uint256",
          "name": "_tokenId",
          "type": "uint256"
        }
      ],
      "name": "getSpaceByTokenId",
      "outputs": [
        {
          "internalType": "bool",
          "name": "exists",
          "type": "bool"
        },
        {
          "internalType": "bytes32",
          "name": "lodgingFacilityId",
          "type": "bytes32"
        },
        {
          "internalType": "uint256",
          "name": "capacity",
          "type": "uint256"
        },
        {
          "internalType": "uint256",
          "name": "pricePerNightWei",
          "type": "uint256"
        },
        {
          "internalType": "bool",
          "name": "active",
          "type": "bool"
        },
        {
          "internalType": "string",
          "name": "dataURI",
          "type": "string"
        }
      ],
      "stateMutability": "view",
      "type": "function"
    },
    {
      "inputs": [
        {
          "internalType": "bytes32",
          "name": "_lodgingFacilityId",
          "type": "bytes32"
        }
      ],
      "name": "getSpaceIdsByFacilityId",
      "outputs": [
        {
          "internalType": "bytes32[]",
          "name": "",
          "type": "bytes32[]"
        }
      ],
      "stateMutability": "view",
      "type": "function"
    },
    {
      "inputs": [
        {
          "internalType": "address",
          "name": "owner",
          "type": "address"
        },
        {
          "internalType": "address",
          "name": "operator",
          "type": "address"
        }
      ],
      "name": "isApprovedForAll",
      "outputs": [
        {
          "internalType": "bool",
          "name": "",
          "type": "bool"
        }
      ],
      "stateMutability": "view",
      "type": "function"
    },
    {
      "inputs": [
        {
          "internalType": "bytes32",
          "name": "",
          "type": "bytes32"
        }
      ],
      "name": "lodgingFacilities",
      "outputs": [
        {
          "internalType": "address",
          "name": "owner",
          "type": "address"
        },
        {
          "internalType": "bool",
          "name": "active",
          "type": "bool"
        },
        {
          "internalType": "bool",
          "name": "exists",
          "type": "bool"
        },
        {
          "internalType": "string",
          "name": "dataURI",
          "type": "string"
        },
        {
          "internalType": "address",
          "name": "fren",
          "type": "address"
        }
      ],
      "stateMutability": "view",
      "type": "function"
    },
    {
      "inputs": [],
      "name": "lodgingFacilitySchemaURI",
      "outputs": [
        {
          "internalType": "string",
          "name": "",
          "type": "string"
        }
      ],
      "stateMutability": "view",
      "type": "function"
    },
    {
      "inputs": [],
      "name": "name",
      "outputs": [
        {
          "internalType": "string",
          "name": "",
          "type": "string"
        }
      ],
      "stateMutability": "view",
      "type": "function"
    },
    {
      "inputs": [
        {
          "internalType": "bytes32",
          "name": "_spaceId",
          "type": "bytes32"
        },
        {
          "internalType": "uint256",
          "name": "_startDay",
          "type": "uint256"
        },
        {
          "internalType": "uint256",
          "name": "_numberOfDays",
          "type": "uint256"
        },
        {
          "internalType": "uint256",
          "name": "_quantity",
          "type": "uint256"
        }
      ],
      "name": "newStay",
      "outputs": [
        {
          "internalType": "uint256",
          "name": "",
          "type": "uint256"
        }
      ],
      "stateMutability": "payable",
      "type": "function"
    },
    {
      "inputs": [
        {
          "internalType": "uint256",
          "name": "tokenId",
          "type": "uint256"
        }
      ],
      "name": "ownerOf",
      "outputs": [
        {
          "internalType": "address",
          "name": "",
          "type": "address"
        }
      ],
      "stateMutability": "view",
      "type": "function"
    },
    {
      "inputs": [
        {
          "internalType": "string",
          "name": "_dataURI",
          "type": "string"
        },
        {
          "internalType": "bool",
          "name": "_active",
          "type": "bool"
        }
      ],
      "name": "registerLodgingFacility",
      "outputs": [],
      "stateMutability": "nonpayable",
      "type": "function"
    },
    {
      "inputs": [
        {
          "internalType": "string",
          "name": "_dataURI",
          "type": "string"
        },
        {
          "internalType": "bool",
          "name": "_active",
          "type": "bool"
        },
        {
          "internalType": "address",
          "name": "_fren",
          "type": "address"
        }
      ],
      "name": "registerLodgingFacility",
      "outputs": [],
      "stateMutability": "nonpayable",
      "type": "function"
    },
    {
      "inputs": [
        {
          "internalType": "address",
          "name": "from",
          "type": "address"
        },
        {
          "internalType": "address",
          "name": "to",
          "type": "address"
        },
        {
          "internalType": "uint256",
          "name": "tokenId",
          "type": "uint256"
        }
      ],
      "name": "safeTransferFrom",
      "outputs": [],
      "stateMutability": "nonpayable",
      "type": "function"
    },
    {
      "inputs": [
        {
          "internalType": "address",
          "name": "from",
          "type": "address"
        },
        {
          "internalType": "address",
          "name": "to",
          "type": "address"
        },
        {
          "internalType": "uint256",
          "name": "tokenId",
          "type": "uint256"
        },
        {
          "internalType": "bytes",
          "name": "_data",
          "type": "bytes"
        }
      ],
      "name": "safeTransferFrom",
      "outputs": [],
      "stateMutability": "nonpayable",
      "type": "function"
    },
    {
      "inputs": [],
      "name": "serviceURI",
      "outputs": [
        {
          "internalType": "string",
          "name": "",
          "type": "string"
        }
      ],
      "stateMutability": "view",
      "type": "function"
    },
    {
      "inputs": [
        {
          "internalType": "address",
          "name": "operator",
          "type": "address"
        },
        {
          "internalType": "bool",
          "name": "approved",
          "type": "bool"
        }
      ],
      "name": "setApprovalForAll",
      "outputs": [],
      "stateMutability": "nonpayable",
      "type": "function"
    },
    {
      "inputs": [],
      "name": "spaceSchemaURI",
      "outputs": [
        {
          "internalType": "string",
          "name": "",
          "type": "string"
        }
      ],
      "stateMutability": "view",
      "type": "function"
    },
    {
      "inputs": [
        {
          "internalType": "bytes32",
          "name": "",
          "type": "bytes32"
        }
      ],
      "name": "spaces",
      "outputs": [
        {
          "internalType": "bytes32",
          "name": "lodgingFacilityId",
          "type": "bytes32"
        },
        {
          "internalType": "uint256",
          "name": "capacity",
          "type": "uint256"
        },
        {
          "internalType": "uint256",
          "name": "pricePerNightWei",
          "type": "uint256"
        },
        {
          "internalType": "bool",
          "name": "active",
          "type": "bool"
        },
        {
          "internalType": "bool",
          "name": "exists",
          "type": "bool"
        },
        {
          "internalType": "string",
          "name": "dataURI",
          "type": "string"
        }
      ],
      "stateMutability": "view",
      "type": "function"
    },
    {
      "inputs": [],
      "name": "staySchemaURI",
      "outputs": [
        {
          "internalType": "string",
          "name": "",
          "type": "string"
        }
      ],
      "stateMutability": "view",
      "type": "function"
    },
    {
      "inputs": [
        {
          "internalType": "bytes4",
          "name": "interfaceId",
          "type": "bytes4"
        }
      ],
      "name": "supportsInterface",
      "outputs": [
        {
          "internalType": "bool",
          "name": "",
          "type": "bool"
        }
      ],
      "stateMutability": "view",
      "type": "function"
    },
    {
      "inputs": [],
      "name": "symbol",
      "outputs": [
        {
          "internalType": "string",
          "name": "",
          "type": "string"
        }
      ],
      "stateMutability": "view",
      "type": "function"
    },
    {
      "inputs": [
        {
          "internalType": "uint256",
          "name": "index",
          "type": "uint256"
        }
      ],
      "name": "tokenByIndex",
      "outputs": [
        {
          "internalType": "uint256",
          "name": "",
          "type": "uint256"
        }
      ],
      "stateMutability": "view",
      "type": "function"
    },
    {
      "inputs": [
        {
          "internalType": "address",
          "name": "owner",
          "type": "address"
        },
        {
          "internalType": "uint256",
          "name": "index",
          "type": "uint256"
        }
      ],
      "name": "tokenOfOwnerByIndex",
      "outputs": [
        {
          "internalType": "uint256",
          "name": "",
          "type": "uint256"
        }
      ],
      "stateMutability": "view",
      "type": "function"
    },
    {
      "inputs": [
        {
          "internalType": "uint256",
          "name": "tokenId",
          "type": "uint256"
        }
      ],
      "name": "tokenURI",
      "outputs": [
        {
          "internalType": "string",
          "name": "",
          "type": "string"
        }
      ],
      "stateMutability": "view",
      "type": "function"
    },
    {
      "inputs": [],
      "name": "totalSupply",
      "outputs": [
        {
          "internalType": "uint256",
          "name": "",
          "type": "uint256"
        }
      ],
      "stateMutability": "view",
      "type": "function"
    },
    {
      "inputs": [
        {
          "internalType": "address",
          "name": "from",
          "type": "address"
        },
        {
          "internalType": "address",
          "name": "to",
          "type": "address"
        },
        {
          "internalType": "uint256",
          "name": "tokenId",
          "type": "uint256"
        }
      ],
      "name": "transferFrom",
      "outputs": [],
      "stateMutability": "nonpayable",
      "type": "function"
    },
    {
      "inputs": [
        {
          "internalType": "bytes32",
          "name": "_lodgingFacilityId",
          "type": "bytes32"
        },
        {
          "internalType": "string",
          "name": "_newDataURI",
          "type": "string"
        }
      ],
      "name": "updateLodgingFacility",
      "outputs": [],
      "stateMutability": "nonpayable",
      "type": "function"
    },
    {
      "inputs": [
        {
          "internalType": "bytes32",
          "name": "_spaceId",
          "type": "bytes32"
        },
        {
          "internalType": "uint256",
          "name": "_capacity",
          "type": "uint256"
        },
        {
          "internalType": "uint256",
          "name": "_pricePerNightWei",
          "type": "uint256"
        },
        {
          "internalType": "bool",
          "name": "_active",
          "type": "bool"
        },
        {
          "internalType": "string",
          "name": "_dataURI",
          "type": "string"
        }
      ],
      "name": "updateSpace",
      "outputs": [],
      "stateMutability": "nonpayable",
      "type": "function"
    },
    {
      "inputs": [
        {
          "internalType": "bytes32",
          "name": "_lodgingFacilityId",
          "type": "bytes32"
        },
        {
          "internalType": "address",
          "name": "_newOwner",
          "type": "address"
        }
      ],
      "name": "yieldLodgingFacility",
      "outputs": [],
      "stateMutability": "nonpayable",
      "type": "function"
    }
  ],
  "bytecode": "0x60806040523480156200001157600080fd5b50604080518082018252600981526829ba30bcaa37b5b2b760b91b60208083019182528351808501909452600484526329aa191960e11b9084015281519192916200005f916002916200007e565b508051620000759060039060208401906200007e565b50505062000161565b8280546200008c9062000124565b90600052602060002090601f016020900481019282620000b05760008555620000fb565b82601f10620000cb57805160ff1916838001178555620000fb565b82800160010185558215620000fb579182015b82811115620000fb578251825591602001919060010190620000de565b50620001099291506200010d565b5090565b5b808211156200010957600081556001016200010e565b600181811c908216806200013957607f821691505b602082108114156200015b57634e487b7160e01b600052602260045260246000fd5b50919050565b6157ea80620001716000396000f3fe6080604052600436106102c75760003560e01c806380d288f211610175578063bacf97a5116100dc578063e3aae3a511610095578063e994529e1161006f578063e994529e14610922578063f7cdbc9d14610954578063ffae741514610974578063ffc1e09a146109a557600080fd5b8063e3aae3a514610507578063e95a644f146108b9578063e985e9c5146108d957600080fd5b8063bacf97a5146107f6578063c87b56dd14610816578063cad302e414610836578063cf63247e14610507578063d0470d7c14610879578063e1e33b9c1461089957600080fd5b80639ff682141161012e5780639ff6821414610741578063a22cb4651461076e578063a46880321461078e578063b38759fd146107ae578063b88d4fde146107c3578063b9e1aa03146107e357600080fd5b806380d288f21461063a5780638b087fd11461065a5780638f201f5f146106ac5780639518f5fa146106cc57806395d89b41146106ec57806399b555561461070157600080fd5b80632f745c59116102345780634f6ccce7116101ed578063673f0dd5116101c7578063673f0dd5146105ba5780636a22dd26146105da57806370a08231146105fa578063741d308e1461061a57600080fd5b80634f6ccce71461055a5780635ee7aa131461057a5780636352211e1461059a57600080fd5b80632f745c5914610475578063342df9b21461049557806342842e0e146104c7578063438c9cab146104e7578063462ef5ed146105075780634c18a8ec1461052a57600080fd5b806318160ddd1161028657806318160ddd146103c35780631bd2eeee146103e25780631bf7509b1461040257806320bf6ddb1461042257806323b872dd1461043557806327d7cedb1461045557600080fd5b8062442536146102cc578062d34b54146102ee57806301ffc9a71461031957806306fdde0314610349578063081812fc1461036b578063095ea7b3146103a3575b600080fd5b3480156102d857600080fd5b506102ec6102e7366004614beb565b6109c5565b005b3480156102fa57600080fd5b50610303610a67565b60405161031091906152ca565b60405180910390f35b34801561032557600080fd5b50610339610334366004614d40565b610b68565b6040519015158152602001610310565b34801561035557600080fd5b5061035e610b79565b604051610310919061542b565b34801561037757600080fd5b5061038b610386366004614beb565b610c0b565b6040516001600160a01b039091168152602001610310565b3480156103af57600080fd5b506102ec6103be366004614bc1565b610c93565b3480156103cf57600080fd5b50600b545b604051908152602001610310565b3480156103ee57600080fd5b506102ec6103fd366004614beb565b610da9565b34801561040e57600080fd5b5061030361041d366004614a32565b610f68565b6103d4610430366004614d0e565b610fd4565b34801561044157600080fd5b506102ec610450366004614a80565b6112b3565b34801561046157600080fd5b50610303610470366004614c72565b6112e4565b34801561048157600080fd5b506103d4610490366004614bc1565b61149f565b3480156104a157600080fd5b506104b56104b0366004614beb565b611535565b60405161031096959493929190615342565b3480156104d357600080fd5b506102ec6104e2366004614a80565b611604565b3480156104f357600080fd5b506102ec610502366004614c27565b61161f565b34801561051357600080fd5b5061035e6040518060200160405280600081525081565b34801561053657600080fd5b5061054a610545366004614beb565b6116b0565b604051610310949392919061530e565b34801561056657600080fd5b506103d4610575366004614beb565b61177c565b34801561058657600080fd5b506102ec610595366004614c9e565b61180f565b3480156105a657600080fd5b5061038b6105b5366004614beb565b611a53565b3480156105c657600080fd5b506104b56105d5366004614beb565b611aca565b3480156105e657600080fd5b506102ec6105f5366004614beb565b611b01565b34801561060657600080fd5b506103d4610615366004614a32565b611b8d565b34801561062657600080fd5b50610303610635366004614beb565b611c14565b34801561064657600080fd5b506102ec610655366004614c9e565b611fa4565b34801561066657600080fd5b5061069f610675366004614bc1565b60009081526001602090815260408083206001600160a01b03949094168352929052205460ff1690565b6040516103109190615403565b3480156106b857600080fd5b506102ec6106c7366004614c04565b61203f565b3480156106d857600080fd5b506103036106e7366004614beb565b612100565b3480156106f857600080fd5b5061035e612160565b34801561070d57600080fd5b506103d461071c366004614bc1565b6000908152602081815260408083206001600160a01b03949094168352929052205490565b34801561074d57600080fd5b506107596362155d6e81565b60405163ffffffff9091168152602001610310565b34801561077a57600080fd5b506102ec610789366004614b97565b61216f565b34801561079a57600080fd5b506102ec6107a9366004614beb565b61217e565b3480156107ba57600080fd5b5061030361221c565b3480156107cf57600080fd5b506102ec6107de366004614abc565b612273565b6102ec6107f1366004614bc1565b6122ab565b34801561080257600080fd5b50610303610811366004614beb565b6122b5565b34801561082257600080fd5b5061035e610831366004614beb565b612634565b34801561084257600080fd5b5061035e6040518060400160405280601781526020017668747470733a2f2f6c6f63616c686f73743a333030302f60481b81525081565b34801561088557600080fd5b506102ec610894366004614beb565b61263f565b3480156108a557600080fd5b506102ec6108b4366004614d7a565b6126d9565b3480156108c557600080fd5b506102ec6108d4366004614beb565b6126e6565b3480156108e557600080fd5b506103396108f4366004614a4d565b6001600160a01b03918216600090815260076020908152604080832093909416825291909152205460ff1690565b34801561092e57600080fd5b5061094261093d366004614beb565b61287c565b604051610310969594939291906153ce565b34801561096057600080fd5b506102ec61096f366004614dcd565b612944565b34801561098057600080fd5b5061099461098f366004614beb565b612bba565b604051610310959493929190615283565b3480156109b157600080fd5b506103036109c0366004614beb565b612c8d565b60008181526010602052604090205481906001600160a01b0316336001600160a01b031614610a0f5760405162461bcd60e51b8152600401610a0690615490565b60405180910390fd5b6000828152601060209081526040808320805460ff60a01b191690558051858152918201929092527f5c33859dfe8722791b5d72ad942a0895181f8a694288ec429394f620de15032091015b60405180910390a15050565b6060610a71612de5565b6001600160401b03811115610a8857610a886156c4565b604051908082528060200260200182016040528015610ab1578160200160208202803683370190505b5090506000805b600e54811015610b635760106000600e8381548110610ad957610ad96156ae565b9060005260206000200154815260200190815260200160002060000160149054906101000a900460ff1615610b5157600e8181548110610b1b57610b1b6156ae565b9060005260206000200154838381518110610b3857610b386156ae565b602090810291909101015281610b4d81615627565b9250505b80610b5b81615627565b915050610ab8565b505090565b6000610b7382612e5d565b92915050565b606060028054610b88906155ec565b80601f0160208091040260200160405190810160405280929190818152602001828054610bb4906155ec565b8015610c015780601f10610bd657610100808354040283529160200191610c01565b820191906000526020600020905b815481529060010190602001808311610be457829003601f168201915b5050505050905090565b6000610c1682612e82565b610c775760405162461bcd60e51b815260206004820152602c60248201527f4552433732313a20617070726f76656420717565727920666f72206e6f6e657860448201526b34b9ba32b73a103a37b5b2b760a11b6064820152608401610a06565b506000908152600660205260409020546001600160a01b031690565b6000610c9e82611a53565b9050806001600160a01b0316836001600160a01b03161415610d0c5760405162461bcd60e51b815260206004820152602160248201527f4552433732313a20617070726f76616c20746f2063757272656e74206f776e656044820152603960f91b6064820152608401610a06565b336001600160a01b0382161480610d285750610d2881336108f4565b610d9a5760405162461bcd60e51b815260206004820152603860248201527f4552433732313a20617070726f76652063616c6c6572206973206e6f74206f7760448201527f6e6572206e6f7220617070726f76656420666f7220616c6c00000000000000006064820152608401610a06565b610da48383612e9f565b505050565b60008181526014602052604090208054610df65760405162461bcd60e51b815260206004820152600e60248201526d14dd185e481b9bdd08199bdd5b9960921b6044820152606401610a06565b6004810154610100900460ff1615610e465760405162461bcd60e51b8152602060048201526013602482015272105b1c9958591e4818da1958dad959081bdd5d606a1b6044820152606401610a06565b8054600081815260126020908152604080832054835260109091529020546001600160a01b0316338114610e8c5760405162461bcd60e51b8152600401610a06906154d6565b82600201548360010154610ea0919061555e565b610ead906201518061558a565b610ebb906362155d6e61555e565b421015610f0a5760405162461bcd60e51b815260206004820152601e60248201527f466f7262696464656e20756e6c65737320636865636b6f7574206461746500006044820152606401610a06565b60048301805461ff001916610100179055610f2e610f2785611a53565b8284612f0d565b6040518481527f2c276699fefbad45f18509233bc03bb9cfdf41b18f32756933188bdef35fef55906020015b60405180910390a150505050565b6001600160a01b0381166000908152600f6020908152604091829020805483518184028101840190945280845260609392830182828015610fc857602002820191906000526020600020905b815481526020019060010190808311610fb4575b50505050509050919050565b6000610fe1858585612f18565b60008581526012602052604081206002810154909190611001858761558a565b61100b919061558a565b9050803410156110525760405162461bcd60e51b81526020600482015260126024820152714e6565642e204d6f72652e204d6f6e65792160701b6044820152606401610a06565b60005b8581101561112b5760008881526013602052604081208691611077848b61555e565b815260200190815260200160002054846001015461109591906155a9565b10156110dc5760405162461bcd60e51b8152602060048201526016602482015275496e73756666696369656e7420696e76656e746f727960501b6044820152606401610a06565b600088815260136020526040812086916110f6848b61555e565b81526020019081526020016000206000828254611113919061555e565b9091555081905061112381615627565b915050611055565b5061113633886122ab565b611144600d80546001019055565b600061114f600d5490565b905061115b33826130a8565b60006111b88285600001548b8b8b8b6040518060a0016040528060628152602001615753606291396040518060400160405280601781526020017668747470733a2f2f6c6f63616c686f73743a333030302f60481b8152506130c2565b90506111c48282613112565b6040805160c0810182528a815260208082018b81528284018b8152606084018b815260006080860181815260a087018281528a8352601487528883209751885594516001888101919091559351600288015591516003870155905160049095018054935115156101000261ff00199615159690961661ffff1990941693909317949094179091558c835260158252838320805491820181558352912001839055517fe04083eb622e3cb7d063f319076c83270c24acb409a3bc13abcfb36af60f86179061129d908b908590918252602082015260400190565b60405180910390a150925050505b949350505050565b6112bd338261319d565b6112d95760405162461bcd60e51b8152600401610a069061550d565b610da4838383613283565b60606112f1848484612f18565b6000848152601260209081526040808320815160c08101835281548152600182015493810193909352600281015491830191909152600381015460ff80821615156060850152610100909104161515608083015260048101805460a08401919061135a906155ec565b80601f0160208091040260200160405190810160405280929190818152602001828054611386906155ec565b80156113d35780601f106113a8576101008083540402835291602001916113d3565b820191906000526020600020905b8154815290600101906020018083116113b657829003601f168201915b50505050508152505090506000836001600160401b038111156113f8576113f86156c4565b604051908082528060200260200182016040528015611421578160200160208202803683370190505b50905060005b8481101561149557600087815260136020526040812090611448838961555e565b815260200190815260200160002054836020015161146691906155a9565b828281518110611478576114786156ae565b60209081029190910101528061148d81615627565b915050611427565b5095945050505050565b60006114aa83611b8d565b821061150c5760405162461bcd60e51b815260206004820152602b60248201527f455243373231456e756d657261626c653a206f776e657220696e646578206f7560448201526a74206f6620626f756e647360a81b6064820152608401610a06565b506001600160a01b03919091166000908152600960209081526040808320938352929052205490565b6000818152601260205260409020600381015481546001830154600284015460048501805460ff61010087048116979596949593941692606092909161157a906155ec565b80601f01602080910402602001604051908101604052809291908181526020018280546115a6906155ec565b80156115f35780601f106115c8576101008083540402835291602001916115f3565b820191906000526020600020905b8154815290600101906020018083116115d657829003601f168201915b505050505091505091939550919395565b610da483838360405180602001604052806000815250612273565b60008381526010602052604090205483906001600160a01b0316336001600160a01b0316146116605760405162461bcd60e51b8152600401610a0690615490565b600084815260106020526040902061167c9060010184846148b5565b507fb252d91e8d424ba6f9f1647d21d7b0bbd8e2a3cbb318aaecb0d735fba9f62c7f848484604051610f5a939291906153ab565b6000818152601060205260409020805460018201805460ff600160a81b84048116946001600160a01b03851694600160a01b9004909116926060926116f4906155ec565b80601f0160208091040260200160405190810160405280929190818152602001828054611720906155ec565b801561176d5780601f106117425761010080835404028352916020019161176d565b820191906000526020600020905b81548152906001019060200180831161175057829003601f168201915b50505050509150509193509193565b6000611787600b5490565b82106117ea5760405162461bcd60e51b815260206004820152602c60248201527f455243373231456e756d657261626c653a20676c6f62616c20696e646578206f60448201526b7574206f6620626f756e647360a01b6064820152608401610a06565b600b82815481106117fd576117fd6156ae565b90600052602060002001549050919050565b856118198161342a565b61183b816040518060600160405280602281526020016156f160229139613492565b61187a83838080601f0160208091040260200160405190810160405280939291908181526020018383808284376000920191909152506134cb92505050565b600081848460405160200161189193929190614ece565b60408051808303601f19018152918152815160209283012060008181526012909352912060030154909150610100900460ff16156119085760405162461bcd60e51b8152602060048201526014602482015273537061636520616c72656164792065786973747360601b6044820152606401610a06565b6040518060c00160405280838152602001888152602001878152602001861515815260200160011515815260200185858080601f016020809104026020016040519081016040528093929190818152602001838380828437600092018290525093909452505083815260126020908152604091829020845181558482015160018201559184015160028301556060840151600383018054608087015115156101000261ff00199315159390931661ffff199091161791909117905560a084015180519293506119e09260048501929190910190614935565b505050600082815260116020908152604080832080546001810182559084529190922001829055517f335958c15e70938d2bfae6c90457d7732a3e398f2423c491dc6503b67334745a90611a4190839085908b908b908b908b908b90615377565b60405180910390a15050505050505050565b6000818152600460205260408120546001600160a01b031680610b735760405162461bcd60e51b815260206004820152602960248201527f4552433732313a206f776e657220717565727920666f72206e6f6e657869737460448201526832b73a103a37b5b2b760b91b6064820152608401610a06565b6000818152601460205260408120548190819081908190606090611aed90611535565b949c939b5091995097509550909350915050565b60008181526010602052604090205481906001600160a01b0316336001600160a01b031614611b425760405162461bcd60e51b8152600401610a0690615490565b60008281526010602052604090819020805460ff60a81b19169055517f9cb52f05776b0f321eb9ca8c9e1b26b978036072417bf384bd406189f43864f890610a5b9084815260200190565b60006001600160a01b038216611bf85760405162461bcd60e51b815260206004820152602a60248201527f4552433732313a2062616c616e636520717565727920666f7220746865207a65604482015269726f206164647265737360b01b6064820152608401610a06565b506001600160a01b031660009081526005602052604090205490565b60606362155d6e421015611c555760005b604051908082528060200260200182016040528015611c4e578160200160208202803683370190505b5092915050565b6000611c6083612c8d565b9050600062015180611c766362155d6e426155a9565b611c809190615576565b6040805160c081018252600080825260208201819052918101829052606081018290526080810182905260a081018290529192509060005b8451811015611ded5760005b60156000878481518110611cda57611cda6156ae565b6020026020010151815260200190815260200160002080549050811015611dda576014600060156000898681518110611d1557611d156156ae565b602002602001015181526020019081526020016000208381548110611d3c57611d3c6156ae565b600091825260208083209091015483528281019390935260409182019020815160c08101835281548152600182015493810184905260028201549281018390526003820154606082015260049091015460ff8082161515608084015261010090910416151560a082015294508691611db4919061555e565b1115611dc85783611dc481615627565b9450505b80611dd281615627565b915050611cc4565b5080611de581615627565b915050611cb8565b506000826001600160401b03811115611e0857611e086156c4565b604051908082528060200260200182016040528015611e31578160200160208202803683370190505b5090506000805b84811015611f975760005b60156000898481518110611e5957611e596156ae565b6020026020010151815260200190815260200160002080549050811015611f845760146000601560008b8681518110611e9457611e946156ae565b602002602001015181526020019081526020016000208381548110611ebb57611ebb6156ae565b600091825260208083209091015483528281019390935260409182019020815160c08101835281548152600182015493810184905260028201549281018390526003820154606082015260049091015460ff8082161515608084015261010090910416151560a082015296508891611f33919061555e565b1115611f7257878281518110611f4b57611f4b6156ae565b6020026020010151848481518110611f6557611f656156ae565b6020026020010181815250505b80611f7c81615627565b915050611e43565b5080611f8f81615627565b915050611e38565b5090979650505050505050565b6000868152601260209081526040808320548352601090915290205486906001600160a01b0316336001600160a01b031614611ff25760405162461bcd60e51b8152600401610a06906154d6565b600087815260126020526040908190208054915190917f335958c15e70938d2bfae6c90457d7732a3e398f2423c491dc6503b67334745a91611a41918b918b908b908b908b908b90615377565b60008281526010602052604090205482906001600160a01b0316336001600160a01b0316146120805760405162461bcd60e51b8152600401610a0690615490565b6000838152601060209081526040918290205491518581526001600160a01b038581169316917f11a520c5c4bfade8b450399ea67096dba36478d23d9a45f02e32989cfe307dde910160405180910390a35060009182526010602052604090912080546001600160a01b0319166001600160a01b03909216919091179055565b600081815260116020908152604091829020805483518184028101840190945280845260609392830182828015610fc85760200282019190600052602060002090815481526020019060010190808311610fb45750505050509050919050565b606060038054610b88906155ec565b61217a33838361351c565b5050565b60008181526010602052604090205481906001600160a01b0316336001600160a01b0316146121bf5760405162461bcd60e51b8152600401610a0690615490565b60008281526010602052604090819020805460ff60a01b1916600160a01b179055517f5c33859dfe8722791b5d72ad942a0895181f8a694288ec429394f620de15032090610a5b9084906001909182521515602082015260400190565b6060600e805480602002602001604051908101604052809291908181526020018280548015610c0157602002820191906000526020600020905b815481526020019060010190808311612256575050505050905090565b61227d338361319d565b6122995760405162461bcd60e51b8152600401610a069061550d565b6122a5848484846135eb565b50505050565b61217a828261361e565b60606362155d6e4210156122ca576000611c25565b60006122d583612c8d565b90506000620151806122eb6362155d6e426155a9565b6122f59190615576565b6040805160c081018252600080825260208201819052918101829052606081018290526080810182905260a081018290529192509060005b84518110156124765760005b6015600087848151811061234f5761234f6156ae565b602002602001015181526020019081526020016000208054905081101561246357601460006015600089868151811061238a5761238a6156ae565b6020026020010151815260200190815260200160002083815481106123b1576123b16156ae565b600091825260208083209091015483528281019390935260409182019020815160c081018352815481526001820154938101849052600282015492810192909252600381015460608301526004015460ff8082161515608084015261010090910416151560a08201529350851080159061243e57508260400151836020015161243a919061555e565b8511155b15612451578361244d81615627565b9450505b8061245b81615627565b915050612339565b508061246e81615627565b91505061232d565b506000826001600160401b03811115612491576124916156c4565b6040519080825280602002602001820160405280156124ba578160200160208202803683370190505b5090506000805b84811015611f975760005b601560008984815181106124e2576124e26156ae565b60200260200101518152602001908152602001600020805490508110156126215760146000601560008b868151811061251d5761251d6156ae565b602002602001015181526020019081526020016000208381548110612544576125446156ae565b600091825260208083209091015483528281019390935260409182019020815160c081018352815481526001820154938101849052600282015492810192909252600381015460608301526004015460ff8082161515608084015261010090910416151560a0820152955087108015906125d15750846040015185602001516125cd919061555e565b8711155b1561260f578782815181106125e8576125e86156ae565b6020026020010151848481518110612602576126026156ae565b6020026020010181815250505b8061261981615627565b9150506124cc565b508061262c81615627565b9150506124c1565b6060610b73826136bd565b6000818152601260209081526040808320548352601090915290205481906001600160a01b0316336001600160a01b03161461268d5760405162461bcd60e51b8152600401610a06906154d6565b60008281526012602052604090819020600301805461ff0019169055517fdacbd8b39f92f5e1f1a3bbbef3779e6a600dc62a4323325cd1676f681197464c90610a5b9084815260200190565b610da48383836000612944565b806126f081611a53565b6001600160a01b0316336001600160a01b0316146127505760405162461bcd60e51b815260206004820181905260248201527f4f6e6c79207374617920746f6b656e206f776e657220697320616c6c6f7765646044820152606401610a06565b6000828152601460205260409020805461279d5760405162461bcd60e51b815260206004820152600e60248201526d14dd185e481b9bdd08199bdd5b9960921b6044820152606401610a06565b600481015460ff16156127e75760405162461bcd60e51b815260206004820152601260248201527120b63932b0b23c9031b432b1b5b2b21034b760711b6044820152606401610a06565b805460008181526012602052604090206002015460048301805460ff1916600117905561284261281686611a53565b600084815260126020908152604080832054835260109091529020546001600160a01b0316838561382c565b6040518581527fdf06c27528e294967ba5e32e69b9c5fe102a58c699c44740c2c4c6afc71925359060200160405180910390a15050505050565b6012602052600090815260409020805460018201546002830154600384015460048501805494959394929360ff8084169461010090940416929091906128c1906155ec565b80601f01602080910402602001604051908101604052809291908181526020018280546128ed906155ec565b801561293a5780601f1061290f5761010080835404028352916020019161293a565b820191906000526020600020905b81548152906001019060200180831161291d57829003601f168201915b5050505050905086565b61298384848080601f0160208091040260200160405190810160405280939291908181526020018383808284376000920191909152506134cb92505050565b600033858560405160200161299a93929190614ea2565b60408051808303601f19018152918152815160209283012060008181526010909352912054909150600160a81b900460ff1615612a195760405162461bcd60e51b815260206004820152601760248201527f466163696c69747920616c7265616479206578697374730000000000000000006044820152606401610a06565b6040518060a00160405280612a2b3390565b6001600160a01b03168152602001841515815260200160011515815260200186868080601f01602080910402602001604051908101604052809392919081815260200183838082843760009201829052509385525050506001600160a01b03808616602093840152848252601083526040918290208451815486860151948701511515600160a81b0260ff60a81b19951515600160a01b026001600160a81b031990921692909416919091171792909216178155606083015180519192612afa92600185019290910190614935565b5060809190910151600290910180546001600160a01b0319166001600160a01b03909216919091179055600e805460018181019092557fbb7b4a454dc3493923482f07822329ed19e8244eff582cc204f8554c3620c3fd01829055336000818152600f60209081526040808320805495860181558352912090920183905590517f28c9a25063d40c8cf423202182ed575cc97982c1fd1771bd9721e19a38cc491d90612bab908490899089906153ab565b60405180910390a25050505050565b601060205260009081526040902080546001820180546001600160a01b0383169360ff600160a01b8504811694600160a81b900416929091612bfb906155ec565b80601f0160208091040260200160405190810160405280929190818152602001828054612c27906155ec565b8015612c745780601f10612c4957610100808354040283529160200191612c74565b820191906000526020600020905b815481529060010190602001808311612c5757829003601f168201915b505050600290930154919250506001600160a01b031685565b6060612c98826138aa565b6001600160401b03811115612caf57612caf6156c4565b604051908082528060200260200182016040528015612cd8578160200160208202803683370190505b50600083815260116020908152604080832080548251818502810185019093528083529495509293909291830182828015612d3257602002820191906000526020600020905b815481526020019060010190808311612d1e575b50505050509050600080600090505b8251811015612ddd5760126000848381518110612d6057612d606156ae565b60209081029190910181015182528101919091526040016000206003015460ff1615612dcb57828181518110612d9857612d986156ae565b6020026020010151848381518110612db257612db26156ae565b602090810291909101015281612dc781615627565b9250505b80612dd581615627565b915050612d41565b505050919050565b6000805b600e54811015612e595760106000600e8381548110612e0a57612e0a6156ae565b9060005260206000200154815260200190815260200160002060000160149054906101000a900460ff1615612e475781612e4381615627565b9250505b80612e5181615627565b915050612de9565b5090565b60006001600160e01b0319821663780e9d6360e01b1480610b735750610b7382613927565b6000908152600460205260409020546001600160a01b0316151590565b600081815260066020526040902080546001600160a01b0319166001600160a01b0384169081179091558190612ed482611a53565b6001600160a01b03167f8c5be1e5ebec7d5bd14f71427d1e84f3dd0314c0f7b2291e5b200ac8c7c3b92560405160405180910390a45050565b610da4838383613977565b612f256202a300426155a9565b612f32836201518061558a565b612f40906362155d6e61555e565b11612f865760405162461bcd60e51b8152602060048201526016602482015275111bdb89dd081cdd185e481a5b881d1a19481c185cdd60521b6044820152606401610a06565b60008381526012602090815260408083205483526010909152902054600160a01b900460ff16612ff85760405162461bcd60e51b815260206004820152601c60248201527f4c6f6467696e6720466163696c69747920697320696e616374697665000000006044820152606401610a06565b60008381526012602052604090206003015460ff1661304d5760405162461bcd60e51b8152602060048201526011602482015270537061636520697320696e61637469766560781b6044820152606401610a06565b60008111610da45760405162461bcd60e51b815260206004820152602260248201527f4e756d626572206f6620646179732073686f756c642062652031206f72206d6f604482015261726560f01b6064820152608401610a06565b61217a828260405180602001604052806000815250613abb565b60606131056130d38a85858b613aee565b6130e08a8a8a8a8a613b30565b6040516020016130f19291906151aa565b604051602081830303815290604052613b8d565b9998505050505050505050565b61311b82612e82565b61317e5760405162461bcd60e51b815260206004820152602e60248201527f45524337323155524953746f726167653a2055524920736574206f66206e6f6e60448201526d32bc34b9ba32b73a103a37b5b2b760911b6064820152608401610a06565b60008281526008602090815260409091208251610da492840190614935565b60006131a882612e82565b6132095760405162461bcd60e51b815260206004820152602c60248201527f4552433732313a206f70657261746f7220717565727920666f72206e6f6e657860448201526b34b9ba32b73a103a37b5b2b760a11b6064820152608401610a06565b600061321483611a53565b9050806001600160a01b0316846001600160a01b0316148061324f5750836001600160a01b031661324484610c0b565b6001600160a01b0316145b806112ab57506001600160a01b0380821660009081526007602090815260408083209388168352929052205460ff166112ab565b826001600160a01b031661329682611a53565b6001600160a01b0316146132fa5760405162461bcd60e51b815260206004820152602560248201527f4552433732313a207472616e736665722066726f6d20696e636f72726563742060448201526437bbb732b960d91b6064820152608401610a06565b6001600160a01b03821661335c5760405162461bcd60e51b8152602060048201526024808201527f4552433732313a207472616e7366657220746f20746865207a65726f206164646044820152637265737360e01b6064820152608401610a06565b613367838383613bbe565b613372600082612e9f565b6001600160a01b038316600090815260056020526040812080546001929061339b9084906155a9565b90915550506001600160a01b03821660009081526005602052604081208054600192906133c990849061555e565b909155505060008181526004602052604080822080546001600160a01b0319166001600160a01b0386811691821790925591518493918716917fddf252ad1be2c89b69c2b068fc378daa952ba7f163c4a11628f55a4df523b3ef91a4505050565b600081815260106020526040902054600160a81b900460ff1661348f5760405162461bcd60e51b815260206004820152601760248201527f466163696c69747920646f6573206e6f742065786973740000000000000000006044820152606401610a06565b50565b60008281526010602052604090205481906001600160a01b03163314610da45760405162461bcd60e51b8152600401610a06919061542b565b600081511161348f5760405162461bcd60e51b815260206004820152601960248201527f4461746120555249206d7573742062652070726f7669646564000000000000006044820152606401610a06565b816001600160a01b0316836001600160a01b0316141561357e5760405162461bcd60e51b815260206004820152601960248201527f4552433732313a20617070726f766520746f2063616c6c6572000000000000006044820152606401610a06565b6001600160a01b03838116600081815260076020908152604080832094871680845294825291829020805460ff191686151590811790915591519182527f17307eab39ab6107e8899845ad3d59bd9653f200f220920489ca2b5937696c31910160405180910390a3505050565b6135f6848484613283565b61360284848484613bc9565b6122a55760405162461bcd60e51b8152600401610a069061543e565b6000818152602081815260408083206001600160a01b038616845290915281208054349283929161365090849061555e565b909155505060008281526001602090815260408083206001600160a01b03871680855290835292819020805460ff1916905580518481529182018590527fd7eda976cf4919f13172eb15bb39c64cecb7172258c741dab31d14c855eff402910160405180910390a2505050565b60606136c882612e82565b61372e5760405162461bcd60e51b815260206004820152603160248201527f45524337323155524953746f726167653a2055524920717565727920666f72206044820152703737b732bc34b9ba32b73a103a37b5b2b760791b6064820152608401610a06565b60008281526008602052604081208054613747906155ec565b80601f0160208091040260200160405190810160405280929190818152602001828054613773906155ec565b80156137c05780601f10613795576101008083540402835291602001916137c0565b820191906000526020600020905b8154815290600101906020018083116137a357829003601f168201915b5050505050905060006137de60408051602081019091526000815290565b90508051600014156137f1575092915050565b81511561382357808260405160200161380b929190614ee8565b60405160208183030381529060405292505050919050565b6112ab84613cd3565b60008181526012602052604090206002015482111561389e5760405162461bcd60e51b815260206004820152602860248201527f576974686472617720616d6f756e74206e6f7420616c6c6f777320696e207468604482015267697320737461746560c01b6064820152608401610a06565b6122a584848484613dab565b6000818152601160205260408120815b815481101561392057601260008383815481106138d9576138d96156ae565b6000918252602080832090910154835282019290925260400190206003015460ff161561390e578261390a81615627565b9350505b8061391881615627565b9150506138ba565b5050919050565b60006001600160e01b031982166380ac58cd60e01b148061395857506001600160e01b03198216635b5e139f60e01b145b80610b7357506301ffc9a760e01b6001600160e01b0319831614610b73565b6000818152602081815260408083206001600160a01b0387168085529083528184205485855260018085528386209286529190935292205490919060ff16818111156139c5576139c5615682565b14613a265760405162461bcd60e51b815260206004820152602b60248201527f436f6d706c657465207769746864726177206e6f7420616c6c6f77656420696e60448201526a207468697320737461746560a81b6064820152608401610a06565b6000828152602081815260408083206001600160a01b0388168452909152812055806122a557613a5f6001600160a01b03841682613edb565b826001600160a01b0316846001600160a01b03167f6000e90278b62c00aaaf621956141fad63f2be8860557c31de1f736cafae29168385604051613aad929190918252602082015260400190565b60405180910390a350505050565b613ac58383613ff4565b613ad26000848484613bc9565b610da45760405162461bcd60e51b8152600401610a069061543e565b6060613af985614133565b8484613b0485614230565b604051602001613b1794939291906150ab565b6040516020818303038152906040529050949350505050565b6060613b3b86614230565b613b4486614230565b613b4d86614133565b613b5686614133565b613b5f86614133565b604051602001613b73959493929190614f17565b604051602081830303815290604052905095945050505050565b6060613b988261426b565b604051602001613ba89190615201565b6040516020818303038152906040529050919050565b610da48383836143be565b60006001600160a01b0384163b15613ccb57604051630a85bd0160e11b81526001600160a01b0385169063150b7a0290613c0d903390899088908890600401615246565b602060405180830381600087803b158015613c2757600080fd5b505af1925050508015613c57575060408051601f3d908101601f19168201909252613c5491810190614d5d565b60015b613cb1573d808015613c85576040519150601f19603f3d011682016040523d82523d6000602084013e613c8a565b606091505b508051613ca95760405162461bcd60e51b8152600401610a069061543e565b805181602001fd5b6001600160e01b031916630a85bd0160e11b1490506112ab565b5060016112ab565b6060613cde82612e82565b613d425760405162461bcd60e51b815260206004820152602f60248201527f4552433732314d657461646174613a2055524920717565727920666f72206e6f60448201526e3732bc34b9ba32b73a103a37b5b2b760891b6064820152608401610a06565b6000613d5960408051602081019091526000815290565b90506000815111613d795760405180602001604052806000815250613da4565b80613d8384614476565b604051602001613d94929190614ee8565b6040516020818303038152906040525b9392505050565b6000818152602081815260408083206001600160a01b0388168452909152902054821115613e105760405162461bcd60e51b8152602060048201526012602482015271496e73756666696369656e742066756e647360701b6044820152606401610a06565b6000818152602081815260408083206001600160a01b0388168452909152902054613e3c9083906155a9565b6000828152602081815260408083206001600160a01b038981168086529184528285209590955585845260018084528285209185529252909120805460ff19169091179055613e8d90841683613edb565b826001600160a01b0316846001600160a01b03167f6000e90278b62c00aaaf621956141fad63f2be8860557c31de1f736cafae29168484604051613aad929190918252602082015260400190565b80471015613f2b5760405162461bcd60e51b815260206004820152601d60248201527f416464726573733a20696e73756666696369656e742062616c616e63650000006044820152606401610a06565b6000826001600160a01b03168260405160006040518083038185875af1925050503d8060008114613f78576040519150601f19603f3d011682016040523d82523d6000602084013e613f7d565b606091505b5050905080610da45760405162461bcd60e51b815260206004820152603a60248201527f416464726573733a20756e61626c6520746f2073656e642076616c75652c207260448201527f6563697069656e74206d617920686176652072657665727465640000000000006064820152608401610a06565b6001600160a01b03821661404a5760405162461bcd60e51b815260206004820181905260248201527f4552433732313a206d696e7420746f20746865207a65726f20616464726573736044820152606401610a06565b61405381612e82565b156140a05760405162461bcd60e51b815260206004820152601c60248201527f4552433732313a20746f6b656e20616c7265616479206d696e746564000000006044820152606401610a06565b6140ac60008383613bbe565b6001600160a01b03821660009081526005602052604081208054600192906140d590849061555e565b909155505060008181526004602052604080822080546001600160a01b0319166001600160a01b03861690811790915590518392907fddf252ad1be2c89b69c2b068fc378daa952ba7f163c4a11628f55a4df523b3ef908290a45050565b6060816141575750506040805180820190915260018152600360fc1b602082015290565b8160005b8115614181578061416b81615627565b915061417a9050600a83615576565b915061415b565b6000816001600160401b0381111561419b5761419b6156c4565b6040519080825280601f01601f1916602001820160405280156141c5576020820181803683370190505b5090505b84156112ab576141da6001836155a9565b91506141e7600a86615642565b6141f290603061555e565b60f81b818381518110614207576142076156ae565b60200101906001600160f81b031916908160001a905350614229600a86615576565b94506141c9565b606061423b82614573565b614248608084901b614573565b60405161060f60f31b602082015260228101929092526042820152606201613ba8565b606081516000141561428b57505060408051602081019091526000815290565b600060405180606001604052806040815260200161571360409139905060006003845160026142ba919061555e565b6142c49190615576565b6142cf90600461558a565b6001600160401b038111156142e6576142e66156c4565b6040519080825280601f01601f191660200182016040528015614310576020820181803683370190505b509050600182016020820185865187015b8082101561437c576003820191508151603f8160121c168501518453600184019350603f81600c1c168501518453600184019350603f8160061c168501518453600184019350603f8116850151845350600183019250614321565b505060038651066001811461439857600281146143ab576143b3565b603d6001830353603d60028303536143b3565b603d60018303535b509195945050505050565b6001600160a01b0383166144195761441481600b80546000838152600c60205260408120829055600182018355919091527f0175b7a638427703f0dbe7bb9bbf987a2551717b34e79f33b5b1008d1fa01db90155565b61443c565b816001600160a01b0316836001600160a01b03161461443c5761443c8382614725565b6001600160a01b03821661445357610da4816147c2565b826001600160a01b0316826001600160a01b031614610da457610da48282614871565b60608161449a5750506040805180820190915260018152600360fc1b602082015290565b8160005b81156144c457806144ae81615627565b91506144bd9050600a83615576565b915061449e565b6000816001600160401b038111156144de576144de6156c4565b6040519080825280601f01601f191660200182016040528015614508576020820181803683370190505b5090505b84156112ab5761451d6001836155a9565b915061452a600a86615642565b61453590603061555e565b60f81b81838151811061454a5761454a6156ae565b60200101906001600160f81b031916908160001a90535061456c600a86615576565b945061450c565b7aff00000000000000ff00000000000000ff00000000000000ff00006bffffffff0000000000000000604083901c90811663ffffffff60c01b84161760201c63ffffffff60601b919091166001600160e01b031984161717601081901c9182167eff00000000000000ff00000000000000ff00000000000000ff000000000000821617600890811c7bff00000000000000ff00000000000000ff00000000000000ff000000939093167fff00000000000000ff00000000000000ff00000000000000ff000000000000009290921691909117919091179081901c7e0f000f000f000f000f000f000f000f000f000f000f000f000f000f000f000f167f0f000f000f000f000f000f000f000f000f000f000f000f000f000f000f000f00600492831c1617906146c1827f060606060606060606060606060606060606060606060606060606060606060661555e565b901c7f0f0f0f0f0f0f0f0f0f0f0f0f0f0f0f0f0f0f0f0f0f0f0f0f0f0f0f0f0f0f0f0f1660076146f1919061558a565b61471b827f303030303030303030303030303030303030303030303030303030303030303061555e565b610b73919061555e565b6000600161473284611b8d565b61473c91906155a9565b6000838152600a602052604090205490915080821461478f576001600160a01b03841660009081526009602090815260408083208584528252808320548484528184208190558352600a90915290208190555b506000918252600a602090815260408084208490556001600160a01b039094168352600981528383209183525290812055565b600b546000906147d4906001906155a9565b6000838152600c6020526040812054600b80549394509092849081106147fc576147fc6156ae565b9060005260206000200154905080600b838154811061481d5761481d6156ae565b6000918252602080832090910192909255828152600c9091526040808220849055858252812055600b80548061485557614855615698565b6001900381819060005260206000200160009055905550505050565b600061487c83611b8d565b6001600160a01b0390931660009081526009602090815260408083208684528252808320859055938252600a9052919091209190915550565b8280546148c1906155ec565b90600052602060002090601f0160209004810192826148e35760008555614929565b82601f106148fc5782800160ff19823516178555614929565b82800160010185558215614929579182015b8281111561492957823582559160200191906001019061490e565b50612e599291506149a9565b828054614941906155ec565b90600052602060002090601f0160209004810192826149635760008555614929565b82601f1061497c57805160ff1916838001178555614929565b82800160010185558215614929579182015b8281111561492957825182559160200191906001019061498e565b5b80821115612e5957600081556001016149aa565b80356001600160a01b03811681146149d557600080fd5b919050565b803580151581146149d557600080fd5b60008083601f8401126149fc57600080fd5b5081356001600160401b03811115614a1357600080fd5b602083019150836020828501011115614a2b57600080fd5b9250929050565b600060208284031215614a4457600080fd5b613da4826149be565b60008060408385031215614a6057600080fd5b614a69836149be565b9150614a77602084016149be565b90509250929050565b600080600060608486031215614a9557600080fd5b614a9e846149be565b9250614aac602085016149be565b9150604084013590509250925092565b60008060008060808587031215614ad257600080fd5b614adb856149be565b9350614ae9602086016149be565b92506040850135915060608501356001600160401b0380821115614b0c57600080fd5b818701915087601f830112614b2057600080fd5b813581811115614b3257614b326156c4565b604051601f8201601f19908116603f01168101908382118183101715614b5a57614b5a6156c4565b816040528281528a6020848701011115614b7357600080fd5b82602086016020830137600060208483010152809550505050505092959194509250565b60008060408385031215614baa57600080fd5b614bb3836149be565b9150614a77602084016149da565b60008060408385031215614bd457600080fd5b614bdd836149be565b946020939093013593505050565b600060208284031215614bfd57600080fd5b5035919050565b60008060408385031215614c1757600080fd5b82359150614a77602084016149be565b600080600060408486031215614c3c57600080fd5b8335925060208401356001600160401b03811115614c5957600080fd5b614c65868287016149ea565b9497909650939450505050565b600080600060608486031215614c8757600080fd5b505081359360208301359350604090920135919050565b60008060008060008060a08789031215614cb757600080fd5b863595506020870135945060408701359350614cd5606088016149da565b925060808701356001600160401b03811115614cf057600080fd5b614cfc89828a016149ea565b979a9699509497509295939492505050565b60008060008060808587031215614d2457600080fd5b5050823594602084013594506040840135936060013592509050565b600060208284031215614d5257600080fd5b8135613da4816156da565b600060208284031215614d6f57600080fd5b8151613da4816156da565b600080600060408486031215614d8f57600080fd5b83356001600160401b03811115614da557600080fd5b614db1868287016149ea565b9094509250614dc49050602085016149da565b90509250925092565b60008060008060608587031215614de357600080fd5b84356001600160401b03811115614df957600080fd5b614e05878288016149ea565b9095509350614e189050602086016149da565b9150614e26604086016149be565b905092959194509250565b60008151808452614e498160208601602086016155c0565b601f01601f19169290920160200192915050565b81835281816020850137506000828201602090810191909152601f909101601f19169091010190565b60008151614e988185602086016155c0565b9290920192915050565b6bffffffffffffffffffffffff198460601b168152818360148301376000910160140190815292915050565b838152818360208301376000910160200190815292915050565b60008351614efa8184602088016155c0565b835190830190614f0e8183602088016155c0565b01949350505050565b7f2261747472696275746573223a5b7b2274726169745f74797065223a2266616381527134b634ba3ca4b21116113b30b63ab2911d1160711b602082015260008651614f6a816032850160208b016155c0565b7f227d2c7b2274726169745f74797065223a2273706163654964222c2276616c756032918401918201526332911d1160e11b60528201528651614fb4816056840160208b016155c0565b7f227d2c7b2274726169745f74797065223a227374617274446179222c2276616c60569290910191820152643ab2911d1160d91b6076820152855161500081607b840160208a016155c0565b7f227d2c7b2274726169745f74797065223a226e756d6265724f6644617973222c607b929091019182015268113b30b63ab2911d1160b91b609b82015261509f61509061508a61505360a4850189614e86565b7f227d2c7b2274726169745f74797065223a227175616e74697479222c2276616c8152643ab2911d1160d91b602082015260250190565b86614e86565b62227d5d60e81b815260030190565b98975050505050505050565b72226e616d65223a2253746179546f6b656e202360681b815284516000906150da816013850160208a016155c0565b7f222c226465736372697074696f6e223a2253746179206174206c6f6467696e6760139184019182015273103330b1b4b634ba3c91161134b6b0b3b2911d1160611b60338201528551615134816047840160208a016155c0565b7111161132bc3a32b93730b62fbab936111d1160711b6047929091019182015284516151678160598401602089016155c0565b6573706163652f60d01b60599290910191820152835161518e81605f8401602088016155c0565b601160f91b605f92909101918201526060019695505050505050565b607b60f81b8152600083516151c68160018501602088016155c0565b600b60fa1b60019184019182015283516151e78160028401602088016155c0565b607d60f81b60029290910191820152600301949350505050565b7f646174613a6170706c69636174696f6e2f6a736f6e3b6261736536342c00000081526000825161523981601d8501602087016155c0565b91909101601d0192915050565b6001600160a01b038581168252841660208201526040810183905260806060820181905260009061527990830184614e31565b9695505050505050565b600060018060a01b0380881683528615156020840152851515604084015260a060608401526152b560a0840186614e31565b91508084166080840152509695505050505050565b6020808252825182820181905260009190848201906040850190845b81811015615302578351835292840192918401916001016152e6565b50909695505050505050565b84151581526001600160a01b0384166020820152821515604082015260806060820181905260009061527990830184614e31565b8615158152856020820152846040820152836060820152821515608082015260c060a0820152600061509f60c0830184614e31565b878152866020820152856040820152846060820152831515608082015260c060a0820152600061310560c083018486614e5d565b8381526040602082015260006153c5604083018486614e5d565b95945050505050565b8681528560208201528460408201528315156060820152821515608082015260c060a0820152600061509f60c0830184614e31565b602081016002831061542557634e487b7160e01b600052602160045260246000fd5b91905290565b602081526000613da46020830184614e31565b60208082526032908201527f4552433732313a207472616e7366657220746f206e6f6e20455243373231526560408201527131b2b4bb32b91034b6b83632b6b2b73a32b960711b606082015260800190565b60208082526026908201527f4f6e6c79206c6f6467696e6720666163696c697479206f776e657220697320616040820152651b1b1bddd95960d21b606082015260800190565b6020808252601b908201527f4f6e6c79207370616365206f776e657220697320616c6c6f7765640000000000604082015260600190565b60208082526031908201527f4552433732313a207472616e736665722063616c6c6572206973206e6f74206f6040820152701ddb995c881b9bdc88185c1c1c9bdd9959607a1b606082015260800190565b6000821982111561557157615571615656565b500190565b6000826155855761558561566c565b500490565b60008160001904831182151516156155a4576155a4615656565b500290565b6000828210156155bb576155bb615656565b500390565b60005b838110156155db5781810151838201526020016155c3565b838111156122a55750506000910152565b600181811c9082168061560057607f821691505b6020821081141561562157634e487b7160e01b600052602260045260246000fd5b50919050565b600060001982141561563b5761563b615656565b5060010190565b6000826156515761565161566c565b500690565b634e487b7160e01b600052601160045260246000fd5b634e487b7160e01b600052601260045260246000fd5b634e487b7160e01b600052602160045260246000fd5b634e487b7160e01b600052603160045260246000fd5b634e487b7160e01b600052603260045260246000fd5b634e487b7160e01b600052604160045260246000fd5b6001600160e01b03198116811461348f57600080fdfe4f6e6c7920666163696c697479206f776e6572206d617920616464205370616365734142434445464748494a4b4c4d4e4f505152535455565758595a6162636465666768696a6b6c6d6e6f707172737475767778797a303132333435363738392b2f68747470733a2f2f626166796265696767376d7777706e6e6d366d6d6b3374777863346172697a6f796336696a6e617965337064636977636f6868656f37786937686d2e697066732e647765622e6c696e6b2f746f6b656e2d696d6167652e706e67a2646970667358221220e85dafe42c0e798d1de2f87bef95e4e3d3ef3f26e33613549a88dea02ad5af0064736f6c63430008070033",
  "linkReferences": {},
  "deployedLinkReferences": {}
}