{
  "_format": "hh-sol-artifact-1",
  "contractName": "Stays",
  "sourceName": "contracts/Stays.sol",
  "abi": [
    {
      "inputs": [],
      "stateMutability": "nonpayable",
      "type": "constructor"
    },
    {
      "anonymous": false,
      "inputs": [
        {
          "indexed": true,
          "internalType": "address",
          "name": "owner",
          "type": "address"
        },
        {
          "indexed": true,
          "internalType": "address",
          "name": "approved",
          "type": "address"
        },
        {
          "indexed": true,
          "internalType": "uint256",
          "name": "tokenId",
          "type": "uint256"
        }
      ],
      "name": "Approval",
      "type": "event"
    },
    {
      "anonymous": false,
      "inputs": [
        {
          "indexed": true,
          "internalType": "address",
          "name": "owner",
          "type": "address"
        },
        {
          "indexed": true,
          "internalType": "address",
          "name": "operator",
          "type": "address"
        },
        {
          "indexed": false,
          "internalType": "bool",
          "name": "approved",
          "type": "bool"
        }
      ],
      "name": "ApprovalForAll",
      "type": "event"
    },
    {
      "anonymous": false,
      "inputs": [
        {
          "indexed": false,
          "internalType": "uint256",
          "name": "tokenId",
          "type": "uint256"
        }
      ],
      "name": "Cancel",
      "type": "event"
    },
    {
      "anonymous": false,
      "inputs": [
        {
          "indexed": false,
          "internalType": "uint256",
          "name": "tokenId",
          "type": "uint256"
        }
      ],
      "name": "CheckIn",
      "type": "event"
    },
    {
      "anonymous": false,
      "inputs": [
        {
          "indexed": false,
          "internalType": "uint256",
          "name": "tokenId",
          "type": "uint256"
        }
      ],
      "name": "CheckOut",
      "type": "event"
    },
    {
      "anonymous": false,
      "inputs": [
        {
          "indexed": true,
          "internalType": "address",
          "name": "payee",
          "type": "address"
        },
        {
          "indexed": false,
          "internalType": "uint256",
          "name": "weiAmount",
          "type": "uint256"
        },
        {
          "indexed": false,
          "internalType": "bytes32",
          "name": "spaceId",
          "type": "bytes32"
        },
        {
          "indexed": false,
          "internalType": "uint256",
          "name": "tokenId",
          "type": "uint256"
        }
      ],
      "name": "Deposited",
      "type": "event"
    },
    {
      "anonymous": false,
      "inputs": [
        {
          "indexed": false,
          "internalType": "bytes32",
          "name": "facilityId",
          "type": "bytes32"
        },
        {
          "indexed": false,
          "internalType": "bool",
          "name": "active",
          "type": "bool"
        }
      ],
      "name": "LodgingFacilityActiveState",
      "type": "event"
    },
    {
      "anonymous": false,
      "inputs": [
        {
          "indexed": false,
          "internalType": "bytes32",
          "name": "facilityId",
          "type": "bytes32"
        },
        {
          "indexed": true,
          "internalType": "address",
          "name": "owner",
          "type": "address"
        },
        {
          "indexed": false,
          "internalType": "string",
          "name": "dataURI",
          "type": "string"
        }
      ],
      "name": "LodgingFacilityCreated",
      "type": "event"
    },
    {
      "anonymous": false,
      "inputs": [
        {
          "indexed": false,
          "internalType": "bytes32",
          "name": "facilityId",
          "type": "bytes32"
        },
        {
          "indexed": true,
          "internalType": "address",
          "name": "prevOwner",
          "type": "address"
        },
        {
          "indexed": true,
          "internalType": "address",
          "name": "newOwner",
          "type": "address"
        }
      ],
      "name": "LodgingFacilityOwnershipTransfer",
      "type": "event"
    },
    {
      "anonymous": false,
      "inputs": [
        {
          "indexed": false,
          "internalType": "bytes32",
          "name": "facilityId",
          "type": "bytes32"
        }
      ],
      "name": "LodgingFacilityRemoved",
      "type": "event"
    },
    {
      "anonymous": false,
      "inputs": [
        {
          "indexed": false,
          "internalType": "bytes32",
          "name": "facilityId",
          "type": "bytes32"
        },
        {
          "indexed": false,
          "internalType": "string",
          "name": "dataURI",
          "type": "string"
        }
      ],
      "name": "LodgingFacilityUpdated",
      "type": "event"
    },
    {
      "anonymous": false,
      "inputs": [
        {
          "indexed": false,
          "internalType": "bytes32",
          "name": "spaceId",
          "type": "bytes32"
        },
        {
          "indexed": false,
          "internalType": "uint256",
          "name": "tokenId",
          "type": "uint256"
        }
      ],
      "name": "NewStay",
      "type": "event"
    },
    {
      "anonymous": false,
      "inputs": [
        {
          "indexed": true,
          "internalType": "address",
          "name": "previousOwner",
          "type": "address"
        },
        {
          "indexed": true,
          "internalType": "address",
          "name": "newOwner",
          "type": "address"
        }
      ],
      "name": "OwnershipTransferred",
      "type": "event"
    },
    {
      "anonymous": false,
      "inputs": [
        {
          "indexed": false,
          "internalType": "address",
          "name": "account",
          "type": "address"
        }
      ],
      "name": "Paused",
      "type": "event"
    },
    {
      "anonymous": false,
      "inputs": [
        {
          "indexed": true,
          "internalType": "address",
          "name": "payee",
          "type": "address"
        },
        {
          "indexed": false,
          "internalType": "uint256",
          "name": "weiAmount",
          "type": "uint256"
        },
        {
          "indexed": false,
          "internalType": "bytes32",
          "name": "spaceId",
          "type": "bytes32"
        },
        {
          "indexed": false,
          "internalType": "uint256",
          "name": "tokenId",
          "type": "uint256"
        }
      ],
      "name": "Refund",
      "type": "event"
    },
    {
      "anonymous": false,
      "inputs": [
        {
          "indexed": false,
          "internalType": "bytes32",
          "name": "spaceId",
          "type": "bytes32"
        },
        {
          "indexed": false,
          "internalType": "bool",
          "name": "active",
          "type": "bool"
        }
      ],
      "name": "SpaceActiveState",
      "type": "event"
    },
    {
      "anonymous": false,
      "inputs": [
        {
          "indexed": false,
          "internalType": "bytes32",
          "name": "spaceId",
          "type": "bytes32"
        },
        {
          "indexed": false,
          "internalType": "bytes32",
          "name": "facilityId",
          "type": "bytes32"
        },
        {
          "indexed": false,
          "internalType": "uint256",
          "name": "capacity",
          "type": "uint256"
        },
        {
          "indexed": false,
          "internalType": "uint256",
          "name": "pricePerNightWei",
          "type": "uint256"
        },
        {
          "indexed": false,
          "internalType": "bool",
          "name": "active",
          "type": "bool"
        },
        {
          "indexed": false,
          "internalType": "string",
          "name": "dataURI",
          "type": "string"
        }
      ],
      "name": "SpaceAdded",
      "type": "event"
    },
    {
      "anonymous": false,
      "inputs": [
        {
          "indexed": false,
          "internalType": "bytes32",
          "name": "spaceId",
          "type": "bytes32"
        }
      ],
      "name": "SpaceRemoved",
      "type": "event"
    },
    {
      "anonymous": false,
      "inputs": [
        {
          "indexed": false,
          "internalType": "bytes32",
          "name": "spaceId",
          "type": "bytes32"
        },
        {
          "indexed": false,
          "internalType": "uint256",
          "name": "capacity",
          "type": "uint256"
        },
        {
          "indexed": false,
          "internalType": "uint256",
          "name": "pricePerNightWei",
          "type": "uint256"
        },
        {
          "indexed": false,
          "internalType": "string",
          "name": "dataURI",
          "type": "string"
        }
      ],
      "name": "SpaceUpdated",
      "type": "event"
    },
    {
      "anonymous": false,
      "inputs": [
        {
          "indexed": true,
          "internalType": "address",
          "name": "from",
          "type": "address"
        },
        {
          "indexed": true,
          "internalType": "address",
          "name": "to",
          "type": "address"
        },
        {
          "indexed": true,
          "internalType": "uint256",
          "name": "tokenId",
          "type": "uint256"
        }
      ],
      "name": "Transfer",
      "type": "event"
    },
    {
      "anonymous": false,
      "inputs": [
        {
          "indexed": false,
          "internalType": "address",
          "name": "account",
          "type": "address"
        }
      ],
      "name": "Unpaused",
      "type": "event"
    },
    {
      "anonymous": false,
      "inputs": [
        {
          "indexed": true,
          "internalType": "address",
          "name": "payer",
          "type": "address"
        },
        {
          "indexed": true,
          "internalType": "address",
          "name": "payee",
          "type": "address"
        },
        {
          "indexed": false,
          "internalType": "uint256",
          "name": "weiAmount",
          "type": "uint256"
        },
        {
          "indexed": false,
          "internalType": "bytes32",
          "name": "spaceId",
          "type": "bytes32"
        },
        {
          "indexed": false,
          "internalType": "uint256",
          "name": "tokenId",
          "type": "uint256"
        }
      ],
      "name": "Withdraw",
      "type": "event"
    },
    {
      "inputs": [
        {
          "internalType": "bytes32",
          "name": "_lodgingFacilityId",
          "type": "bytes32"
        }
      ],
      "name": "activateLodgingFacility",
      "outputs": [],
      "stateMutability": "nonpayable",
      "type": "function"
    },
    {
      "inputs": [
        {
          "internalType": "bytes32",
          "name": "_spaceId",
          "type": "bytes32"
        }
      ],
      "name": "activateSpace",
      "outputs": [],
      "stateMutability": "nonpayable",
      "type": "function"
    },
    {
      "inputs": [
        {
          "internalType": "bytes32",
          "name": "_lodgingFacilityId",
          "type": "bytes32"
        },
        {
          "internalType": "uint256",
          "name": "_capacity",
          "type": "uint256"
        },
        {
          "internalType": "uint256",
          "name": "_pricePerNightWei",
          "type": "uint256"
        },
        {
          "internalType": "bool",
          "name": "_active",
          "type": "bool"
        },
        {
          "internalType": "string",
          "name": "_dataURI",
          "type": "string"
        }
      ],
      "name": "addSpace",
      "outputs": [],
      "stateMutability": "nonpayable",
      "type": "function"
    },
    {
      "inputs": [
        {
          "internalType": "address",
          "name": "to",
          "type": "address"
        },
        {
          "internalType": "uint256",
          "name": "tokenId",
          "type": "uint256"
        }
      ],
      "name": "approve",
      "outputs": [],
      "stateMutability": "nonpayable",
      "type": "function"
    },
    {
      "inputs": [
        {
          "internalType": "address",
          "name": "owner",
          "type": "address"
        }
      ],
      "name": "balanceOf",
      "outputs": [
        {
          "internalType": "uint256",
          "name": "",
          "type": "uint256"
        }
      ],
      "stateMutability": "view",
      "type": "function"
    },
    {
      "inputs": [
        {
          "internalType": "uint256",
          "name": "_tokenId",
          "type": "uint256"
        },
        {
          "components": [
            {
              "internalType": "address",
              "name": "from",
              "type": "address"
            },
            {
              "internalType": "address",
              "name": "to",
              "type": "address"
            },
            {
              "internalType": "uint256",
              "name": "tokenId",
              "type": "uint256"
            },
            {
              "internalType": "bytes",
              "name": "signature",
              "type": "bytes"
            }
          ],
          "internalType": "struct IStays.CheckInVoucher",
          "name": "voucher",
          "type": "tuple"
        }
      ],
      "name": "checkIn",
      "outputs": [],
      "stateMutability": "nonpayable",
      "type": "function"
    },
    {
      "inputs": [
        {
          "internalType": "uint256",
          "name": "_tokenId",
          "type": "uint256"
        }
      ],
      "name": "checkOut",
      "outputs": [],
      "stateMutability": "nonpayable",
      "type": "function"
    },
    {
      "inputs": [],
      "name": "dayZero",
      "outputs": [
        {
          "internalType": "uint32",
          "name": "",
          "type": "uint32"
        }
      ],
      "stateMutability": "view",
      "type": "function"
    },
    {
      "inputs": [
        {
          "internalType": "bytes32",
          "name": "_lodgingFacilityId",
          "type": "bytes32"
        }
      ],
      "name": "deactivateLodgingFacility",
      "outputs": [],
      "stateMutability": "nonpayable",
      "type": "function"
    },
    {
      "inputs": [
        {
          "internalType": "bytes32",
          "name": "_spaceId",
          "type": "bytes32"
        }
      ],
      "name": "deactivateSpace",
      "outputs": [],
      "stateMutability": "nonpayable",
      "type": "function"
    },
    {
      "inputs": [
        {
          "internalType": "bytes32",
          "name": "_lodgingFacilityId",
          "type": "bytes32"
        }
      ],
      "name": "deleteLodgingFacility",
      "outputs": [],
      "stateMutability": "nonpayable",
      "type": "function"
    },
    {
      "inputs": [
        {
          "internalType": "address",
          "name": "payee",
          "type": "address"
        },
        {
          "internalType": "bytes32",
          "name": "spaceId",
          "type": "bytes32"
        },
        {
          "internalType": "uint256",
          "name": "tokenId",
          "type": "uint256"
        }
      ],
      "name": "deposit",
      "outputs": [],
      "stateMutability": "payable",
      "type": "function"
    },
    {
      "inputs": [
        {
          "internalType": "address",
          "name": "payer",
          "type": "address"
        },
        {
          "internalType": "bytes32",
          "name": "spaceId",
          "type": "bytes32"
        },
        {
          "internalType": "uint256",
          "name": "tokenId",
          "type": "uint256"
        }
      ],
      "name": "depositOf",
      "outputs": [
        {
          "internalType": "uint256",
          "name": "",
          "type": "uint256"
        }
      ],
      "stateMutability": "view",
      "type": "function"
    },
    {
      "inputs": [
        {
          "internalType": "uint256",
          "name": "tokenId",
          "type": "uint256"
        }
      ],
      "name": "depositState",
      "outputs": [
        {
          "internalType": "enum IStayEscrow.State",
          "name": "",
          "type": "uint8"
        }
      ],
      "stateMutability": "view",
      "type": "function"
    },
    {
      "inputs": [],
      "name": "getActiveLodgingFacilityIds",
      "outputs": [
        {
          "internalType": "bytes32[]",
          "name": "activeLodgingFacilityIds",
          "type": "bytes32[]"
        }
      ],
      "stateMutability": "view",
      "type": "function"
    },
    {
      "inputs": [
        {
          "internalType": "bytes32",
          "name": "_lodgingFacilityId",
          "type": "bytes32"
        }
      ],
      "name": "getActiveSpaceIdsByFacilityId",
      "outputs": [
        {
          "internalType": "bytes32[]",
          "name": "activeSpacesIds",
          "type": "bytes32[]"
        }
      ],
      "stateMutability": "view",
      "type": "function"
    },
    {
      "inputs": [],
      "name": "getAllLodgingFacilityIds",
      "outputs": [
        {
          "internalType": "bytes32[]",
          "name": "",
          "type": "bytes32[]"
        }
      ],
      "stateMutability": "view",
      "type": "function"
    },
    {
      "inputs": [
        {
          "internalType": "uint256",
          "name": "tokenId",
          "type": "uint256"
        }
      ],
      "name": "getApproved",
      "outputs": [
        {
          "internalType": "address",
          "name": "",
          "type": "address"
        }
      ],
      "stateMutability": "view",
      "type": "function"
    },
    {
      "inputs": [
        {
          "internalType": "bytes32",
          "name": "_spaceId",
          "type": "bytes32"
        },
        {
          "internalType": "uint256",
          "name": "_startDay",
          "type": "uint256"
        },
        {
          "internalType": "uint256",
          "name": "_numberOfDays",
          "type": "uint256"
        }
      ],
      "name": "getAvailability",
      "outputs": [
        {
          "internalType": "uint256[]",
          "name": "",
          "type": "uint256[]"
        }
      ],
      "stateMutability": "view",
      "type": "function"
    },
    {
      "inputs": [
        {
          "internalType": "bytes32",
          "name": "_lodgingFacilityId",
          "type": "bytes32"
        }
      ],
      "name": "getLodgingFacilityById",
      "outputs": [
        {
          "internalType": "bool",
          "name": "exists",
          "type": "bool"
        },
        {
          "internalType": "address",
          "name": "owner",
          "type": "address"
        },
        {
          "internalType": "bool",
          "name": "active",
          "type": "bool"
        },
        {
          "internalType": "string",
          "name": "dataURI",
          "type": "string"
        }
      ],
      "stateMutability": "view",
      "type": "function"
    },
    {
      "inputs": [
        {
          "internalType": "address",
          "name": "_owner",
          "type": "address"
        }
      ],
      "name": "getLodgingFacilityIdsByOwner",
      "outputs": [
        {
          "internalType": "bytes32[]",
          "name": "facilities",
          "type": "bytes32[]"
        }
      ],
      "stateMutability": "view",
      "type": "function"
    },
    {
      "inputs": [
        {
          "internalType": "bytes32",
          "name": "_spaceId",
          "type": "bytes32"
        }
      ],
      "name": "getSpaceById",
      "outputs": [
        {
          "internalType": "bool",
          "name": "exists",
          "type": "bool"
        },
        {
          "internalType": "bytes32",
          "name": "lodgingFacilityId",
          "type": "bytes32"
        },
        {
          "internalType": "uint256",
          "name": "capacity",
          "type": "uint256"
        },
        {
          "internalType": "uint256",
          "name": "pricePerNightWei",
          "type": "uint256"
        },
        {
          "internalType": "bool",
          "name": "active",
          "type": "bool"
        },
        {
          "internalType": "string",
          "name": "dataURI",
          "type": "string"
        }
      ],
      "stateMutability": "view",
      "type": "function"
    },
    {
      "inputs": [
        {
          "internalType": "uint256",
          "name": "_tokenId",
          "type": "uint256"
        }
      ],
      "name": "getSpaceByTokenId",
      "outputs": [
        {
          "internalType": "bool",
          "name": "exists",
          "type": "bool"
        },
        {
          "internalType": "bytes32",
          "name": "lodgingFacilityId",
          "type": "bytes32"
        },
        {
          "internalType": "uint256",
          "name": "capacity",
          "type": "uint256"
        },
        {
          "internalType": "uint256",
          "name": "pricePerNightWei",
          "type": "uint256"
        },
        {
          "internalType": "bool",
          "name": "active",
          "type": "bool"
        },
        {
          "internalType": "string",
          "name": "dataURI",
          "type": "string"
        }
      ],
      "stateMutability": "view",
      "type": "function"
    },
    {
      "inputs": [
        {
          "internalType": "bytes32",
          "name": "_lodgingFacilityId",
          "type": "bytes32"
        }
      ],
      "name": "getSpaceIdsByFacilityId",
      "outputs": [
        {
          "internalType": "bytes32[]",
          "name": "",
          "type": "bytes32[]"
        }
      ],
      "stateMutability": "view",
      "type": "function"
    },
    {
      "inputs": [
        {
          "internalType": "bytes32",
          "name": "_spaceId",
          "type": "bytes32"
        },
        {
          "internalType": "enum IStayEscrow.State",
          "name": "_state",
          "type": "uint8"
        }
      ],
      "name": "getTokensBySpaceId",
      "outputs": [
        {
          "internalType": "uint256[]",
          "name": "",
          "type": "uint256[]"
        }
      ],
      "stateMutability": "view",
      "type": "function"
    },
    {
      "inputs": [
        {
          "internalType": "address",
          "name": "owner",
          "type": "address"
        },
        {
          "internalType": "address",
          "name": "operator",
          "type": "address"
        }
      ],
      "name": "isApprovedForAll",
      "outputs": [
        {
          "internalType": "bool",
          "name": "",
          "type": "bool"
        }
      ],
      "stateMutability": "view",
      "type": "function"
    },
    {
      "inputs": [
        {
          "internalType": "bytes32",
          "name": "",
          "type": "bytes32"
        }
      ],
      "name": "lodgingFacilities",
      "outputs": [
        {
          "internalType": "address",
          "name": "owner",
          "type": "address"
        },
        {
          "internalType": "bool",
          "name": "active",
          "type": "bool"
        },
        {
          "internalType": "bool",
          "name": "exists",
          "type": "bool"
        },
        {
          "internalType": "string",
          "name": "dataURI",
          "type": "string"
        },
        {
          "internalType": "address",
          "name": "fren",
          "type": "address"
        }
      ],
      "stateMutability": "view",
      "type": "function"
    },
    {
      "inputs": [],
      "name": "name",
      "outputs": [
        {
          "internalType": "string",
          "name": "",
          "type": "string"
        }
      ],
      "stateMutability": "view",
      "type": "function"
    },
    {
      "inputs": [
        {
          "internalType": "bytes32",
          "name": "_spaceId",
          "type": "bytes32"
        },
        {
          "internalType": "uint256",
          "name": "_startDay",
          "type": "uint256"
        },
        {
          "internalType": "uint256",
          "name": "_numberOfDays",
          "type": "uint256"
        },
        {
          "internalType": "uint256",
          "name": "_quantity",
          "type": "uint256"
        }
      ],
      "name": "newStay",
      "outputs": [
        {
          "internalType": "uint256",
          "name": "",
          "type": "uint256"
        }
      ],
      "stateMutability": "payable",
      "type": "function"
    },
    {
      "inputs": [],
      "name": "owner",
      "outputs": [
        {
          "internalType": "address",
          "name": "",
          "type": "address"
        }
      ],
      "stateMutability": "view",
      "type": "function"
    },
    {
      "inputs": [
        {
          "internalType": "uint256",
          "name": "tokenId",
          "type": "uint256"
        }
      ],
      "name": "ownerOf",
      "outputs": [
        {
          "internalType": "address",
          "name": "",
          "type": "address"
        }
      ],
      "stateMutability": "view",
      "type": "function"
    },
    {
      "inputs": [],
      "name": "pause",
      "outputs": [],
      "stateMutability": "nonpayable",
      "type": "function"
    },
    {
      "inputs": [],
      "name": "paused",
      "outputs": [
        {
          "internalType": "bool",
          "name": "",
          "type": "bool"
        }
      ],
      "stateMutability": "view",
      "type": "function"
    },
    {
      "inputs": [
        {
          "internalType": "string",
          "name": "_dataURI",
          "type": "string"
        },
        {
          "internalType": "bool",
          "name": "_active",
          "type": "bool"
        }
      ],
      "name": "registerLodgingFacility",
      "outputs": [],
      "stateMutability": "nonpayable",
      "type": "function"
    },
    {
      "inputs": [
        {
          "internalType": "string",
          "name": "_dataURI",
          "type": "string"
        },
        {
          "internalType": "bool",
          "name": "_active",
          "type": "bool"
        },
        {
          "internalType": "address",
          "name": "_fren",
          "type": "address"
        }
      ],
      "name": "registerLodgingFacility",
      "outputs": [],
      "stateMutability": "nonpayable",
      "type": "function"
    },
    {
      "inputs": [],
      "name": "renounceOwnership",
      "outputs": [],
      "stateMutability": "nonpayable",
      "type": "function"
    },
    {
      "inputs": [
        {
          "internalType": "address",
          "name": "from",
          "type": "address"
        },
        {
          "internalType": "address",
          "name": "to",
          "type": "address"
        },
        {
          "internalType": "uint256",
          "name": "tokenId",
          "type": "uint256"
        }
      ],
      "name": "safeTransferFrom",
      "outputs": [],
      "stateMutability": "nonpayable",
      "type": "function"
    },
    {
      "inputs": [
        {
          "internalType": "address",
          "name": "from",
          "type": "address"
        },
        {
          "internalType": "address",
          "name": "to",
          "type": "address"
        },
        {
          "internalType": "uint256",
          "name": "tokenId",
          "type": "uint256"
        },
        {
          "internalType": "bytes",
          "name": "_data",
          "type": "bytes"
        }
      ],
      "name": "safeTransferFrom",
      "outputs": [],
      "stateMutability": "nonpayable",
      "type": "function"
    },
    {
      "inputs": [],
      "name": "serviceURI",
      "outputs": [
        {
          "internalType": "string",
          "name": "",
          "type": "string"
        }
      ],
      "stateMutability": "view",
      "type": "function"
    },
    {
      "inputs": [
        {
          "internalType": "address",
          "name": "operator",
          "type": "address"
        },
        {
          "internalType": "bool",
          "name": "approved",
          "type": "bool"
        }
      ],
      "name": "setApprovalForAll",
      "outputs": [],
      "stateMutability": "nonpayable",
      "type": "function"
    },
    {
      "inputs": [
        {
          "internalType": "bytes32",
          "name": "",
          "type": "bytes32"
        }
      ],
      "name": "spaces",
      "outputs": [
        {
          "internalType": "bytes32",
          "name": "lodgingFacilityId",
          "type": "bytes32"
        },
        {
          "internalType": "uint256",
          "name": "capacity",
          "type": "uint256"
        },
        {
          "internalType": "uint256",
          "name": "pricePerNightWei",
          "type": "uint256"
        },
        {
          "internalType": "bool",
          "name": "active",
          "type": "bool"
        },
        {
          "internalType": "bool",
          "name": "exists",
          "type": "bool"
        },
        {
          "internalType": "string",
          "name": "dataURI",
          "type": "string"
        }
      ],
      "stateMutability": "view",
      "type": "function"
    },
    {
      "inputs": [
        {
          "internalType": "bytes4",
          "name": "interfaceId",
          "type": "bytes4"
        }
      ],
      "name": "supportsInterface",
      "outputs": [
        {
          "internalType": "bool",
          "name": "",
          "type": "bool"
        }
      ],
      "stateMutability": "view",
      "type": "function"
    },
    {
      "inputs": [],
      "name": "symbol",
      "outputs": [
        {
          "internalType": "string",
          "name": "",
          "type": "string"
        }
      ],
      "stateMutability": "view",
      "type": "function"
    },
    {
      "inputs": [
        {
          "internalType": "uint256",
          "name": "index",
          "type": "uint256"
        }
      ],
      "name": "tokenByIndex",
      "outputs": [
        {
          "internalType": "uint256",
          "name": "",
          "type": "uint256"
        }
      ],
      "stateMutability": "view",
      "type": "function"
    },
    {
      "inputs": [
        {
          "internalType": "address",
          "name": "owner",
          "type": "address"
        },
        {
          "internalType": "uint256",
          "name": "index",
          "type": "uint256"
        }
      ],
      "name": "tokenOfOwnerByIndex",
      "outputs": [
        {
          "internalType": "uint256",
          "name": "",
          "type": "uint256"
        }
      ],
      "stateMutability": "view",
      "type": "function"
    },
    {
      "inputs": [
        {
          "internalType": "uint256",
          "name": "tokenId",
          "type": "uint256"
        }
      ],
      "name": "tokenURI",
      "outputs": [
        {
          "internalType": "string",
          "name": "",
          "type": "string"
        }
      ],
      "stateMutability": "view",
      "type": "function"
    },
    {
      "inputs": [],
      "name": "totalSupply",
      "outputs": [
        {
          "internalType": "uint256",
          "name": "",
          "type": "uint256"
        }
      ],
      "stateMutability": "view",
      "type": "function"
    },
    {
      "inputs": [
        {
          "internalType": "address",
          "name": "from",
          "type": "address"
        },
        {
          "internalType": "address",
          "name": "to",
          "type": "address"
        },
        {
          "internalType": "uint256",
          "name": "tokenId",
          "type": "uint256"
        }
      ],
      "name": "transferFrom",
      "outputs": [],
      "stateMutability": "nonpayable",
      "type": "function"
    },
    {
      "inputs": [
        {
          "internalType": "address",
          "name": "newOwner",
          "type": "address"
        }
      ],
      "name": "transferOwnership",
      "outputs": [],
      "stateMutability": "nonpayable",
      "type": "function"
    },
    {
      "inputs": [],
      "name": "unpause",
      "outputs": [],
      "stateMutability": "nonpayable",
      "type": "function"
    },
    {
      "inputs": [
        {
          "internalType": "bytes32",
          "name": "_lodgingFacilityId",
          "type": "bytes32"
        },
        {
          "internalType": "string",
          "name": "_newDataURI",
          "type": "string"
        }
      ],
      "name": "updateLodgingFacility",
      "outputs": [],
      "stateMutability": "nonpayable",
      "type": "function"
    },
    {
      "inputs": [
        {
          "internalType": "bytes32",
          "name": "_spaceId",
          "type": "bytes32"
        },
        {
          "internalType": "uint256",
          "name": "_capacity",
          "type": "uint256"
        },
        {
          "internalType": "uint256",
          "name": "_pricePerNightWei",
          "type": "uint256"
        },
        {
          "internalType": "string",
          "name": "_dataURI",
          "type": "string"
        }
      ],
      "name": "updateSpace",
      "outputs": [],
      "stateMutability": "nonpayable",
      "type": "function"
    },
    {
      "inputs": [
        {
          "internalType": "bytes32",
          "name": "_lodgingFacilityId",
          "type": "bytes32"
        },
        {
          "internalType": "address",
          "name": "_newOwner",
          "type": "address"
        }
      ],
      "name": "yieldLodgingFacility",
      "outputs": [],
      "stateMutability": "nonpayable",
      "type": "function"
    }
  ],
  "bytecode": "0x6101406040523480156200001257600080fd5b506040518060400160405280600e81526020017f5374617920416d7374657264616d0000000000000000000000000000000000008152506040518060400160405280600181526020017f31000000000000000000000000000000000000000000000000000000000000008152506040518060400160405280600e81526020017f5374617920416d7374657264616d0000000000000000000000000000000000008152506040518060400160405280600781526020017f53544159414d530000000000000000000000000000000000000000000000000081525081600290805190602001906200010392919062000356565b5080600390805190602001906200011c92919062000356565b50505060008280519060200120905060008280519060200120905060007f8b73c3c69bb8fe3d512ecc4cf759cc79239f7b179b0ffacaa9a75d522b39400f90508260e081815250508161010081815250504660a08181525050620001888184846200024960201b60201c565b608081815250503073ffffffffffffffffffffffffffffffffffffffff1660c08173ffffffffffffffffffffffffffffffffffffffff1660601b8152505080610120818152505050505050506000600d60006101000a81548160ff0219169083151502179055506200020f620002036200028560201b60201c565b6200028d60201b60201c565b620002437fdd4bda6b9f70a1df22f267ddd04bf9cf8a97c3facad0bf47b8f71823570d20d560001b6200035360201b60201c565b62000543565b600083838346306040516020016200026695949392919062000439565b6040516020818303038152906040528051906020012090509392505050565b600033905090565b6000600d60019054906101000a900473ffffffffffffffffffffffffffffffffffffffff16905081600d60016101000a81548173ffffffffffffffffffffffffffffffffffffffff021916908373ffffffffffffffffffffffffffffffffffffffff1602179055508173ffffffffffffffffffffffffffffffffffffffff168173ffffffffffffffffffffffffffffffffffffffff167f8be0079c531659141344cd1fd0a4f28419497f9722a3daafe3b4186f6b6457e060405160405180910390a35050565b50565b8280546200036490620004de565b90600052602060002090601f016020900481019282620003885760008555620003d4565b82601f10620003a357805160ff1916838001178555620003d4565b82800160010185558215620003d4579182015b82811115620003d3578251825591602001919060010190620003b6565b5b509050620003e39190620003e7565b5090565b5b8082111562000402576000816000905550600101620003e8565b5090565b620004118162000496565b82525050565b6200042281620004aa565b82525050565b6200043381620004d4565b82525050565b600060a08201905062000450600083018862000417565b6200045f602083018762000417565b6200046e604083018662000417565b6200047d606083018562000428565b6200048c608083018462000406565b9695505050505050565b6000620004a382620004b4565b9050919050565b6000819050919050565b600073ffffffffffffffffffffffffffffffffffffffff82169050919050565b6000819050919050565b60006002820490506001821680620004f757607f821691505b602082108114156200050e576200050d62000514565b5b50919050565b7f4e487b7100000000000000000000000000000000000000000000000000000000600052602260045260246000fd5b60805160a05160c05160601c60e05161010051610120516201108462000598600039600061ca9e0152600061cae00152600061cabf0152600061c9f00152600061ca470152600061ca710152620110846000f3fe608060405260043610620003665760003560e01c8063673f0dd511620001d5578063b38759fd116200010f578063e985e9c511620000a3578063f2fde38b1162000079578063f2fde38b1462000da7578063f7cdbc9d1462000dd5578063ffae74151462000e03578063ffc1e09a1462000e4b5762000366565b8063e985e9c51462000cfa578063e994529e1462000d3e578063eb2243f81462000d875762000366565b8063c87b56dd11620000e5578063c87b56dd1462000c2a578063cad302e41462000c6e578063e1e33b9c1462000c9e578063e6ccb4ce1462000ccc5762000366565b8063b38759fd1462000b88578063b88d4fde1462000bb8578063bfef4d401462000be65762000366565b80638f201f5f11620001875780639bc190db116200015d5780639bc190db1462000ace5780639ff682141462000afc578063a22cb4651462000b2c578063a46880321462000b5a5762000366565b80638f201f5f1462000a2c5780639518f5fa1462000a5a57806395d89b411462000a9e5762000366565b8063673f0dd5146200090d5780636a22dd26146200095657806370a082311462000984578063715018a614620009c85780638456cb5914620009e25780638da5cb5b14620009fc5762000366565b806327d7cedb11620002a75780634c18a8ec11620002595780635c975abb116200022f5780635c975abb146200083d5780635d45d919146200086d5780635ee7aa13146200089b5780636352211e14620008c95762000366565b80634c18a8ec14620007845780634ce0a87214620007cb5780634f6ccce714620007f95762000366565b806327d7cedb146200063d5780632f745c591462000681578063342df9b214620006c55780633f4ba83a146200070e57806342842e0e1462000728578063438c9cab14620007565762000366565b8063095ea7b3116200031f5780631bd2eeee11620002f55780631bd2eeee14620005675780631bf7509b146200059557806320bf6ddb14620005d957806323b872dd146200060f5762000366565b8063095ea7b314620004c557806318160ddd14620004f35780631b9bdb1214620005235762000366565b8062442536146200036b578062d34b54146200039957806301ffc9a714620003c9578063038c8975146200040d57806306fdde031462000451578063081812fc1462000481575b600080fd5b3480156200037857600080fd5b506200039760048036038101906200039191906200da84565b62000e8f565b005b348015620003a657600080fd5b50620003b1620011a9565b604051620003c091906200efd7565b60405180910390f35b348015620003d657600080fd5b50620003f56004803603810190620003ef91906200ddbc565b62001596565b6040516200040491906200f01f565b60405180910390f35b3480156200041a57600080fd5b506200043960048036038101906200043391906200df0a565b62001634565b6040516200044891906200f3e8565b60405180910390f35b3480156200045e57600080fd5b5062000469620016e8565b6040516200047891906200f405565b60405180910390f35b3480156200048e57600080fd5b50620004ad6004803603810190620004a791906200df0a565b62001782565b604051620004bc91906200ef02565b60405180910390f35b348015620004d257600080fd5b50620004f16004803603810190620004eb91906200da3d565b6200180c565b005b3480156200050057600080fd5b506200050b62001935565b6040516200051a91906200fa45565b60405180910390f35b3480156200053057600080fd5b506200054f60048036038101906200054991906200d9e1565b62001942565b6040516200055e91906200fa45565b60405180910390f35b3480156200057457600080fd5b506200059360048036038101906200058d91906200df0a565b62001a38565b005b348015620005a257600080fd5b50620005c16004803603810190620005bb91906200d834565b620021f1565b604051620005d091906200efd7565b60405180910390f35b620005f76004803603810190620005f191906200dd4a565b620022cd565b6040516200060691906200fa45565b60405180910390f35b3480156200061c57600080fd5b506200063b60048036038101906200063591906200d8ad565b62002d8f565b005b3480156200064a57600080fd5b506200066960048036038101906200066391906200dbae565b62002df8565b6040516200067891906200effb565b60405180910390f35b3480156200068e57600080fd5b50620006ad6004803603810190620006a791906200da3d565b62003252565b604051620006bc91906200fa45565b60405180910390f35b348015620006d257600080fd5b50620006f16004803603810190620006eb91906200da84565b620032fc565b60405162000705969594939291906200f090565b60405180910390f35b3480156200071b57600080fd5b5062000726620036ad565b005b3480156200073557600080fd5b506200075460048036038101906200074e91906200d8ad565b62003812565b005b3480156200076357600080fd5b506200078260048036038101906200077c91906200db44565b62003834565b005b3480156200079157600080fd5b50620007b06004803603810190620007aa91906200da84565b62003bf5565b604051620007c294939291906200f03c565b60405180910390f35b348015620007d857600080fd5b50620007f76004803603810190620007f191906200dcb4565b62003efb565b005b3480156200080657600080fd5b506200082560048036038101906200081f91906200df0a565b62004359565b6040516200083491906200fa45565b60405180910390f35b3480156200084a57600080fd5b5062000855620043d2565b6040516200086491906200f01f565b60405180910390f35b3480156200087a57600080fd5b506200089960048036038101906200089391906200da84565b620043e9565b005b348015620008a857600080fd5b50620008c76004803603810190620008c191906200dc0a565b62004719565b005b348015620008d657600080fd5b50620008f56004803603810190620008ef91906200df0a565b62004dda565b6040516200090491906200ef02565b60405180910390f35b3480156200091a57600080fd5b506200093960048036038101906200093391906200df0a565b62004e8f565b6040516200094d969594939291906200f090565b60405180910390f35b3480156200096357600080fd5b506200098260048036038101906200097c91906200da84565b62004f59565b005b3480156200099157600080fd5b50620009b06004803603810190620009aa91906200d834565b62005270565b604051620009bf91906200fa45565b60405180910390f35b348015620009d557600080fd5b50620009e06200532b565b005b348015620009ef57600080fd5b50620009fa620053bc565b005b34801562000a0957600080fd5b5062000a1462005522565b60405162000a2391906200ef02565b60405180910390f35b34801562000a3957600080fd5b5062000a58600480360381019062000a5291906200dab6565b6200554c565b005b34801562000a6757600080fd5b5062000a86600480360381019062000a8091906200da84565b62005a84565b60405162000a9591906200efd7565b60405180910390f35b34801562000aab57600080fd5b5062000ab662005b7b565b60405162000ac591906200f405565b60405180910390f35b34801562000adb57600080fd5b5062000afa600480360381019062000af491906200da84565b62005c15565b005b34801562000b0957600080fd5b5062000b1462005f45565b60405162000b2391906200fa9f565b60405180910390f35b34801562000b3957600080fd5b5062000b58600480360381019062000b5291906200d99a565b62005f4d565b005b34801562000b6757600080fd5b5062000b86600480360381019062000b8091906200da84565b62005f67565b005b34801562000b9557600080fd5b5062000ba062006281565b60405162000baf91906200efd7565b60405180910390f35b34801562000bc557600080fd5b5062000be4600480360381019062000bde91906200d909565b6200631e565b005b34801562000bf357600080fd5b5062000c12600480360381019062000c0c91906200dafd565b62006389565b60405162000c2191906200effb565b60405180910390f35b34801562000c3757600080fd5b5062000c56600480360381019062000c5091906200df0a565b62006a57565b60405162000c6591906200f405565b60405180910390f35b34801562000c7b57600080fd5b5062000c8662006af5565b60405162000c9591906200f405565b60405180910390f35b34801562000cab57600080fd5b5062000cca600480360381019062000cc491906200de20565b62006b2e565b005b34801562000cd957600080fd5b5062000cf8600480360381019062000cf291906200df3c565b62006c19565b005b34801562000d0757600080fd5b5062000d26600480360381019062000d2091906200d866565b6200755c565b60405162000d3591906200f01f565b60405180910390f35b34801562000d4b57600080fd5b5062000d6a600480360381019062000d6491906200da84565b620075f0565b60405162000d7e969594939291906200f2d1565b60405180910390f35b62000da5600480360381019062000d9f91906200d9e1565b620076d6565b005b34801562000db457600080fd5b5062000dd3600480360381019062000dcd91906200d834565b62007772565b005b34801562000de257600080fd5b5062000e01600480360381019062000dfb91906200de8a565b62007876565b005b34801562000e1057600080fd5b5062000e2f600480360381019062000e2991906200da84565b62007f41565b60405162000e429594939291906200ef73565b60405180910390f35b34801562000e5857600080fd5b5062000e77600480360381019062000e7191906200da84565b62008061565b60405162000e8691906200efd7565b60405180910390f35b8062000ebe7f7e5c3d8c83dee5ce749240fd3b6755a52c8d074bfb8f462e25eb53d344c3c7cb60001b620084cf565b62000eec7f57422d86a4dafc426303c8a5d03ff92b683f2f4e9d3489e02e7d71d8e2e5b21260001b620084cf565b62000f1a7f07c2e8549e0991604d037f2b009f2b8499284f42bde23f9d06e2dc0919bbc10a60001b620084cf565b62000f487f0b3d5c704d85261ba5d45f338973d09a7863fd70cd3173ea80aae611dc49a62d60001b620084cf565b6012600082815260200190815260200160002060000160009054906101000a900473ffffffffffffffffffffffffffffffffffffffff1673ffffffffffffffffffffffffffffffffffffffff1662000f9f620084d2565b73ffffffffffffffffffffffffffffffffffffffff161462000ff8576040517f08c379a000000000000000000000000000000000000000000000000000000000815260040162000fef906200f66b565b60405180910390fd5b620010267fffb482167b9f5457e5deb5b1757c008e1f2eaf882d5486540699c140d32d2b9160001b620084cf565b620010547f0d24876df608a1082d6e7d1f9148aa962f2227a898b08d2b6ea5eb32f912659c60001b620084cf565b620010827fec3bb74d537f188ac998b85a7a324e0db7130de3763e33bb7262db12e6a3f15160001b620084cf565b620010b07ff808323c305a9f85979986f012328a66cd1c24ac0b07d10864011f7e06d0bb7c60001b620084cf565b620010de7f9078c22ced9759d473871eacb7fc36244e740327f6e012b57426a8b7b05bc90860001b620084cf565b60006012600084815260200190815260200160002060000160146101000a81548160ff0219169083151502179055506200113b7f2dbd771574fa9c68f17405b6a9add8a9d9b1a1d9b3a19e8685c7df3b1712bb3e60001b620084cf565b620011697fae1e01e8991c600751433ad915e77bab9d39f8a79a800d1a288cbedbf21c55bf60001b620084cf565b7f5c33859dfe8722791b5d72ad942a0895181f8a694288ec429394f620de1503208260006040516200119d9291906200f16e565b60405180910390a15050565b6060620011d97fdbb4bfe989d76af8b4f98581415e2ed2a4b5dd000ec4231982fab06dc603508a60001b620084cf565b620012077fa9d9282712355be0231ac807cd95a8c646c045cc0cd04e8b4b409e49206affbc60001b620084cf565b620012357f352263795bcf92aa4b8a5947b6d3645129e26c6299ad67e4065aeadbd17006ae60001b620084cf565b6200123f620084da565b67ffffffffffffffff8111156200125b576200125a62010055565b5b6040519080825280602002602001820160405280156200128a5781602001602082028036833780820191505090505b509050620012bb7fe1974b493fc0396e367a972a641616c1688a1de3d0b8925b93c4391f1aa883c660001b620084cf565b620012e97f0e302ed8544e59bc5a5be8cf1edcb79fdbbd0cdedd03397f51bf655c4bc5c3e360001b620084cf565b6000620013197f84fe206cc15e8e2ab45f98ac2defc51ddb274ee6c1ea769401008431dac1a30460001b620084cf565b620013477fe1491b563834c669e916e8f860b723a8cbe88697e30aa00c5b143a2e50e9232b60001b620084cf565b60005b62001356600f620086d3565b81101562001591576200138c7f5e67465e763cdf15e6464153befdeb8870518d5a4b7ccf173efffbc1b97e6caa60001b620084cf565b620013ba7f3a0c65285971c62666841c8b555f5c6ee19703ac6da005ddae89405d4ba62f3560001b620084cf565b6000620013d282600f620086ea90919063ffffffff16565b9050620014027fdfba788437f2af81dcf9566407baecfd223151292b497d1ae81183bc3fc3072160001b620084cf565b620014307fdaf0f5fb5cb5876a3370d8c356b65abfae23bef553b4a880424484a5ba7ae09160001b620084cf565b6012600082815260200190815260200160002060000160149054906101000a900460ff16156200154b57620014887f0e9d36d6e0ae194cd660f410c1f2b9a79d8fccef750dfcb74ad4c4c9c3a6e22f60001b620084cf565b620014b67f6a40b2e778c29e410735f7e26a70431c3ce4345d2594cdde02e54f069d783d2060001b620084cf565b620014e47f3cc78b0b0f22eae35abd0ce666305ef13bfae1f325729e811046aa596f9031e960001b620084cf565b80848481518110620014fb57620014fa62010026565b5b602002602001018181525050620015357f7911be70c1c987c315a10ad1f1da0f27cc35ea6e5e28db717fee05025a8dfdc560001b620084cf565b828062001542906200fe83565b9350506200157a565b620015797f16514718f9538ed228e1a737dcaa900f88cc5b93304a654f7b1dc225ee623c9860001b620084cf565b5b50808062001588906200fe83565b9150506200134a565b505090565b6000620015c67f4e83b7424ec6d12dad9a65be80c1d7433fa7c24710b0a4935ba2b8471cce62b460001b620084cf565b620015f47f3c0888658536ad7b3c4714a2645c2b41c325cc470c3a8dfc3908fc72181c48f360001b620084cf565b620016227f5b1462f844214e01da23fc38277230bbfd003b136ea9cea386fa9fad799f55ed60001b620084cf565b6200162d8262008703565b9050919050565b6000620016647f130984913c4042e1d41c135adc525ed24babe13ba2c165c57ad51d496ff1d71c60001b62008780565b620016927f9bd6bf6c9213b8279e03089e60261643f99b23322f94ef0bf8a0eadc9908242060001b62008780565b620016c07f504a34a5d2e4104cf474fb7616a2bfe5d8c30117f535681414dbcc2569264c5560001b62008780565b6001600083815260200190815260200160002060009054906101000a900460ff169050919050565b606060028054620016f9906200fe17565b80601f016020809104026020016040519081016040528092919081815260200182805462001727906200fe17565b8015620017785780601f106200174c5761010080835404028352916020019162001778565b820191906000526020600020905b8154815290600101906020018083116200175a57829003601f168201915b5050505050905090565b60006200178f8262008783565b620017d1576040517f08c379a0000000000000000000000000000000000000000000000000000000008152600401620017c8906200f825565b60405180910390fd5b6006600083815260200190815260200160002060009054906101000a900473ffffffffffffffffffffffffffffffffffffffff169050919050565b6000620018198262004dda565b90508073ffffffffffffffffffffffffffffffffffffffff168373ffffffffffffffffffffffffffffffffffffffff1614156200188d576040517f08c379a000000000000000000000000000000000000000000000000000000000815260040162001884906200f8ad565b60405180910390fd5b8073ffffffffffffffffffffffffffffffffffffffff16620018ae620084d2565b73ffffffffffffffffffffffffffffffffffffffff161480620018e25750620018e181620018db620084d2565b6200755c565b5b62001924576040517f08c379a00000000000000000000000000000000000000000000000000000000081526004016200191b906200f6d1565b60405180910390fd5b620019308383620087ef565b505050565b6000600b80549050905090565b6000620019727f791cd04bcb278d4f0db212876b3b6f68148d4a8f8e88bc9e4c9569279d6acb7f60001b62008780565b620019a07f9ff8d5370af33fce6faefac0c981f2b3ce306358f3418915be188c7c06f30bed60001b62008780565b620019ce7f1b7237c93edfc2d6f6ac9d576f5edd66053f67fbbde30273a77194f46a2f8bf360001b62008780565b60008084815260200190815260200160002060008573ffffffffffffffffffffffffffffffffffffffff1673ffffffffffffffffffffffffffffffffffffffff16815260200190815260200160002060008381526020019081526020016000205490509392505050565b62001a667f61a6e48bed93fa2a8a942d4f6692d1a6fc0114948012cdebad9ede0c5c3acac660001b620084cf565b62001a947f7cb5511457c0985515301dca674934542b626ffdbe925632cd85157d2f4a219260001b620084cf565b62001ac27fe95f9564b8c0707ef7908a29c7bc07560cb694f224ec176c7245aebe13de47b960001b620084cf565b600060166000838152602001908152602001600020905062001b077f978b6f5b406f6af9b40b508e1d27be5082cace61b30b17b59c257ddf247acaa460001b620084cf565b62001b357ffb24b67e0f9707dc910b99a23ceb05469ed9845f5324a6d6ae5b161db7349bff60001b620084cf565b62001b637fb36b833ade142e3ae84203dd760063488f99adc2c23e3edca71f0f8c4a83340160001b620084cf565b6000801b8160000154141562001bb0576040517f08c379a000000000000000000000000000000000000000000000000000000000815260040162001ba7906200fa23565b60405180910390fd5b62001bde7f77bc2938438ad6e9702aba834a9443c46cf2f18d7b91624a9b4a0e9f096831f460001b620084cf565b62001c0c7f8587f203c1dcbc4d9100c9267d6fde5d993416b05c0d679b2d389392ae30fb6360001b620084cf565b62001c3a7f5cb6b2f9fbc8d19632d5aeec3369245ca1ab8169e8da575c849cbf3c5511ccbe60001b620084cf565b62001c687f7460a9b0d8719a6fa373bd1528793e654ad3522a4cc1a407cd2d0832a47fe5ba60001b620084cf565b8060040160019054906101000a900460ff161562001cbd576040517f08c379a000000000000000000000000000000000000000000000000000000000815260040162001cb4906200f539565b60405180910390fd5b62001ceb7fa9e34ff85194afbf0587c8834d122cac810f63dd13e742a0fad07effc288863860001b620084cf565b62001d197feb3e4e5ee6b931770c3f68fb2c9fd82dc092aad8ef89aac95ceb9c0f81cc36cb60001b620084cf565b62001d477f5a9b452e916f2ab06454da8259e3baf070417e0329cc5a49904741b7d60790d360001b620084cf565b60008160000154905062001d7e7f962fd9954da4f71b5bf6bed722478b20e33f315835e4337cc16f7c6e76ad4c5660001b620084cf565b62001dac7f5a12a826a6300a9ed3e8c651a913b950c68dd850ce8133fe6c2230bec3b07e5f60001b620084cf565b6000601260006014600085815260200190815260200160002060000154815260200190815260200160002060000160009054906101000a900473ffffffffffffffffffffffffffffffffffffffff16905062001e2b7fce768fb742cc429144ad7edf89bfc639716351e92011a80751aa9de668279dc160001b620084cf565b62001e597f48583cb94a6ecfa5b8beec65a9f91d4bc5022423e4bf01385887a99c4cffce3c60001b620084cf565b62001e877f678ddc013ee62e6ed245beec1b424c3f22f832f14c71c0b5ddc25825ef5fca5a60001b620084cf565b8073ffffffffffffffffffffffffffffffffffffffff1662001ea8620084d2565b73ffffffffffffffffffffffffffffffffffffffff161462001f01576040517f08c379a000000000000000000000000000000000000000000000000000000000815260040162001ef8906200f7e1565b60405180910390fd5b62001f2f7fa19981b082be452f3404006b0ff0d0652473262b09d066ec59c5c9e2b1eb08c860001b620084cf565b62001f5d7fcab7975a640a1801290c20c13338fee82d364f3732ae005983d24fa11af7797260001b620084cf565b62001f8b7fd4125d451844b5f5f941557cbad12f88396f6c553ecf88edc0ceef633dc8cf5360001b620084cf565b62001fb97f8bdd776d83ca265e71897c1930d0531031deb291fa7b707dc46f6dfc120e289260001b620084cf565b620151808360020154846001015462001fd391906200fbdb565b62001fdf91906200fc70565b6362155d6e63ffffffff1662001ff691906200fbdb565b4210156200203b576040517f08c379a000000000000000000000000000000000000000000000000000000000815260040162002032906200fa01565b60405180910390fd5b620020697f6ff7c0cd34cb003560a8b42f5b752b1cfb51c50482423f56351790bcdf62695f60001b620084cf565b620020977f772dfccb6c9f7fc4d3a11001ec0f416ea4e39438ad4286c45df979df6960d40260001b620084cf565b620020c57fa5228a68d3c740d28b21aafc9aec5ac5777e71c584b7a3581bc65b6ea2c8efce60001b620084cf565b60018360040160016101000a81548160ff021916908315150217905550620021107ff80c2c1bc9db7e423272ab997e9ee9c9cd1757c555d8b86218463f2fdbcb9d0360001b620084cf565b6200213e7fae27cc10303d8436fa7c5b7959a043f046b7d2438e99459c5cc6d045c362bfd160001b620084cf565b620021566200214d8562004dda565b828487620088aa565b620021847f39853002382b3f30c02dc7274ff047eab5b9fc9c3870450b6e71559fc044b87860001b620084cf565b620021b27f5f146a6a6e8ec86a3aab03aafd7cbe454ffb1cc435da080a18d57cf590173d5f60001b620084cf565b7f2c276699fefbad45f18509233bc03bb9cfdf41b18f32756933188bdef35fef5584604051620021e391906200fa45565b60405180910390a150505050565b6060620022217fcc0235dcb832ba2d457ae4ed53d3dc4f84d5b386a18d75af385a8d742bd3be4860001b620084cf565b6200224f7f33a85e6c1a5d282006f0c5846204b58e86eff7308d5382a72266168af82db9d960001b620084cf565b6200227d7fc9e56818b951260b2a00f98b82fa245d3b24dd00f02a026ef9548a340b7d0f1360001b620084cf565b620022c6601160008473ffffffffffffffffffffffffffffffffffffffff1673ffffffffffffffffffffffffffffffffffffffff16815260200190815260200160002062008948565b9050919050565b6000620022d9620043d2565b156200231c576040517f08c379a000000000000000000000000000000000000000000000000000000000815260040162002313906200f6af565b60405180910390fd5b6200234a7f772ce0ca440b9698bd42859c44d416bb81814ac011f74f0258dfccf25d74018560001b620084cf565b620023787faa31517f99c8b8c9900ee6c2c5868197fa52e52fca19e1ab9098f0a8207acda060001b620084cf565b620023a67f0cb81d048526f56cb10552ed68aa3af2b283a7bc48010795e72a477fd9f7773260001b620084cf565b620023b38585856200895f565b620023e17f21e3c83120c5cb14e10278833e3c28c3b7e3d350e8349a9d5d94d2736991f40b60001b620084cf565b6200240f7f2b1f27e5794f908a0f4ecb534de86a87c0068850a25cfe93a1843e8306f4ac3d60001b620084cf565b6000601460008781526020019081526020016000209050620024547f16c3bf97b6c078ff85bcdb1beace45054272f2586440e6f179c43c8beea5aee960001b620084cf565b620024827f612569a0740bdc2b88c83fd403973444010ceb6282bad1a7644df73889a9df9860001b620084cf565b6000816002015484866200249791906200fc70565b620024a391906200fc70565b9050620024d27e8c6401adff47baeec43d6d484f5b140bc32ea6782649a6c524fb23df43879a60001b620084cf565b620025007fc09a958ba24e2c773692885b9140cfa6d964c786181281f807855043bb5f2c9060001b620084cf565b6200252e7f251df670431c6c49c5eabd61d53a839eb7fec8321f1d6605d719f764e96d738960001b620084cf565b8034101562002574576040517f08c379a00000000000000000000000000000000000000000000000000000000081526004016200256b906200f649565b60405180910390fd5b620025a27fe7154b7ec6d3c1e32ac3a96bcdfac35dff2204fd08b7faba3b882cea81d9fc0060001b620084cf565b620025d07f5685d9ae2e31992fc70fe82773ab51df2f8ed85afa2994a453cc9aabd4d586da60001b620084cf565b620025fe7faf115f491416a4c077a58bcc86424b322d5244e581adbd38efcd04dd7bb2fa1460001b620084cf565b60005b858110156200280657620026387f326f2ddb3bab7160f44505ca80159c8af65b75e058752f2693b2b4e11fed3f2f60001b620084cf565b620026667f3f85ce2825c3f1023e02b21410bc53531861bd03b3185c72863d6b048959a2d360001b620084cf565b620026947fb74169210431625458f4c4f19276ca48c86a1558109fd2a76c761db48483ffa160001b620084cf565b84601560008a81526020019081526020016000206000838a620026b891906200fbdb565b8152602001908152602001600020548460010154620026d891906200fcd1565b10156200271c576040517f08c379a000000000000000000000000000000000000000000000000000000000815260040162002713906200f79d565b60405180910390fd5b6200274a7f2b4093ddd99d9f3094ec9e09ae329b7895842ca050a31e1b67dcf9d3f694e2c860001b620084cf565b620027787f1b182f31112a7ec147ed74e5f8ddeb4a9eadd3e886e168f401b3eceaca2b884760001b620084cf565b620027a67fe4a6545d81b7985ab4112db48457cdfefa5276be11a19d5573a9c1205c88facc60001b620084cf565b84601560008a81526020019081526020016000206000838a620027ca91906200fbdb565b81526020019081526020016000206000828254620027e991906200fbdb565b925050819055508080620027fd906200fe83565b91505062002601565b50620028357fb461e160b8124ec5685db9aef369d3d23feb7ca200b955286d0d01e2797e5a4b60001b620084cf565b620028637f27bcf0f86968f766fc16b62da8108d0e09f10317c882f99a146713cdfbedd47060001b620084cf565b6200286f600e62008e16565b6200289d7f8474bf34b0a68393e6e91053d47725cded5ebeae5ae967f253f81aa463ba3e7360001b620084cf565b620028cb7fa6a39685ae256e954006f7bfe53d7de3c9f000e5de9a3bf7239578efd0f0885660001b620084cf565b6000620028d9600e62008e2c565b9050620029097f37fe9cdc01cda1d10899580a7646dc79cb0d0e7e31a1125ff95b00422d1fe01860001b620084cf565b620029377fceae4dac3a7fe8bff039bcb5c2a443c890f551264f7b7c3daa1ae34ef87d0f3e60001b620084cf565b6200294c62002945620084d2565b8262008e3a565b6200297a7f37f2175d20703b2b544c608c1830317c78ad63d0a8bc378cd946abfd8b6a3f2e60001b620084cf565b620029a87f10377b2a715d4b4cd8b08f77bf8f4ac149995016dae6aeac262cbace8f2e9e0260001b620084cf565b600062002a0e8285600001548b8b8b8b6040518060800160405280605c815260200162010fb3605c91396040518060400160405280600f81526020017f68747470733a2f2f77696e2e736f2f000000000000000000000000000000000081525062008e5a565b905062002a3e7ff24304231f0f1897619bd552b98bcf242acfc07377e4b26c55deb93b341ecc1960001b620084cf565b62002a6c7fb8d7b00d985168caef21b37812d31bacf9b292d004ae2cc5a15aafad13db8dcb60001b620084cf565b62002a78828262008f3c565b62002aa67f5d65c835b30083a4fd7036bb040cf75cb90488f4a4ad7371e28f74473cdb66d160001b620084cf565b62002ad47f1f5e6c6e0da52f43b980049a4a54bdc891cc75a0bdd24d87cad0aea65f70a89c60001b620084cf565b6040518060c001604052808a815260200189815260200188815260200187815260200160001515815260200160001515815250601660008481526020019081526020016000206000820151816000015560208201518160010155604082015181600201556060820151816003015560808201518160040160006101000a81548160ff02191690831515021790555060a08201518160040160016101000a81548160ff02191690831515021790555090505062002bb37f5a742d9f84737e8c730b325650dcca4c5e50e7821f887c63fc82c0a54d875d7d60001b620084cf565b62002be17f3da90301d15f7cfacd8036c094c932d5b0a02c92f8be43d988c57922fef37b7c60001b620084cf565b601760008a815260200190815260200160002082908060018154018082558091505060019003906000526020600020016000909190919091505562002c497f4f90e844ccec4daa2c38eb76cea5b0608e14cbb8750db03b12981eba4a522c6a60001b620084cf565b62002c777f860a5c8ffc910c58de90f204c01651d20fa04b5c3c741d9ab9378c94176e240c60001b620084cf565b62002c8d62002c85620084d2565b8a84620076d6565b62002cbb7f4e9f957ed270782783c5971cde78517c89bdfcc054e994c3694c591ab64ee8b860001b620084cf565b62002ce97ffb46181b3854581c2975a2145795f1e405df773a1032beb1c432c357b117f42b60001b620084cf565b7fe04083eb622e3cb7d063f319076c83270c24acb409a3bc13abcfb36af60f8617898360405162002d1c9291906200f2a4565b60405180910390a162002d527f055f1868ce1a80620ebd5d82f98c6bb22c03a7ae06f07b580f7db1bab69b1cac60001b620084cf565b62002d807f463ca9795498663c32a2ec7374ab8f5d18bbe4f353ef3537276be3fa6d21b46f60001b620084cf565b81945050505050949350505050565b62002da462002d9d620084d2565b8262008fb7565b62002de6576040517f08c379a000000000000000000000000000000000000000000000000000000000815260040162002ddd906200f8f1565b60405180910390fd5b62002df3838383620090a2565b505050565b606062002e287f4e2ef7bea0cc39ba3dd80fe858068f233de791d5996da11cef3f3c7f9b55a92360001b620084cf565b62002e567f6148e05f714819ea97b1fbed153d533d731fe13edb6366669750f3369c47212c60001b620084cf565b62002e847fa8ae883236a7b3f72bdf7ffe6475be66d0a21f4edc63abb5f14044662a66dd1060001b620084cf565b62002e918484846200895f565b62002ebf7f4b399766a262551b758dd04b1047589616990489d5eb68a784aacc0b1a6566ce60001b620084cf565b62002eed7ff8b8637f452c3bcbb92006812d710b970adfdfbe2ce62c002d7bf0e320b07ec960001b620084cf565b6000601460008681526020019081526020016000206040518060c00160405290816000820154815260200160018201548152602001600282015481526020016003820160009054906101000a900460ff161515151581526020016003820160019054906101000a900460ff1615151515815260200160048201805462002f73906200fe17565b80601f016020809104026020016040519081016040528092919081815260200182805462002fa1906200fe17565b801562002ff25780601f1062002fc65761010080835404028352916020019162002ff2565b820191906000526020600020905b81548152906001019060200180831162002fd457829003601f168201915b50505050508152505090506200302b7f3d0bd84f60bd2f2910a0b3817fb2fb015f59a8e252048ce5d1fb09d9c999ac4560001b620084cf565b620030597f83798acebcf51a6b93f7d785b7bfe36273e38969cd6a2ede66de134029cd309660001b620084cf565b60008367ffffffffffffffff81111562003078576200307762010055565b5b604051908082528060200260200182016040528015620030a75781602001602082028036833780820191505090505b509050620030d87ff914bca6365ad50945af9523211ffd2df71d72cab2b85acb7c9ffc35f6fda59460001b620084cf565b620031067f2b0169f6cacfec4abd4291c96d16050a24f8a5411c4094d29ca5feb77cda453b60001b620084cf565b60005b84811015620031e957620031407fd78c4642d726c9ec0f063d6dce59bbe628fb7225255edd132bc77a938646d80960001b620084cf565b6200316e7ff19f8f35155a198980dd04c36b24636934786a5b4ec6e63741d67e784455add360001b620084cf565b60156000888152602001908152602001600020600082886200319191906200fbdb565b8152602001908152602001600020548360200151620031b191906200fcd1565b828281518110620031c757620031c662010026565b5b6020026020010181815250508080620031e0906200fe83565b91505062003109565b50620032187f65b0af7313082025fdd39c9373432ef5375efdba9e5602b0dc60e30dd9b7544560001b620084cf565b620032467f66dd4b73344baef48972d440e225666b9c0ab2aa1d2653f0c370c9934e473c5260001b620084cf565b80925050509392505050565b60006200325f8362005270565b8210620032a3576040517f08c379a00000000000000000000000000000000000000000000000000000000081526004016200329a906200f44b565b60405180910390fd5b600960008473ffffffffffffffffffffffffffffffffffffffff1673ffffffffffffffffffffffffffffffffffffffff168152602001908152602001600020600083815260200190815260200160002054905092915050565b60008060008060006060620033347fee6d207bbbdb919727dec7c6d4370953f87b843f348eec888a90e1260693ab5760001b620084cf565b620033627fe583ff23ccb93443f6d577ab6795f3c944b5df4206e345f2c7224f9d729820c860001b620084cf565b620033907fe03baa5402318be07757186aa7811c72d28b0f5a5650db1cd588881e0f86440d60001b620084cf565b6000601460008981526020019081526020016000209050620033d57f41167dfb88bb34e990466eb26d97a26a1374ac352b58996c24fed263317bb44a60001b620084cf565b620034037f820cad73ee0b97fe700d89f099f19606452c3d309ec8282a4158e5855649eee460001b620084cf565b8060030160019054906101000a900460ff169650620034457f5494cb49d0cba1424a281738d6eea4a0fb7a6397d4abce19309e5d7536f310f060001b620084cf565b620034737f84fcf1bfa7cb9c64f3fa7464930061a79038ac25dc113161fab4b943d426ec5e60001b620084cf565b80600001549550620034a87fa295556cd34d1b5d578a2e0bf4838b0be463b9af34db43c8d5d180e63debff6260001b620084cf565b620034d67fbd55544f8205a73fe15971b71c44b46a1d24daf95d997bb3fcc6c70e55fbd9be60001b620084cf565b806001015494506200350b7f83bc11e5c1d762c60e92143de0704a199fa31e3e8ff60021760a1055b8849c2460001b620084cf565b620035397fc94d56da62b240bef023b9396262e52466ffd59ffb19e3e0ecca96b544e1cba560001b620084cf565b806002015493506200356e7fd3df8d9eab693199fc47720dd6c4b0a745163af1d7e2eafb9159fcf69d0cc5ee60001b620084cf565b6200359c7fd1322e6be1c28b4f6969164ed23b896ca04369c30e8d289806c15c77341327d460001b620084cf565b8060030160009054906101000a900460ff169250620035de7f736b11253139788d31d12595818c9ac5b230cba0f04a463e705b36fdbdbf9efb60001b620084cf565b6200360c7f86c2fa4b4f098e7656f7aa5102d412059438576942710b15717e912cb3cad96360001b620084cf565b8060040180546200361d906200fe17565b80601f01602080910402602001604051908101604052809291908181526020018280546200364b906200fe17565b80156200369c5780601f1062003670576101008083540402835291602001916200369c565b820191906000526020600020905b8154815290600101906020018083116200367e57829003601f168201915b505050505091505091939550919395565b620036b7620043d2565b620036f9576040517f08c379a0000000000000000000000000000000000000000000000000000000008152600401620036f0906200f429565b60405180910390fd5b62003703620084d2565b73ffffffffffffffffffffffffffffffffffffffff166200372362005522565b73ffffffffffffffffffffffffffffffffffffffff16146200377c576040517f08c379a000000000000000000000000000000000000000000000000000000000815260040162003773906200f847565b60405180910390fd5b620037aa7f3af5983db72af33544e57a26dacf025dcb303e9667931ff0784d9bcccc9cc08a60001b620084cf565b620037d87f563f847b561bd9fe843ed1b15ed5df6e8e9e3a078d14f05737a52f449d4781e060001b620084cf565b620038067f868e858c94987fdac7d73ea19f80f3748055e57ad566e0e50833e7a1b9e5636b60001b620084cf565b620038106200931b565b565b6200382f838383604051806020016040528060008152506200631e565b505050565b82620038637f7e5c3d8c83dee5ce749240fd3b6755a52c8d074bfb8f462e25eb53d344c3c7cb60001b620084cf565b620038917f57422d86a4dafc426303c8a5d03ff92b683f2f4e9d3489e02e7d71d8e2e5b21260001b620084cf565b620038bf7f07c2e8549e0991604d037f2b009f2b8499284f42bde23f9d06e2dc0919bbc10a60001b620084cf565b620038ed7f0b3d5c704d85261ba5d45f338973d09a7863fd70cd3173ea80aae611dc49a62d60001b620084cf565b6012600082815260200190815260200160002060000160009054906101000a900473ffffffffffffffffffffffffffffffffffffffff1673ffffffffffffffffffffffffffffffffffffffff1662003944620084d2565b73ffffffffffffffffffffffffffffffffffffffff16146200399d576040517f08c379a000000000000000000000000000000000000000000000000000000000815260040162003994906200f66b565b60405180910390fd5b620039cb7fffb482167b9f5457e5deb5b1757c008e1f2eaf882d5486540699c140d32d2b9160001b620084cf565b620039f97f0d24876df608a1082d6e7d1f9148aa962f2227a898b08d2b6ea5eb32f912659c60001b620084cf565b62003a277f266d82808662b9ec0bff40f5093f3332630da2381800880901ce1e9cc3ddef9660001b620084cf565b62003a557fed0a19ae72b8350bf827b22c9f6fccabef487b492e11f20186c43d741ebc351360001b620084cf565b62003a837f522927fa884b2f65de8e14173226366b6bf06abdd5f55c79ee5efb20a97c966960001b620084cf565b62003ad283838080601f016020809104026020016040519081016040528093929190818152602001838380828437600081840152601f19601f82011690508083019250505050505050620093c6565b62003b007f688d27d1cb1bf082f3a804ed8ce24b3373f8eb6b75b32bfe404d35eaac849dd460001b620084cf565b62003b2e7f7b0a75e7c43e24118884fc987537c1ea8210410a342667d51f5aaefd7a0bde0e60001b620084cf565b828260126000878152602001908152602001600020600101919062003b559291906200d4d1565b5062003b847ff55826c7e8ded3a1e4e21bf49bc9b9d0dc3aa9816fe104a44973585646273ca360001b620084cf565b62003bb27f2844b5ff48989a06173b7ccd99b30706388c6a06252a76670b8d5955a2efe53060001b620084cf565b7fb252d91e8d424ba6f9f1647d21d7b0bbd8e2a3cbb318aaecb0d735fba9f62c7f84848460405162003be7939291906200f26e565b60405180910390a150505050565b6000806000606062003c2a7fa20d5f501b838d40216b5f506f6e36bd006b6b6064a1847a0b9ee33e76c8e55e60001b620084cf565b62003c587fd6c8c6b02596f5d91be4b2159bffe0348e6b5bb6dc3da67d42214e3f85e08ad760001b620084cf565b62003c867f0f39bc016bd9373fd080431db3b20a266af7b1735c86a05d890bee34a8343b7460001b620084cf565b600060126000878152602001908152602001600020905062003ccb7f23d98a22b05e2793fe2d3dbb91dc3cd5ac09f845257a2fea5e9aa07a42aeee7160001b620084cf565b62003cf97f05c7187758cf028869f18b0ca1699b96c531e4801d8bd941abeb700300ebe32160001b620084cf565b8060000160159054906101000a900460ff16945062003d3b7fd791bb023df81fab1f63622ef8a12307a4cd54ecaafdeab422f0a1ecc5c4d39a60001b620084cf565b62003d697f7ede418fb47e8bad0b3612cbd397bf42bedb868588e65228f37fa65bd1be4dc660001b620084cf565b8060000160009054906101000a900473ffffffffffffffffffffffffffffffffffffffff16935062003dbe7ffbd8a8cd64038291b08e106d97fb0130b265e2d6847facc39fb4d49d37a9560460001b620084cf565b62003dec7f3a0433f8de1524c9c63ee02a71e22f892519b1fc51870cdb73ba251398deae9a60001b620084cf565b8060000160149054906101000a900460ff16925062003e2e7f064fe4a6cb70fa113ea4f0d20113960aec31c57083bd04c66dd59591d9c1702b60001b620084cf565b62003e5c7fe305dd7f87d619d947c74b395fccf74ea9a2c4c589da11e99c4e82169d9303e160001b620084cf565b80600101805462003e6d906200fe17565b80601f016020809104026020016040519081016040528092919081815260200182805462003e9b906200fe17565b801562003eec5780601f1062003ec05761010080835404028352916020019162003eec565b820191906000526020600020905b81548152906001019060200180831162003ece57829003601f168201915b50505050509150509193509193565b8462003f2a7f0d8ca85e85db750602e813c5142fc288e80ac9d243b8ffb4d9596e3a2728688560001b620084cf565b62003f587f323131b5adabf990cbabbf1cef57102d634dca7ae51f1b38fcd5ae9203759dbe60001b620084cf565b62003f867fab1adf818247500cc0f067180a29a3b5270acc50c922097a56fec4c27e6032e060001b620084cf565b62003fb47f4b14cb0dadc877ac7383e83fa9ab933e6244819d5b98904a42e8f3eb5df1e24e60001b620084cf565b601260006014600084815260200190815260200160002060000154815260200190815260200160002060000160009054906101000a900473ffffffffffffffffffffffffffffffffffffffff1673ffffffffffffffffffffffffffffffffffffffff1662004021620084d2565b73ffffffffffffffffffffffffffffffffffffffff16146200407a576040517f08c379a000000000000000000000000000000000000000000000000000000000815260040162004071906200f7e1565b60405180910390fd5b620040a87fe9bebc7ccc6d40c18806cf08492774d8cd75a4a5f9720beb4224e1eb621abe4a60001b620084cf565b620040d67f53b5c7642178b178cb3904752f28a5e3779665fc50a7a55858e3653da52044c160001b620084cf565b620041047ff9db04762d604e91908e70be0d77ad05731d1a7aa2624496886ce46f35194ff660001b620084cf565b620041327fcebccf6f7f7d0e75e95dd49b5602b56b1b56952e3e137c2d2ef98eb90923eb9160001b620084cf565b620041607f6c6933d6b072c6a52ed44512f58289a3a78a55303ffe64eba2cf80801953e70a60001b620084cf565b6000601460008881526020019081526020016000209050620041a57f89429e69002de0a173ed6ea60c4c165ea77cbb6ec23ca8b53c777e98466a19b660001b620084cf565b620041d37f51b5126089fd1aec31eb2baafb413d48578e23164d86788733b9e0c70f12e18a60001b620084cf565b8581600101819055506200420a7f156d884a6770ec7c5c1387f7ff18ba5c72737de5f756c113c43e5249c210bda060001b620084cf565b620042387fd5f8f44dcfdf90a11bd424abc400576042ef619c67d18d2b232e0e6281d304c860001b620084cf565b8481600201819055506200426f7f573e7541e938b0109ba1186b86335da7eed96c3f2307de4be78f444918deec1060001b620084cf565b6200429d7f53e6bd727dff9e5f30811af263373a07fda52efd7ec0888e43695edf92dc9a1060001b620084cf565b8383826004019190620042b29291906200d4d1565b50620042e17f98ec3fc6f6048adffedef06c544ffbeeac433247e9e1cad337c59ca7574219eb60001b620084cf565b6200430f7fa1ea629a6c94d0cf3c00bb4ef26d25beb7f37669b817c25e81f382e7b38a61dd60001b620084cf565b7f0cdd46b7a456c1e6514d3c451f487eb2ea5039ac3f54fc210e98ce69ecdb00758787878787604051620043489594939291906200f345565b60405180910390a150505050505050565b60006200436562001935565b8210620043a9576040517f08c379a0000000000000000000000000000000000000000000000000000000008152600401620043a0906200f935565b60405180910390fd5b600b8281548110620043c057620043bf62010026565b5b90600052602060002001549050919050565b6000600d60009054906101000a900460ff16905090565b80620044187f0d8ca85e85db750602e813c5142fc288e80ac9d243b8ffb4d9596e3a2728688560001b620084cf565b620044467f323131b5adabf990cbabbf1cef57102d634dca7ae51f1b38fcd5ae9203759dbe60001b620084cf565b620044747fab1adf818247500cc0f067180a29a3b5270acc50c922097a56fec4c27e6032e060001b620084cf565b620044a27f4b14cb0dadc877ac7383e83fa9ab933e6244819d5b98904a42e8f3eb5df1e24e60001b620084cf565b601260006014600084815260200190815260200160002060000154815260200190815260200160002060000160009054906101000a900473ffffffffffffffffffffffffffffffffffffffff1673ffffffffffffffffffffffffffffffffffffffff166200450f620084d2565b73ffffffffffffffffffffffffffffffffffffffff161462004568576040517f08c379a00000000000000000000000000000000000000000000000000000000081526004016200455f906200f7e1565b60405180910390fd5b620045967fe9bebc7ccc6d40c18806cf08492774d8cd75a4a5f9720beb4224e1eb621abe4a60001b620084cf565b620045c47f53b5c7642178b178cb3904752f28a5e3779665fc50a7a55858e3653da52044c160001b620084cf565b620045f27f9c8f4ddab98aca7a1b322919d89410fa3a7f7c836e0350647b404a0ca4dafc9760001b620084cf565b620046207f96ce67d0a06a84d7fb67211fbb8ab3664f7882c05c69eeb2fc97ab5dcc5b856f60001b620084cf565b6200464e7f44a89aaac010c487bcee530af292d7bc61f873bd86fcdc3bcf661d918de2a93760001b620084cf565b60016014600084815260200190815260200160002060030160006101000a81548160ff021916908315150217905550620046ab7f5226b5b0a4c7b73b3bf7d5c106ad16e71921b113b568c590b487ee7481f2496460001b620084cf565b620046d97f1c4929361a2c52b686bda259b3305703bf75842e3b37160c0e00791451aa63e960001b620084cf565b7ff95c289b48e2e0dc7c8f639934e871675404b92cf01f600493194c43e7949e858260016040516200470d9291906200f16e565b60405180910390a15050565b62004723620043d2565b1562004766576040517f08c379a00000000000000000000000000000000000000000000000000000000081526004016200475d906200f6af565b60405180910390fd5b620047947f906984ec4de4c25c4cf49c51c9d4023b81f62bf88871ff871573af3903cf13d160001b620084cf565b620047c27f5fbb6d2f41af099780e144c0cd97bde5d3de3129fb1b89442e0f654401f2ed4a60001b620084cf565b620047f07f0cc8c8fd00d846de85afc75fdf2775226b2fdf18be9ba29fb47c8b929d429c3960001b620084cf565b6000869050620048237ff3d93e6e6da1d12a3f06487ef5bbf9fdca5218cbfe92c6d340d7d79ff841682e60001b620084cf565b620048517fdcda988466c060cb49b98a5e3968d4422c622943c2b3d953b3871517da4972bb60001b620084cf565b6200485c81620094f6565b6200488a7f1c91abc22c054dfad065cc3c04cacad13c5036698fa102a38d29a87b09b4d1a560001b620084cf565b620048b87fc0e9372ffecec2199f95768f949730ee0b1fe49a0426ec5e19caed86192de84760001b620084cf565b620048dd8160405180606001604052806022815260200162010f916022913962009645565b6200490b7f7595b1dd944b4c73fbeb3e40c525a9065b739b5e0230eeb4e3dfbcef2c43461560001b620084cf565b620049397f3b252fedaa065c3a04ffeb654f2f9bc61556662419d2f970a49d1efa1eca5d9060001b620084cf565b6200498883838080601f016020809104026020016040519081016040528093929190818152602001838380828437600081840152601f19601f82011690508083019250505050505050620093c6565b620049b67f9becaaa7ee9c99bd929cae6785b71e724b0eb80c851ec959487180889414709960001b620084cf565b620049e47f4843ef00e28c36e99bfff9d980f0891bdc417b36f45ca3a864452c49209925b660001b620084cf565b6000818484604051602001620049fd939291906200ec7c565b60405160208183030381529060405280519060200120905062004a437ff5c3bb1f733987d17ecf60cbfde42be4a7e3a5888a93e1109e128932ab27b1a760001b620084cf565b62004a717fe07b7603a06445651f1e77c00c946adcdefb3cce42d7d11b07da9c47acfbbca160001b620084cf565b62004a9f7f2c30a78e5ff2c9677d0983c86de5360ab192a44e81c478fe8d54764c9dc32e3c60001b620084cf565b6014600082815260200190815260200160002060030160019054906101000a900460ff161562004b06576040517f08c379a000000000000000000000000000000000000000000000000000000000815260040162004afd906200f6f3565b60405180910390fd5b62004b347fc1a7b7cbcb95e52107c9a068ab7581785e34b2368269fdc3b992032571134bfe60001b620084cf565b62004b627f24bece0f564cf9e0e0023c2089d7a6ffa9528d59fbbde4c21cf95a8d32ffd1d760001b620084cf565b62004b907f6bf14857bb9ec4151300fd042eee61e973d281bac60d52b38ac528fec6a5be4360001b620084cf565b6040518060c00160405280838152602001888152602001878152602001861515815260200160011515815260200185858080601f016020809104026020016040519081016040528093929190818152602001838380828437600081840152601f19601f820116905080830192505050505050508152506014600083815260200190815260200160002060008201518160000155602082015181600101556040820151816002015560608201518160030160006101000a81548160ff02191690831515021790555060808201518160030160016101000a81548160ff02191690831515021790555060a082015181600401908051906020019062004c959291906200d562565b5090505062004cc77f7981993a3110a228dbeb3a595c5de5e365ae4c57b140377c71c0a4dd60fca92160001b620084cf565b62004cf57f2ea38f6922444006f2f6124c2a98d313216960bbd14d8fb251f5acdf0b0abcee60001b620084cf565b6013600083815260200190815260200160002081908060018154018082558091505060019003906000526020600020016000909190919091505562004d5d7f18260322df310b40f53cf60aa013db3cf20bf9f983ce96ddee3bc1a34a020d3660001b620084cf565b62004d8b7f696f0c3c4715bfb345d8a0a6250f26c00ded96ea32cde438a25fe1cb8002686a60001b620084cf565b7f335958c15e70938d2bfae6c90457d7732a3e398f2423c491dc6503b67334745a8183898989898960405162004dc897969594939291906200f1f8565b60405180910390a15050505050505050565b6000806004600084815260200190815260200160002060009054906101000a900473ffffffffffffffffffffffffffffffffffffffff169050600073ffffffffffffffffffffffffffffffffffffffff168173ffffffffffffffffffffffffffffffffffffffff16141562004e86576040517f08c379a000000000000000000000000000000000000000000000000000000000815260040162004e7d906200f737565b60405180910390fd5b80915050919050565b6000806000806000606062004ec77ffa2baf43aa78bee73869c63f04e0a07da041bdc8bbf8e1ff22546263425222de60001b620084cf565b62004ef57f705998bcdd1afff6d251732c2543180091eefd822d34b3690171d38c18fd257a60001b620084cf565b62004f237f0778fd8e0a23f5a971883ae2d9b91380c8fd2ba6a133f0ca48d9fe090d13409e60001b620084cf565b62004f446016600089815260200190815260200160002060000154620032fc565b95509550955095509550955091939550919395565b8062004f887f7e5c3d8c83dee5ce749240fd3b6755a52c8d074bfb8f462e25eb53d344c3c7cb60001b620084cf565b62004fb67f57422d86a4dafc426303c8a5d03ff92b683f2f4e9d3489e02e7d71d8e2e5b21260001b620084cf565b62004fe47f07c2e8549e0991604d037f2b009f2b8499284f42bde23f9d06e2dc0919bbc10a60001b620084cf565b620050127f0b3d5c704d85261ba5d45f338973d09a7863fd70cd3173ea80aae611dc49a62d60001b620084cf565b6012600082815260200190815260200160002060000160009054906101000a900473ffffffffffffffffffffffffffffffffffffffff1673ffffffffffffffffffffffffffffffffffffffff1662005069620084d2565b73ffffffffffffffffffffffffffffffffffffffff1614620050c2576040517f08c379a0000000000000000000000000000000000000000000000000000000008152600401620050b9906200f66b565b60405180910390fd5b620050f07fffb482167b9f5457e5deb5b1757c008e1f2eaf882d5486540699c140d32d2b9160001b620084cf565b6200511e7f0d24876df608a1082d6e7d1f9148aa962f2227a898b08d2b6ea5eb32f912659c60001b620084cf565b6200514c7fa99e0d684fc267eabc833e92f559314f4a63b95c2e3f06b52510f1d1f080fbcd60001b620084cf565b6200517a7ff0f9682f10b854ce2ebf2b657609eaefa76f2fb14b4035687b1a5c016b5025e360001b620084cf565b620051a87feca128735d3e67ef89985ea1b55777520573f68f75b6192f5cd13f495b603b7b60001b620084cf565b60006012600084815260200190815260200160002060000160156101000a81548160ff021916908315150217905550620052057fad6f7ccfa7835ca8587e9d91f554fbc5fd0eaad86b82e09240f0fbe08195942160001b620084cf565b620052337fa82a4576294831b0f1fbd5a83183e4842bdca498fba8934b46e09a992805d7ad60001b620084cf565b7f9cb52f05776b0f321eb9ca8c9e1b26b978036072417bf384bd406189f43864f8826040516200526491906200f104565b60405180910390a15050565b60008073ffffffffffffffffffffffffffffffffffffffff168273ffffffffffffffffffffffffffffffffffffffff161415620052e4576040517f08c379a0000000000000000000000000000000000000000000000000000000008152600401620052db906200f715565b60405180910390fd5b600560008373ffffffffffffffffffffffffffffffffffffffff1673ffffffffffffffffffffffffffffffffffffffff168152602001908152602001600020549050919050565b62005335620084d2565b73ffffffffffffffffffffffffffffffffffffffff166200535562005522565b73ffffffffffffffffffffffffffffffffffffffff1614620053ae576040517f08c379a0000000000000000000000000000000000000000000000000000000008152600401620053a5906200f847565b60405180910390fd5b620053ba6000620097e3565b565b620053c6620043d2565b1562005409576040517f08c379a000000000000000000000000000000000000000000000000000000000815260040162005400906200f6af565b60405180910390fd5b62005413620084d2565b73ffffffffffffffffffffffffffffffffffffffff166200543362005522565b73ffffffffffffffffffffffffffffffffffffffff16146200548c576040517f08c379a000000000000000000000000000000000000000000000000000000000815260040162005483906200f847565b60405180910390fd5b620054ba7f65c7c98d628e26e2c8e637527bd6b665a0bba59ae711a1209d7d7d4dbdc7050560001b620084cf565b620054e87ff6c33b42b2d71541f20b4f24d2da6028c587b4c342aee9ae45e5bc895726ef6860001b620084cf565b620055167f8e232fbec081f086b878a12d8c65defe83398a1ba54fc2357f203636797959c460001b620084cf565b62005520620098a9565b565b6000600d60019054906101000a900473ffffffffffffffffffffffffffffffffffffffff16905090565b816200557b7f7e5c3d8c83dee5ce749240fd3b6755a52c8d074bfb8f462e25eb53d344c3c7cb60001b620084cf565b620055a97f57422d86a4dafc426303c8a5d03ff92b683f2f4e9d3489e02e7d71d8e2e5b21260001b620084cf565b620055d77f07c2e8549e0991604d037f2b009f2b8499284f42bde23f9d06e2dc0919bbc10a60001b620084cf565b620056057f0b3d5c704d85261ba5d45f338973d09a7863fd70cd3173ea80aae611dc49a62d60001b620084cf565b6012600082815260200190815260200160002060000160009054906101000a900473ffffffffffffffffffffffffffffffffffffffff1673ffffffffffffffffffffffffffffffffffffffff166200565c620084d2565b73ffffffffffffffffffffffffffffffffffffffff1614620056b5576040517f08c379a0000000000000000000000000000000000000000000000000000000008152600401620056ac906200f66b565b60405180910390fd5b620056e37fffb482167b9f5457e5deb5b1757c008e1f2eaf882d5486540699c140d32d2b9160001b620084cf565b620057117f0d24876df608a1082d6e7d1f9148aa962f2227a898b08d2b6ea5eb32f912659c60001b620084cf565b6200573f7f04ba4fbc8d1bc1fa2f01e46918e63100401af7470795c03647a129f20f4adc0860001b620084cf565b6200576d7fbd67e65136cce496bd24c069824a009f35cc7ab02f2551267f7a1d9c95ca605e60001b620084cf565b6200579b7ff638532e257b7a15da2a31ac2a5588f13f0a7436b21e783fa558df4c3f69993360001b620084cf565b620057ee83601160008573ffffffffffffffffffffffffffffffffffffffff1673ffffffffffffffffffffffffffffffffffffffff1681526020019081526020016000206200995590919063ffffffff16565b506200581d7fc68050a50bcfdec832463bd9ce52eb4131c48420209bcc9473ba7808967e96bf60001b620084cf565b6200584b7fee2f327f930b4b7ab791ba0c4e44d75f260b21809cc93a7cb599ab97e542a5b660001b620084cf565b620058d483601160006012600088815260200190815260200160002060000160009054906101000a900473ffffffffffffffffffffffffffffffffffffffff1673ffffffffffffffffffffffffffffffffffffffff1673ffffffffffffffffffffffffffffffffffffffff1681526020019081526020016000206200996e90919063ffffffff16565b50620059037ffcc7db877178d8586c6fc0dc04b83bdd862ccaa32b5c42d0abf65e26311ad6be60001b620084cf565b620059317f5d0ead3243e4c1a2c1bc58fbedd1bf74f569e95c6309c49e09afc5cf3d5280e560001b620084cf565b816012600085815260200190815260200160002060000160006101000a81548173ffffffffffffffffffffffffffffffffffffffff021916908373ffffffffffffffffffffffffffffffffffffffff160217905550620059b47f3bd2109d496f8d06d2013cc4f5ac49fed43af131d2df806b72905ee229ffffae60001b620084cf565b620059e27f38a64a92d79cacd7f6a0d5e12d6853a2d8197d290d09205acd3ca722a1a3f43560001b620084cf565b8173ffffffffffffffffffffffffffffffffffffffff166012600085815260200190815260200160002060000160009054906101000a900473ffffffffffffffffffffffffffffffffffffffff1673ffffffffffffffffffffffffffffffffffffffff167f11a520c5c4bfade8b450399ea67096dba36478d23d9a45f02e32989cfe307dde8560405162005a7791906200f104565b60405180910390a3505050565b606062005ab47fe44be2fbe4b78f444eefe5ae94e3f2708ff05d23cc0e76f9654b201a719519a560001b620084cf565b62005ae27f5d205a4597e1f967261d3eca34da85fcbd927fe605323f4844594296555c967a60001b620084cf565b62005b107f2cd61237c583acd435840070ae2fefa8e2142e61fab7a0fc1d3c21f40a697f6c60001b620084cf565b6013600083815260200190815260200160002080548060200260200160405190810160405280929190818152602001828054801562005b6f57602002820191906000526020600020905b81548152602001906001019080831162005b5a575b50505050509050919050565b60606003805462005b8c906200fe17565b80601f016020809104026020016040519081016040528092919081815260200182805462005bba906200fe17565b801562005c0b5780601f1062005bdf5761010080835404028352916020019162005c0b565b820191906000526020600020905b81548152906001019060200180831162005bed57829003601f168201915b5050505050905090565b8062005c447f0d8ca85e85db750602e813c5142fc288e80ac9d243b8ffb4d9596e3a2728688560001b620084cf565b62005c727f323131b5adabf990cbabbf1cef57102d634dca7ae51f1b38fcd5ae9203759dbe60001b620084cf565b62005ca07fab1adf818247500cc0f067180a29a3b5270acc50c922097a56fec4c27e6032e060001b620084cf565b62005cce7f4b14cb0dadc877ac7383e83fa9ab933e6244819d5b98904a42e8f3eb5df1e24e60001b620084cf565b601260006014600084815260200190815260200160002060000154815260200190815260200160002060000160009054906101000a900473ffffffffffffffffffffffffffffffffffffffff1673ffffffffffffffffffffffffffffffffffffffff1662005d3b620084d2565b73ffffffffffffffffffffffffffffffffffffffff161462005d94576040517f08c379a000000000000000000000000000000000000000000000000000000000815260040162005d8b906200f7e1565b60405180910390fd5b62005dc27fe9bebc7ccc6d40c18806cf08492774d8cd75a4a5f9720beb4224e1eb621abe4a60001b620084cf565b62005df07f53b5c7642178b178cb3904752f28a5e3779665fc50a7a55858e3653da52044c160001b620084cf565b62005e1e7faf109a1a00a2aa699def18813eb6675029ccbaf604c84dffe8561ac28b5d367860001b620084cf565b62005e4c7f346acce5b201f0a79552c0fa1d01dd697e9a500c743b538e221fef3a90fe41d360001b620084cf565b62005e7a7f19fa2fc292d00fadb76aeb2cf24e03a2501e88bb953829fd6c08365ce22b3f5d60001b620084cf565b60006014600084815260200190815260200160002060030160006101000a81548160ff02191690831515021790555062005ed77f2e6c4c794d69c7ead7dfccb4901c05d7e11d0e09094892ff0c1ba650c76c7a4a60001b620084cf565b62005f057f34c78d523d245f641531c0fa9861b7ded84877ee850360ffd3a403c194d46f5a60001b620084cf565b7ff95c289b48e2e0dc7c8f639934e871675404b92cf01f600493194c43e7949e8582600060405162005f399291906200f16e565b60405180910390a15050565b6362155d6e81565b62005f6362005f5b620084d2565b838362009987565b5050565b8062005f967f7e5c3d8c83dee5ce749240fd3b6755a52c8d074bfb8f462e25eb53d344c3c7cb60001b620084cf565b62005fc47f57422d86a4dafc426303c8a5d03ff92b683f2f4e9d3489e02e7d71d8e2e5b21260001b620084cf565b62005ff27f07c2e8549e0991604d037f2b009f2b8499284f42bde23f9d06e2dc0919bbc10a60001b620084cf565b620060207f0b3d5c704d85261ba5d45f338973d09a7863fd70cd3173ea80aae611dc49a62d60001b620084cf565b6012600082815260200190815260200160002060000160009054906101000a900473ffffffffffffffffffffffffffffffffffffffff1673ffffffffffffffffffffffffffffffffffffffff1662006077620084d2565b73ffffffffffffffffffffffffffffffffffffffff1614620060d0576040517f08c379a0000000000000000000000000000000000000000000000000000000008152600401620060c7906200f66b565b60405180910390fd5b620060fe7fffb482167b9f5457e5deb5b1757c008e1f2eaf882d5486540699c140d32d2b9160001b620084cf565b6200612c7f0d24876df608a1082d6e7d1f9148aa962f2227a898b08d2b6ea5eb32f912659c60001b620084cf565b6200615a7ff34d514e2b2c07507fb310df29f91c0bb932136187acfb3f01ae4a5dc519c5f560001b620084cf565b620061887f4d818ff5994787ea0c95111df6e13114799174cca95d47ba3961c8f70c993f3160001b620084cf565b620061b67f138ac686474114fa5c8426f829bdcc478fc28ef4743b160a61b097e74f58e04360001b620084cf565b60016012600084815260200190815260200160002060000160146101000a81548160ff021916908315150217905550620062137f445df5a6744d068e7d26f387c9ba50d02236c8362bfe9074b68064a6fcf14af960001b620084cf565b620062417f22565555c15d504279d5df5fd2cfad1a3a5aaf89f68448db74ecdff2ccc443b460001b620084cf565b7f5c33859dfe8722791b5d72ad942a0895181f8a694288ec429394f620de150320826001604051620062759291906200f16e565b60405180910390a15050565b6060620062b17f62cbce4e719bb416cc940a3938120c852ad7739a15f6a7bce39eed4c703f08a160001b620084cf565b620062df7fe1061e2ed63440380b37310a99f49d8a150414c52676100dce9a95cad340315d60001b620084cf565b6200630d7f4de0893a42bfba3168ba4b354edaa5d7478f7357afc6f579c0f21e284818ff2860001b620084cf565b62006319600f62008948565b905090565b620063336200632c620084d2565b8362008fb7565b62006375576040517f08c379a00000000000000000000000000000000000000000000000000000000081526004016200636c906200f8f1565b60405180910390fd5b620063838484848462009af9565b50505050565b6060620063b97f031a677de74d4acc0638873fe986a4a63a3d8bc0924b283fe5fee4d358740b4160001b620084cf565b620063e77f9ac4c89faa533d97a60b0a3e3f75b3a48c7e72185bcf4ecb74e8231b22674ac160001b620084cf565b620064157f8ae39230b51937d542e02b87e028a5ab0192ac74ad9f2fa11ca4ccd2a55b33b760001b620084cf565b60006017600085815260200190815260200160002090506200645a7f2aeff89b27345a596a4ad151056ebc3b91aa29870c8308d88ddae33d1cfa534160001b620084cf565b620064887ff0c45bb5f93a42f8d4244c84b1409b3b7fc1940434767dd014dad9be8a0b232d60001b620084cf565b6000620064b87f8ba9dfdfb04ba5497b6163426fd6c542f8acc03452bf7923414c6715d81dfa2560001b620084cf565b620064e67f508f432a963a811a7db29be5dcab2f05d9531fd7a3566d3088c4ce94c86824c260001b620084cf565b60005b82805490508110156200666657620065247f130ce9d9f444a20d8ea41ba545e52933a2bba2435491d65c3ccc3080c094bc8560001b620084cf565b620065527fead0073d52c85120d84431cc3e79287fd9ca558f518babff22400d0e1ad204cc60001b620084cf565b8460028111156200656857620065676200ff99565b5b6200659384838154811062006582576200658162010026565b5b906000526020600020015462001634565b6002811115620065a857620065a76200ff99565b5b14156200662157620065dd7fb1f1521637c92ad7c34e7bce3f4e7d19ab137c24c99d3dc269f0cdae38cd331d60001b620084cf565b6200660b7f87779018c161b44d875170e1ba9ae04b14b4af0b1f9882098d669061e482d26360001b620084cf565b818062006618906200fe83565b92505062006650565b6200664f7f6a80635ef059cc8d808185f767b4f11e111977f708f593ccdc6938bb21bc7b5460001b620084cf565b5b80806200665d906200fe83565b915050620064e9565b50620066957f83e6e6d41a251a72bbd86b4b87efd6bd32364ff77eaabcf470819bbab65da83660001b620084cf565b620066c37f8317fd47292eaac68985f659ed3feaa954abc7fd65bce512e0b8a408137dbc6560001b620084cf565b60008167ffffffffffffffff811115620066e257620066e162010055565b5b604051908082528060200260200182016040528015620067115781602001602082028036833780820191505090505b509050620067427f4b6da3ce3692d558c59d040986bbc3977d5de544112cfb3bef65c3371bff73a360001b620084cf565b620067707f066e828bad94c86fdd4ab07c93072a0bf4e40f83814ab54f462c14a4925a823760001b620084cf565b6000620067a07fea5b95d6e119ccfaa82d5f93d1ff6341a51d4d7f28dfc5804447ebd5c29a3ec260001b620084cf565b620067ce7ffe07476aee432a99a5dd736f09abc475b38ba3b9945cd3e40d16d94f07f68b4f60001b620084cf565b60005b8480549050811015620069ed576200680c7f0478df3a02346a1e2b3e6caf7e49e4fa62cef913b421fd218505556a6343fdc860001b620084cf565b6200683a7fd26463f4cbecff89144fe3441eb47fe9b6d09f20b4db7d7da5150ced967ef0a960001b620084cf565b86600281111562006850576200684f6200ff99565b5b6200687b8683815481106200686a576200686962010026565b5b906000526020600020015462001634565b600281111562006890576200688f6200ff99565b5b1415620069a857620068c57f93034c239fd0bb0ef5cf28b1e570bb005ecd2cc8fdaa55c16b9c3e465f5bb7ab60001b620084cf565b620068f37f6f72226ab0d94442467971fc0d4c0d0edce1ed794b8d28bd59ac825e6519458960001b620084cf565b620069217f5d8841347578c1c090911f0e6f0e6fe38144056b6951f77cb453ad0738ede2e160001b620084cf565b84818154811062006937576200693662010026565b5b906000526020600020015483838151811062006958576200695762010026565b5b602002602001018181525050620069927fcb9ca20728af47c9f9d8720c29ed550e275e5956a6fb2fd4689754ecfd5e7d6860001b620084cf565b81806200699f906200fe83565b925050620069d7565b620069d67fdd0b5ac7fa8a80a938b36ebba5b7f26cb0f52bda5bec4691ded8962e03c8524260001b620084cf565b5b8080620069e4906200fe83565b915050620067d1565b5062006a1c7f3eac01215a8f4eaf77fdf42b0844b2fec3a44c94e6b15fd072865c180cb8b65060001b620084cf565b62006a4a7f421485bb22bd51648daab6e3c84fbc89931614697ae65d6d169bee4299cb662f60001b620084cf565b8194505050505092915050565b606062006a877ff01d43f4e02f7f62b8e4ea814e1425768383a6fdac4c53e2208c87edf9a02e6360001b620084cf565b62006ab57ff209313619978ad3d725710c2edd3e00526503087a6cbb583efb3672d7ebfd7360001b620084cf565b62006ae37fdcfa41b13487d3bf4bbf35a1d0a158605d2a6ee47d0ea52d6b32b6299d0829be60001b620084cf565b62006aee8262009b5c565b9050919050565b6040518060400160405280600f81526020017f68747470733a2f2f77696e2e736f2f000000000000000000000000000000000081525081565b62006b38620043d2565b1562006b7b576040517f08c379a000000000000000000000000000000000000000000000000000000000815260040162006b72906200f6af565b60405180910390fd5b62006ba97f536c4f394a3ccda9c39553d06b5e481618576957c5727479aac7a695a2e930da60001b620084cf565b62006bd77fad2a8583f9347d6718b4e09eea0f18e8c9023950ae268cb899ea6f6ef189fb4360001b620084cf565b62006c057f3b87d74c0253710ebff7cac275381ec6f7e61b0fb8ee72819ff9b6833228862a60001b620084cf565b62006c14838383600062007876565b505050565b62006c477f58d32751656d66eaf76670a48330bad4c7391310538cd8620d7582fe50034d7a60001b620084cf565b62006c757f92c1aab44b628b38eaa1fe6c22aa0c4caf4035cf1eeaaaa51f1c350bbeda3f4960001b620084cf565b62006ca37f5963f19ce445eebe2cc118f2aa5a78c81c4c2dbef2eec868f85cbcbc82680aee60001b620084cf565b600062006cb08262009cc5565b905062006ce07fa31170d26bcf7ec36ede85d5936ccaba630d7de99a9320ee0a350db95453e90160001b620084cf565b62006d0e7fb82433715bd6afeb3a14432bd07dfb67edabd2e4571787ff9c6629bb07e77e3660001b620084cf565b600060166000858152602001908152602001600020905062006d537f630a79403d42bcb7a7580ecfe00ae5a892335a33577660fd757927263177097860001b620084cf565b62006d817fb6e7210e957f4e84a96736c6af9b7e6bec4665d359eb5274b759623efdb1991660001b620084cf565b60008160000154905062006db87f82659fc8514af5a69530a65cfad0fe235390bbf476db404e4a86d4f7ae16958d60001b620084cf565b62006de67fe7fe9e9ee6481233984bb58ac40b94c59f729be4b81b288f998391ae56a6761560001b620084cf565b62006e147f8293e1e0098fd0bc09f6a2a4e777143c39dcdec3a9192857dc0bb1eea8d46bb260001b620084cf565b6000801b81141562006e5d576040517f08c379a000000000000000000000000000000000000000000000000000000000815260040162006e54906200fa23565b60405180910390fd5b62006e8b7f9fe876c51b81ec78c8d6e8ee6e5c731e2133db106735a4611e13881af3aabb8a60001b620084cf565b62006eb97fc7a6c471cb6114d1b97907f520c0715e98ddd73cc6031eed125ec380ac312a0460001b620084cf565b62006ee77f71e49b501a3de68d4eb0d9b955138ba9416cfd8141c39548e8dd5004af3c13ee60001b620084cf565b62006f157fcfd66d6a8462b0ab2e2d7004798ccb429806fdf9c20f41c64cbf8779bb5e863860001b620084cf565b8160040160009054906101000a900460ff161562006f6a576040517f08c379a000000000000000000000000000000000000000000000000000000000815260040162006f61906200f5c1565b60405180910390fd5b62006f987f6bfb7b4e5c0b1a3dfcfac3a05d1b7fff2131b049847e4545473756206a94483260001b620084cf565b62006fc67f7e1d17fede51e613022c3a6cd070172a71fd40b5bc5211ddc217bb16d29884e360001b620084cf565b62006ff47fb603ab06af90b6667a5e5b6a63db807e1caad290fc5daea9acd42e3cc6e2839760001b620084cf565b6000601460008381526020019081526020016000209050620070397f6dae7dcdb5aafcd74fb082155d05416a0440c4a6af40b3aace6c8bd42eea909e60001b620084cf565b620070677f26ba52e8bc71772327bbed01c62664dad6b6110e2bfcec9fef969e7b31ca6a8760001b620084cf565b600060126000836000015481526020019081526020016000209050620070b07faabf9fe911390fe5e8fb31fe86eb1ca070e413766c9ffe7c21dd8c2187bc8f7960001b620084cf565b620070de7f565b7c339877455c139f6b84fc0c8191717b87bc4ea422f801fbe22fb2e419fe60001b620084cf565b6200710c7fba456cf0b30d9f30afd545003542df32eda3a7525175ea02b0ff13fede84d7ce60001b620084cf565b620071178762004dda565b73ffffffffffffffffffffffffffffffffffffffff168573ffffffffffffffffffffffffffffffffffffffff161480620071a057508060000160009054906101000a900473ffffffffffffffffffffffffffffffffffffffff1673ffffffffffffffffffffffffffffffffffffffff168573ffffffffffffffffffffffffffffffffffffffff16145b620071e2576040517f08c379a0000000000000000000000000000000000000000000000000000000008152600401620071d9906200f913565b60405180910390fd5b620072107f93f9c853be2a1ecc23c4317cb65ed29e715709524f72dcbc6eb79a7c0d89bbb460001b620084cf565b6200723e7f8aa71c488d08b9309d8e3378c3e701bd56834f876e36902598ab7c11fb3c99b560001b620084cf565b6200726c7fd255a53160d0603fd1e0b3ec7e00b59064fed21920f970c0c881aaf8ba395cec60001b620084cf565b6200729a7fc61c8ef4b8a5384e1fe3f939ea69e8c1882af9d0b22254338cd6f46904e90d7360001b620084cf565b856020015173ffffffffffffffffffffffffffffffffffffffff16620072bf620084d2565b73ffffffffffffffffffffffffffffffffffffffff161462007318576040517f08c379a00000000000000000000000000000000000000000000000000000000081526004016200730f906200f88b565b60405180910390fd5b620073467fda4766bb7e468e6fd91664ae555792ef986591db6e8503af13ad0b014987d0c660001b620084cf565b620073747f4763b5fa43f48a846b47f69626678ed31df0a004b1ffb6980868e8155d730e1b60001b620084cf565b620073a27f9f79b4250869fd6344e18f12ce45c9096d594a8bb21f44058711259dbcc86e8960001b620084cf565b600082600201549050620073d97fc20386104dfa9e3712f91f16b14d557dea91addefb669c922ea140aead187b8560001b620084cf565b620074077ff52abd21cd9c750a5f5f0bfb08d4a95ea01c9fdeb0f3d2a3a21a4a518ef08c2e60001b620084cf565b60018560040160006101000a81548160ff021916908315150217905550620074527f9d30d030624d9c72dcf7d6ca2463ce2c8d86afee17768a48025d2b46e6be2ed560001b620084cf565b620074807fe7492427e152edfc30837eda3f2f586f1c9ce75a9b2c324bd1513764680d509060001b620084cf565b620074bd6200748f8962004dda565b8360000160009054906101000a900473ffffffffffffffffffffffffffffffffffffffff1683878c62009ff8565b620074eb7f42a498ea469de43a19c7423037638790bc06bb12d3a93b5bd4e9941cc02eb65b60001b620084cf565b620075197f41e64aa96cefcf755021666d1562aeac26340e1b107367adfcfa2535a8ea0e8b60001b620084cf565b7fdf06c27528e294967ba5e32e69b9c5fe102a58c699c44740c2c4c6afc7192535886040516200754a91906200fa45565b60405180910390a15050505050505050565b6000600760008473ffffffffffffffffffffffffffffffffffffffff1673ffffffffffffffffffffffffffffffffffffffff16815260200190815260200160002060008373ffffffffffffffffffffffffffffffffffffffff1673ffffffffffffffffffffffffffffffffffffffff16815260200190815260200160002060009054906101000a900460ff16905092915050565b60146020528060005260406000206000915090508060000154908060010154908060020154908060030160009054906101000a900460ff16908060030160019054906101000a900460ff16908060040180546200764d906200fe17565b80601f01602080910402602001604051908101604052809291908181526020018280546200767b906200fe17565b8015620076cc5780601f10620076a057610100808354040283529160200191620076cc565b820191906000526020600020905b815481529060010190602001808311620076ae57829003601f168201915b5050505050905086565b620077047f1c55e4a9d3631727c0ddd3ed7f6ca8f5e5d0cff237138ba3e0844a6b89b4bfea60001b620084cf565b620077327f0c396ed9a5e1993a2429cf13f982cc5deb02a4627c6ceb2b2dfee49223610f0560001b620084cf565b620077607fc9db3a82addf4d5ef0fa6b152dd3b4c1908ca79091d49914ed4dc60e3340b4ae60001b620084cf565b6200776d8383836200a1ac565b505050565b6200777c620084d2565b73ffffffffffffffffffffffffffffffffffffffff166200779c62005522565b73ffffffffffffffffffffffffffffffffffffffff1614620077f5576040517f08c379a0000000000000000000000000000000000000000000000000000000008152600401620077ec906200f847565b60405180910390fd5b600073ffffffffffffffffffffffffffffffffffffffff168173ffffffffffffffffffffffffffffffffffffffff16141562007868576040517f08c379a00000000000000000000000000000000000000000000000000000000081526004016200785f906200f48f565b60405180910390fd5b6200787381620097e3565b50565b62007880620043d2565b15620078c3576040517f08c379a0000000000000000000000000000000000000000000000000000000008152600401620078ba906200f6af565b60405180910390fd5b620078f17f427dacce23682bfb2bc4de0f5ba2f5c0455403f7dd504a3f0bdff535f412074d60001b620084cf565b6200791f7f1ec6455db7db4a3ccf75572bdd6469bde88f03f6fdac249c0e8378ce75a0a6a460001b620084cf565b6200794d7fd05c32520ea24f6f8f2fd82577b2e48636f496a103967bf3d358850f049b14ba60001b620084cf565b6200799c84848080601f016020809104026020016040519081016040528093929190818152602001838380828437600081840152601f19601f82011690508083019250505050505050620093c6565b620079ca7f3d032b8d126006c2fc0c0fd2429930d1ffa9b2c4c3c4412cd190a84fd422051260001b620084cf565b620079f87f8ddff4ee83095005f8102d3eb135b3ab0f51e001ee254c3e5884242f0f4b465260001b620084cf565b600062007a04620084d2565b858560405160200162007a1a939291906200ec4e565b60405160208183030381529060405280519060200120905062007a607f6efc05569262feba11257ae3954882dee6e8953740208d68be98d5bf836b486460001b620084cf565b62007a8e7f09cdab67264917f5b4ccd121d57aee8f737df5569497a2919ed381e5835c63e060001b620084cf565b62007abc7fa9b49447f2b4b621653beffae8fadaae8bf2745b964f4c120032194ba19dfaa360001b620084cf565b6012600082815260200190815260200160002060000160159054906101000a900460ff161562007b23576040517f08c379a000000000000000000000000000000000000000000000000000000000815260040162007b1a906200f9bd565b60405180910390fd5b62007b517f1313dd28995e1088f3bf8495eebeb8f0fea2a856228f81f2280d3fc8a1ab99cc60001b620084cf565b62007b7f7fecca39d867957ad10f26da5b1813e47f7555ccc484fb081956e4a6afcd912bc960001b620084cf565b62007bad7f22e38139483d40231a594976734e7748102cfc29c1d6fb335dc141120bf6c61660001b620084cf565b6040518060a0016040528062007bc2620084d2565b73ffffffffffffffffffffffffffffffffffffffff168152602001841515815260200160011515815260200186868080601f016020809104026020016040519081016040528093929190818152602001838380828437600081840152601f19601f8201169050808301925050505050505081526020018373ffffffffffffffffffffffffffffffffffffffff168152506012600083815260200190815260200160002060008201518160000160006101000a81548173ffffffffffffffffffffffffffffffffffffffff021916908373ffffffffffffffffffffffffffffffffffffffff16021790555060208201518160000160146101000a81548160ff02191690831515021790555060408201518160000160156101000a81548160ff021916908315150217905550606082015181600101908051906020019062007d0a9291906200d562565b5060808201518160020160006101000a81548173ffffffffffffffffffffffffffffffffffffffff021916908373ffffffffffffffffffffffffffffffffffffffff16021790555090505062007d837f20653516ee9e72ce2a88e5c7745d6d9ab0d3dc6a890b2baafacdcc2f4bbd2bac60001b620084cf565b62007db17fee7f46d38e45e27f58ec282176ea9ecf5f4cf78f7e7e2087ed9191d195a33a1560001b620084cf565b62007dc781600f6200995590919063ffffffff16565b5062007df67f132c5ff681a768ab3af051270897d1e7660ebc88f139668ee5a56fb30473927060001b620084cf565b62007e247f4f640c4abfea38d2b3c4d5e02bc72824bc8149a7a4b5c7bb4ca8c98433aae2ec60001b620084cf565b62007e80816011600062007e37620084d2565b73ffffffffffffffffffffffffffffffffffffffff1673ffffffffffffffffffffffffffffffffffffffff1681526020019081526020016000206200995590919063ffffffff16565b5062007eaf7fad7f94d91ff9fd3ac430bc7ead8fd7cb3915eae235df441f7fef37f9ab0c6f9a60001b620084cf565b62007edd7ff19f099a27b225e749fd689d234cc1c6ca94105f8548ca95d109decbe18e636460001b620084cf565b62007ee7620084d2565b73ffffffffffffffffffffffffffffffffffffffff167f28c9a25063d40c8cf423202182ed575cc97982c1fd1771bd9721e19a38cc491d82878760405162007f32939291906200f26e565b60405180910390a25050505050565b60126020528060005260406000206000915090508060000160009054906101000a900473ffffffffffffffffffffffffffffffffffffffff16908060000160149054906101000a900460ff16908060000160159054906101000a900460ff169080600101805462007fb2906200fe17565b80601f016020809104026020016040519081016040528092919081815260200182805462007fe0906200fe17565b8015620080315780601f10620080055761010080835404028352916020019162008031565b820191906000526020600020905b8154815290600101906020018083116200801357829003601f168201915b5050505050908060020160009054906101000a900473ffffffffffffffffffffffffffffffffffffffff16905085565b6060620080917ffba2a781414b5de65ad74c387fa93f11ace1c65d0f02fa086a6869fd4947772a60001b620084cf565b620080bf7fb9e8ac8fe411c04ee9bb07ca70df9583b08ac04cf72342ce0eed8fa0fccbc01760001b620084cf565b620080ed7fc614855016dc0d7e2845909c1851f45455d29e3aa91d4a2a74b8693f9c85eac060001b620084cf565b620080f8826200a461565b67ffffffffffffffff81111562008114576200811362010055565b5b604051908082528060200260200182016040528015620081435781602001602082028036833780820191505090505b509050620081747fbe0ef115fd348f2880a18fd3431d4ce925dd4e0e1b61fba9a2b995ec2b86aa0060001b620084cf565b620081a27feadee2fec39de8979b68d39dbd8183ca4258c1d3beeaf4d5d7e66ed70c1d814f60001b620084cf565b6000601360008481526020019081526020016000208054806020026020016040519081016040528092919081815260200182805480156200820357602002820191906000526020600020905b815481526020019060010190808311620081ee575b50505050509050620082387fd3c076116f75ae3b484cd019bcc4fe00dbf46cf3cece4d422696ca075fb8fe8a60001b620084cf565b620082667f928a8365dc48a1b775182d223053becfd98ad7bb1588cf994d4aedbafbb1e23960001b620084cf565b6000620082967fbc231497bc0f92905a1ff3929e7cc6de275154331858a093f96d96361f28098860001b620084cf565b620082c47f2635d1ceba1f4ebfc8e563fff95d778fd36431fc56dc1d41b23a289aa59200c760001b620084cf565b60005b8251811015620084c757620082ff7fa52025f525fa30bea105117b2b67be7ac0aca86df1238025b415fad742d0710460001b620084cf565b6200832d7fd136f7421885a543619b0f2c17faf45dd81168db94b3b2e9ab12bda47b2cf0af60001b620084cf565b6014600084838151811062008347576200834662010026565b5b6020026020010151815260200190815260200160002060030160009054906101000a900460ff16156200848257620083a27f5c4db36074f82a06661718dfc3ee45a2d1824a9dfdff89cd912b2e365ed75c5960001b620084cf565b620083d07f7e155961c618d8c8060126a836bedf390d6bb48d7f1bb37d862ac4c98ea67dcd60001b620084cf565b620083fe7fca93cd0de73b85a81f95f09f578f117b6b98f4c855d986b18c7c8b1517d0695660001b620084cf565b82818151811062008414576200841362010026565b5b602002602001015184838151811062008432576200843162010026565b5b6020026020010181815250506200846c7f25a788f7a59a8bae5e0ba76effa67d970ffee4f90e2c792ba6d1f8944a9d57e460001b620084cf565b818062008479906200fe83565b925050620084b1565b620084b07fc825b9525e06ec0276e980ab7bfb5ec1129847d58562534dae2d8e2dd6cf8f4a60001b620084cf565b5b8080620084be906200fe83565b915050620082c7565b505050919050565b50565b600033905090565b60006200850a7f94d590126940aca21e3db669ff14ddbf4264237fe934b0a72b202317f5237ae360001b620084cf565b620085387fb05a3c1db6efd76da8525f010b43cba4b228da841f1bad65ec896e63ee4810d460001b620084cf565b620085667f17140290e67fd77e731f1f9cce834b7f2ca860f4f9ea28c4a143633401c3751960001b620084cf565b60005b62008575600f620086d3565b811015620086cf57620085ab7fdac9a227728abaaa700133b9beb163ac5878ae04af606cbd202b5482d109cc9760001b620084cf565b620085d97ff25536dd162e33295e02bf62284cce0fcea0a040c55962ffdc2870db45f9d64f60001b620084cf565b60126000620085f383600f620086ea90919063ffffffff16565b815260200190815260200160002060000160149054906101000a900460ff16156200868a57620086467f66a810b5895bb48735a7746517135d98dcf31b85110c9204d10c548bd0b8227b60001b620084cf565b620086747f0f07da6fd4ec9baf232a3d26dedcdfefedd7991b17c9631a3bab34a3147d2a5360001b620084cf565b818062008681906200fe83565b925050620086b9565b620086b87f1685c9a05b2e057a32427735f3350ac459032e0b17e578fa979a0f2651c5673860001b620084cf565b5b8080620086c6906200fe83565b91505062008569565b5090565b6000620086e3826000016200a6d4565b9050919050565b6000620086fb83600001836200a6e5565b905092915050565b60007f780e9d63000000000000000000000000000000000000000000000000000000007bffffffffffffffffffffffffffffffffffffffffffffffffffffffff1916827bffffffffffffffffffffffffffffffffffffffffffffffffffffffff1916148062008779575062008778826200a713565b5b9050919050565b50565b60008073ffffffffffffffffffffffffffffffffffffffff166004600084815260200190815260200160002060009054906101000a900473ffffffffffffffffffffffffffffffffffffffff1673ffffffffffffffffffffffffffffffffffffffff1614159050919050565b816006600083815260200190815260200160002060006101000a81548173ffffffffffffffffffffffffffffffffffffffff021916908373ffffffffffffffffffffffffffffffffffffffff160217905550808273ffffffffffffffffffffffffffffffffffffffff16620088648362004dda565b73ffffffffffffffffffffffffffffffffffffffff167f8c5be1e5ebec7d5bd14f71427d1e84f3dd0314c0f7b2291e5b200ac8c7c3b92560405160405180910390a45050565b620088d87f454a4a4d4dc15796c48af88986e67b429898c955c5ae3d58786e322383bd6a0260001b620084cf565b620089067ff52ffb0c314dbe9914600ce7cd4f17aaa51160019e525cd673ca875bc18792c160001b620084cf565b620089347faa2183eee9f74642643b61ad886bc30ea071ce168d4c55a99c3c41741e870e5260001b620084cf565b62008942848484846200a7f9565b50505050565b606062008958826000016200adab565b9050919050565b6200898d7f6c3ffa8cb318f76b56bab2d9b49adfb4dd27d2d36b22310c26b29f1799df3d8760001b620084cf565b620089bb7f1a848645f980783e637db0ef598b19abda929fbba3f1a0ba67ae49fd2716bb6d60001b620084cf565b620089e97f78ba3b52f0650877191f76ffe8b06039a47f3dc0b8618bf428f0388d5db2733760001b620084cf565b62008a177ff91c4c377184ca800ebdc7bf02a3105b6fb755e8fd05d790bc1d04d44c542e1160001b620084cf565b6202a3004262008a2891906200fcd1565b620151808362008a3991906200fc70565b6362155d6e63ffffffff1662008a5091906200fbdb565b1162008a93576040517f08c379a000000000000000000000000000000000000000000000000000000000815260040162008a8a906200f517565b60405180910390fd5b62008ac17f616c8f851afeb4f512eb2f4070cdae7cd468687072d37dd824ce26f18ea07ee660001b620084cf565b62008aef7f2b02319dac06e6bf5ded52b82a56b0e5c5c6ae2818eec4de8ded9ad42596b33e60001b620084cf565b62008b1d7fb8326fc5808855e756c61b665d8f7bcccc28ff0473dce9f939e73a637692e69c60001b620084cf565b62008b4b7fdf4f95a091c84b17f0b6827ff16acbed52974ea0de12c1f38a831f3a1469d29860001b620084cf565b601260006014600086815260200190815260200160002060000154815260200190815260200160002060000160149054906101000a900460ff1662008bc7576040517f08c379a000000000000000000000000000000000000000000000000000000000815260040162008bbe906200f77b565b60405180910390fd5b62008bf57f0c49b6311ccfbe60261d7b4fc40b2a081d33f3e8a8d37781795cc3bba079760960001b620084cf565b62008c237f01da94839b5b972a9aa6c5adc93dd8c27ff0748aa2d61d94cde746954313f24a60001b620084cf565b62008c517f05a7de48889d4ebc5888418f7af4a5f89a9666e714f8787c92acc62dfa3eadc360001b620084cf565b62008c7f7fc6ea2e8637ab450a03239067d5287ba2c0a01acb82650ecc1f77dd675c81121a60001b620084cf565b6014600084815260200190815260200160002060030160009054906101000a900460ff1662008ce5576040517f08c379a000000000000000000000000000000000000000000000000000000000815260040162008cdc906200f99b565b60405180910390fd5b62008d137f1faf0b636c5486dd1ba4deac0646e3e75e9a7115deb9df9bfe276374ecda081e60001b620084cf565b62008d417f381daa8e56229db0706f6fb78f058d3155afb3871ba33377b38ecbd4223d4f9160001b620084cf565b62008d6f7f1d31e3f9a73e416dd0db29281ce90fcd585859423836fa53112c27c175d3c65060001b620084cf565b62008d9d7f6909cd58b47838359953f080e63cf24dde8649a17ac6ec0b1bdb895238d49b4b60001b620084cf565b6000811162008de3576040517f08c379a000000000000000000000000000000000000000000000000000000000815260040162008dda906200f8cf565b60405180910390fd5b62008e117f0f75c391bfa0c698b64515f30320268b7be4b9ff19324fb9f53df42231b18cf260001b620084cf565b505050565b6001816000016000828254019250508190555050565b600081600001549050919050565b62008e568282604051806020016040528060008152506200ae09565b5050565b606062008e8a7fd08fe53e9fd7bbfcd22ce59e5aeeaf235f6da03d17682715450816277365001560001b6200ae6b565b62008eb87f91a3dca10ddfd81a0d7ec3eadc65cdc5c1d2c8cec67370ab8c221b9730613b7b60001b6200ae6b565b62008ee67fbce0664d4a909b8378a27179765d88d255407d47b1885b30cd42c2bae2ec50e760001b6200ae6b565b62008f2e62008ef78a85856200ae6e565b62008f068a8a8a8a8a6200af3f565b60405160200162008f199291906200ee76565b6040516020818303038152906040526200b032565b905098975050505050505050565b62008f478262008783565b62008f89576040517f08c379a000000000000000000000000000000000000000000000000000000000815260040162008f80906200f759565b60405180910390fd5b8060086000848152602001908152602001600020908051906020019062008fb29291906200d562565b505050565b600062008fc48262008783565b62009006576040517f08c379a000000000000000000000000000000000000000000000000000000000815260040162008ffd906200f627565b60405180910390fd5b6000620090138362004dda565b90508073ffffffffffffffffffffffffffffffffffffffff168473ffffffffffffffffffffffffffffffffffffffff1614806200908557508373ffffffffffffffffffffffffffffffffffffffff166200906d8462001782565b73ffffffffffffffffffffffffffffffffffffffff16145b806200909957506200909881856200755c565b5b91505092915050565b8273ffffffffffffffffffffffffffffffffffffffff16620090c48262004dda565b73ffffffffffffffffffffffffffffffffffffffff16146200911d576040517f08c379a000000000000000000000000000000000000000000000000000000000815260040162009114906200f4b1565b60405180910390fd5b600073ffffffffffffffffffffffffffffffffffffffff168273ffffffffffffffffffffffffffffffffffffffff16141562009190576040517f08c379a000000000000000000000000000000000000000000000000000000000815260040162009187906200f55b565b60405180910390fd5b6200919d8383836200b0f1565b620091aa600082620087ef565b6001600560008573ffffffffffffffffffffffffffffffffffffffff1673ffffffffffffffffffffffffffffffffffffffff1681526020019081526020016000206000828254620091fc91906200fcd1565b925050819055506001600560008473ffffffffffffffffffffffffffffffffffffffff1673ffffffffffffffffffffffffffffffffffffffff16815260200190815260200160002060008282546200925591906200fbdb565b92505081905550816004600083815260200190815260200160002060006101000a81548173ffffffffffffffffffffffffffffffffffffffff021916908373ffffffffffffffffffffffffffffffffffffffff160217905550808273ffffffffffffffffffffffffffffffffffffffff168473ffffffffffffffffffffffffffffffffffffffff167fddf252ad1be2c89b69c2b068fc378daa952ba7f163c4a11628f55a4df523b3ef60405160405180910390a4620093168383836200b18d565b505050565b62009325620043d2565b62009367576040517f08c379a00000000000000000000000000000000000000000000000000000000081526004016200935e906200f429565b60405180910390fd5b6000600d60006101000a81548160ff0219169083151502179055507f5db9ee0a495bf2e6ff9c91a7834c1ba4fdd244a5e8aa4e537bd38aeae4b073aa620093ad620084d2565b604051620093bc91906200ef02565b60405180910390a1565b620093f47fc96464e92a7ba3a29c3d4577956f0c2a08c201b40f2d105a5f0c49ceee68504960001b620084cf565b620094227f3ff8bac5a4a9173a3979d9512bf54ef7d758af77a5fc8a9b64dafc961b00546660001b620084cf565b620094507f229ef15b1c80563487d7536cb0ed9a1f5d19590cf7969aee0f4a9ba1230a4a0c60001b620084cf565b6200947e7fbaab82adeb4b97b018e70289a4e28bdeb12ef0ab0fe5e10a9da8c51d9ed7f77a60001b620084cf565b6000815111620094c5576040517f08c379a0000000000000000000000000000000000000000000000000000000008152600401620094bc906200f979565b60405180910390fd5b620094f37ff4acdc2253b168b89dcb2d030b24669fb720fc4085ecfba317abd1aa376bd28160001b620084cf565b50565b620095247f4885f200a888278ab8faa6c4ad9d141d8e4e2c3313b17bfa3dcc12f53a973b5860001b620084cf565b620095527f734604ea11aa2c27961f5e24a626c068140dc3bf1c662fbe5b77dd7550c4113d60001b620084cf565b620095807f911aa63e3b79fc07183c4f85397cea7f9e50efc561a1fb7d34b5174ff77ba59260001b620084cf565b620095ae7f821ccaf9f8260fb550dc26f03ca86ed2c5e1d8f05413f0d708b72c2455c05e9560001b620084cf565b6012600082815260200190815260200160002060000160159054906101000a900460ff1662009614576040517f08c379a00000000000000000000000000000000000000000000000000000000081526004016200960b906200f9df565b60405180910390fd5b620096427f7a0db32d6b349ce944eb95bad171be38cd5a5470f9c000fd5c332b516b84194660001b620084cf565b50565b620096737fcaed51df2bacbc1b7bc6cd5134408647f911ad632355fbc128eb76a20b0d575560001b620084cf565b620096a17f4bc202aa7401c81535dce86dc9f505d5590f0a53ba30f0b2c91118ccdcbb270660001b620084cf565b620096cf7f178b6aa9db2284cc31cc29d2e1854d9998ae5c80d44881bd13cc2115f59f8f1860001b620084cf565b620096fd7f82c1d2daa93d597164afb27c36ff0cfe56621e57fde2df97a291556b7805e24160001b620084cf565b62009707620084d2565b73ffffffffffffffffffffffffffffffffffffffff166012600084815260200190815260200160002060000160009054906101000a900473ffffffffffffffffffffffffffffffffffffffff1673ffffffffffffffffffffffffffffffffffffffff16148190620097b0576040517f08c379a0000000000000000000000000000000000000000000000000000000008152600401620097a791906200f405565b60405180910390fd5b50620097df7f086a517abef5d9ab0adeeba001b83c2a3536d9d9cd7056603c31b354f383437460001b620084cf565b5050565b6000600d60019054906101000a900473ffffffffffffffffffffffffffffffffffffffff16905081600d60016101000a81548173ffffffffffffffffffffffffffffffffffffffff021916908373ffffffffffffffffffffffffffffffffffffffff1602179055508173ffffffffffffffffffffffffffffffffffffffff168173ffffffffffffffffffffffffffffffffffffffff167f8be0079c531659141344cd1fd0a4f28419497f9722a3daafe3b4186f6b6457e060405160405180910390a35050565b620098b3620043d2565b15620098f6576040517f08c379a0000000000000000000000000000000000000000000000000000000008152600401620098ed906200f6af565b60405180910390fd5b6001600d60006101000a81548160ff0219169083151502179055507f62e78cea01bee320cd4e420270b5ea74000d11b0c9f74754ebdbfc544b05a2586200993c620084d2565b6040516200994b91906200ef02565b60405180910390a1565b60006200996683600001836200b192565b905092915050565b60006200997f83600001836200b206565b905092915050565b8173ffffffffffffffffffffffffffffffffffffffff168373ffffffffffffffffffffffffffffffffffffffff161415620099f9576040517f08c379a0000000000000000000000000000000000000000000000000000000008152600401620099f0906200f59f565b60405180910390fd5b80600760008573ffffffffffffffffffffffffffffffffffffffff1673ffffffffffffffffffffffffffffffffffffffff16815260200190815260200160002060008473ffffffffffffffffffffffffffffffffffffffff1673ffffffffffffffffffffffffffffffffffffffff16815260200190815260200160002060006101000a81548160ff0219169083151502179055508173ffffffffffffffffffffffffffffffffffffffff168373ffffffffffffffffffffffffffffffffffffffff167f17307eab39ab6107e8899845ad3d59bd9653f200f220920489ca2b5937696c318360405162009aec91906200f01f565b60405180910390a3505050565b62009b06848484620090a2565b62009b14848484846200b32a565b62009b56576040517f08c379a000000000000000000000000000000000000000000000000000000000815260040162009b4d906200f46d565b60405180910390fd5b50505050565b606062009b698262008783565b62009bab576040517f08c379a000000000000000000000000000000000000000000000000000000000815260040162009ba2906200f803565b60405180910390fd5b600060086000848152602001908152602001600020805462009bcd906200fe17565b80601f016020809104026020016040519081016040528092919081815260200182805462009bfb906200fe17565b801562009c4c5780601f1062009c205761010080835404028352916020019162009c4c565b820191906000526020600020905b81548152906001019060200180831162009c2e57829003601f168201915b50505050509050600062009c5f6200b4d3565b905060008151141562009c7757819250505062009cc0565b60008251111562009cb057808260405160200162009c979291906200ecaa565b6040516020818303038152906040529250505062009cc0565b62009cbb846200b4ea565b925050505b919050565b600062009cf57f8b94d24fdb839afc005c3bfa1da5813478e232ca7919fae3dafb312740a106da60001b620084cf565b62009d237f60796ed631b9ae8d59e92f3914dea273d3781d2f1b711b386d7e3c45f310b84260001b620084cf565b62009d517f29efcb0fb79cc36fc139a0bed17740ec9b3ffbedc035880178987019fc6bb0d160001b620084cf565b600062009db87fe14fce867d3bcfe3e7c779de069d9e179b67b9288baf649805c61c495483896b84600001518560200151866040015160405160200162009d9c94939291906200f121565b604051602081830303815290604052805190602001206200b59e565b905062009de87f2b4394810cd60fead77e0180fa176de37df89d9ba90554b8b12588acee25021560001b620084cf565b62009e167fb212bfa3b5aa84ce7b6e19799f576237bc24e55faecad57c8bd04a2e97c2af9960001b620084cf565b60008062009e298386606001516200b5bc565b9150915062009e5b7fce15d363c41b172c833d6f0d259922b274d4014a1d85da487f4414b3ed26a3e060001b620084cf565b62009e897f471bf6ce0b5dbca07d6fbd5599fb760c1ca21f2b78d904242f6ef288c70f4a0960001b620084cf565b62009eb77f3dc087c44d141028f5d3e57440954bc19806fe1c937baa64f484159f0c25f55960001b620084cf565b6000600481111562009ece5762009ecd6200ff99565b5b81600481111562009ee45762009ee36200ff99565b5b14801562009f215750846000015173ffffffffffffffffffffffffffffffffffffffff168273ffffffffffffffffffffffffffffffffffffffff16145b62009f63576040517f08c379a000000000000000000000000000000000000000000000000000000000815260040162009f5a906200f57d565b60405180910390fd5b62009f917fab08be78d44543483532566dcce7993b041891ee43653bf4b25dfcf292e2a17860001b620084cf565b62009fbf7f6e08797a5b5670517a513ff42769f6f471edb5c2eccf338ee429dd7cfdd19da760001b620084cf565b62009fed7fd5a209ac9e81ad323fad68ac4c45e559c952a629f484dc439a1c86ccaa149bc060001b620084cf565b819350505050919050565b6200a0267ffbbf94a406d081dce6f51e5a10cc5a51f2cd7c1d9678a72d03cbec3d0820b47960001b620084cf565b6200a0547f08f1b3a471132b713328e288a024840fb4ddb29b0b39af71bef807a93e9d324360001b620084cf565b6200a0827f45ef27b607cc7981a5511b7ba15fdf00af1293d18baeb0c9cac76cfc31a5322360001b620084cf565b6200a0b07fad1b8c5c839cebc2b4b7cf156c8e9a98bb138de0b1c5741544083b089d25776660001b620084cf565b60146000838152602001908152602001600020600201548311156200a10c576040517f08c379a00000000000000000000000000000000000000000000000000000000081526004016200a103906200f4f5565b60405180910390fd5b6200a13a7ff197c0488f7425414fe2172b19da4eca6b82104de8e108e350be52024763eaa760001b620084cf565b6200a1687f077adc2743a594ec4c34aa8a91fb34c7241ee3393dd45619b5245d0ed4505ab960001b620084cf565b6200a1967f4b93089d97fc71424391a6894804fefbd6a3dcad6a8a267ef9fa8bbe29e5e82360001b620084cf565b6200a1a585858585856200b647565b5050505050565b6200a1da7fb59ab396821378aefc0ec895c622aa8729249eb231dbeff26761725ce78232ed60001b62008780565b6200a2087f10f57ea094a37cd618ae56fe708276834d3c922b54d88866a329702ac86130cb60001b62008780565b6200a2367f32e648ad8597b5dd0fa1f61db41c46497fb067ef8c6ef995f16ebd397d70978f60001b62008780565b60003490506200a2697fad8f16371acd1bca6afac7b55c6b86a2f5cb8e9e4cf6d37c636c458e055df91c60001b62008780565b6200a2977f88e197ac04b1916200e908aa3c7305856a362c9c9d58e4921e9ac9034f8e64cf60001b62008780565b8060008085815260200190815260200160002060008673ffffffffffffffffffffffffffffffffffffffff1673ffffffffffffffffffffffffffffffffffffffff168152602001908152602001600020600084815260200190815260200160002060008282546200a30991906200fbdb565b925050819055506200a33e7f9788347556af0a0dfad841d4fe015b0dedc0c27c6317d5b935c74603af9542ac60001b62008780565b6200a36c7fc825c2865cea10f57d56c7d7ab76f263f7b718b193d29c50292e8cd02d99a5df60001b62008780565b60006001600084815260200190815260200160002060006101000a81548160ff021916908360028111156200a3a6576200a3a56200ff99565b5b02179055506200a3d97f3a31aea9e8f1e49172b63e0838384df8123fca3a1f1687da69f09171911eedb360001b62008780565b6200a4077fc5d79c7ebaea4834f9bfd88b7b32bd4e01f653d1b5a57b229ea206c4d9bde10660001b62008780565b8373ffffffffffffffffffffffffffffffffffffffff167f4eef3d1efb11f00508d9b7bb632ddcfa6da9d7105bd39f404bdd7362e6c59dbc8285856040516200a453939291906200fa62565b60405180910390a250505050565b60006200a4917f6d65c87bf9dcb324b2808931a3f33c2ff3a669988fa27948c94531a87d71aaa560001b620084cf565b6200a4bf7f3a07bc11e440deb38f68bfed8767ef2762698175e50e449d351522d6a3bf290060001b620084cf565b6200a4ed7f5e4566f288d8c3adf1c13e2375b84a8220d358fe0ba9d305a7193a705b799aa960001b620084cf565b60006013600084815260200190815260200160002090506200a5327fc07fe25d60aed3349ad8ced901de0a7d5f25cfa4a874e494e57bc00ff558ca6f60001b620084cf565b6200a5607f5cea0b5e245a30d14d59a01ec0ffdaaa617168c7ec3c6e23cc2d360c9bb4d50660001b620084cf565b60005b81805490508110156200a6cd576200a59e7fb3c869baf0a0d1bc191efd87ba3a7f3a7e0c67edcf9016c5df9f22b517a7988760001b620084cf565b6200a5cc7f132be0ff462488a032254614b68aa546a8ab6ae2297f93745177de57be19821160001b620084cf565b601460008383815481106200a5e6576200a5e562010026565b5b9060005260206000200154815260200190815260200160002060030160009054906101000a900460ff16156200a688576200a6447f7c095c6c72b24cf95df0491cedc1189cd3e3ba8e6730904e2fb781fb19c2c9c660001b620084cf565b6200a6727f159413c6658370e8e5e8fb9cbf632e90a303446b59c3c17db965ce5cb078857760001b620084cf565b82806200a67f906200fe83565b9350506200a6b7565b6200a6b67f7acf7624a5b7aef606cc507f93d5de07f85d3efa7e75e16a3b183d65279b06d860001b620084cf565b5b80806200a6c4906200fe83565b9150506200a563565b5050919050565b600081600001805490509050919050565b60008260000182815481106200a700576200a6ff62010026565b5b9060005260206000200154905092915050565b60007f80ac58cd000000000000000000000000000000000000000000000000000000007bffffffffffffffffffffffffffffffffffffffffffffffffffffffff1916827bffffffffffffffffffffffffffffffffffffffffffffffffffffffff191614806200a7df57507f5b5e139f000000000000000000000000000000000000000000000000000000007bffffffffffffffffffffffffffffffffffffffffffffffffffffffff1916827bffffffffffffffffffffffffffffffffffffffffffffffffffffffff1916145b806200a7f257506200a7f1826200baf0565b5b9050919050565b6200a8277ff92caecd854663f4bf871f97552ca1afbab3db3f4a5a5e2385adcc7c8e3ac91a60001b62008780565b6200a8557f98e0decc9a7a77c498649c901d99e750f3be3e778871dbf52d7cc1131ba9935f60001b62008780565b6200a8837f07505374276544fd14204d8f9b66c737b7608905b45c50aae1cc618a7e1fb98c60001b62008780565b600080600084815260200190815260200160002060008673ffffffffffffffffffffffffffffffffffffffff1673ffffffffffffffffffffffffffffffffffffffff16815260200190815260200160002060008381526020019081526020016000205490506200a9167f917297f562dff5f41bcc9d4efcd6158feecc1745b84c811ed0194037c362e19260001b62008780565b6200a9447fe0dd658b7c32ac05786f51f2e11f9afa3e80747257540622b50fd7ad7922b15d60001b62008780565b6200a9727f9753f3a4cdfc0652183fa7b0159ae23b91fe815325b5c006a0df9d7d5e3cf5de60001b62008780565b600160028111156200a989576200a9886200ff99565b5b6001600084815260200190815260200160002060009054906101000a900460ff1660028111156200a9bf576200a9be6200ff99565b5b146200aa02576040517f08c379a00000000000000000000000000000000000000000000000000000000081526004016200a9f9906200f957565b60405180910390fd5b6200aa307f9118b99d656c8bc1cf41ce527c02ba44c79c58e421aebe0ecd39fd7b5a029b0560001b62008780565b6200aa5e7f85488c69b778cf8dfad1adba4e9f4bcb4435ffe16d63fb1c5286ce4180f853a260001b62008780565b6200aa8c7f5e2ec3bb558cf9a0b59266d916b8cd96e9c8c8d83da386570cac188089ed5c8e60001b62008780565b600080600085815260200190815260200160002060008773ffffffffffffffffffffffffffffffffffffffff1673ffffffffffffffffffffffffffffffffffffffff1681526020019081526020016000206000848152602001908152602001600020819055506200ab207f2b15d83d8826f3cef7b93a5afd54656ff704c13229706f8488f6ee3052bc2fbe60001b62008780565b6200ab4e7f8996693a769360af9627fefe01efb120471693768e20acb21698a3ec1c87a18760001b62008780565b60026001600084815260200190815260200160002060006101000a81548160ff021916908360028111156200ab88576200ab876200ff99565b5b02179055506200abbb7f63f53b9d22abba887eef37d8e4262f8db38fec7b6e4417cc70c4cb69ce7ea1b060001b62008780565b6200abe97f57e67f20bb5865c88fc3fdc43aa312fa792e2cfea710b9c55a29d3e1f33d1d7d60001b62008780565b60008111156200ad75576200ac217f5c4991c535ba886cc51658d272e9c1548ea8914856060386c1fc8bf5c4e165b260001b62008780565b6200ac4f7fbe2cb9af74ca28f43b07be2ad489fe4d2360ca920893a5dc8e3d45b2dfd2deb260001b62008780565b6200ac7d7f186b610e03b42afe9b0fa6719e407aca7979f86e506add8e7342e47fa307682f60001b62008780565b6200aca8818573ffffffffffffffffffffffffffffffffffffffff166200bb5a90919063ffffffff16565b6200acd67f393fc489c619a7233a14d150a3026e7e1d894c429471bc42007f5f3aaf42901560001b62008780565b6200ad047fd62957de74ff809c9b00c5f7686c3c8073f65c545676d01ce95d94e3bfc9f57760001b62008780565b8373ffffffffffffffffffffffffffffffffffffffff168573ffffffffffffffffffffffffffffffffffffffff167f89eeb38ad2da123e4b3662ad415c1856733f76deaccee072a5234ab427ffdb708386866040516200ad67939291906200fa62565b60405180910390a36200ada4565b6200ada37fd3120674689e4631b9e8caef6a22a0d54bcb918383c65901e8ad35541e2bb17360001b62008780565b5b5050505050565b6060816000018054806020026020016040519081016040528092919081815260200182805480156200adfd57602002820191906000526020600020905b8154815260200190600101908083116200ade8575b50505050509050919050565b6200ae1583836200bc58565b6200ae2460008484846200b32a565b6200ae66576040517f08c379a00000000000000000000000000000000000000000000000000000000081526004016200ae5d906200f46d565b60405180910390fd5b505050565b50565b60606200ae9e7fb3e82194a668d27243987e50e3de57ceeb132e61f9fdffa232befac3fc82ae8c60001b6200ae6b565b6200aecc7fe1d75064e9aea373e046eb62251ed452618716b0ee4cf58a4e9cce3602dd39d960001b6200ae6b565b6200aefa7f34b0506aee11aabe9b9b6cc0f7baf7179c4dff11baf9e788e28ca7ea3b4d123560001b6200ae6b565b6200af05846200be40565b83836200af12876200be40565b6040516020016200af2794939291906200edef565b60405160208183030381529060405290509392505050565b60606200af6f7fc6a3a2628295970958e5eb592f38e4803e36636140a01b47e7203dcf9411327e60001b6200ae6b565b6200af9d7f84e3f234cda15ce090c784f606e315969802b2d7d4eeb1b663fe34a5136b8ed860001b6200ae6b565b6200afcb7fd75258e611bcd359a74c33b3b90c6caa16ddb225cd317eedf9848db1466872b060001b6200ae6b565b6200afd6866200c4c2565b6200afe1866200c4c2565b6200afec866200be40565b6200aff7866200be40565b6200b002866200be40565b6040516020016200b0189594939291906200ed4c565b604051602081830303815290604052905095945050505050565b60606200b0627fa3ca53224cee539d65e783eda0d6722c551e7e7c7440794692df1df4dc5e9aa560001b6200ae6b565b6200b0907f4212008e86717da5244e8c13929bb3ef0c1a37ba6f9e5b15a81d94de318b66f060001b6200ae6b565b6200b0be7f8e337d5a77d961a2ae9587a0872e4461fdbd073dbe66fa7bc37b0839ec916b9060001b6200ae6b565b6200b0c9826200c591565b6040516020016200b0db91906200eec5565b6040516020818303038152906040529050919050565b6200b11f7f54ca1876c2af779b1f3a6728d5ab4bc614fa097a8a6aef8a2008591955890ed860001b620084cf565b6200b14d7fe1426143a2ad37b735aae993547615a2789303f60ee2ac20b7b5a5393f2174de60001b620084cf565b6200b17b7f9b1f88baee800b4f5eee8f3e239627fb6abea658a8a2e0cbb944a0e05159ad9d60001b620084cf565b6200b1888383836200c708565b505050565b505050565b60006200b1a083836200c82c565b6200b1fb5782600001829080600181540180825580915050600190039060005260206000200160009091909190915055826000018054905083600101600084815260200190815260200160002081905550600190506200b200565b600090505b92915050565b600080836001016000848152602001908152602001600020549050600081146200b31e5760006001826200b23b91906200fcd1565b90506000600186600001805490506200b25591906200fcd1565b90508181146200b2cb5760008660000182815481106200b27a576200b27962010026565b5b90600052602060002001549050808760000184815481106200b2a1576200b2a062010026565b5b90600052602060002001819055508387600101600083815260200190815260200160002081905550505b856000018054806200b2e2576200b2e16200fff7565b5b6001900381819060005260206000200160009055905585600101600086815260200190815260200160002060009055600193505050506200b324565b60009150505b92915050565b60006200b34d8473ffffffffffffffffffffffffffffffffffffffff166200c84f565b156200b4c6578373ffffffffffffffffffffffffffffffffffffffff1663150b7a026200b379620084d2565b8786866040518563ffffffff1660e01b81526004016200b39d94939291906200ef1f565b602060405180830381600087803b1580156200b3b857600080fd5b505af19250505080156200b3ec57506040513d601f19601f820116820180604052508101906200b3e991906200ddee565b60015b6200b475573d80600081146200b41f576040519150601f19603f3d011682016040523d82523d6000602084013e6200b424565b606091505b506000815114156200b46d576040517f08c379a00000000000000000000000000000000000000000000000000000000081526004016200b464906200f46d565b60405180910390fd5b805181602001fd5b63150b7a0260e01b7bffffffffffffffffffffffffffffffffffffffffffffffffffffffff1916817bffffffffffffffffffffffffffffffffffffffffffffffffffffffff1916149150506200b4cb565b600190505b949350505050565b606060405180602001604052806000815250905090565b60606200b4f78262008783565b6200b539576040517f08c379a00000000000000000000000000000000000000000000000000000000081526004016200b530906200f869565b60405180910390fd5b60006200b5456200b4d3565b905060008151116200b56757604051806020016040528060008152506200b596565b806200b573846200c872565b6040516020016200b5869291906200ecaa565b6040516020818303038152906040525b915050919050565b60006200b5b56200b5ae6200c9ec565b836200cb0b565b9050919050565b6000806041835114156200b6025760008060006020860151925060408601519150606086015160001a90506200b5f5878285856200cb40565b945094505050506200b640565b6040835114156200b6375760008060208501519150604085015190506200b62b8683836200cc57565b9350935050506200b640565b60006002915091505b9250929050565b6200b6757f2e86ef14763a8d62e22f515b520dc3f1e4ca7b825904e9c3ab40ace6c8b01a9160001b62008780565b6200b6a37f1c395249df20187c3a6ab8765a63be1b47a32c70889082d863a9ea2b25486cef60001b62008780565b6200b6d17f621043497d4361af33412d6d2dc352d13b619ed37f96c13f0146da1b4d12043660001b62008780565b6200b6ff7f1166384aeb3d48662e8236f25cb3db1c05cd625b9a5d5aed2e260a1d8f00944a60001b62008780565b60008083815260200190815260200160002060008673ffffffffffffffffffffffffffffffffffffffff1673ffffffffffffffffffffffffffffffffffffffff1681526020019081526020016000206000828152602001908152602001600020548311156200b7a5576040517f08c379a00000000000000000000000000000000000000000000000000000000081526004016200b79c906200f68d565b60405180910390fd5b6200b7d37fa92405c8407b7c8c0f1d6bc61661f88f3d76b7fbab0783dc9f3e943037c8f8fe60001b62008780565b6200b8017fae0b77d76479d4809bf34183a27a536063bcd007332ffb7a9df4b49debef1a7360001b62008780565b6200b82f7f06b4480d40cc7c89e7bd6995ed411bd11f64a3f84df2aeb4150f8808d0ae227260001b62008780565b8260008084815260200190815260200160002060008773ffffffffffffffffffffffffffffffffffffffff1673ffffffffffffffffffffffffffffffffffffffff1681526020019081526020016000206000838152602001908152602001600020546200b89d91906200fcd1565b60008084815260200190815260200160002060008773ffffffffffffffffffffffffffffffffffffffff1673ffffffffffffffffffffffffffffffffffffffff1681526020019081526020016000206000838152602001908152602001600020819055506200b92f7fdbfc18b4ac0d9867f6ecc5f47d128923d71ebfa54d2921c5dffe188969139ebe60001b62008780565b6200b95d7fe2f10ef8b8c242190d7565f83a5b816db3f3f8f3079cdae4624ca5e683d2e00e60001b62008780565b600180600083815260200190815260200160002060006101000a81548160ff021916908360028111156200b996576200b9956200ff99565b5b02179055506200b9c97fd136064e1aae6695eba38063cb48e3a986d78d03de23ed836a8186ca0b00ca2c60001b62008780565b6200b9f77fff5cd58962f13f1d582b002f6e768d954e0b3b57b63ac0ae245eaf494eef83a960001b62008780565b6200ba22838573ffffffffffffffffffffffffffffffffffffffff166200bb5a90919063ffffffff16565b6200ba507f4283fa87b9aef527ca156ed4fb64a1d27a663dbb38fa61f1331f82363e306d3060001b62008780565b6200ba7e7f5ff3f0e32f39c70f9880da362a2b7e888246eda5623c2677264b263313a5e5b160001b62008780565b8373ffffffffffffffffffffffffffffffffffffffff168573ffffffffffffffffffffffffffffffffffffffff167f89eeb38ad2da123e4b3662ad415c1856733f76deaccee072a5234ab427ffdb708585856040516200bae1939291906200fa62565b60405180910390a35050505050565b60007f01ffc9a7000000000000000000000000000000000000000000000000000000007bffffffffffffffffffffffffffffffffffffffffffffffffffffffff1916827bffffffffffffffffffffffffffffffffffffffffffffffffffffffff1916149050919050565b804710156200bba0576040517f08c379a00000000000000000000000000000000000000000000000000000000081526004016200bb97906200f605565b60405180910390fd5b60008273ffffffffffffffffffffffffffffffffffffffff16826040516200bbc8906200eeeb565b60006040518083038185875af1925050503d80600081146200bc07576040519150601f19603f3d011682016040523d82523d6000602084013e6200bc0c565b606091505b50509050806200bc53576040517f08c379a00000000000000000000000000000000000000000000000000000000081526004016200bc4a906200f5e3565b60405180910390fd5b505050565b600073ffffffffffffffffffffffffffffffffffffffff168273ffffffffffffffffffffffffffffffffffffffff1614156200bccb576040517f08c379a00000000000000000000000000000000000000000000000000000000081526004016200bcc2906200f7bf565b60405180910390fd5b6200bcd68162008783565b156200bd19576040517f08c379a00000000000000000000000000000000000000000000000000000000081526004016200bd10906200f4d3565b60405180910390fd5b6200bd27600083836200b0f1565b6001600560008473ffffffffffffffffffffffffffffffffffffffff1673ffffffffffffffffffffffffffffffffffffffff16815260200190815260200160002060008282546200bd7991906200fbdb565b92505081905550816004600083815260200190815260200160002060006101000a81548173ffffffffffffffffffffffffffffffffffffffff021916908373ffffffffffffffffffffffffffffffffffffffff160217905550808273ffffffffffffffffffffffffffffffffffffffff16600073ffffffffffffffffffffffffffffffffffffffff167fddf252ad1be2c89b69c2b068fc378daa952ba7f163c4a11628f55a4df523b3ef60405160405180910390a46200be3c600083836200b18d565b5050565b60606200be707fc08a5d6a1cbbb196ff27b84e94aecef0d84e2d24a8e13b19a1fd0584ecbbf7f460001b6200ae6b565b6200be9e7fc370b79d3f440eaf068f0b43f7ce41f3fe237477cd4d12b0c4425b78c2104e3c60001b6200ae6b565b6200becc7fc2c677d482e458d5c4fbefdd50a8f647f6118c92fc6dbb69b22236af0c0b99ab60001b6200ae6b565b60008214156200bf9e576200bf047fcdc38099ce5f28ad49e53b7a89867032d80994fa21666788f66eb70f6644382b60001b6200ae6b565b6200bf327f9e3a0957c378ae37d9a73607c773515d0bf7057ce43222412fb901622e39a89160001b6200ae6b565b6200bf607fd5546d76290bbd5e8649dbe2674cfc53afe7f38f14e77fa505ef15abfd85605d60001b6200ae6b565b6040518060400160405280600181526020017f300000000000000000000000000000000000000000000000000000000000000081525090506200c4bd565b6200bfcc7f7f0dc139d02d8d989d856e2cb66b3a2de2c7ce5e5c937ce1a5c9f6e0b7d4d6a360001b6200ae6b565b6200bffa7feebc57d9d814f73f247958286e124cd08ace4799c3ef07c7eaade5addbb73b6d60001b6200ae6b565b6200c0287fad292f02131c3786529159f6b5baf7c161cb31a6418e980914ecd198d2f233ca60001b6200ae6b565b60008290506200c05b7ff2b760f14e8e6b443f213dd4d9e551c18d1ee9cbb1b820da8ccd040381ed938760001b6200ae6b565b6200c0897f7cc57015ada049751f6b29435a7d6c5b26ea584ced6a5b5910ce9b3650bc912260001b6200ae6b565b60006200c0b97f79c976d9923740f57c15c8499385ae813567b5ae3ea9654ec2abeb5c824ff98460001b6200ae6b565b6200c0e77ff24b849c564380226f7b3595523de54f5d95592c89f05546dd272849b706e83f60001b6200ae6b565b5b600082146200c1a2576200c11f7fab33a96f8459c590764c1fab3b334f0ec766519ad3cc659de2495ff399890d3760001b6200ae6b565b80806200c12c906200fe83565b9150506200c15d7fd996d252da4e8c8398fee76b590a0be07d12979f873abbc9949c711d64bf52d060001b6200ae6b565b6200c18b7f3cf9a781c9ff5c7d11f039758897bab8fccb70ccade754e402924f1e799badbf60001b6200ae6b565b600a826200c19a91906200fc38565b91506200c0e8565b6200c1d07f82e1e661af29ab2e0d4b24db9b4a307bb6422ed3b57888e94422161914deddb860001b6200ae6b565b6200c1fe7f4bca6caccb11945abcda585f5a2628aa3ad7b0e48db31ad61571bb2b36fd59ef60001b6200ae6b565b60008167ffffffffffffffff8111156200c21d576200c21c62010055565b5b6040519080825280601f01601f1916602001820160405280156200c2505781602001600182028036833780820191505090505b5090506200c2817f2eacacb731859c266bb8d22102b102b749a25d12fdefa282cfc8c4a8a6448cc660001b6200ae6b565b6200c2af7f312852428fe726541b25b41e27b7f5f76b49d43e79353d7cb04dda8f4136e9b360001b6200ae6b565b5b600085146200c45a576200c2e77fb065624664c32c807bc5d9eac1a0602f90834d9d7baa3328c5c7267470d9e43860001b6200ae6b565b6200c3157fdae31676d2381e7c835f697a7ed4cb5cdf43b8c89388d596def612afe29ae8f260001b6200ae6b565b6001826200c32491906200fcd1565b91506200c3547f04344e2ac31c6849fe17b1aff8693180118a0c5e4c07b2ee7709cd7d1cecf8f360001b6200ae6b565b6200c3827f1290966fe969c8c3604cae7a76f479b04be8698658a2d1970ec1e8ddd84b819760001b6200ae6b565b600a856200c39191906200ff03565b60306200c39f91906200fbdb565b60f81b8183815181106200c3b8576200c3b762010026565b5b60200101907effffffffffffffffffffffffffffffffffffffffffffffffffffffffffffff1916908160001a9053506200c4157ff17c09e20f389f51bc1399190133a46bb2e924298992647ea1bb62a876fa70b960001b6200ae6b565b6200c4437f1bed138913a1a33ef43df7afeac96efaab8413a63a05383371e2544ac346d88760001b6200ae6b565b600a856200c45291906200fc38565b94506200c2b0565b6200c4887fd6fe13a5ead474a5ea031a477c0e8ff202b0b8701f696c77bee7a8324fdfa41a60001b6200ae6b565b6200c4b67fbb469abc73f682e24bb01474557ec17eb9d130c7d8deaa782592f6490b2c634460001b6200ae6b565b8093505050505b919050565b60606200c4f27f67727715a8849f1fbe8712b6b256c62696fbeed6d2d53bd455c9f86ec812639060001b6200ae6b565b6200c5207f75db83818362ee3519436e55cf42861bd8b2894cda3ca073fab0f19478bb7f9c60001b6200ae6b565b6200c54e7f3b105d7295c0be89327263c0024743eb0b913836281d09f866071efce6fdd5fc60001b6200ae6b565b6200c559826200ccba565b6200c568608084901b6200ccba565b6040516020016200c57b9291906200ed0f565b6040516020818303038152906040529050919050565b60606000825114156200c5b6576040518060200160405280600081525090506200c703565b60006040518060600160405280604081526020016201100f60409139905060006003600285516200c5e891906200fbdb565b6200c5f491906200fc38565b60046200c60291906200fc70565b67ffffffffffffffff8111156200c61e576200c61d62010055565b5b6040519080825280601f01601f1916602001820160405280156200c6515781602001600182028036833780820191505090505b509050600182016020820185865187015b808210156200c6bf576003820191508151603f8160121c168501518453600184019350603f81600c1c168501518453600184019350603f8160061c168501518453600184019350603f81168501518453600184019350506200c662565b50506003865106600181146200c6de57600281146200c6f2576200c6fa565b603d6001830353603d60028303536200c6fa565b603d60018303535b50505080925050505b919050565b6200c7158383836200d178565b600073ffffffffffffffffffffffffffffffffffffffff168373ffffffffffffffffffffffffffffffffffffffff1614156200c75c576200c756816200d17d565b6200c79e565b8173ffffffffffffffffffffffffffffffffffffffff168373ffffffffffffffffffffffffffffffffffffffff16146200c79d576200c79c83826200d1c6565b5b5b600073ffffffffffffffffffffffffffffffffffffffff168273ffffffffffffffffffffffffffffffffffffffff1614156200c7e5576200c7df816200d338565b6200c827565b8273ffffffffffffffffffffffffffffffffffffffff168273ffffffffffffffffffffffffffffffffffffffff16146200c826576200c82582826200d414565b5b5b505050565b600080836001016000848152602001908152602001600020541415905092915050565b6000808273ffffffffffffffffffffffffffffffffffffffff163b119050919050565b606060008214156200c8bc576040518060400160405280600181526020017f300000000000000000000000000000000000000000000000000000000000000081525090506200c9e7565b600082905060005b600082146200c8f45780806200c8da906200fe83565b915050600a826200c8ec91906200fc38565b91506200c8c4565b60008167ffffffffffffffff8111156200c913576200c91262010055565b5b6040519080825280601f01601f1916602001820160405280156200c9465781602001600182028036833780820191505090505b5090505b600085146200c9e0576001826200c96291906200fcd1565b9150600a856200c97391906200ff03565b60306200c98191906200fbdb565b60f81b8183815181106200c99a576200c99962010026565b5b60200101907effffffffffffffffffffffffffffffffffffffffffffffffffffffffffffff1916908160001a905350600a856200c9d891906200fc38565b94506200c94a565b8093505050505b919050565b60007f000000000000000000000000000000000000000000000000000000000000000073ffffffffffffffffffffffffffffffffffffffff163073ffffffffffffffffffffffffffffffffffffffff161480156200ca6957507f000000000000000000000000000000000000000000000000000000000000000046145b156200ca98577f000000000000000000000000000000000000000000000000000000000000000090506200cb08565b6200cb057f00000000000000000000000000000000000000000000000000000000000000007f00000000000000000000000000000000000000000000000000000000000000007f00000000000000000000000000000000000000000000000000000000000000006200d495565b90505b90565b600082826040516020016200cb229291906200ecd2565b60405160208183030381529060405280519060200120905092915050565b6000807f7fffffffffffffffffffffffffffffff5d576e7357a4501ddfe92f46681b20a08360001c11156200cb7d5760006003915091506200cc4e565b601b8560ff16141580156200cb965750601c8560ff1614155b156200cbaa5760006004915091506200cc4e565b6000600187878787604051600081526020016040526040516200cbd194939291906200f39b565b6020604051602081039080840390855afa1580156200cbf4573d6000803e3d6000fd5b505050602060405103519050600073ffffffffffffffffffffffffffffffffffffffff168173ffffffffffffffffffffffffffffffffffffffff1614156200cc45576000600192509250506200cc4e565b80600092509250505b94509492505050565b60008060007f7fffffffffffffffffffffffffffffffffffffffffffffffffffffffffffffff60001b841690506000601b60ff8660001c901c6200cc9c91906200fbdb565b90506200ccac878288856200cb40565b935093505050935093915050565b60006200ccea7f5574d11d4689bbc27782e00c78fdbe4871e239a0668fb4d0fdfe1105c8d07fd960001b6200ae6b565b6200cd187ffcdc2f21e2e35338371ca80d42ac435fcfba266f08cc55e88f12c81f0ccc818860001b6200ae6b565b6200cd467f695dae360323d72d44bb8d730836f8235af6dbb16cc356d4c389f13b19605d2560001b6200ae6b565b604077ffffffffffffffff0000000000000000000000000000000060001b836fffffffffffffffffffffffffffffffff191616901c7fffffffffffffffff00000000000000000000000000000000000000000000000060001b836fffffffffffffffffffffffffffffffff1916161790506200cde57fe86d838820bdfe413a6efc1d939ebcc85c8a125c986f44def439bbcc63a404ab60001b6200ae6b565b6200ce137f9d181d274f156827b20051ab8380613c63b8618efeec0d623e9608162d6f6d4160001b6200ae6b565b60207bffffffff000000000000000000000000ffffffff000000000000000060001b8216901c7fffffffff000000000000000000000000ffffffff00000000000000000000000060001b82161790506200ce907f7fd576edf933fcba5169d6927cb917b0085986830855ed5f02689c8380e60b7960001b6200ae6b565b6200cebe7f4f31b11ba08ad216ad388958d8d11efe8fd719b8ca7614927227ce6440c20bec60001b6200ae6b565b60107dffff000000000000ffff000000000000ffff000000000000ffff0000000060001b8216901c7fffff000000000000ffff000000000000ffff000000000000ffff00000000000060001b82161790506200cf3d7f62c517c2e4281813807b716501d688ac237233e5e2fe421b34033e4789a28b9c60001b6200ae6b565b6200cf6b7f4a99e77a71136052b390de9ca402410602fae7dd89a8307d3da67e2f226236a060001b6200ae6b565b60087eff000000ff000000ff000000ff000000ff000000ff000000ff000000ff000060001b8216901c7fff000000ff000000ff000000ff000000ff000000ff000000ff000000ff00000060001b82161790506200cfeb7f1c5213c03d47838803ad816322770f5607490268acb84e4051fc58ea4abb625c60001b6200ae6b565b6200d0197f72c2a78e1879cae35ffcb1b9c92a0b32c8b114fe9ba3ed7af62de8595fff9fab60001b6200ae6b565b60087f0f000f000f000f000f000f000f000f000f000f000f000f000f000f000f000f0060001b8216901c60047ff000f000f000f000f000f000f000f000f000f000f000f000f000f000f000f00060001b8316901c1790506200d09e7ffffaa661d587aea6250db227fd6a0c819fa4fc64b1d9b335c0f3173a9ddd588260001b6200ae6b565b6200d0cc7fe2ec11a9b461fcb0e31ae147e87bb45cf695fd11b7ebcdafcf584264b828f2a360001b6200ae6b565b60077f0f0f0f0f0f0f0f0f0f0f0f0f0f0f0f0f0f0f0f0f0f0f0f0f0f0f0f0f0f0f0f0f60047f06060606060606060606060606060606060606060606060606060606060606068460001c6200d12291906200fbdb565b901c166200d13191906200fc70565b8160001c7f30303030303030303030303030303030303030303030303030303030303030306200d16291906200fbdb565b6200d16e91906200fbdb565b60001b9050919050565b505050565b600b80549050600c600083815260200190815260200160002081905550600b81908060018154018082558091505060019003906000526020600020016000909190919091505550565b600060016200d1d58462005270565b6200d1e191906200fcd1565b90506000600a60008481526020019081526020016000205490508181146200d2c7576000600960008673ffffffffffffffffffffffffffffffffffffffff1673ffffffffffffffffffffffffffffffffffffffff168152602001908152602001600020600084815260200190815260200160002054905080600960008773ffffffffffffffffffffffffffffffffffffffff1673ffffffffffffffffffffffffffffffffffffffff16815260200190815260200160002060008481526020019081526020016000208190555081600a600083815260200190815260200160002081905550505b600a600084815260200190815260200160002060009055600960008573ffffffffffffffffffffffffffffffffffffffff1673ffffffffffffffffffffffffffffffffffffffff16815260200190815260200160002060008381526020019081526020016000206000905550505050565b60006001600b805490506200d34e91906200fcd1565b90506000600c60008481526020019081526020016000205490506000600b83815481106200d381576200d38062010026565b5b9060005260206000200154905080600b83815481106200d3a6576200d3a562010026565b5b906000526020600020018190555081600c600083815260200190815260200160002081905550600c600085815260200190815260200160002060009055600b8054806200d3f8576200d3f76200fff7565b5b6001900381819060005260206000200160009055905550505050565b60006200d4218362005270565b905081600960008573ffffffffffffffffffffffffffffffffffffffff1673ffffffffffffffffffffffffffffffffffffffff16815260200190815260200160002060008381526020019081526020016000208190555080600a600084815260200190815260200160002081905550505050565b600083838346306040516020016200d4b29594939291906200f19b565b6040516020818303038152906040528051906020012090509392505050565b8280546200d4df906200fe17565b90600052602060002090601f0160209004810192826200d50357600085556200d54f565b82601f106200d51e57803560ff19168380011785556200d54f565b828001600101855582156200d54f579182015b828111156200d54e5782358255916020019190600101906200d531565b5b5090506200d55e91906200d5f3565b5090565b8280546200d570906200fe17565b90600052602060002090601f0160209004810192826200d59457600085556200d5e0565b82601f106200d5af57805160ff19168380011785556200d5e0565b828001600101855582156200d5e0579182015b828111156200d5df5782518255916020019190600101906200d5c2565b5b5090506200d5ef91906200d5f3565b5090565b5b808211156200d60e5760008160009055506001016200d5f4565b5090565b60006200d6296200d623846200fae5565b6200fabc565b9050828152602081018484840111156200d648576200d6476201009d565b5b6200d6558482856200fdd2565b509392505050565b6000813590506200d66e8162010efd565b92915050565b6000813590506200d6858162010f17565b92915050565b6000813590506200d69c8162010f31565b92915050565b6000813590506200d6b38162010f4b565b92915050565b6000815190506200d6ca8162010f4b565b92915050565b600082601f8301126200d6e8576200d6e762010089565b5b81356200d6fa8482602086016200d612565b91505092915050565b6000813590506200d7148162010f65565b92915050565b60008083601f8401126200d733576200d73262010089565b5b8235905067ffffffffffffffff8111156200d753576200d75262010084565b5b6020830191508360018202830111156200d772576200d77162010098565b5b9250929050565b6000608082840312156200d792576200d7916201008e565b5b6200d79e60806200fabc565b905060006200d7b0848285016200d65d565b60008301525060206200d7c6848285016200d65d565b60208301525060406200d7dc848285016200d81d565b604083015250606082013567ffffffffffffffff8111156200d803576200d80262010093565b5b6200d811848285016200d6d0565b60608301525092915050565b6000813590506200d82e8162010f76565b92915050565b6000602082840312156200d84d576200d84c620100a7565b5b60006200d85d848285016200d65d565b91505092915050565b600080604083850312156200d880576200d87f620100a7565b5b60006200d890858286016200d65d565b92505060206200d8a3858286016200d65d565b9150509250929050565b6000806000606084860312156200d8c9576200d8c8620100a7565b5b60006200d8d9868287016200d65d565b93505060206200d8ec868287016200d65d565b92505060406200d8ff868287016200d81d565b9150509250925092565b600080600080608085870312156200d926576200d925620100a7565b5b60006200d936878288016200d65d565b94505060206200d949878288016200d65d565b93505060406200d95c878288016200d81d565b925050606085013567ffffffffffffffff8111156200d980576200d97f620100a2565b5b6200d98e878288016200d6d0565b91505092959194509250565b600080604083850312156200d9b4576200d9b3620100a7565b5b60006200d9c4858286016200d65d565b92505060206200d9d7858286016200d674565b9150509250929050565b6000806000606084860312156200d9fd576200d9fc620100a7565b5b60006200da0d868287016200d65d565b93505060206200da20868287016200d68b565b92505060406200da33868287016200d81d565b9150509250925092565b600080604083850312156200da57576200da56620100a7565b5b60006200da67858286016200d65d565b92505060206200da7a858286016200d81d565b9150509250929050565b6000602082840312156200da9d576200da9c620100a7565b5b60006200daad848285016200d68b565b91505092915050565b600080604083850312156200dad0576200dacf620100a7565b5b60006200dae0858286016200d68b565b92505060206200daf3858286016200d65d565b9150509250929050565b600080604083850312156200db17576200db16620100a7565b5b60006200db27858286016200d68b565b92505060206200db3a858286016200d703565b9150509250929050565b6000806000604084860312156200db60576200db5f620100a7565b5b60006200db70868287016200d68b565b935050602084013567ffffffffffffffff8111156200db94576200db93620100a2565b5b6200dba2868287016200d71a565b92509250509250925092565b6000806000606084860312156200dbca576200dbc9620100a7565b5b60006200dbda868287016200d68b565b93505060206200dbed868287016200d81d565b92505060406200dc00868287016200d81d565b9150509250925092565b60008060008060008060a087890312156200dc2a576200dc29620100a7565b5b60006200dc3a89828a016200d68b565b96505060206200dc4d89828a016200d81d565b95505060406200dc6089828a016200d81d565b94505060606200dc7389828a016200d674565b935050608087013567ffffffffffffffff8111156200dc97576200dc96620100a2565b5b6200dca589828a016200d71a565b92509250509295509295509295565b6000806000806000608086880312156200dcd3576200dcd2620100a7565b5b60006200dce3888289016200d68b565b95505060206200dcf6888289016200d81d565b94505060406200dd09888289016200d81d565b935050606086013567ffffffffffffffff8111156200dd2d576200dd2c620100a2565b5b6200dd3b888289016200d71a565b92509250509295509295909350565b600080600080608085870312156200dd67576200dd66620100a7565b5b60006200dd77878288016200d68b565b94505060206200dd8a878288016200d81d565b93505060406200dd9d878288016200d81d565b92505060606200ddb0878288016200d81d565b91505092959194509250565b6000602082840312156200ddd5576200ddd4620100a7565b5b60006200dde5848285016200d6a2565b91505092915050565b6000602082840312156200de07576200de06620100a7565b5b60006200de17848285016200d6b9565b91505092915050565b6000806000604084860312156200de3c576200de3b620100a7565b5b600084013567ffffffffffffffff8111156200de5d576200de5c620100a2565b5b6200de6b868287016200d71a565b935093505060206200de80868287016200d674565b9150509250925092565b600080600080606085870312156200dea7576200dea6620100a7565b5b600085013567ffffffffffffffff8111156200dec8576200dec7620100a2565b5b6200ded6878288016200d71a565b945094505060206200deeb878288016200d674565b92505060406200defe878288016200d65d565b91505092959194509250565b6000602082840312156200df23576200df22620100a7565b5b60006200df33848285016200d81d565b91505092915050565b600080604083850312156200df56576200df55620100a7565b5b60006200df66858286016200d81d565b925050602083013567ffffffffffffffff8111156200df8a576200df89620100a2565b5b6200df98858286016200d779565b9150509250929050565b60006200dfb083836200e0e7565b60208301905092915050565b60006200dfca83836200ec0a565b60208301905092915050565b6200dfe1816200fd0c565b82525050565b6200dffc6200dff6826200fd0c565b6200fed1565b82525050565b60006200e00f826200fb3b565b6200e01b81856200fb81565b93506200e028836200fb1b565b8060005b838110156200e05f5781516200e04388826200dfa2565b97506200e050836200fb67565b9250506001810190506200e02c565b5085935050505092915050565b60006200e079826200fb46565b6200e08581856200fb92565b93506200e092836200fb2b565b8060005b838110156200e0c95781516200e0ad88826200dfbc565b97506200e0ba836200fb74565b9250506001810190506200e096565b5085935050505092915050565b6200e0e1816200fd20565b82525050565b6200e0f2816200fd2c565b82525050565b6200e103816200fd2c565b82525050565b6200e11e6200e118826200fd2c565b6200fee5565b82525050565b60006200e131826200fb51565b6200e13d81856200fba3565b93506200e14f8185602086016200fde1565b6200e15a81620100ac565b840191505092915050565b6200e170816200fdbe565b82525050565b60006200e18483856200fbbf565b93506200e1938385846200fdd2565b6200e19e83620100ac565b840190509392505050565b60006200e1b783856200fbd0565b93506200e1c68385846200fdd2565b82840190509392505050565b60006200e1df826200fb5c565b6200e1eb81856200fbbf565b93506200e1fd8185602086016200fde1565b6200e20881620100ac565b840191505092915050565b60006200e220826200fb5c565b6200e22c81856200fbd0565b93506200e23e8185602086016200fde1565b80840191505092915050565b60006200e2596025836200fbd0565b91506200e26682620100ca565b602582019050919050565b60006200e2806014836200fbbf565b91506200e28d8262010119565b602082019050919050565b60006200e2a76024836200fbd0565b91506200e2b48262010142565b602482019050919050565b60006200e2ce6029836200fbd0565b91506200e2db8262010191565b602982019050919050565b60006200e2f56012836200fbd0565b91506200e30282620101e0565b601282019050919050565b60006200e31c602b836200fbbf565b91506200e3298262010209565b604082019050919050565b60006200e3436032836200fbbf565b91506200e3508262010258565b604082019050919050565b60006200e36a6026836200fbbf565b91506200e37782620102a7565b604082019050919050565b60006200e3916025836200fbbf565b91506200e39e82620102f6565b604082019050919050565b60006200e3b8601c836200fbbf565b91506200e3c58262010345565b602082019050919050565b60006200e3df6029836200fbbf565b91506200e3ec826201036e565b604082019050919050565b60006200e4066002836200fbd0565b91506200e41382620103bd565b600282019050919050565b60006200e42d6016836200fbbf565b91506200e43a82620103e6565b602082019050919050565b60006200e4546002836200fbd0565b91506200e461826201040f565b600282019050919050565b60006200e47b6013836200fbbf565b91506200e4888262010438565b602082019050919050565b60006200e4a26001836200fbd0565b91506200e4af8262010461565b600182019050919050565b60006200e4c96024836200fbbf565b91506200e4d6826201048a565b604082019050919050565b60006200e4f0600e836200fbbf565b91506200e4fd82620104d9565b602082019050919050565b60006200e5176019836200fbbf565b91506200e5248262010502565b602082019050919050565b60006200e53e6012836200fbbf565b91506200e54b826201052b565b602082019050919050565b60006200e565603a836200fbbf565b91506200e5728262010554565b604082019050919050565b60006200e58c6032836200fbd0565b91506200e59982620105a3565b603282019050919050565b60006200e5b36034836200fbd0565b91506200e5c082620105f2565b603482019050919050565b60006200e5da601d836200fbbf565b91506200e5e78262010641565b602082019050919050565b60006200e6016003836200fbd0565b91506200e60e826201066a565b600382019050919050565b60006200e628602c836200fbbf565b91506200e6358262010693565b604082019050919050565b60006200e64f6012836200fbbf565b91506200e65c82620106e2565b602082019050919050565b60006200e6766026836200fbbf565b91506200e683826201070b565b604082019050919050565b60006200e69d6012836200fbbf565b91506200e6aa826201075a565b602082019050919050565b60006200e6c46010836200fbbf565b91506200e6d18262010783565b602082019050919050565b60006200e6eb6038836200fbbf565b91506200e6f882620107ac565b604082019050919050565b60006200e7126001836200fbd0565b91506200e71f82620107fb565b600182019050919050565b60006200e7396014836200fbbf565b91506200e7468262010824565b602082019050919050565b60006200e760602a836200fbbf565b91506200e76d826201084d565b604082019050919050565b60006200e7876029836200fbbf565b91506200e794826201089c565b604082019050919050565b60006200e7ae602e836200fbbf565b91506200e7bb82620108eb565b604082019050919050565b60006200e7d5601c836200fbbf565b91506200e7e2826201093a565b602082019050919050565b60006200e7fc6018836200fbd0565b91506200e8098262010963565b601882019050919050565b60006200e8236016836200fbbf565b91506200e830826201098c565b602082019050919050565b60006200e84a600f836200fbd0565b91506200e85782620109b5565b600f82019050919050565b60006200e8716020836200fbbf565b91506200e87e82620109de565b602082019050919050565b60006200e898601b836200fbbf565b91506200e8a58262010a07565b602082019050919050565b60006200e8bf6001836200fbd0565b91506200e8cc8262010a30565b600182019050919050565b60006200e8e66031836200fbbf565b91506200e8f38262010a59565b604082019050919050565b60006200e90d602c836200fbbf565b91506200e91a8262010aa8565b604082019050919050565b60006200e9346020836200fbbf565b91506200e9418262010af7565b602082019050919050565b60006200e95b602f836200fbbf565b91506200e9688262010b20565b604082019050919050565b60006200e982600c836200fbbf565b91506200e98f8262010b6f565b602082019050919050565b60006200e9a96001836200fbd0565b91506200e9b68262010b98565b600182019050919050565b60006200e9d06021836200fbbf565b91506200e9dd8262010bc1565b604082019050919050565b60006200e9f7601d836200fbd0565b91506200ea048262010c10565b601d82019050919050565b60006200ea1e6022836200fbbf565b91506200ea2b8262010c39565b604082019050919050565b60006200ea456000836200fbb4565b91506200ea528262010c88565b600082019050919050565b60006200ea6c6031836200fbbf565b91506200ea798262010c8b565b604082019050919050565b60006200ea93601d836200fbbf565b91506200eaa08262010cda565b602082019050919050565b60006200eaba602c836200fbbf565b91506200eac78262010d03565b604082019050919050565b60006200eae1602b836200fbbf565b91506200eaee8262010d52565b604082019050919050565b60006200eb086019836200fbbf565b91506200eb158262010da1565b602082019050919050565b60006200eb2f6011836200fbbf565b91506200eb3c8262010dca565b602082019050919050565b60006200eb566025836200fbd0565b91506200eb638262010df3565b602582019050919050565b60006200eb7d6017836200fbbf565b91506200eb8a8262010e42565b602082019050919050565b60006200eba46017836200fbbf565b91506200ebb18262010e6b565b602082019050919050565b60006200ebcb601e836200fbbf565b91506200ebd88262010e94565b602082019050919050565b60006200ebf2600e836200fbbf565b91506200ebff8262010ebd565b602082019050919050565b6200ec15816200fd97565b82525050565b6200ec26816200fd97565b82525050565b6200ec37816200fda1565b82525050565b6200ec48816200fdb1565b82525050565b60006200ec5c82866200dfe7565b6014820191506200ec6f8284866200e1a9565b9150819050949350505050565b60006200ec8a82866200e109565b6020820191506200ec9d8284866200e1a9565b9150819050949350505050565b60006200ecb882856200e213565b91506200ecc682846200e213565b91508190509392505050565b60006200ecdf826200e3f7565b91506200eced82856200e109565b6020820191506200ecff82846200e109565b6020820191508190509392505050565b60006200ed1c826200e445565b91506200ed2a82856200e109565b6020820191506200ed3c82846200e109565b6020820191508190509392505050565b60006200ed59826200e57d565b91506200ed6782886200e213565b91506200ed74826200e298565b91506200ed8282876200e213565b91506200ed8f826200e24a565b91506200ed9d82866200e213565b91506200edaa826200e2bf565b91506200edb882856200e213565b91506200edc5826200eb47565b91506200edd382846200e213565b91506200ede0826200e5f2565b91508190509695505050505050565b60006200edfc826200e7ed565b91506200ee0a82876200e213565b91506200ee17826200e5a4565b91506200ee2582866200e213565b91506200ee32826200e2e6565b91506200ee4082856200e213565b91506200ee4d826200e83b565b91506200ee5b82846200e213565b91506200ee68826200e703565b915081905095945050505050565b60006200ee83826200e99a565b91506200ee9182856200e213565b91506200ee9e826200e493565b91506200eeac82846200e213565b91506200eeb9826200e8b0565b91508190509392505050565b60006200eed2826200e9e8565b91506200eee082846200e213565b915081905092915050565b60006200eef8826200ea36565b9150819050919050565b60006020820190506200ef1960008301846200dfd6565b92915050565b60006080820190506200ef3660008301876200dfd6565b6200ef4560208301866200dfd6565b6200ef5460408301856200ec1b565b81810360608301526200ef6881846200e124565b905095945050505050565b600060a0820190506200ef8a60008301886200dfd6565b6200ef9960208301876200e0d6565b6200efa860408301866200e0d6565b81810360608301526200efbc81856200e1d2565b90506200efcd60808301846200dfd6565b9695505050505050565b600060208201905081810360008301526200eff381846200e002565b905092915050565b600060208201905081810360008301526200f01781846200e06c565b905092915050565b60006020820190506200f03660008301846200e0d6565b92915050565b60006080820190506200f05360008301876200e0d6565b6200f06260208301866200dfd6565b6200f07160408301856200e0d6565b81810360608301526200f08581846200e1d2565b905095945050505050565b600060c0820190506200f0a760008301896200e0d6565b6200f0b660208301886200e0f8565b6200f0c560408301876200ec1b565b6200f0d460608301866200ec1b565b6200f0e360808301856200e0d6565b81810360a08301526200f0f781846200e1d2565b9050979650505050505050565b60006020820190506200f11b60008301846200e0f8565b92915050565b60006080820190506200f13860008301876200e0f8565b6200f14760208301866200dfd6565b6200f15660408301856200dfd6565b6200f16560608301846200ec1b565b95945050505050565b60006040820190506200f18560008301856200e0f8565b6200f19460208301846200e0d6565b9392505050565b600060a0820190506200f1b260008301886200e0f8565b6200f1c160208301876200e0f8565b6200f1d060408301866200e0f8565b6200f1df60608301856200ec1b565b6200f1ee60808301846200dfd6565b9695505050505050565b600060c0820190506200f20f600083018a6200e0f8565b6200f21e60208301896200e0f8565b6200f22d60408301886200ec1b565b6200f23c60608301876200ec1b565b6200f24b60808301866200e0d6565b81810360a08301526200f2608184866200e176565b905098975050505050505050565b60006040820190506200f28560008301866200e0f8565b81810360208301526200f29a8184866200e176565b9050949350505050565b60006040820190506200f2bb60008301856200e0f8565b6200f2ca60208301846200ec1b565b9392505050565b600060c0820190506200f2e860008301896200e0f8565b6200f2f760208301886200ec1b565b6200f30660408301876200ec1b565b6200f31560608301866200e0d6565b6200f32460808301856200e0d6565b81810360a08301526200f33881846200e1d2565b9050979650505050505050565b60006080820190506200f35c60008301886200e0f8565b6200f36b60208301876200ec1b565b6200f37a60408301866200ec1b565b81810360608301526200f38f8184866200e176565b90509695505050505050565b60006080820190506200f3b260008301876200e0f8565b6200f3c160208301866200ec3d565b6200f3d060408301856200e0f8565b6200f3df60608301846200e0f8565b95945050505050565b60006020820190506200f3ff60008301846200e165565b92915050565b600060208201905081810360008301526200f42181846200e1d2565b905092915050565b600060208201905081810360008301526200f444816200e271565b9050919050565b600060208201905081810360008301526200f466816200e30d565b9050919050565b600060208201905081810360008301526200f488816200e334565b9050919050565b600060208201905081810360008301526200f4aa816200e35b565b9050919050565b600060208201905081810360008301526200f4cc816200e382565b9050919050565b600060208201905081810360008301526200f4ee816200e3a9565b9050919050565b600060208201905081810360008301526200f510816200e3d0565b9050919050565b600060208201905081810360008301526200f532816200e41e565b9050919050565b600060208201905081810360008301526200f554816200e46c565b9050919050565b600060208201905081810360008301526200f576816200e4ba565b9050919050565b600060208201905081810360008301526200f598816200e4e1565b9050919050565b600060208201905081810360008301526200f5ba816200e508565b9050919050565b600060208201905081810360008301526200f5dc816200e52f565b9050919050565b600060208201905081810360008301526200f5fe816200e556565b9050919050565b600060208201905081810360008301526200f620816200e5cb565b9050919050565b600060208201905081810360008301526200f642816200e619565b9050919050565b600060208201905081810360008301526200f664816200e640565b9050919050565b600060208201905081810360008301526200f686816200e667565b9050919050565b600060208201905081810360008301526200f6a8816200e68e565b9050919050565b600060208201905081810360008301526200f6ca816200e6b5565b9050919050565b600060208201905081810360008301526200f6ec816200e6dc565b9050919050565b600060208201905081810360008301526200f70e816200e72a565b9050919050565b600060208201905081810360008301526200f730816200e751565b9050919050565b600060208201905081810360008301526200f752816200e778565b9050919050565b600060208201905081810360008301526200f774816200e79f565b9050919050565b600060208201905081810360008301526200f796816200e7c6565b9050919050565b600060208201905081810360008301526200f7b8816200e814565b9050919050565b600060208201905081810360008301526200f7da816200e862565b9050919050565b600060208201905081810360008301526200f7fc816200e889565b9050919050565b600060208201905081810360008301526200f81e816200e8d7565b9050919050565b600060208201905081810360008301526200f840816200e8fe565b9050919050565b600060208201905081810360008301526200f862816200e925565b9050919050565b600060208201905081810360008301526200f884816200e94c565b9050919050565b600060208201905081810360008301526200f8a6816200e973565b9050919050565b600060208201905081810360008301526200f8c8816200e9c1565b9050919050565b600060208201905081810360008301526200f8ea816200ea0f565b9050919050565b600060208201905081810360008301526200f90c816200ea5d565b9050919050565b600060208201905081810360008301526200f92e816200ea84565b9050919050565b600060208201905081810360008301526200f950816200eaab565b9050919050565b600060208201905081810360008301526200f972816200ead2565b9050919050565b600060208201905081810360008301526200f994816200eaf9565b9050919050565b600060208201905081810360008301526200f9b6816200eb20565b9050919050565b600060208201905081810360008301526200f9d8816200eb6e565b9050919050565b600060208201905081810360008301526200f9fa816200eb95565b9050919050565b600060208201905081810360008301526200fa1c816200ebbc565b9050919050565b600060208201905081810360008301526200fa3e816200ebe3565b9050919050565b60006020820190506200fa5c60008301846200ec1b565b92915050565b60006060820190506200fa7960008301866200ec1b565b6200fa8860208301856200e0f8565b6200fa9760408301846200ec1b565b949350505050565b60006020820190506200fab660008301846200ec2c565b92915050565b60006200fac86200fadb565b90506200fad682826200fe4d565b919050565b6000604051905090565b600067ffffffffffffffff8211156200fb03576200fb0262010055565b5b6200fb0e82620100ac565b9050602081019050919050565b6000819050602082019050919050565b6000819050602082019050919050565b600081519050919050565b600081519050919050565b600081519050919050565b600081519050919050565b6000602082019050919050565b6000602082019050919050565b600082825260208201905092915050565b600082825260208201905092915050565b600082825260208201905092915050565b600081905092915050565b600082825260208201905092915050565b600081905092915050565b60006200fbe8826200fd97565b91506200fbf5836200fd97565b9250827fffffffffffffffffffffffffffffffffffffffffffffffffffffffffffffffff038211156200fc2d576200fc2c6200ff3b565b5b828201905092915050565b60006200fc45826200fd97565b91506200fc52836200fd97565b9250826200fc65576200fc646200ff6a565b5b828204905092915050565b60006200fc7d826200fd97565b91506200fc8a836200fd97565b9250817fffffffffffffffffffffffffffffffffffffffffffffffffffffffffffffffff04831182151516156200fcc6576200fcc56200ff3b565b5b828202905092915050565b60006200fcde826200fd97565b91506200fceb836200fd97565b9250828210156200fd01576200fd006200ff3b565b5b828203905092915050565b60006200fd19826200fd77565b9050919050565b60008115159050919050565b6000819050919050565b60007fffffffff0000000000000000000000000000000000000000000000000000000082169050919050565b60008190506200fd728262010ee6565b919050565b600073ffffffffffffffffffffffffffffffffffffffff82169050919050565b6000819050919050565b600063ffffffff82169050919050565b600060ff82169050919050565b60006200fdcb826200fd62565b9050919050565b82818337600083830152505050565b60005b838110156200fe015780820151818401526020810190506200fde4565b838111156200fe11576000848401525b50505050565b600060028204905060018216806200fe3057607f821691505b602082108114156200fe47576200fe466200ffc8565b5b50919050565b6200fe5882620100ac565b810181811067ffffffffffffffff821117156200fe7a576200fe7962010055565b5b80604052505050565b60006200fe90826200fd97565b91507fffffffffffffffffffffffffffffffffffffffffffffffffffffffffffffffff8214156200fec6576200fec56200ff3b565b5b600182019050919050565b60006200fede826200feef565b9050919050565b6000819050919050565b60006200fefc82620100bd565b9050919050565b60006200ff10826200fd97565b91506200ff1d836200fd97565b9250826200ff30576200ff2f6200ff6a565b5b828206905092915050565b7f4e487b7100000000000000000000000000000000000000000000000000000000600052601160045260246000fd5b7f4e487b7100000000000000000000000000000000000000000000000000000000600052601260045260246000fd5b7f4e487b7100000000000000000000000000000000000000000000000000000000600052602160045260246000fd5b7f4e487b7100000000000000000000000000000000000000000000000000000000600052602260045260246000fd5b7f4e487b7100000000000000000000000000000000000000000000000000000000600052603160045260246000fd5b7f4e487b7100000000000000000000000000000000000000000000000000000000600052603260045260246000fd5b7f4e487b7100000000000000000000000000000000000000000000000000000000600052604160045260246000fd5b600080fd5b600080fd5b600080fd5b600080fd5b600080fd5b600080fd5b600080fd5b600080fd5b6000601f19601f8301169050919050565b60008160601b9050919050565b7f227d2c7b2274726169745f74797065223a227374617274446179222c2276616c60008201527f7565223a22000000000000000000000000000000000000000000000000000000602082015250565b7f5061757361626c653a206e6f7420706175736564000000000000000000000000600082015250565b7f227d2c7b2274726169745f74797065223a2273706163654964222c2276616c7560008201527f65223a2200000000000000000000000000000000000000000000000000000000602082015250565b7f227d2c7b2274726169745f74797065223a226e756d6265724f6644617973222c60008201527f2276616c7565223a220000000000000000000000000000000000000000000000602082015250565b7f222c2265787465726e616c5f75726c223a220000000000000000000000000000600082015250565b7f455243373231456e756d657261626c653a206f776e657220696e646578206f7560008201527f74206f6620626f756e6473000000000000000000000000000000000000000000602082015250565b7f4552433732313a207472616e7366657220746f206e6f6e20455243373231526560008201527f63656976657220696d706c656d656e7465720000000000000000000000000000602082015250565b7f4f776e61626c653a206e6577206f776e657220697320746865207a65726f206160008201527f6464726573730000000000000000000000000000000000000000000000000000602082015250565b7f4552433732313a207472616e736665722066726f6d20696e636f72726563742060008201527f6f776e6572000000000000000000000000000000000000000000000000000000602082015250565b7f4552433732313a20746f6b656e20616c7265616479206d696e74656400000000600082015250565b7f576974686472617720616d6f756e74206e6f7420616c6c6f77656420696e207460008201527f6869732073746174650000000000000000000000000000000000000000000000602082015250565b7f1901000000000000000000000000000000000000000000000000000000000000600082015250565b7f446f6e2774207374617920696e20746865207061737400000000000000000000600082015250565b7f3078000000000000000000000000000000000000000000000000000000000000600082015250565b7f416c726561647920636865636b6564206f757400000000000000000000000000600082015250565b7f2c00000000000000000000000000000000000000000000000000000000000000600082015250565b7f4552433732313a207472616e7366657220746f20746865207a65726f2061646460008201527f7265737300000000000000000000000000000000000000000000000000000000602082015250565b7f42726f6b656e20766f7563686572000000000000000000000000000000000000600082015250565b7f4552433732313a20617070726f766520746f2063616c6c657200000000000000600082015250565b7f416c726561647920636865636b656420696e0000000000000000000000000000600082015250565b7f416464726573733a20756e61626c6520746f2073656e642076616c75652c207260008201527f6563697069656e74206d61792068617665207265766572746564000000000000602082015250565b7f2261747472696275746573223a5b7b2274726169745f74797065223a2266616360008201527f696c6974794964222c2276616c7565223a220000000000000000000000000000602082015250565b7f222c226465736372697074696f6e223a2253746179206174206c6f6467696e6760008201527f20666163696c697479222c22696d616765223a22000000000000000000000000602082015250565b7f416464726573733a20696e73756666696369656e742062616c616e6365000000600082015250565b7f227d5d0000000000000000000000000000000000000000000000000000000000600082015250565b7f4552433732313a206f70657261746f7220717565727920666f72206e6f6e657860008201527f697374656e7420746f6b656e0000000000000000000000000000000000000000602082015250565b7f4e6565642e204d6f72652e204d6f6e6579210000000000000000000000000000600082015250565b7f4f6e6c79206c6f6467696e6720666163696c697479206f776e6572206973206160008201527f6c6c6f7765640000000000000000000000000000000000000000000000000000602082015250565b7f496e73756666696369656e742066756e64730000000000000000000000000000600082015250565b7f5061757361626c653a2070617573656400000000000000000000000000000000600082015250565b7f4552433732313a20617070726f76652063616c6c6572206973206e6f74206f7760008201527f6e6572206e6f7220617070726f76656420666f7220616c6c0000000000000000602082015250565b7f2200000000000000000000000000000000000000000000000000000000000000600082015250565b7f537061636520616c726561647920657869737473000000000000000000000000600082015250565b7f4552433732313a2062616c616e636520717565727920666f7220746865207a6560008201527f726f206164647265737300000000000000000000000000000000000000000000602082015250565b7f4552433732313a206f776e657220717565727920666f72206e6f6e657869737460008201527f656e7420746f6b656e0000000000000000000000000000000000000000000000602082015250565b7f45524337323155524953746f726167653a2055524920736574206f66206e6f6e60008201527f6578697374656e7420746f6b656e000000000000000000000000000000000000602082015250565b7f4c6f6467696e6720466163696c69747920697320696e61637469766500000000600082015250565b7f226e616d65223a225374617920416d7374657264616d20230000000000000000600082015250565b7f496e73756666696369656e7420696e76656e746f727900000000000000000000600082015250565b7f746f6b656e733f746f6b656e49643d0000000000000000000000000000000000600082015250565b7f4552433732313a206d696e7420746f20746865207a65726f2061646472657373600082015250565b7f4f6e6c79207370616365206f776e657220697320616c6c6f7765640000000000600082015250565b7f7d00000000000000000000000000000000000000000000000000000000000000600082015250565b7f45524337323155524953746f726167653a2055524920717565727920666f722060008201527f6e6f6e6578697374656e7420746f6b656e000000000000000000000000000000602082015250565b7f4552433732313a20617070726f76656420717565727920666f72206e6f6e657860008201527f697374656e7420746f6b656e0000000000000000000000000000000000000000602082015250565b7f4f776e61626c653a2063616c6c6572206973206e6f7420746865206f776e6572600082015250565b7f4552433732314d657461646174613a2055524920717565727920666f72206e6f60008201527f6e6578697374656e7420746f6b656e0000000000000000000000000000000000602082015250565b7f57726f6e672063616c6c65720000000000000000000000000000000000000000600082015250565b7f7b00000000000000000000000000000000000000000000000000000000000000600082015250565b7f4552433732313a20617070726f76616c20746f2063757272656e74206f776e6560008201527f7200000000000000000000000000000000000000000000000000000000000000602082015250565b7f646174613a6170706c69636174696f6e2f6a736f6e3b6261736536342c000000600082015250565b7f4e756d626572206f6620646179732073686f756c642062652031206f72206d6f60008201527f7265000000000000000000000000000000000000000000000000000000000000602082015250565b50565b7f4552433732313a207472616e736665722063616c6c6572206973206e6f74206f60008201527f776e6572206e6f7220617070726f766564000000000000000000000000000000602082015250565b7f566f7563686572207369676e6572206973206e6f7420616c6c6f776564000000600082015250565b7f455243373231456e756d657261626c653a20676c6f62616c20696e646578206f60008201527f7574206f6620626f756e64730000000000000000000000000000000000000000602082015250565b7f436f6d706c657465207769746864726177206e6f7420616c6c6f77656420696e60008201527f2074686973207374617465000000000000000000000000000000000000000000602082015250565b7f4461746120555249206d7573742062652070726f766964656400000000000000600082015250565b7f537061636520697320696e616374697665000000000000000000000000000000600082015250565b7f227d2c7b2274726169745f74797065223a227175616e74697479222c2276616c60008201527f7565223a22000000000000000000000000000000000000000000000000000000602082015250565b7f466163696c69747920616c726561647920657869737473000000000000000000600082015250565b7f466163696c69747920646f6573206e6f74206578697374000000000000000000600082015250565b7f466f7262696464656e20756e6c65737320636865636b6f757420646174650000600082015250565b7f53746179206e6f7420666f756e64000000000000000000000000000000000000600082015250565b6003811062010efa5762010ef96200ff99565b5b50565b62010f08816200fd0c565b811462010f1457600080fd5b50565b62010f22816200fd20565b811462010f2e57600080fd5b50565b62010f3c816200fd2c565b811462010f4857600080fd5b50565b62010f56816200fd36565b811462010f6257600080fd5b50565b6003811062010f7357600080fd5b50565b62010f81816200fd97565b811462010f8d57600080fd5b5056fe4f6e6c7920666163696c697479206f776e6572206d6179206164642053706163657368747470733a2f2f62616679626569616b6a726862676d7635346c346e73647778786364666b7065716833336d343561736d7736726b7768756a727977327161376e342e697066732e647765622e6c696e6b2f746f6b656e2e706e674142434445464748494a4b4c4d4e4f505152535455565758595a6162636465666768696a6b6c6d6e6f707172737475767778797a303132333435363738392b2fa2646970667358221220a9d789051732a497ed3d3e9f350bf59f22d936ae60db71f213dddc7787bc32bb64736f6c63430008070033",
  "linkReferences": {},
  "deployedLinkReferences": {}
}