{
  "_format": "hh-sol-artifact-1",
  "contractName": "EthRioStays",
  "sourceName": "contracts/EthRioStays.sol",
  "abi": [
    {
      "inputs": [],
      "stateMutability": "nonpayable",
      "type": "constructor"
    },
    {
      "anonymous": false,
      "inputs": [
        {
          "indexed": true,
          "internalType": "address",
          "name": "owner",
          "type": "address"
        },
        {
          "indexed": true,
          "internalType": "address",
          "name": "approved",
          "type": "address"
        },
        {
          "indexed": true,
          "internalType": "uint256",
          "name": "tokenId",
          "type": "uint256"
        }
      ],
      "name": "Approval",
      "type": "event"
    },
    {
      "anonymous": false,
      "inputs": [
        {
          "indexed": true,
          "internalType": "address",
          "name": "owner",
          "type": "address"
        },
        {
          "indexed": true,
          "internalType": "address",
          "name": "operator",
          "type": "address"
        },
        {
          "indexed": false,
          "internalType": "bool",
          "name": "approved",
          "type": "bool"
        }
      ],
      "name": "ApprovalForAll",
      "type": "event"
    },
    {
      "anonymous": false,
      "inputs": [
        {
          "indexed": false,
          "internalType": "bytes32",
          "name": "facilityId",
          "type": "bytes32"
        },
        {
          "indexed": false,
          "internalType": "bool",
          "name": "active",
          "type": "bool"
        }
      ],
      "name": "LodgingFacilityActiveState",
      "type": "event"
    },
    {
      "anonymous": false,
      "inputs": [
        {
          "indexed": false,
          "internalType": "bytes32",
          "name": "facilityId",
          "type": "bytes32"
        },
        {
          "indexed": true,
          "internalType": "address",
          "name": "owner",
          "type": "address"
        },
        {
          "indexed": false,
          "internalType": "string",
          "name": "dataURI",
          "type": "string"
        }
      ],
      "name": "LodgingFacilityCreated",
      "type": "event"
    },
    {
      "anonymous": false,
      "inputs": [
        {
          "indexed": false,
          "internalType": "bytes32",
          "name": "facilityId",
          "type": "bytes32"
        },
        {
          "indexed": true,
          "internalType": "address",
          "name": "prevOwner",
          "type": "address"
        },
        {
          "indexed": true,
          "internalType": "address",
          "name": "newOwner",
          "type": "address"
        }
      ],
      "name": "LodgingFacilityOwnershipTransfer",
      "type": "event"
    },
    {
      "anonymous": false,
      "inputs": [
        {
          "indexed": false,
          "internalType": "bytes32",
          "name": "facilityId",
          "type": "bytes32"
        }
      ],
      "name": "LodgingFacilityRemoved",
      "type": "event"
    },
    {
      "anonymous": false,
      "inputs": [
        {
          "indexed": false,
          "internalType": "bytes32",
          "name": "facilityId",
          "type": "bytes32"
        },
        {
          "indexed": false,
          "internalType": "string",
          "name": "dataURI",
          "type": "string"
        }
      ],
      "name": "LodgingFacilityUpdated",
      "type": "event"
    },
    {
      "anonymous": false,
      "inputs": [
        {
          "indexed": false,
          "internalType": "bytes32",
          "name": "spaceID",
          "type": "bytes32"
        },
        {
          "indexed": false,
          "internalType": "uint256",
          "name": "tokenId",
          "type": "uint256"
        }
      ],
      "name": "NewStay",
      "type": "event"
    },
    {
      "anonymous": false,
      "inputs": [
        {
          "indexed": false,
          "internalType": "bytes32",
          "name": "facilityId",
          "type": "bytes32"
        },
        {
          "indexed": false,
          "internalType": "uint64",
          "name": "capacity",
          "type": "uint64"
        },
        {
          "indexed": false,
          "internalType": "uint64",
          "name": "pricePerNightWei",
          "type": "uint64"
        },
        {
          "indexed": false,
          "internalType": "bool",
          "name": "active",
          "type": "bool"
        },
        {
          "indexed": false,
          "internalType": "string",
          "name": "dataURI",
          "type": "string"
        }
      ],
      "name": "SpaceAdded",
      "type": "event"
    },
    {
      "anonymous": false,
      "inputs": [
        {
          "indexed": false,
          "internalType": "bytes32",
          "name": "facilityId",
          "type": "bytes32"
        },
        {
          "indexed": false,
          "internalType": "uint256",
          "name": "index",
          "type": "uint256"
        },
        {
          "indexed": false,
          "internalType": "uint64",
          "name": "capacity",
          "type": "uint64"
        },
        {
          "indexed": false,
          "internalType": "uint64",
          "name": "pricePerNightWei",
          "type": "uint64"
        },
        {
          "indexed": false,
          "internalType": "bool",
          "name": "active",
          "type": "bool"
        },
        {
          "indexed": false,
          "internalType": "string",
          "name": "dataURI",
          "type": "string"
        }
      ],
      "name": "SpaceUpdated",
      "type": "event"
    },
    {
      "anonymous": false,
      "inputs": [
        {
          "indexed": true,
          "internalType": "address",
          "name": "from",
          "type": "address"
        },
        {
          "indexed": true,
          "internalType": "address",
          "name": "to",
          "type": "address"
        },
        {
          "indexed": true,
          "internalType": "uint256",
          "name": "tokenId",
          "type": "uint256"
        }
      ],
      "name": "Transfer",
      "type": "event"
    },
    {
      "inputs": [
        {
          "internalType": "bytes32",
          "name": "_lodgingFacilityId",
          "type": "bytes32"
        }
      ],
      "name": "activateLodgingFacility",
      "outputs": [],
      "stateMutability": "nonpayable",
      "type": "function"
    },
    {
      "inputs": [
        {
          "internalType": "bytes32",
          "name": "_lodgingFacilityId",
          "type": "bytes32"
        },
        {
          "internalType": "uint16",
          "name": "_capacity",
          "type": "uint16"
        },
        {
          "internalType": "uint64",
          "name": "_pricePerNightWei",
          "type": "uint64"
        },
        {
          "internalType": "bool",
          "name": "_active",
          "type": "bool"
        },
        {
          "internalType": "string",
          "name": "_dataURI",
          "type": "string"
        }
      ],
      "name": "addSpace",
      "outputs": [],
      "stateMutability": "nonpayable",
      "type": "function"
    },
    {
      "inputs": [
        {
          "internalType": "address",
          "name": "to",
          "type": "address"
        },
        {
          "internalType": "uint256",
          "name": "tokenId",
          "type": "uint256"
        }
      ],
      "name": "approve",
      "outputs": [],
      "stateMutability": "nonpayable",
      "type": "function"
    },
    {
      "inputs": [
        {
          "internalType": "address",
          "name": "owner",
          "type": "address"
        }
      ],
      "name": "balanceOf",
      "outputs": [
        {
          "internalType": "uint256",
          "name": "",
          "type": "uint256"
        }
      ],
      "stateMutability": "view",
      "type": "function"
    },
    {
      "inputs": [],
      "name": "dayZero",
      "outputs": [
        {
          "internalType": "uint32",
          "name": "",
          "type": "uint32"
        }
      ],
      "stateMutability": "view",
      "type": "function"
    },
    {
      "inputs": [
        {
          "internalType": "bytes32",
          "name": "_lodgingFacilityId",
          "type": "bytes32"
        }
      ],
      "name": "deactivateLodgingFacility",
      "outputs": [],
      "stateMutability": "nonpayable",
      "type": "function"
    },
    {
      "inputs": [
        {
          "internalType": "bytes32",
          "name": "_lodgingFacilityId",
          "type": "bytes32"
        }
      ],
      "name": "deleteLodgingFacility",
      "outputs": [],
      "stateMutability": "nonpayable",
      "type": "function"
    },
    {
      "inputs": [],
      "name": "getActiveLodgingFacilityIds",
      "outputs": [
        {
          "internalType": "bytes32[]",
          "name": "activeLodgingFacilityIds",
          "type": "bytes32[]"
        }
      ],
      "stateMutability": "view",
      "type": "function"
    },
    {
      "inputs": [
        {
          "internalType": "bytes32",
          "name": "_lodgingFacilityId",
          "type": "bytes32"
        }
      ],
      "name": "getActiveSpaceIdsByFacilityId",
      "outputs": [
        {
          "internalType": "bytes32[]",
          "name": "activeSpacesIds",
          "type": "bytes32[]"
        }
      ],
      "stateMutability": "nonpayable",
      "type": "function"
    },
    {
      "inputs": [],
      "name": "getAllLodgingFacilityIds",
      "outputs": [
        {
          "internalType": "bytes32[]",
          "name": "",
          "type": "bytes32[]"
        }
      ],
      "stateMutability": "view",
      "type": "function"
    },
    {
      "inputs": [
        {
          "internalType": "uint256",
          "name": "tokenId",
          "type": "uint256"
        }
      ],
      "name": "getApproved",
      "outputs": [
        {
          "internalType": "address",
          "name": "",
          "type": "address"
        }
      ],
      "stateMutability": "view",
      "type": "function"
    },
    {
      "inputs": [
        {
          "internalType": "bytes32",
          "name": "_spaceId",
          "type": "bytes32"
        },
        {
          "internalType": "uint16",
          "name": "_startDay",
          "type": "uint16"
        },
        {
          "internalType": "uint16",
          "name": "_numberOfDays",
          "type": "uint16"
        }
      ],
      "name": "getAvailability",
      "outputs": [
        {
          "internalType": "uint16[]",
          "name": "",
          "type": "uint16[]"
        }
      ],
      "stateMutability": "view",
      "type": "function"
    },
    {
      "inputs": [
        {
          "internalType": "bytes32",
          "name": "_lodgingFacilityId",
          "type": "bytes32"
        }
      ],
      "name": "getLodgingFacilityById",
      "outputs": [
        {
          "internalType": "bool",
          "name": "exists",
          "type": "bool"
        },
        {
          "internalType": "address",
          "name": "owner",
          "type": "address"
        },
        {
          "internalType": "bool",
          "name": "active",
          "type": "bool"
        },
        {
          "internalType": "string",
          "name": "dataURI",
          "type": "string"
        }
      ],
      "stateMutability": "view",
      "type": "function"
    },
    {
      "inputs": [
        {
          "internalType": "address",
          "name": "_owner",
          "type": "address"
        }
      ],
      "name": "getLodgingFacilityIdsByOwner",
      "outputs": [
        {
          "internalType": "bytes32[]",
          "name": "",
          "type": "bytes32[]"
        }
      ],
      "stateMutability": "nonpayable",
      "type": "function"
    },
    {
      "inputs": [
        {
          "internalType": "bytes32",
          "name": "_spaceId",
          "type": "bytes32"
        }
      ],
      "name": "getSpaceById",
      "outputs": [
        {
          "internalType": "bool",
          "name": "exists",
          "type": "bool"
        },
        {
          "internalType": "bytes32",
          "name": "lodgingFacilityId",
          "type": "bytes32"
        },
        {
          "internalType": "uint16",
          "name": "capacity",
          "type": "uint16"
        },
        {
          "internalType": "uint256",
          "name": "pricePerNightWei",
          "type": "uint256"
        },
        {
          "internalType": "bool",
          "name": "active",
          "type": "bool"
        },
        {
          "internalType": "string",
          "name": "dataURI",
          "type": "string"
        }
      ],
      "stateMutability": "view",
      "type": "function"
    },
    {
      "inputs": [
        {
          "internalType": "bytes32",
          "name": "_lodgingFacilityId",
          "type": "bytes32"
        }
      ],
      "name": "getSpaceIdsByFacilityId",
      "outputs": [
        {
          "internalType": "bytes32[]",
          "name": "",
          "type": "bytes32[]"
        }
      ],
      "stateMutability": "view",
      "type": "function"
    },
    {
      "inputs": [
        {
          "internalType": "address",
          "name": "owner",
          "type": "address"
        },
        {
          "internalType": "address",
          "name": "operator",
          "type": "address"
        }
      ],
      "name": "isApprovedForAll",
      "outputs": [
        {
          "internalType": "bool",
          "name": "",
          "type": "bool"
        }
      ],
      "stateMutability": "view",
      "type": "function"
    },
    {
      "inputs": [
        {
          "internalType": "bytes32",
          "name": "",
          "type": "bytes32"
        }
      ],
      "name": "lodgingFacilities",
      "outputs": [
        {
          "internalType": "address",
          "name": "owner",
          "type": "address"
        },
        {
          "internalType": "bool",
          "name": "active",
          "type": "bool"
        },
        {
          "internalType": "bool",
          "name": "exists",
          "type": "bool"
        },
        {
          "internalType": "string",
          "name": "dataURI",
          "type": "string"
        },
        {
          "internalType": "address",
          "name": "fren",
          "type": "address"
        }
      ],
      "stateMutability": "view",
      "type": "function"
    },
    {
      "inputs": [],
      "name": "lodgingFacilitySchemaURI",
      "outputs": [
        {
          "internalType": "string",
          "name": "",
          "type": "string"
        }
      ],
      "stateMutability": "view",
      "type": "function"
    },
    {
      "inputs": [],
      "name": "name",
      "outputs": [
        {
          "internalType": "string",
          "name": "",
          "type": "string"
        }
      ],
      "stateMutability": "view",
      "type": "function"
    },
    {
      "inputs": [
        {
          "internalType": "bytes32",
          "name": "_spaceId",
          "type": "bytes32"
        },
        {
          "internalType": "uint16",
          "name": "_startDay",
          "type": "uint16"
        },
        {
          "internalType": "uint16",
          "name": "_numberOfDays",
          "type": "uint16"
        },
        {
          "internalType": "uint16",
          "name": "_quantity",
          "type": "uint16"
        },
        {
          "internalType": "string",
          "name": "_tokenURI",
          "type": "string"
        }
      ],
      "name": "newStay",
      "outputs": [
        {
          "internalType": "uint256",
          "name": "",
          "type": "uint256"
        }
      ],
      "stateMutability": "payable",
      "type": "function"
    },
    {
      "inputs": [
        {
          "internalType": "uint256",
          "name": "tokenId",
          "type": "uint256"
        }
      ],
      "name": "ownerOf",
      "outputs": [
        {
          "internalType": "address",
          "name": "",
          "type": "address"
        }
      ],
      "stateMutability": "view",
      "type": "function"
    },
    {
      "inputs": [
        {
          "internalType": "string",
          "name": "_dataURI",
          "type": "string"
        },
        {
          "internalType": "bool",
          "name": "_active",
          "type": "bool"
        }
      ],
      "name": "registerLodgingFacility",
      "outputs": [],
      "stateMutability": "nonpayable",
      "type": "function"
    },
    {
      "inputs": [
        {
          "internalType": "string",
          "name": "_dataURI",
          "type": "string"
        },
        {
          "internalType": "bool",
          "name": "_active",
          "type": "bool"
        },
        {
          "internalType": "address",
          "name": "_fren",
          "type": "address"
        }
      ],
      "name": "registerLodgingFacility",
      "outputs": [],
      "stateMutability": "nonpayable",
      "type": "function"
    },
    {
      "inputs": [
        {
          "internalType": "address",
          "name": "from",
          "type": "address"
        },
        {
          "internalType": "address",
          "name": "to",
          "type": "address"
        },
        {
          "internalType": "uint256",
          "name": "tokenId",
          "type": "uint256"
        }
      ],
      "name": "safeTransferFrom",
      "outputs": [],
      "stateMutability": "nonpayable",
      "type": "function"
    },
    {
      "inputs": [
        {
          "internalType": "address",
          "name": "from",
          "type": "address"
        },
        {
          "internalType": "address",
          "name": "to",
          "type": "address"
        },
        {
          "internalType": "uint256",
          "name": "tokenId",
          "type": "uint256"
        },
        {
          "internalType": "bytes",
          "name": "_data",
          "type": "bytes"
        }
      ],
      "name": "safeTransferFrom",
      "outputs": [],
      "stateMutability": "nonpayable",
      "type": "function"
    },
    {
      "inputs": [
        {
          "internalType": "address",
          "name": "operator",
          "type": "address"
        },
        {
          "internalType": "bool",
          "name": "approved",
          "type": "bool"
        }
      ],
      "name": "setApprovalForAll",
      "outputs": [],
      "stateMutability": "nonpayable",
      "type": "function"
    },
    {
      "inputs": [],
      "name": "spaceSchemaURI",
      "outputs": [
        {
          "internalType": "string",
          "name": "",
          "type": "string"
        }
      ],
      "stateMutability": "view",
      "type": "function"
    },
    {
      "inputs": [
        {
          "internalType": "bytes32",
          "name": "",
          "type": "bytes32"
        }
      ],
      "name": "spaces",
      "outputs": [
        {
          "internalType": "bytes32",
          "name": "lodgingFacilityId",
          "type": "bytes32"
        },
        {
          "internalType": "uint16",
          "name": "capacity",
          "type": "uint16"
        },
        {
          "internalType": "uint256",
          "name": "pricePerNightWei",
          "type": "uint256"
        },
        {
          "internalType": "bool",
          "name": "active",
          "type": "bool"
        },
        {
          "internalType": "bool",
          "name": "exists",
          "type": "bool"
        },
        {
          "internalType": "string",
          "name": "dataURI",
          "type": "string"
        }
      ],
      "stateMutability": "view",
      "type": "function"
    },
    {
      "inputs": [],
      "name": "staySchemaURI",
      "outputs": [
        {
          "internalType": "string",
          "name": "",
          "type": "string"
        }
      ],
      "stateMutability": "view",
      "type": "function"
    },
    {
      "inputs": [
        {
          "internalType": "bytes4",
          "name": "interfaceId",
          "type": "bytes4"
        }
      ],
      "name": "supportsInterface",
      "outputs": [
        {
          "internalType": "bool",
          "name": "",
          "type": "bool"
        }
      ],
      "stateMutability": "view",
      "type": "function"
    },
    {
      "inputs": [],
      "name": "symbol",
      "outputs": [
        {
          "internalType": "string",
          "name": "",
          "type": "string"
        }
      ],
      "stateMutability": "view",
      "type": "function"
    },
    {
      "inputs": [
        {
          "internalType": "uint256",
          "name": "tokenId",
          "type": "uint256"
        }
      ],
      "name": "tokenURI",
      "outputs": [
        {
          "internalType": "string",
          "name": "",
          "type": "string"
        }
      ],
      "stateMutability": "view",
      "type": "function"
    },
    {
      "inputs": [
        {
          "internalType": "address",
          "name": "from",
          "type": "address"
        },
        {
          "internalType": "address",
          "name": "to",
          "type": "address"
        },
        {
          "internalType": "uint256",
          "name": "tokenId",
          "type": "uint256"
        }
      ],
      "name": "transferFrom",
      "outputs": [],
      "stateMutability": "nonpayable",
      "type": "function"
    },
    {
      "inputs": [
        {
          "internalType": "bytes32",
          "name": "_lodgingFacilityId",
          "type": "bytes32"
        },
        {
          "internalType": "string",
          "name": "_newDataURI",
          "type": "string"
        }
      ],
      "name": "updateLodgingFacility",
      "outputs": [],
      "stateMutability": "nonpayable",
      "type": "function"
    },
    {
      "inputs": [
        {
          "internalType": "uint256",
          "name": "_spaceIndex",
          "type": "uint256"
        },
        {
          "internalType": "uint16",
          "name": "_capacity",
          "type": "uint16"
        },
        {
          "internalType": "uint64",
          "name": "_pricePerNightWei",
          "type": "uint64"
        },
        {
          "internalType": "bool",
          "name": "_active",
          "type": "bool"
        },
        {
          "internalType": "string",
          "name": "_dataURI",
          "type": "string"
        }
      ],
      "name": "updateSpace",
      "outputs": [],
      "stateMutability": "nonpayable",
      "type": "function"
    },
    {
      "inputs": [
        {
          "internalType": "bytes32",
          "name": "_lodgingFacilityId",
          "type": "bytes32"
        },
        {
          "internalType": "address",
          "name": "_newOwner",
          "type": "address"
        }
      ],
      "name": "yieldLodgingFacility",
      "outputs": [],
      "stateMutability": "nonpayable",
      "type": "function"
    }
  ],
  "bytecode": "0x60806040523480156200001157600080fd5b50604080518082018252600b81526a45746852696f537461797360a81b60208083019182528351808501909452600584526422a929991960d91b908401528151919291620000629160009162000081565b5080516200007890600190602084019062000081565b50505062000164565b8280546200008f9062000127565b90600052602060002090601f016020900481019282620000b35760008555620000fe565b82601f10620000ce57805160ff1916838001178555620000fe565b82800160010185558215620000fe579182015b82811115620000fe578251825591602001919060010190620000e1565b506200010c92915062000110565b5090565b5b808211156200010c576000815560010162000111565b600181811c908216806200013c57607f821691505b602082108114156200015e57634e487b7160e01b600052602260045260246000fd5b50919050565b61392880620001746000396000f3fe6080604052600436106102185760003560e01c80638f201f5f11610123578063c4bfd3cf116100ab578063e985e9c51161006f578063e985e9c514610641578063e994529e1461068a578063f7cdbc9d146106bc578063ffae7415146106dc578063ffc1e09a1461070d57600080fd5b8063c4bfd3cf146105ee578063c87b56dd14610601578063cf63247e146103e9578063e1e33b9c14610621578063e3aae3a5146103e957600080fd5b8063a22cb465116100f2578063a22cb46514610559578063a468803214610579578063a6bce27b14610599578063b38759fd146105b9578063b88d4fde146105ce57600080fd5b80638f201f5f146104d75780639518f5fa146104f757806395d89b41146105175780639ff682141461052c57600080fd5b80633c5754be116101a65780634c18a8ec116101755780634c18a8ec1461040c5780635b5d206d1461043c5780636352211e146104695780636a22dd261461048957806370a08231146104a957600080fd5b80633c5754be1461038657806342842e0e146103a9578063438c9cab146103c9578063462ef5ed146103e957600080fd5b8063081812fc116101ed578063081812fc146102bc578063095ea7b3146102f45780631bf7509b1461031457806323b872dd14610334578063342df9b21461035457600080fd5b80624425361461021d578062d34b541461023f57806301ffc9a71461026a57806306fdde031461029a575b600080fd5b34801561022957600080fd5b5061023d61023836600461304f565b61072d565b005b34801561024b57600080fd5b506102546107cf565b6040516102619190613452565b60405180910390f35b34801561027657600080fd5b5061028a61028536600461321c565b6108d0565b6040519015158152602001610261565b3480156102a657600080fd5b506102af610922565b60405161026191906135e2565b3480156102c857600080fd5b506102dc6102d736600461304f565b6109b4565b6040516001600160a01b039091168152602001610261565b34801561030057600080fd5b5061023d61030f366004613025565b610a3c565b34801561032057600080fd5b5061025461032f366004612ef6565b610b52565b34801561034057600080fd5b5061023d61034f366004612f44565b610bbe565b34801561036057600080fd5b5061037461036f36600461304f565b610bef565b60405161026196959493929190613506565b34801561039257600080fd5b5061023d6103a136600461319e565b505050505050565b3480156103b557600080fd5b5061023d6103c4366004612f44565b610cc3565b3480156103d557600080fd5b5061023d6103e436600461308b565b610cde565b3480156103f557600080fd5b506102af6040518060200160405280600081525081565b34801561041857600080fd5b5061042c61042736600461304f565b610d7d565b60405161026194939291906134d2565b34801561044857600080fd5b5061045c6104573660046130d6565b610e49565b6040516102619190613496565b34801561047557600080fd5b506102dc61048436600461304f565b611031565b34801561049557600080fd5b5061023d6104a436600461304f565b6110a8565b3480156104b557600080fd5b506104c96104c4366004612ef6565b611134565b604051908152602001610261565b3480156104e357600080fd5b5061023d6104f2366004613068565b6111bb565b34801561050357600080fd5b5061025461051236600461304f565b61127c565b34801561052357600080fd5b506102af6112dc565b34801561053857600080fd5b506105446362155d6e81565b60405163ffffffff9091168152602001610261565b34801561056557600080fd5b5061023d610574366004612ffb565b6112eb565b34801561058557600080fd5b5061023d61059436600461304f565b6112fa565b3480156105a557600080fd5b5061023d6105b436600461319e565b611398565b3480156105c557600080fd5b506102546115f4565b3480156105da57600080fd5b5061023d6105e9366004612f80565b61164b565b6104c96105fc366004613112565b611683565b34801561060d57600080fd5b506102af61061c36600461304f565b611972565b34801561062d57600080fd5b5061023d61063c366004613256565b611ae9565b34801561064d57600080fd5b5061028a61065c366004612f11565b6001600160a01b03918216600090815260056020908152604080832093909416825291909152205460ff1690565b34801561069657600080fd5b506106aa6106a536600461304f565b611af6565b6040516102619695949392919061356e565b3480156106c857600080fd5b5061023d6106d73660046132a0565b611bc3565b3480156106e857600080fd5b506106fc6106f736600461304f565b611e39565b60405161026195949392919061340b565b34801561071957600080fd5b5061025461072836600461304f565b611f0c565b6000818152600a602052604090205481906001600160a01b0316336001600160a01b0316146107775760405162461bcd60e51b815260040161076e90613647565b60405180910390fd5b6000828152600a60209081526040808320805460ff60a01b191690558051858152918201929092527f5c33859dfe8722791b5d72ad942a0895181f8a694288ec429394f620de15032091015b60405180910390a15050565b60606107d9612064565b6001600160401b038111156107f0576107f06138a4565b604051908082528060200260200182016040528015610819578160200160208202803683370190505b5090506000805b6008548110156108cb57600a6000600883815481106108415761084161388e565b9060005260206000200154815260200190815260200160002060000160149054906101000a900460ff16156108b957600881815481106108835761088361388e565b90600052602060002001548383815181106108a0576108a061388e565b6020908102919091010152816108b581613833565b9250505b806108c381613833565b915050610820565b505090565b60006001600160e01b031982166380ac58cd60e01b148061090157506001600160e01b03198216635b5e139f60e01b145b8061091c57506301ffc9a760e01b6001600160e01b03198316145b92915050565b606060008054610931906137d6565b80601f016020809104026020016040519081016040528092919081815260200182805461095d906137d6565b80156109aa5780601f1061097f576101008083540402835291602001916109aa565b820191906000526020600020905b81548152906001019060200180831161098d57829003601f168201915b5050505050905090565b60006109bf826120dc565b610a205760405162461bcd60e51b815260206004820152602c60248201527f4552433732313a20617070726f76656420717565727920666f72206e6f6e657860448201526b34b9ba32b73a103a37b5b2b760a11b606482015260840161076e565b506000908152600460205260409020546001600160a01b031690565b6000610a4782611031565b9050806001600160a01b0316836001600160a01b03161415610ab55760405162461bcd60e51b815260206004820152602160248201527f4552433732313a20617070726f76616c20746f2063757272656e74206f776e656044820152603960f91b606482015260840161076e565b336001600160a01b0382161480610ad15750610ad1813361065c565b610b435760405162461bcd60e51b815260206004820152603860248201527f4552433732313a20617070726f76652063616c6c6572206973206e6f74206f7760448201527f6e6572206e6f7220617070726f76656420666f7220616c6c0000000000000000606482015260840161076e565b610b4d83836120f9565b505050565b6001600160a01b038116600090815260096020908152604091829020805483518184028101840190945280845260609392830182828015610bb257602002820191906000526020600020905b815481526020019060010190808311610b9e575b50505050509050919050565b610bc83382612167565b610be45760405162461bcd60e51b815260040161076e9061368d565b610b4d83838361224d565b6000818152600c60205260409020600381015481546001830154600284015460048501805460ff6101008704811697959661ffff90951695939416926060929091610c39906137d6565b80601f0160208091040260200160405190810160405280929190818152602001828054610c65906137d6565b8015610cb25780601f10610c8757610100808354040283529160200191610cb2565b820191906000526020600020905b815481529060010190602001808311610c9557829003601f168201915b505050505091505091939550919395565b610b4d8383836040518060200160405280600081525061164b565b6000838152600a602052604090205483906001600160a01b0316336001600160a01b031614610d1f5760405162461bcd60e51b815260040161076e90613647565b6000848152600a60205260409020610d3b906001018484612cdb565b507fb252d91e8d424ba6f9f1647d21d7b0bbd8e2a3cbb318aaecb0d735fba9f62c7f848484604051610d6f9392919061354b565b60405180910390a150505050565b6000818152600a60205260409020805460018201805460ff600160a81b84048116946001600160a01b03851694600160a01b900490911692606092610dc1906137d6565b80601f0160208091040260200160405190810160405280929190818152602001828054610ded906137d6565b8015610e3a5780601f10610e0f57610100808354040283529160200191610e3a565b820191906000526020600020905b815481529060010190602001808311610e1d57829003601f168201915b50505050509150509193509193565b6060610e5a848461ffff16846123e9565b6000848152600c60209081526040808320815160c08101835281548152600182015461ffff1693810193909352600281015491830191909152600381015460ff80821615156060850152610100909104161515608083015260048101805460a084019190610ec7906137d6565b80601f0160208091040260200160405190810160405280929190818152602001828054610ef3906137d6565b8015610f405780601f10610f1557610100808354040283529160200191610f40565b820191906000526020600020905b815481529060010190602001808311610f2357829003601f168201915b505050505081525050905060008361ffff166001600160401b03811115610f6957610f696138a4565b604051908082528060200260200182016040528015610f92578160200160208202803683370190505b50905060005b8461ffff168161ffff161015611027576000878152600d6020526040812090610fc183896136de565b61ffff908116825260208083019390935260409091016000205491850151610fec9290911690613770565b828261ffff16815181106110025761100261388e565b61ffff909216602092830291909101909101528061101f81613811565b915050610f98565b5095945050505050565b6000818152600260205260408120546001600160a01b03168061091c5760405162461bcd60e51b815260206004820152602960248201527f4552433732313a206f776e657220717565727920666f72206e6f6e657869737460448201526832b73a103a37b5b2b760b91b606482015260840161076e565b6000818152600a602052604090205481906001600160a01b0316336001600160a01b0316146110e95760405162461bcd60e51b815260040161076e90613647565b6000828152600a602052604090819020805460ff60a81b19169055517f9cb52f05776b0f321eb9ca8c9e1b26b978036072417bf384bd406189f43864f8906107c39084815260200190565b60006001600160a01b03821661119f5760405162461bcd60e51b815260206004820152602a60248201527f4552433732313a2062616c616e636520717565727920666f7220746865207a65604482015269726f206164647265737360b01b606482015260840161076e565b506001600160a01b031660009081526003602052604090205490565b6000828152600a602052604090205482906001600160a01b0316336001600160a01b0316146111fc5760405162461bcd60e51b815260040161076e90613647565b6000838152600a60209081526040918290205491518581526001600160a01b038581169316917f11a520c5c4bfade8b450399ea67096dba36478d23d9a45f02e32989cfe307dde910160405180910390a3506000918252600a602052604090912080546001600160a01b0319166001600160a01b03909216919091179055565b6000818152600b6020908152604091829020805483518184028101840190945280845260609392830182828015610bb25760200282019190600052602060002090815481526020019060010190808311610b9e5750505050509050919050565b606060018054610931906137d6565b6112f633838361257d565b5050565b6000818152600a602052604090205481906001600160a01b0316336001600160a01b03161461133b5760405162461bcd60e51b815260040161076e90613647565b6000828152600a602052604090819020805460ff60a01b1916600160a01b179055517f5c33859dfe8722791b5d72ad942a0895181f8a694288ec429394f620de150320906107c39084906001909182521515602082015260400190565b856113a28161264c565b6113c4816040518060600160405280602281526020016138d1602291396126b4565b61140383838080601f0160208091040260200160405190810160405280939291908181526020018383808284376000920191909152506126ed92505050565b600081848460405160200161141a93929190613385565b60408051808303601f1901815291815281516020928301206000818152600c909352912060030154909150610100900460ff16156114915760405162461bcd60e51b8152602060048201526014602482015273537061636520616c72656164792065786973747360601b604482015260640161076e565b6040518060c001604052808381526020018861ffff168152602001876001600160401b03168152602001861515815260200160011515815260200185858080601f0160208091040260200160405190810160405280939291908181526020018383808284376000920182905250939094525050838152600c6020908152604091829020845181558482015160018201805461ffff90921661ffff199283161790559285015160028201556060850151600382018054608088015115156101000261ff0019931515939093169516949094171790925560a084015180519293506115839260048501929190910190612d5b565b5050506000828152600b6020908152604080832080546001810182559084529190922001829055517f7993127b29bb7eb5c740a2bdf13dbe1721be38172db915f7767aefe0bae7936e906115e29084908a908a908a908a908a906135a7565b60405180910390a15050505050505050565b606060088054806020026020016040519081016040528092919081815260200182805480156109aa57602002820191906000526020600020905b81548152602001906001019080831161162e575050505050905090565b6116553383612167565b6116715760405162461bcd60e51b815260040161076e9061368d565b61167d8484848461273e565b50505050565b6000611694868661ffff16866123e9565b6000868152600c60209081526040808320815160c08101835281548152600182015461ffff1693810193909352600281015491830191909152600381015460ff80821615156060850152610100909104161515608083015260048101805460a084019190611701906137d6565b80601f016020809104026020016040519081016040528092919081815260200182805461172d906137d6565b801561177a5780601f1061174f5761010080835404028352916020019161177a565b820191906000526020600020905b81548152906001019060200180831161175d57829003601f168201915b5050505050815250509050806040015184866117969190613727565b61ffff166117a49190613751565b3410156117e85760405162461bcd60e51b81526020600482015260126024820152714e6565642e204d6f72652e204d6f6e65792160701b604482015260640161076e565b60005b8561ffff168161ffff1610156118fe576000888152600d6020526040812061ffff871691611819848b6136de565b61ffff9081168252602080830193909352604090910160002054918501516118449290911690613770565b61ffff16101561188f5760405162461bcd60e51b8152602060048201526016602482015275496e73756666696369656e7420696e76656e746f727960501b604482015260640161076e565b6000888152600d6020526040812086916118a9848b6136de565b61ffff908116825260208201929092526040016000908120805490926118d1918591166136de565b92506101000a81548161ffff021916908361ffff16021790555080806118f690613811565b9150506117eb565b5061190d600780546001019055565b600061191860075490565b90506119243382612771565b61192e818561278b565b60408051898152602081018390527fe04083eb622e3cb7d063f319076c83270c24acb409a3bc13abcfb36af60f8617910160405180910390a1979650505050505050565b606061197d826120dc565b6119e35760405162461bcd60e51b815260206004820152603160248201527f45524337323155524953746f726167653a2055524920717565727920666f72206044820152703737b732bc34b9ba32b73a103a37b5b2b760791b606482015260840161076e565b600082815260066020526040812080546119fc906137d6565b80601f0160208091040260200160405190810160405280929190818152602001828054611a28906137d6565b8015611a755780601f10611a4a57610100808354040283529160200191611a75565b820191906000526020600020905b815481529060010190602001808311611a5857829003601f168201915b505050505090506000611a9360408051602081019091526000815290565b9050805160001415611aa6575092915050565b815115611ad8578082604051602001611ac092919061339f565b60405160208183030381529060405292505050919050565b611ae184612816565b949350505050565b610b4d8383836000611bc3565b600c6020526000908152604090208054600182015460028301546003840154600485018054949561ffff90941694929360ff808416946101009094041692909190611b40906137d6565b80601f0160208091040260200160405190810160405280929190818152602001828054611b6c906137d6565b8015611bb95780601f10611b8e57610100808354040283529160200191611bb9565b820191906000526020600020905b815481529060010190602001808311611b9c57829003601f168201915b5050505050905086565b611c0284848080601f0160208091040260200160405190810160405280939291908181526020018383808284376000920191909152506126ed92505050565b6000338585604051602001611c1993929190613359565b60408051808303601f1901815291815281516020928301206000818152600a909352912054909150600160a81b900460ff1615611c985760405162461bcd60e51b815260206004820152601760248201527f466163696c69747920616c726561647920657869737473000000000000000000604482015260640161076e565b6040518060a00160405280611caa3390565b6001600160a01b03168152602001841515815260200160011515815260200186868080601f01602080910402602001604051908101604052809392919081815260200183838082843760009201829052509385525050506001600160a01b03808616602093840152848252600a83526040918290208451815486860151948701511515600160a81b0260ff60a81b19951515600160a01b026001600160a81b031990921692909416919091171792909216178155606083015180519192611d7992600185019290910190612d5b565b5060809190910151600290910180546001600160a01b0319166001600160a01b039092169190911790556008805460018181019092557ff3f7a9fe364faab93b216da50a3214154f22a0a2b415b23a84c8169e8b636ee301829055336000818152600960209081526040808320805495860181558352912090920183905590517f28c9a25063d40c8cf423202182ed575cc97982c1fd1771bd9721e19a38cc491d90611e2a9084908990899061354b565b60405180910390a25050505050565b600a60205260009081526040902080546001820180546001600160a01b0383169360ff600160a01b8504811694600160a81b900416929091611e7a906137d6565b80601f0160208091040260200160405190810160405280929190818152602001828054611ea6906137d6565b8015611ef35780601f10611ec857610100808354040283529160200191611ef3565b820191906000526020600020905b815481529060010190602001808311611ed657829003601f168201915b505050600290930154919250506001600160a01b031685565b6060611f17826128ee565b6001600160401b03811115611f2e57611f2e6138a4565b604051908082528060200260200182016040528015611f57578160200160208202803683370190505b506000838152600b6020908152604080832080548251818502810185019093528083529495509293909291830182828015611fb157602002820191906000526020600020905b815481526020019060010190808311611f9d575b50505050509050600080600090505b825181101561205c57600c6000848381518110611fdf57611fdf61388e565b60209081029190910181015182528101919091526040016000206003015460ff161561204a578281815181106120175761201761388e565b60200260200101518483815181106120315761203161388e565b60209081029190910101528161204681613833565b9250505b8061205481613833565b915050611fc0565b505050919050565b6000805b6008548110156120d857600a6000600883815481106120895761208961388e565b9060005260206000200154815260200190815260200160002060000160149054906101000a900460ff16156120c657816120c281613833565b9250505b806120d081613833565b915050612068565b5090565b6000908152600260205260409020546001600160a01b0316151590565b600081815260046020526040902080546001600160a01b0319166001600160a01b038416908117909155819061212e82611031565b6001600160a01b03167f8c5be1e5ebec7d5bd14f71427d1e84f3dd0314c0f7b2291e5b200ac8c7c3b92560405160405180910390a45050565b6000612172826120dc565b6121d35760405162461bcd60e51b815260206004820152602c60248201527f4552433732313a206f70657261746f7220717565727920666f72206e6f6e657860448201526b34b9ba32b73a103a37b5b2b760a11b606482015260840161076e565b60006121de83611031565b9050806001600160a01b0316846001600160a01b031614806122195750836001600160a01b031661220e846109b4565b6001600160a01b0316145b80611ae157506001600160a01b0380821660009081526005602090815260408083209388168352929052205460ff16611ae1565b826001600160a01b031661226082611031565b6001600160a01b0316146122c45760405162461bcd60e51b815260206004820152602560248201527f4552433732313a207472616e736665722066726f6d20696e636f72726563742060448201526437bbb732b960d91b606482015260840161076e565b6001600160a01b0382166123265760405162461bcd60e51b8152602060048201526024808201527f4552433732313a207472616e7366657220746f20746865207a65726f206164646044820152637265737360e01b606482015260840161076e565b6123316000826120f9565b6001600160a01b038316600090815260036020526040812080546001929061235a908490613793565b90915550506001600160a01b03821660009081526003602052604081208054600192906123889084906136fb565b909155505060008181526002602052604080822080546001600160a01b0319166001600160a01b0386811691821790925591518493918716917fddf252ad1be2c89b69c2b068fc378daa952ba7f163c4a11628f55a4df523b3ef91a4505050565b6123f66202a30042613793565b6124038362015180613751565b612411906362155d6e6136fb565b116124575760405162461bcd60e51b8152602060048201526016602482015275111bdb89dd081cdd185e481a5b881d1a19481c185cdd60521b604482015260640161076e565b6000838152600c60209081526040808320548352600a909152902054600160a01b900460ff166124c95760405162461bcd60e51b815260206004820152601c60248201527f4c6f6467696e6720466163696c69747920697320696e61637469766500000000604482015260640161076e565b6000838152600c602052604090206003015460ff1661251e5760405162461bcd60e51b8152602060048201526011602482015270537061636520697320696e61637469766560781b604482015260640161076e565b60008161ffff1611610b4d5760405162461bcd60e51b815260206004820152602260248201527f4e756d626572206f6620646179732073686f756c642062652031206f72206d6f604482015261726560f01b606482015260840161076e565b816001600160a01b0316836001600160a01b031614156125df5760405162461bcd60e51b815260206004820152601960248201527f4552433732313a20617070726f766520746f2063616c6c657200000000000000604482015260640161076e565b6001600160a01b03838116600081815260056020908152604080832094871680845294825291829020805460ff191686151590811790915591519182527f17307eab39ab6107e8899845ad3d59bd9653f200f220920489ca2b5937696c31910160405180910390a3505050565b6000818152600a6020526040902054600160a81b900460ff166126b15760405162461bcd60e51b815260206004820152601760248201527f466163696c69747920646f6573206e6f74206578697374000000000000000000604482015260640161076e565b50565b6000828152600a602052604090205481906001600160a01b03163314610b4d5760405162461bcd60e51b815260040161076e91906135e2565b60008151116126b15760405162461bcd60e51b815260206004820152601960248201527f4461746120555249206d7573742062652070726f766964656400000000000000604482015260640161076e565b61274984848461224d565b6127558484848461296b565b61167d5760405162461bcd60e51b815260040161076e906135f5565b6112f6828260405180602001604052806000815250612a78565b612794826120dc565b6127f75760405162461bcd60e51b815260206004820152602e60248201527f45524337323155524953746f726167653a2055524920736574206f66206e6f6e60448201526d32bc34b9ba32b73a103a37b5b2b760911b606482015260840161076e565b60008281526006602090815260409091208251610b4d92840190612d5b565b6060612821826120dc565b6128855760405162461bcd60e51b815260206004820152602f60248201527f4552433732314d657461646174613a2055524920717565727920666f72206e6f60448201526e3732bc34b9ba32b73a103a37b5b2b760891b606482015260840161076e565b600061289c60408051602081019091526000815290565b905060008151116128bc57604051806020016040528060008152506128e7565b806128c684612aab565b6040516020016128d792919061339f565b6040516020818303038152906040525b9392505050565b6000818152600b60205260408120815b815481101561296457600c600083838154811061291d5761291d61388e565b6000918252602080832090910154835282019290925260400190206003015460ff1615612952578261294e81613833565b9350505b8061295c81613833565b9150506128fe565b5050919050565b60006001600160a01b0384163b15612a6d57604051630a85bd0160e11b81526001600160a01b0385169063150b7a02906129af9033908990889088906004016133ce565b602060405180830381600087803b1580156129c957600080fd5b505af19250505080156129f9575060408051601f3d908101601f191682019092526129f691810190613239565b60015b612a53573d808015612a27576040519150601f19603f3d011682016040523d82523d6000602084013e612a2c565b606091505b508051612a4b5760405162461bcd60e51b815260040161076e906135f5565b805181602001fd5b6001600160e01b031916630a85bd0160e11b149050611ae1565b506001949350505050565b612a828383612ba8565b612a8f600084848461296b565b610b4d5760405162461bcd60e51b815260040161076e906135f5565b606081612acf5750506040805180820190915260018152600360fc1b602082015290565b8160005b8115612af95780612ae381613833565b9150612af29050600a83613713565b9150612ad3565b6000816001600160401b03811115612b1357612b136138a4565b6040519080825280601f01601f191660200182016040528015612b3d576020820181803683370190505b5090505b8415611ae157612b52600183613793565b9150612b5f600a8661384e565b612b6a9060306136fb565b60f81b818381518110612b7f57612b7f61388e565b60200101906001600160f81b031916908160001a905350612ba1600a86613713565b9450612b41565b6001600160a01b038216612bfe5760405162461bcd60e51b815260206004820181905260248201527f4552433732313a206d696e7420746f20746865207a65726f2061646472657373604482015260640161076e565b612c07816120dc565b15612c545760405162461bcd60e51b815260206004820152601c60248201527f4552433732313a20746f6b656e20616c7265616479206d696e74656400000000604482015260640161076e565b6001600160a01b0382166000908152600360205260408120805460019290612c7d9084906136fb565b909155505060008181526002602052604080822080546001600160a01b0319166001600160a01b03861690811790915590518392907fddf252ad1be2c89b69c2b068fc378daa952ba7f163c4a11628f55a4df523b3ef908290a45050565b828054612ce7906137d6565b90600052602060002090601f016020900481019282612d095760008555612d4f565b82601f10612d225782800160ff19823516178555612d4f565b82800160010185558215612d4f579182015b82811115612d4f578235825591602001919060010190612d34565b506120d8929150612dcf565b828054612d67906137d6565b90600052602060002090601f016020900481019282612d895760008555612d4f565b82601f10612da257805160ff1916838001178555612d4f565b82800160010185558215612d4f579182015b82811115612d4f578251825591602001919060010190612db4565b5b808211156120d85760008155600101612dd0565b60006001600160401b0380841115612dfe57612dfe6138a4565b604051601f8501601f19908116603f01168101908282118183101715612e2657612e266138a4565b81604052809350858152868686011115612e3f57600080fd5b858560208301376000602087830101525050509392505050565b80356001600160a01b0381168114612e7057600080fd5b919050565b80358015158114612e7057600080fd5b60008083601f840112612e9757600080fd5b5081356001600160401b03811115612eae57600080fd5b602083019150836020828501011115612ec657600080fd5b9250929050565b803561ffff81168114612e7057600080fd5b80356001600160401b0381168114612e7057600080fd5b600060208284031215612f0857600080fd5b6128e782612e59565b60008060408385031215612f2457600080fd5b612f2d83612e59565b9150612f3b60208401612e59565b90509250929050565b600080600060608486031215612f5957600080fd5b612f6284612e59565b9250612f7060208501612e59565b9150604084013590509250925092565b60008060008060808587031215612f9657600080fd5b612f9f85612e59565b9350612fad60208601612e59565b92506040850135915060608501356001600160401b03811115612fcf57600080fd5b8501601f81018713612fe057600080fd5b612fef87823560208401612de4565b91505092959194509250565b6000806040838503121561300e57600080fd5b61301783612e59565b9150612f3b60208401612e75565b6000806040838503121561303857600080fd5b61304183612e59565b946020939093013593505050565b60006020828403121561306157600080fd5b5035919050565b6000806040838503121561307b57600080fd5b82359150612f3b60208401612e59565b6000806000604084860312156130a057600080fd5b8335925060208401356001600160401b038111156130bd57600080fd5b6130c986828701612e85565b9497909650939450505050565b6000806000606084860312156130eb57600080fd5b833592506130fb60208501612ecd565b915061310960408501612ecd565b90509250925092565b600080600080600060a0868803121561312a57600080fd5b8535945061313a60208701612ecd565b935061314860408701612ecd565b925061315660608701612ecd565b915060808601356001600160401b0381111561317157600080fd5b8601601f8101881361318257600080fd5b61319188823560208401612de4565b9150509295509295909350565b60008060008060008060a087890312156131b757600080fd5b863595506131c760208801612ecd565b94506131d560408801612edf565b93506131e360608801612e75565b925060808701356001600160401b038111156131fe57600080fd5b61320a89828a01612e85565b979a9699509497509295939492505050565b60006020828403121561322e57600080fd5b81356128e7816138ba565b60006020828403121561324b57600080fd5b81516128e7816138ba565b60008060006040848603121561326b57600080fd5b83356001600160401b0381111561328157600080fd5b61328d86828701612e85565b9094509250613109905060208501612e75565b600080600080606085870312156132b657600080fd5b84356001600160401b038111156132cc57600080fd5b6132d887828801612e85565b90955093506132eb905060208601612e75565b91506132f960408601612e59565b905092959194509250565b6000815180845261331c8160208601602086016137aa565b601f01601f19169290920160200192915050565b81835281816020850137506000828201602090810191909152601f909101601f19169091010190565b6bffffffffffffffffffffffff198460601b168152818360148301376000910160140190815292915050565b838152818360208301376000910160200190815292915050565b600083516133b18184602088016137aa565b8351908301906133c58183602088016137aa565b01949350505050565b6001600160a01b038581168252841660208201526040810183905260806060820181905260009061340190830184613304565b9695505050505050565b600060018060a01b0380881683528615156020840152851515604084015260a0606084015261343d60a0840186613304565b91508084166080840152509695505050505050565b6020808252825182820181905260009190848201906040850190845b8181101561348a5783518352928401929184019160010161346e565b50909695505050505050565b6020808252825182820181905260009190848201906040850190845b8181101561348a57835161ffff16835292840192918401916001016134b2565b84151581526001600160a01b0384166020820152821515604082015260806060820181905260009061340190830184613304565b861515815285602082015261ffff85166040820152836060820152821515608082015260c060a0820152600061353f60c0830184613304565b98975050505050505050565b838152604060208201526000613565604083018486613330565b95945050505050565b86815261ffff861660208201528460408201528315156060820152821515608082015260c060a0820152600061353f60c0830184613304565b86815261ffff861660208201526001600160401b0385166040820152831515606082015260a06080820152600061353f60a083018486613330565b6020815260006128e76020830184613304565b60208082526032908201527f4552433732313a207472616e7366657220746f206e6f6e20455243373231526560408201527131b2b4bb32b91034b6b83632b6b2b73a32b960711b606082015260800190565b60208082526026908201527f4f6e6c79206c6f6467696e6720666163696c697479206f776e657220697320616040820152651b1b1bddd95960d21b606082015260800190565b60208082526031908201527f4552433732313a207472616e736665722063616c6c6572206973206e6f74206f6040820152701ddb995c881b9bdc88185c1c1c9bdd9959607a1b606082015260800190565b600061ffff8083168185168083038211156133c5576133c5613862565b6000821982111561370e5761370e613862565b500190565b60008261372257613722613878565b500490565b600061ffff8083168185168183048111821515161561374857613748613862565b02949350505050565b600081600019048311821515161561376b5761376b613862565b500290565b600061ffff8381169083168181101561378b5761378b613862565b039392505050565b6000828210156137a5576137a5613862565b500390565b60005b838110156137c55781810151838201526020016137ad565b8381111561167d5750506000910152565b600181811c908216806137ea57607f821691505b6020821081141561380b57634e487b7160e01b600052602260045260246000fd5b50919050565b600061ffff8083168181141561382957613829613862565b6001019392505050565b600060001982141561384757613847613862565b5060010190565b60008261385d5761385d613878565b500690565b634e487b7160e01b600052601160045260246000fd5b634e487b7160e01b600052601260045260246000fd5b634e487b7160e01b600052603260045260246000fd5b634e487b7160e01b600052604160045260246000fd5b6001600160e01b0319811681146126b157600080fdfe4f6e6c7920666163696c697479206f776e6572206d61792061646420537061636573a26469706673582212203cd0ad279646bf48eae1535d2bdc88f900d97256719b6937f75d6428d474f63164736f6c63430008070033",
  "linkReferences": {},
  "deployedLinkReferences": {}
}