{
  "_format": "hh-sol-artifact-1",
  "contractName": "EthRioStays",
  "sourceName": "contracts/EthRioStays.sol",
  "abi": [
    {
      "inputs": [],
      "stateMutability": "nonpayable",
      "type": "constructor"
    },
    {
      "anonymous": false,
      "inputs": [
        {
          "indexed": true,
          "internalType": "address",
          "name": "owner",
          "type": "address"
        },
        {
          "indexed": true,
          "internalType": "address",
          "name": "approved",
          "type": "address"
        },
        {
          "indexed": true,
          "internalType": "uint256",
          "name": "tokenId",
          "type": "uint256"
        }
      ],
      "name": "Approval",
      "type": "event"
    },
    {
      "anonymous": false,
      "inputs": [
        {
          "indexed": true,
          "internalType": "address",
          "name": "owner",
          "type": "address"
        },
        {
          "indexed": true,
          "internalType": "address",
          "name": "operator",
          "type": "address"
        },
        {
          "indexed": false,
          "internalType": "bool",
          "name": "approved",
          "type": "bool"
        }
      ],
      "name": "ApprovalForAll",
      "type": "event"
    },
    {
      "anonymous": false,
      "inputs": [
        {
          "indexed": false,
          "internalType": "uint256",
          "name": "tokenId",
          "type": "uint256"
        }
      ],
      "name": "CheckIn",
      "type": "event"
    },
    {
      "anonymous": false,
      "inputs": [
        {
          "indexed": false,
          "internalType": "uint256",
          "name": "tokenId",
          "type": "uint256"
        }
      ],
      "name": "CheckOut",
      "type": "event"
    },
    {
      "anonymous": false,
      "inputs": [
        {
          "indexed": true,
          "internalType": "address",
          "name": "payee",
          "type": "address"
        },
        {
          "indexed": false,
          "internalType": "uint256",
          "name": "weiAmount",
          "type": "uint256"
        },
        {
          "indexed": false,
          "internalType": "bytes32",
          "name": "spaceId",
          "type": "bytes32"
        }
      ],
      "name": "Deposited",
      "type": "event"
    },
    {
      "anonymous": false,
      "inputs": [
        {
          "indexed": false,
          "internalType": "bytes32",
          "name": "facilityId",
          "type": "bytes32"
        },
        {
          "indexed": false,
          "internalType": "bool",
          "name": "active",
          "type": "bool"
        }
      ],
      "name": "LodgingFacilityActiveState",
      "type": "event"
    },
    {
      "anonymous": false,
      "inputs": [
        {
          "indexed": false,
          "internalType": "bytes32",
          "name": "facilityId",
          "type": "bytes32"
        },
        {
          "indexed": true,
          "internalType": "address",
          "name": "owner",
          "type": "address"
        },
        {
          "indexed": false,
          "internalType": "string",
          "name": "dataURI",
          "type": "string"
        }
      ],
      "name": "LodgingFacilityCreated",
      "type": "event"
    },
    {
      "anonymous": false,
      "inputs": [
        {
          "indexed": false,
          "internalType": "bytes32",
          "name": "facilityId",
          "type": "bytes32"
        },
        {
          "indexed": true,
          "internalType": "address",
          "name": "prevOwner",
          "type": "address"
        },
        {
          "indexed": true,
          "internalType": "address",
          "name": "newOwner",
          "type": "address"
        }
      ],
      "name": "LodgingFacilityOwnershipTransfer",
      "type": "event"
    },
    {
      "anonymous": false,
      "inputs": [
        {
          "indexed": false,
          "internalType": "bytes32",
          "name": "facilityId",
          "type": "bytes32"
        }
      ],
      "name": "LodgingFacilityRemoved",
      "type": "event"
    },
    {
      "anonymous": false,
      "inputs": [
        {
          "indexed": false,
          "internalType": "bytes32",
          "name": "facilityId",
          "type": "bytes32"
        },
        {
          "indexed": false,
          "internalType": "string",
          "name": "dataURI",
          "type": "string"
        }
      ],
      "name": "LodgingFacilityUpdated",
      "type": "event"
    },
    {
      "anonymous": false,
      "inputs": [
        {
          "indexed": false,
          "internalType": "bytes32",
          "name": "spaceId",
          "type": "bytes32"
        },
        {
          "indexed": false,
          "internalType": "uint256",
          "name": "tokenId",
          "type": "uint256"
        }
      ],
      "name": "NewStay",
      "type": "event"
    },
    {
      "anonymous": false,
      "inputs": [
        {
          "indexed": false,
          "internalType": "bytes32",
          "name": "spaceId",
          "type": "bytes32"
        },
        {
          "indexed": false,
          "internalType": "bytes32",
          "name": "facilityId",
          "type": "bytes32"
        },
        {
          "indexed": false,
          "internalType": "uint64",
          "name": "capacity",
          "type": "uint64"
        },
        {
          "indexed": false,
          "internalType": "uint256",
          "name": "pricePerNightWei",
          "type": "uint256"
        },
        {
          "indexed": false,
          "internalType": "bool",
          "name": "active",
          "type": "bool"
        },
        {
          "indexed": false,
          "internalType": "string",
          "name": "dataURI",
          "type": "string"
        }
      ],
      "name": "SpaceAdded",
      "type": "event"
    },
    {
      "anonymous": false,
      "inputs": [
        {
          "indexed": false,
          "internalType": "bytes32",
          "name": "spaceId",
          "type": "bytes32"
        }
      ],
      "name": "SpaceRemoved",
      "type": "event"
    },
    {
      "anonymous": false,
      "inputs": [
        {
          "indexed": false,
          "internalType": "bytes32",
          "name": "spaceId",
          "type": "bytes32"
        },
        {
          "indexed": false,
          "internalType": "bytes32",
          "name": "facilityId",
          "type": "bytes32"
        },
        {
          "indexed": false,
          "internalType": "uint64",
          "name": "capacity",
          "type": "uint64"
        },
        {
          "indexed": false,
          "internalType": "uint256",
          "name": "pricePerNightWei",
          "type": "uint256"
        },
        {
          "indexed": false,
          "internalType": "bool",
          "name": "active",
          "type": "bool"
        },
        {
          "indexed": false,
          "internalType": "string",
          "name": "dataURI",
          "type": "string"
        }
      ],
      "name": "SpaceUpdated",
      "type": "event"
    },
    {
      "anonymous": false,
      "inputs": [
        {
          "indexed": true,
          "internalType": "address",
          "name": "from",
          "type": "address"
        },
        {
          "indexed": true,
          "internalType": "address",
          "name": "to",
          "type": "address"
        },
        {
          "indexed": true,
          "internalType": "uint256",
          "name": "tokenId",
          "type": "uint256"
        }
      ],
      "name": "Transfer",
      "type": "event"
    },
    {
      "anonymous": false,
      "inputs": [
        {
          "indexed": true,
          "internalType": "address",
          "name": "payee",
          "type": "address"
        },
        {
          "indexed": false,
          "internalType": "uint256",
          "name": "weiAmount",
          "type": "uint256"
        },
        {
          "indexed": false,
          "internalType": "bytes32",
          "name": "spaceId",
          "type": "bytes32"
        }
      ],
      "name": "Withdrawn",
      "type": "event"
    },
    {
      "inputs": [
        {
          "internalType": "bytes32",
          "name": "_lodgingFacilityId",
          "type": "bytes32"
        }
      ],
      "name": "activateLodgingFacility",
      "outputs": [],
      "stateMutability": "nonpayable",
      "type": "function"
    },
    {
      "inputs": [
        {
          "internalType": "bytes32",
          "name": "_lodgingFacilityId",
          "type": "bytes32"
        },
        {
          "internalType": "uint16",
          "name": "_capacity",
          "type": "uint16"
        },
        {
          "internalType": "uint256",
          "name": "_pricePerNightWei",
          "type": "uint256"
        },
        {
          "internalType": "bool",
          "name": "_active",
          "type": "bool"
        },
        {
          "internalType": "string",
          "name": "_dataURI",
          "type": "string"
        }
      ],
      "name": "addSpace",
      "outputs": [],
      "stateMutability": "nonpayable",
      "type": "function"
    },
    {
      "inputs": [
        {
          "internalType": "address",
          "name": "to",
          "type": "address"
        },
        {
          "internalType": "uint256",
          "name": "tokenId",
          "type": "uint256"
        }
      ],
      "name": "approve",
      "outputs": [],
      "stateMutability": "nonpayable",
      "type": "function"
    },
    {
      "inputs": [
        {
          "internalType": "address",
          "name": "owner",
          "type": "address"
        }
      ],
      "name": "balanceOf",
      "outputs": [
        {
          "internalType": "uint256",
          "name": "",
          "type": "uint256"
        }
      ],
      "stateMutability": "view",
      "type": "function"
    },
    {
      "inputs": [
        {
          "internalType": "uint256",
          "name": "_tokenId",
          "type": "uint256"
        }
      ],
      "name": "checkIn",
      "outputs": [],
      "stateMutability": "nonpayable",
      "type": "function"
    },
    {
      "inputs": [
        {
          "internalType": "uint256",
          "name": "_tokenId",
          "type": "uint256"
        }
      ],
      "name": "checkOut",
      "outputs": [],
      "stateMutability": "nonpayable",
      "type": "function"
    },
    {
      "inputs": [],
      "name": "dayZero",
      "outputs": [
        {
          "internalType": "uint32",
          "name": "",
          "type": "uint32"
        }
      ],
      "stateMutability": "view",
      "type": "function"
    },
    {
      "inputs": [
        {
          "internalType": "bytes32",
          "name": "_lodgingFacilityId",
          "type": "bytes32"
        }
      ],
      "name": "deactivateLodgingFacility",
      "outputs": [],
      "stateMutability": "nonpayable",
      "type": "function"
    },
    {
      "inputs": [
        {
          "internalType": "bytes32",
          "name": "_lodgingFacilityId",
          "type": "bytes32"
        }
      ],
      "name": "deleteLodgingFacility",
      "outputs": [],
      "stateMutability": "nonpayable",
      "type": "function"
    },
    {
      "inputs": [
        {
          "internalType": "bytes32",
          "name": "_spaceId",
          "type": "bytes32"
        }
      ],
      "name": "deleteSpace",
      "outputs": [],
      "stateMutability": "nonpayable",
      "type": "function"
    },
    {
      "inputs": [
        {
          "internalType": "address",
          "name": "payee",
          "type": "address"
        },
        {
          "internalType": "bytes32",
          "name": "spaceId",
          "type": "bytes32"
        }
      ],
      "name": "deposit",
      "outputs": [],
      "stateMutability": "payable",
      "type": "function"
    },
    {
      "inputs": [
        {
          "internalType": "address",
          "name": "payee",
          "type": "address"
        },
        {
          "internalType": "bytes32",
          "name": "spaceId",
          "type": "bytes32"
        }
      ],
      "name": "depositsOf",
      "outputs": [
        {
          "internalType": "uint256",
          "name": "",
          "type": "uint256"
        }
      ],
      "stateMutability": "view",
      "type": "function"
    },
    {
      "inputs": [
        {
          "internalType": "address",
          "name": "payee",
          "type": "address"
        },
        {
          "internalType": "bytes32",
          "name": "spaceId",
          "type": "bytes32"
        }
      ],
      "name": "depositsState",
      "outputs": [
        {
          "internalType": "enum StayEscrow.State",
          "name": "",
          "type": "uint8"
        }
      ],
      "stateMutability": "view",
      "type": "function"
    },
    {
      "inputs": [],
      "name": "getActiveLodgingFacilityIds",
      "outputs": [
        {
          "internalType": "bytes32[]",
          "name": "activeLodgingFacilityIds",
          "type": "bytes32[]"
        }
      ],
      "stateMutability": "view",
      "type": "function"
    },
    {
      "inputs": [
        {
          "internalType": "bytes32",
          "name": "_lodgingFacilityId",
          "type": "bytes32"
        }
      ],
      "name": "getActiveSpaceIdsByFacilityId",
      "outputs": [
        {
          "internalType": "bytes32[]",
          "name": "activeSpacesIds",
          "type": "bytes32[]"
        }
      ],
      "stateMutability": "view",
      "type": "function"
    },
    {
      "inputs": [],
      "name": "getAllLodgingFacilityIds",
      "outputs": [
        {
          "internalType": "bytes32[]",
          "name": "",
          "type": "bytes32[]"
        }
      ],
      "stateMutability": "view",
      "type": "function"
    },
    {
      "inputs": [
        {
          "internalType": "uint256",
          "name": "tokenId",
          "type": "uint256"
        }
      ],
      "name": "getApproved",
      "outputs": [
        {
          "internalType": "address",
          "name": "",
          "type": "address"
        }
      ],
      "stateMutability": "view",
      "type": "function"
    },
    {
      "inputs": [
        {
          "internalType": "bytes32",
          "name": "_spaceId",
          "type": "bytes32"
        },
        {
          "internalType": "uint16",
          "name": "_startDay",
          "type": "uint16"
        },
        {
          "internalType": "uint16",
          "name": "_numberOfDays",
          "type": "uint16"
        }
      ],
      "name": "getAvailability",
      "outputs": [
        {
          "internalType": "uint16[]",
          "name": "",
          "type": "uint16[]"
        }
      ],
      "stateMutability": "view",
      "type": "function"
    },
    {
      "inputs": [
        {
          "internalType": "bytes32",
          "name": "_lodgingFacilityId",
          "type": "bytes32"
        }
      ],
      "name": "getLodgingFacilityById",
      "outputs": [
        {
          "internalType": "bool",
          "name": "exists",
          "type": "bool"
        },
        {
          "internalType": "address",
          "name": "owner",
          "type": "address"
        },
        {
          "internalType": "bool",
          "name": "active",
          "type": "bool"
        },
        {
          "internalType": "string",
          "name": "dataURI",
          "type": "string"
        }
      ],
      "stateMutability": "view",
      "type": "function"
    },
    {
      "inputs": [
        {
          "internalType": "address",
          "name": "_owner",
          "type": "address"
        }
      ],
      "name": "getLodgingFacilityIdsByOwner",
      "outputs": [
        {
          "internalType": "bytes32[]",
          "name": "",
          "type": "bytes32[]"
        }
      ],
      "stateMutability": "view",
      "type": "function"
    },
    {
      "inputs": [
        {
          "internalType": "bytes32",
          "name": "_spaceId",
          "type": "bytes32"
        }
      ],
      "name": "getSpaceById",
      "outputs": [
        {
          "internalType": "bool",
          "name": "exists",
          "type": "bool"
        },
        {
          "internalType": "bytes32",
          "name": "lodgingFacilityId",
          "type": "bytes32"
        },
        {
          "internalType": "uint16",
          "name": "capacity",
          "type": "uint16"
        },
        {
          "internalType": "uint256",
          "name": "pricePerNightWei",
          "type": "uint256"
        },
        {
          "internalType": "bool",
          "name": "active",
          "type": "bool"
        },
        {
          "internalType": "string",
          "name": "dataURI",
          "type": "string"
        }
      ],
      "stateMutability": "view",
      "type": "function"
    },
    {
      "inputs": [
        {
          "internalType": "bytes32",
          "name": "_lodgingFacilityId",
          "type": "bytes32"
        }
      ],
      "name": "getSpaceIdsByFacilityId",
      "outputs": [
        {
          "internalType": "bytes32[]",
          "name": "",
          "type": "bytes32[]"
        }
      ],
      "stateMutability": "view",
      "type": "function"
    },
    {
      "inputs": [
        {
          "internalType": "address",
          "name": "owner",
          "type": "address"
        },
        {
          "internalType": "address",
          "name": "operator",
          "type": "address"
        }
      ],
      "name": "isApprovedForAll",
      "outputs": [
        {
          "internalType": "bool",
          "name": "",
          "type": "bool"
        }
      ],
      "stateMutability": "view",
      "type": "function"
    },
    {
      "inputs": [
        {
          "internalType": "bytes32",
          "name": "",
          "type": "bytes32"
        }
      ],
      "name": "lodgingFacilities",
      "outputs": [
        {
          "internalType": "address",
          "name": "owner",
          "type": "address"
        },
        {
          "internalType": "bool",
          "name": "active",
          "type": "bool"
        },
        {
          "internalType": "bool",
          "name": "exists",
          "type": "bool"
        },
        {
          "internalType": "string",
          "name": "dataURI",
          "type": "string"
        },
        {
          "internalType": "address",
          "name": "fren",
          "type": "address"
        }
      ],
      "stateMutability": "view",
      "type": "function"
    },
    {
      "inputs": [],
      "name": "lodgingFacilitySchemaURI",
      "outputs": [
        {
          "internalType": "string",
          "name": "",
          "type": "string"
        }
      ],
      "stateMutability": "view",
      "type": "function"
    },
    {
      "inputs": [],
      "name": "name",
      "outputs": [
        {
          "internalType": "string",
          "name": "",
          "type": "string"
        }
      ],
      "stateMutability": "view",
      "type": "function"
    },
    {
      "inputs": [
        {
          "internalType": "bytes32",
          "name": "_spaceId",
          "type": "bytes32"
        },
        {
          "internalType": "uint16",
          "name": "_startDay",
          "type": "uint16"
        },
        {
          "internalType": "uint16",
          "name": "_numberOfDays",
          "type": "uint16"
        },
        {
          "internalType": "uint16",
          "name": "_quantity",
          "type": "uint16"
        }
      ],
      "name": "newStay",
      "outputs": [
        {
          "internalType": "uint256",
          "name": "",
          "type": "uint256"
        }
      ],
      "stateMutability": "payable",
      "type": "function"
    },
    {
      "inputs": [
        {
          "internalType": "uint256",
          "name": "tokenId",
          "type": "uint256"
        }
      ],
      "name": "ownerOf",
      "outputs": [
        {
          "internalType": "address",
          "name": "",
          "type": "address"
        }
      ],
      "stateMutability": "view",
      "type": "function"
    },
    {
      "inputs": [
        {
          "internalType": "string",
          "name": "_dataURI",
          "type": "string"
        },
        {
          "internalType": "bool",
          "name": "_active",
          "type": "bool"
        }
      ],
      "name": "registerLodgingFacility",
      "outputs": [],
      "stateMutability": "nonpayable",
      "type": "function"
    },
    {
      "inputs": [
        {
          "internalType": "string",
          "name": "_dataURI",
          "type": "string"
        },
        {
          "internalType": "bool",
          "name": "_active",
          "type": "bool"
        },
        {
          "internalType": "address",
          "name": "_fren",
          "type": "address"
        }
      ],
      "name": "registerLodgingFacility",
      "outputs": [],
      "stateMutability": "nonpayable",
      "type": "function"
    },
    {
      "inputs": [
        {
          "internalType": "address",
          "name": "from",
          "type": "address"
        },
        {
          "internalType": "address",
          "name": "to",
          "type": "address"
        },
        {
          "internalType": "uint256",
          "name": "tokenId",
          "type": "uint256"
        }
      ],
      "name": "safeTransferFrom",
      "outputs": [],
      "stateMutability": "nonpayable",
      "type": "function"
    },
    {
      "inputs": [
        {
          "internalType": "address",
          "name": "from",
          "type": "address"
        },
        {
          "internalType": "address",
          "name": "to",
          "type": "address"
        },
        {
          "internalType": "uint256",
          "name": "tokenId",
          "type": "uint256"
        },
        {
          "internalType": "bytes",
          "name": "_data",
          "type": "bytes"
        }
      ],
      "name": "safeTransferFrom",
      "outputs": [],
      "stateMutability": "nonpayable",
      "type": "function"
    },
    {
      "inputs": [
        {
          "internalType": "address",
          "name": "operator",
          "type": "address"
        },
        {
          "internalType": "bool",
          "name": "approved",
          "type": "bool"
        }
      ],
      "name": "setApprovalForAll",
      "outputs": [],
      "stateMutability": "nonpayable",
      "type": "function"
    },
    {
      "inputs": [],
      "name": "spaceSchemaURI",
      "outputs": [
        {
          "internalType": "string",
          "name": "",
          "type": "string"
        }
      ],
      "stateMutability": "view",
      "type": "function"
    },
    {
      "inputs": [
        {
          "internalType": "bytes32",
          "name": "",
          "type": "bytes32"
        }
      ],
      "name": "spaces",
      "outputs": [
        {
          "internalType": "bytes32",
          "name": "lodgingFacilityId",
          "type": "bytes32"
        },
        {
          "internalType": "uint16",
          "name": "capacity",
          "type": "uint16"
        },
        {
          "internalType": "uint256",
          "name": "pricePerNightWei",
          "type": "uint256"
        },
        {
          "internalType": "bool",
          "name": "active",
          "type": "bool"
        },
        {
          "internalType": "bool",
          "name": "exists",
          "type": "bool"
        },
        {
          "internalType": "string",
          "name": "dataURI",
          "type": "string"
        }
      ],
      "stateMutability": "view",
      "type": "function"
    },
    {
      "inputs": [],
      "name": "staySchemaURI",
      "outputs": [
        {
          "internalType": "string",
          "name": "",
          "type": "string"
        }
      ],
      "stateMutability": "view",
      "type": "function"
    },
    {
      "inputs": [
        {
          "internalType": "bytes4",
          "name": "interfaceId",
          "type": "bytes4"
        }
      ],
      "name": "supportsInterface",
      "outputs": [
        {
          "internalType": "bool",
          "name": "",
          "type": "bool"
        }
      ],
      "stateMutability": "view",
      "type": "function"
    },
    {
      "inputs": [],
      "name": "symbol",
      "outputs": [
        {
          "internalType": "string",
          "name": "",
          "type": "string"
        }
      ],
      "stateMutability": "view",
      "type": "function"
    },
    {
      "inputs": [
        {
          "internalType": "uint256",
          "name": "index",
          "type": "uint256"
        }
      ],
      "name": "tokenByIndex",
      "outputs": [
        {
          "internalType": "uint256",
          "name": "",
          "type": "uint256"
        }
      ],
      "stateMutability": "view",
      "type": "function"
    },
    {
      "inputs": [
        {
          "internalType": "address",
          "name": "owner",
          "type": "address"
        },
        {
          "internalType": "uint256",
          "name": "index",
          "type": "uint256"
        }
      ],
      "name": "tokenOfOwnerByIndex",
      "outputs": [
        {
          "internalType": "uint256",
          "name": "",
          "type": "uint256"
        }
      ],
      "stateMutability": "view",
      "type": "function"
    },
    {
      "inputs": [
        {
          "internalType": "uint256",
          "name": "tokenId",
          "type": "uint256"
        }
      ],
      "name": "tokenURI",
      "outputs": [
        {
          "internalType": "string",
          "name": "",
          "type": "string"
        }
      ],
      "stateMutability": "view",
      "type": "function"
    },
    {
      "inputs": [],
      "name": "totalSupply",
      "outputs": [
        {
          "internalType": "uint256",
          "name": "",
          "type": "uint256"
        }
      ],
      "stateMutability": "view",
      "type": "function"
    },
    {
      "inputs": [
        {
          "internalType": "address",
          "name": "from",
          "type": "address"
        },
        {
          "internalType": "address",
          "name": "to",
          "type": "address"
        },
        {
          "internalType": "uint256",
          "name": "tokenId",
          "type": "uint256"
        }
      ],
      "name": "transferFrom",
      "outputs": [],
      "stateMutability": "nonpayable",
      "type": "function"
    },
    {
      "inputs": [
        {
          "internalType": "bytes32",
          "name": "_lodgingFacilityId",
          "type": "bytes32"
        },
        {
          "internalType": "string",
          "name": "_newDataURI",
          "type": "string"
        }
      ],
      "name": "updateLodgingFacility",
      "outputs": [],
      "stateMutability": "nonpayable",
      "type": "function"
    },
    {
      "inputs": [
        {
          "internalType": "bytes32",
          "name": "_spaceId",
          "type": "bytes32"
        },
        {
          "internalType": "uint16",
          "name": "_capacity",
          "type": "uint16"
        },
        {
          "internalType": "uint256",
          "name": "_pricePerNightWei",
          "type": "uint256"
        },
        {
          "internalType": "bool",
          "name": "_active",
          "type": "bool"
        },
        {
          "internalType": "string",
          "name": "_dataURI",
          "type": "string"
        }
      ],
      "name": "updateSpace",
      "outputs": [],
      "stateMutability": "nonpayable",
      "type": "function"
    },
    {
      "inputs": [
        {
          "internalType": "bytes32",
          "name": "_lodgingFacilityId",
          "type": "bytes32"
        },
        {
          "internalType": "address",
          "name": "_newOwner",
          "type": "address"
        }
      ],
      "name": "yieldLodgingFacility",
      "outputs": [],
      "stateMutability": "nonpayable",
      "type": "function"
    }
  ],
  "bytecode": "0x60806040523480156200001157600080fd5b50604080518082018252600b81526a45746852696f537461797360a81b60208083019182528351808501909452600584526422a929991960d91b908401528151919291620000629160029162000081565b5080516200007890600390602084019062000081565b50505062000164565b8280546200008f9062000127565b90600052602060002090601f016020900481019282620000b35760008555620000fe565b82601f10620000ce57805160ff1916838001178555620000fe565b82800160010185558215620000fe579182015b82811115620000fe578251825591602001919060010190620000e1565b506200010c92915062000110565b5090565b5b808211156200010c576000815560010162000111565b600181811c908216806200013c57607f821691505b602082108114156200015e57634e487b7160e01b600052602260045260246000fd5b50919050565b6150d480620001746000396000f3fe60806040526004361061027b5760003560e01c80636a22dd261161014f578063b9e1aa03116100c1578063e95a644f1161007a578063e95a644f146107d7578063e985e9c5146107f7578063e994529e14610840578063f7cdbc9d14610872578063ffae741514610892578063ffc1e09a146108c357600080fd5b8063b9e1aa0314610764578063c87b56dd14610777578063cf63247e146104fb578063d0470d7c14610797578063e1e33b9c146107b7578063e3aae3a5146104fb57600080fd5b806395d89b411161011357806395d89b41146106ad5780639ff68214146106c2578063a22cb465146106ef578063a46880321461070f578063b38759fd1461072f578063b88d4fde1461074457600080fd5b80636a22dd261461060d57806370a082311461062d57806388ad3f351461064d5780638f201f5f1461066d5780639518f5fa1461068d57600080fd5b806323b872dd116101f3578063462ef5ed116101ac578063462ef5ed146104fb5780634c18a8ec1461051e5780634f6ccce71461054e5780635b5d206d1461056e5780636352211e1461059b578063650ba0a3146105bb57600080fd5b806323b872dd146104295780632f745c5914610449578063342df9b2146104695780633a5c94d61461049b57806342842e0e146104bb578063438c9cab146104db57600080fd5b8063095ea7b311610245578063095ea7b31461035757806318160ddd146103775780631aa9e742146103965780631bd2eeee146103d65780631be378de146103f65780631bf7509b1461040957600080fd5b806244253614610280578062d34b54146102a257806301ffc9a7146102cd57806306fdde03146102fd578063081812fc1461031f575b600080fd5b34801561028c57600080fd5b506102a061029b3660046143eb565b6108e3565b005b3480156102ae57600080fd5b506102b7610985565b6040516102c49190614a92565b60405180910390f35b3480156102d957600080fd5b506102ed6102e8366004614574565b610a87565b60405190151581526020016102c4565b34801561030957600080fd5b50610312610a98565b6040516102c49190614c48565b34801561032b57600080fd5b5061033f61033a3660046143eb565b610b2a565b6040516001600160a01b0390911681526020016102c4565b34801561036357600080fd5b506102a06103723660046143c1565b610bb2565b34801561038357600080fd5b50600b545b6040519081526020016102c4565b3480156103a257600080fd5b506103886103b13660046143c1565b6000908152602081815260408083206001600160a01b03949094168352929052205490565b3480156103e257600080fd5b506102a06103f13660046143eb565b610cc8565b6103886104043660046144af565b610e5c565b34801561041557600080fd5b506102b7610424366004614231565b61115a565b34801561043557600080fd5b506102a061044436600461427f565b6111c6565b34801561045557600080fd5b506103886104643660046143c1565b6111f7565b34801561047557600080fd5b506104896104843660046143eb565b61128d565b6040516102c496959493929190614b46565b3480156104a757600080fd5b506102a06104b63660046144fc565b611361565b3480156104c757600080fd5b506102a06104d636600461427f565b6115b6565b3480156104e757600080fd5b506102a06104f6366004614427565b6115d1565b34801561050757600080fd5b506103126040518060200160405280600081525081565b34801561052a57600080fd5b5061053e6105393660046143eb565b611662565b6040516102c49493929190614b12565b34801561055a57600080fd5b506103886105693660046143eb565b61172e565b34801561057a57600080fd5b5061058e610589366004614473565b6117c1565b6040516102c49190614ad6565b3480156105a757600080fd5b5061033f6105b63660046143eb565b6119aa565b3480156105c757600080fd5b506106006105d63660046143c1565b60009081526001602090815260408083206001600160a01b03949094168352929052205460ff1690565b6040516102c49190614c20565b34801561061957600080fd5b506102a06106283660046143eb565b611a21565b34801561063957600080fd5b50610388610648366004614231565b611aad565b34801561065957600080fd5b506102a06106683660046144fc565b611b34565b34801561067957600080fd5b506102a0610688366004614404565b611bcf565b34801561069957600080fd5b506102b76106a83660046143eb565b611c90565b3480156106b957600080fd5b50610312611cf0565b3480156106ce57600080fd5b506106da6362155d6e81565b60405163ffffffff90911681526020016102c4565b3480156106fb57600080fd5b506102a061070a366004614397565b611cff565b34801561071b57600080fd5b506102a061072a3660046143eb565b611d0e565b34801561073b57600080fd5b506102b7611dac565b34801561075057600080fd5b506102a061075f3660046142bb565b611e03565b6102a06107723660046143c1565b611e3b565b34801561078357600080fd5b506103126107923660046143eb565b611e45565b3480156107a357600080fd5b506102a06107b23660046143eb565b611e50565b3480156107c357600080fd5b506102a06107d23660046145ae565b611eea565b3480156107e357600080fd5b506102a06107f23660046143eb565b611ef7565b34801561080357600080fd5b506102ed61081236600461424c565b6001600160a01b03918216600090815260076020908152604080832093909416825291909152205460ff1690565b34801561084c57600080fd5b5061086061085b3660046143eb565b61204b565b6040516102c496959493929190614be7565b34801561087e57600080fd5b506102a061088d3660046145f9565b612118565b34801561089e57600080fd5b506108b26108ad3660046143eb565b61238e565b6040516102c4959493929190614a4b565b3480156108cf57600080fd5b506102b76108de3660046143eb565b612461565b60008181526010602052604090205481906001600160a01b0316336001600160a01b03161461092d5760405162461bcd60e51b815260040161092490614cad565b60405180910390fd5b6000828152601060209081526040808320805460ff60a01b191690558051858152918201929092527f5c33859dfe8722791b5d72ad942a0895181f8a694288ec429394f620de15032091015b60405180910390a15050565b606061098f6125ba565b67ffffffffffffffff8111156109a7576109a7614fae565b6040519080825280602002602001820160405280156109d0578160200160208202803683370190505b5090506000805b600e54811015610a825760106000600e83815481106109f8576109f8614f98565b9060005260206000200154815260200190815260200160002060000160149054906101000a900460ff1615610a7057600e8181548110610a3a57610a3a614f98565b9060005260206000200154838381518110610a5757610a57614f98565b602090810291909101015281610a6c81614f11565b9250505b80610a7a81614f11565b9150506109d7565b505090565b6000610a9282612632565b92915050565b606060028054610aa790614eb4565b80601f0160208091040260200160405190810160405280929190818152602001828054610ad390614eb4565b8015610b205780601f10610af557610100808354040283529160200191610b20565b820191906000526020600020905b815481529060010190602001808311610b0357829003601f168201915b5050505050905090565b6000610b3582612657565b610b965760405162461bcd60e51b815260206004820152602c60248201527f4552433732313a20617070726f76656420717565727920666f72206e6f6e657860448201526b34b9ba32b73a103a37b5b2b760a11b6064820152608401610924565b506000908152600660205260409020546001600160a01b031690565b6000610bbd826119aa565b9050806001600160a01b0316836001600160a01b03161415610c2b5760405162461bcd60e51b815260206004820152602160248201527f4552433732313a20617070726f76616c20746f2063757272656e74206f776e656044820152603960f91b6064820152608401610924565b336001600160a01b0382161480610c475750610c478133610812565b610cb95760405162461bcd60e51b815260206004820152603860248201527f4552433732313a20617070726f76652063616c6c6572206973206e6f74206f7760448201527f6e6572206e6f7220617070726f76656420666f7220616c6c00000000000000006064820152608401610924565b610cc38383612674565b505050565b60008181526014602052604090206001810154600160381b900460ff1615610d285760405162461bcd60e51b8152602060048201526013602482015272105b1c9958591e4818da1958dad959081bdd5d606a1b6044820152606401610924565b8054600081815260126020908152604080832054835260109091529020546001600160a01b0316338114610d6e5760405162461bcd60e51b815260040161092490614cf3565b60018301544290610d8b9061ffff62010000820481169116614d7b565b610d9c9061ffff1662015180614e0d565b610daf9062ffffff166362155d6e614db0565b63ffffffff161015610e035760405162461bcd60e51b815260206004820152601e60248201527f466f7262696464656e20756e6c65737320636865636b6f7574206461746500006044820152606401610924565b60018301805460ff60381b1916600160381b179055610e2281836126e2565b6040518481527f2c276699fefbad45f18509233bc03bb9cfdf41b18f32756933188bdef35fef55906020015b60405180910390a150505050565b6000610e6d858561ffff16856126ec565b60008581526012602052604081206002810154909190610e8d8587614de3565b61ffff16610e9b9190614e2f565b905080341015610ee25760405162461bcd60e51b81526020600482015260126024820152714e6565642e204d6f72652e204d6f6e65792160701b6044820152606401610924565b60005b8561ffff168161ffff161015610ff757600088815260136020526040812061ffff871691610f13848b614d7b565b61ffff90811682526020820192909252604001600020546001860154610f3d929182169116614e4e565b61ffff161015610f885760405162461bcd60e51b8152602060048201526016602482015275496e73756666696369656e7420696e76656e746f727960501b6044820152606401610924565b60008881526013602052604081208691610fa2848b614d7b565b61ffff90811682526020820192909252604001600090812080549092610fca91859116614d7b565b92506101000a81548161ffff021916908361ffff1602179055508080610fef90614eef565b915050610ee5565b506110023388611e3b565b611010600d80546001019055565b600061101b600d5490565b90506110273382612880565b600061103b8285600001548b8b8b8b61289a565b905061104782826128e5565b6040805160c0810182528a815261ffff808b1660208084019182528b83168486019081528b84166060860190815260006080870181815260a088018281528b8352601490955290889020965187559351600196909601805492519151945193511515600160381b0260ff60381b19941515600160301b0266ff00000000000019968816640100000000029690961666ffffff0000000019938816620100000263ffffffff1990951698909716979097179290921716939093179190911716919091179055517fe04083eb622e3cb7d063f319076c83270c24acb409a3bc13abcfb36af60f861790611144908b908590918252602082015260400190565b60405180910390a150925050505b949350505050565b6001600160a01b0381166000908152600f60209081526040918290208054835181840281018401909452808452606093928301828280156111ba57602002820191906000526020600020905b8154815260200190600101908083116111a6575b50505050509050919050565b6111d03382612970565b6111ec5760405162461bcd60e51b815260040161092490614d2a565b610cc3838383612a56565b600061120283611aad565b82106112645760405162461bcd60e51b815260206004820152602b60248201527f455243373231456e756d657261626c653a206f776e657220696e646578206f7560448201526a74206f6620626f756e647360a81b6064820152608401610924565b506001600160a01b03919091166000908152600960209081526040808320938352929052205490565b6000818152601260205260409020600381015481546001830154600284015460048501805460ff6101008704811697959661ffff909516959394169260609290916112d790614eb4565b80601f016020809104026020016040519081016040528092919081815260200182805461130390614eb4565b80156113505780601f1061132557610100808354040283529160200191611350565b820191906000526020600020905b81548152906001019060200180831161133357829003601f168201915b505050505091505091939550919395565b8561136b81612bfd565b61138d81604051806060016040528060228152602001614fdb60229139612c65565b6113cc83838080601f016020809104026020016040519081016040528093929190818152602001838380828437600092019190915250612c9e92505050565b60008184846040516020016113e3939291906146f0565b60408051808303601f19018152918152815160209283012060008181526012909352912060030154909150610100900460ff161561145a5760405162461bcd60e51b8152602060048201526014602482015273537061636520616c72656164792065786973747360601b6044820152606401610924565b6040518060c001604052808381526020018861ffff168152602001878152602001861515815260200160011515815260200185858080601f016020809104026020016040519081016040528093929190818152602001838380828437600092018290525093909452505083815260126020908152604091829020845181558482015160018201805461ffff90921661ffff199283161790559285015160028201556060850151600382018054608088015115156101000261ff0019931515939093169516949094171790925560a0840151805192935061154392600485019291909101906140a1565b505050600082815260116020908152604080832080546001810182559084529190922001829055517fd2b3ef55ad7989c57be63524c48d24dc7f381d9e49e785454f7542bdac4ba5ed906115a490839085908b908b908b908b908b90614b7f565b60405180910390a15050505050505050565b610cc383838360405180602001604052806000815250611e03565b60008381526010602052604090205483906001600160a01b0316336001600160a01b0316146116125760405162461bcd60e51b815260040161092490614cad565b600084815260106020526040902061162e906001018484614121565b507fb252d91e8d424ba6f9f1647d21d7b0bbd8e2a3cbb318aaecb0d735fba9f62c7f848484604051610e4e93929190614bc4565b6000818152601060205260409020805460018201805460ff600160a81b84048116946001600160a01b03851694600160a01b9004909116926060926116a690614eb4565b80601f01602080910402602001604051908101604052809291908181526020018280546116d290614eb4565b801561171f5780601f106116f45761010080835404028352916020019161171f565b820191906000526020600020905b81548152906001019060200180831161170257829003601f168201915b50505050509150509193509193565b6000611739600b5490565b821061179c5760405162461bcd60e51b815260206004820152602c60248201527f455243373231456e756d657261626c653a20676c6f62616c20696e646578206f60448201526b7574206f6620626f756e647360a01b6064820152608401610924565b600b82815481106117af576117af614f98565b90600052602060002001549050919050565b60606117d2848461ffff16846126ec565b6000848152601260209081526040808320815160c08101835281548152600182015461ffff1693810193909352600281015491830191909152600381015460ff80821615156060850152610100909104161515608083015260048101805460a08401919061183f90614eb4565b80601f016020809104026020016040519081016040528092919081815260200182805461186b90614eb4565b80156118b85780601f1061188d576101008083540402835291602001916118b8565b820191906000526020600020905b81548152906001019060200180831161189b57829003601f168201915b505050505081525050905060008361ffff1667ffffffffffffffff8111156118e2576118e2614fae565b60405190808252806020026020018201604052801561190b578160200160208202803683370190505b50905060005b8461ffff168161ffff1610156119a05760008781526013602052604081209061193a8389614d7b565b61ffff9081168252602080830193909352604090910160002054918501516119659290911690614e4e565b828261ffff168151811061197b5761197b614f98565b61ffff909216602092830291909101909101528061199881614eef565b915050611911565b5095945050505050565b6000818152600460205260408120546001600160a01b031680610a925760405162461bcd60e51b815260206004820152602960248201527f4552433732313a206f776e657220717565727920666f72206e6f6e657869737460448201526832b73a103a37b5b2b760b91b6064820152608401610924565b60008181526010602052604090205481906001600160a01b0316336001600160a01b031614611a625760405162461bcd60e51b815260040161092490614cad565b60008281526010602052604090819020805460ff60a81b19169055517f9cb52f05776b0f321eb9ca8c9e1b26b978036072417bf384bd406189f43864f8906109799084815260200190565b60006001600160a01b038216611b185760405162461bcd60e51b815260206004820152602a60248201527f4552433732313a2062616c616e636520717565727920666f7220746865207a65604482015269726f206164647265737360b01b6064820152608401610924565b506001600160a01b031660009081526005602052604090205490565b6000868152601260209081526040808320548352601090915290205486906001600160a01b0316336001600160a01b031614611b825760405162461bcd60e51b815260040161092490614cf3565b600087815260126020526040908190208054915190917fd2b3ef55ad7989c57be63524c48d24dc7f381d9e49e785454f7542bdac4ba5ed916115a4918b918b908b908b908b908b90614b7f565b60008281526010602052604090205482906001600160a01b0316336001600160a01b031614611c105760405162461bcd60e51b815260040161092490614cad565b6000838152601060209081526040918290205491518581526001600160a01b038581169316917f11a520c5c4bfade8b450399ea67096dba36478d23d9a45f02e32989cfe307dde910160405180910390a35060009182526010602052604090912080546001600160a01b0319166001600160a01b03909216919091179055565b6000818152601160209081526040918290208054835181840281018401909452808452606093928301828280156111ba57602002820191906000526020600020908154815260200190600101908083116111a65750505050509050919050565b606060038054610aa790614eb4565b611d0a338383612cef565b5050565b60008181526010602052604090205481906001600160a01b0316336001600160a01b031614611d4f5760405162461bcd60e51b815260040161092490614cad565b60008281526010602052604090819020805460ff60a01b1916600160a01b179055517f5c33859dfe8722791b5d72ad942a0895181f8a694288ec429394f620de150320906109799084906001909182521515602082015260400190565b6060600e805480602002602001604051908101604052809291908181526020018280548015610b2057602002820191906000526020600020905b815481526020019060010190808311611de6575050505050905090565b611e0d3383612970565b611e295760405162461bcd60e51b815260040161092490614d2a565b611e3584848484612dbe565b50505050565b611d0a8282612df1565b6060610a9282612e91565b6000818152601260209081526040808320548352601090915290205481906001600160a01b0316336001600160a01b031614611e9e5760405162461bcd60e51b815260040161092490614cf3565b60008281526012602052604090819020600301805461ff0019169055517fdacbd8b39f92f5e1f1a3bbbef3779e6a600dc62a4323325cd1676f681197464c906109799084815260200190565b610cc38383836000612118565b80611f01816119aa565b6001600160a01b0316336001600160a01b031614611f615760405162461bcd60e51b815260206004820181905260248201527f4f6e6c79207374617920746f6b656e206f776e657220697320616c6c6f7765646044820152606401610924565b60008281526014602052604090206001810154600160301b900460ff1615611fc05760405162461bcd60e51b815260206004820152601260248201527120b63932b0b23c9031b432b1b5b2b21034b760711b6044820152606401610924565b80546000818152601260209081526040808320600281015460018701805466ff0000000000001916600160301b17905590548452601090925290912054612011906001600160a01b03168284613000565b6040518581527fdf06c27528e294967ba5e32e69b9c5fe102a58c699c44740c2c4c6afc71925359060200160405180910390a15050505050565b60126020526000908152604090208054600182015460028301546003840154600485018054949561ffff90941694929360ff80841694610100909404169290919061209590614eb4565b80601f01602080910402602001604051908101604052809291908181526020018280546120c190614eb4565b801561210e5780601f106120e35761010080835404028352916020019161210e565b820191906000526020600020905b8154815290600101906020018083116120f157829003601f168201915b5050505050905086565b61215784848080601f016020809104026020016040519081016040528093929190818152602001838380828437600092019190915250612c9e92505050565b600033858560405160200161216e939291906146c4565b60408051808303601f19018152918152815160209283012060008181526010909352912054909150600160a81b900460ff16156121ed5760405162461bcd60e51b815260206004820152601760248201527f466163696c69747920616c7265616479206578697374730000000000000000006044820152606401610924565b6040518060a001604052806121ff3390565b6001600160a01b03168152602001841515815260200160011515815260200186868080601f01602080910402602001604051908101604052809392919081815260200183838082843760009201829052509385525050506001600160a01b03808616602093840152848252601083526040918290208451815486860151948701511515600160a81b0260ff60a81b19951515600160a01b026001600160a81b0319909216929094169190911717929092161781556060830151805191926122ce926001850192909101906140a1565b5060809190910151600290910180546001600160a01b0319166001600160a01b03909216919091179055600e805460018181019092557fbb7b4a454dc3493923482f07822329ed19e8244eff582cc204f8554c3620c3fd01829055336000818152600f60209081526040808320805495860181558352912090920183905590517f28c9a25063d40c8cf423202182ed575cc97982c1fd1771bd9721e19a38cc491d9061237f90849089908990614bc4565b60405180910390a25050505050565b601060205260009081526040902080546001820180546001600160a01b0383169360ff600160a01b8504811694600160a81b9004169290916123cf90614eb4565b80601f01602080910402602001604051908101604052809291908181526020018280546123fb90614eb4565b80156124485780601f1061241d57610100808354040283529160200191612448565b820191906000526020600020905b81548152906001019060200180831161242b57829003601f168201915b505050600290930154919250506001600160a01b031685565b606061246c8261307d565b67ffffffffffffffff81111561248457612484614fae565b6040519080825280602002602001820160405280156124ad578160200160208202803683370190505b5060008381526011602090815260408083208054825181850281018501909352808352949550929390929183018282801561250757602002820191906000526020600020905b8154815260200190600101908083116124f3575b50505050509050600080600090505b82518110156125b2576012600084838151811061253557612535614f98565b60209081029190910181015182528101919091526040016000206003015460ff16156125a05782818151811061256d5761256d614f98565b602002602001015184838151811061258757612587614f98565b60209081029190910101528161259c81614f11565b9250505b806125aa81614f11565b915050612516565b505050919050565b6000805b600e5481101561262e5760106000600e83815481106125df576125df614f98565b9060005260206000200154815260200190815260200160002060000160149054906101000a900460ff161561261c578161261881614f11565b9250505b8061262681614f11565b9150506125be565b5090565b60006001600160e01b0319821663780e9d6360e01b1480610a925750610a92826130fa565b6000908152600460205260409020546001600160a01b0316151590565b600081815260066020526040902080546001600160a01b0319166001600160a01b03841690811790915581906126a9826119aa565b6001600160a01b03167f8c5be1e5ebec7d5bd14f71427d1e84f3dd0314c0f7b2291e5b200ac8c7c3b92560405160405180910390a45050565b611d0a828261314a565b6126f96202a30042614e71565b6127068362015180614e2f565b612714906362155d6e614d98565b1161275a5760405162461bcd60e51b8152602060048201526016602482015275111bdb89dd081cdd185e481a5b881d1a19481c185cdd60521b6044820152606401610924565b60008381526012602090815260408083205483526010909152902054600160a01b900460ff166127cc5760405162461bcd60e51b815260206004820152601c60248201527f4c6f6467696e6720466163696c69747920697320696e616374697665000000006044820152606401610924565b60008381526012602052604090206003015460ff166128215760405162461bcd60e51b8152602060048201526011602482015270537061636520697320696e61637469766560781b6044820152606401610924565b60008161ffff1611610cc35760405162461bcd60e51b815260206004820152602260248201527f4e756d626572206f6620646179732073686f756c642062652031206f72206d6f604482015261726560f01b6064820152608401610924565b611d0a8282604051806020016040528060008152506132b4565b60606128da6128a8886132e7565b6128b58888888888613332565b6040516020016128c6929190614972565b60405160208183030381529060405261339b565b979650505050505050565b6128ee82612657565b6129515760405162461bcd60e51b815260206004820152602e60248201527f45524337323155524953746f726167653a2055524920736574206f66206e6f6e60448201526d32bc34b9ba32b73a103a37b5b2b760911b6064820152608401610924565b60008281526008602090815260409091208251610cc3928401906140a1565b600061297b82612657565b6129dc5760405162461bcd60e51b815260206004820152602c60248201527f4552433732313a206f70657261746f7220717565727920666f72206e6f6e657860448201526b34b9ba32b73a103a37b5b2b760a11b6064820152608401610924565b60006129e7836119aa565b9050806001600160a01b0316846001600160a01b03161480612a225750836001600160a01b0316612a1784610b2a565b6001600160a01b0316145b8061115257506001600160a01b0380821660009081526007602090815260408083209388168352929052205460ff16611152565b826001600160a01b0316612a69826119aa565b6001600160a01b031614612acd5760405162461bcd60e51b815260206004820152602560248201527f4552433732313a207472616e736665722066726f6d20696e636f72726563742060448201526437bbb732b960d91b6064820152608401610924565b6001600160a01b038216612b2f5760405162461bcd60e51b8152602060048201526024808201527f4552433732313a207472616e7366657220746f20746865207a65726f206164646044820152637265737360e01b6064820152608401610924565b612b3a8383836133b6565b612b45600082612674565b6001600160a01b0383166000908152600560205260408120805460019290612b6e908490614e71565b90915550506001600160a01b0382166000908152600560205260408120805460019290612b9c908490614d98565b909155505060008181526004602052604080822080546001600160a01b0319166001600160a01b0386811691821790925591518493918716917fddf252ad1be2c89b69c2b068fc378daa952ba7f163c4a11628f55a4df523b3ef91a4505050565b600081815260106020526040902054600160a81b900460ff16612c625760405162461bcd60e51b815260206004820152601760248201527f466163696c69747920646f6573206e6f742065786973740000000000000000006044820152606401610924565b50565b60008281526010602052604090205481906001600160a01b03163314610cc35760405162461bcd60e51b81526004016109249190614c48565b6000815111612c625760405162461bcd60e51b815260206004820152601960248201527f4461746120555249206d7573742062652070726f7669646564000000000000006044820152606401610924565b816001600160a01b0316836001600160a01b03161415612d515760405162461bcd60e51b815260206004820152601960248201527f4552433732313a20617070726f766520746f2063616c6c6572000000000000006044820152606401610924565b6001600160a01b03838116600081815260076020908152604080832094871680845294825291829020805460ff191686151590811790915591519182527f17307eab39ab6107e8899845ad3d59bd9653f200f220920489ca2b5937696c31910160405180910390a3505050565b612dc9848484612a56565b612dd5848484846133c1565b611e355760405162461bcd60e51b815260040161092490614c5b565b6000818152602081815260408083206001600160a01b0386168452909152812080543492839291612e23908490614d98565b909155505060008281526001602090815260408083206001600160a01b03871680855290835292819020805460ff1916905580518481529182018590527fd7eda976cf4919f13172eb15bb39c64cecb7172258c741dab31d14c855eff40291015b60405180910390a2505050565b6060612e9c82612657565b612f025760405162461bcd60e51b815260206004820152603160248201527f45524337323155524953746f726167653a2055524920717565727920666f72206044820152703737b732bc34b9ba32b73a103a37b5b2b760791b6064820152608401610924565b60008281526008602052604081208054612f1b90614eb4565b80601f0160208091040260200160405190810160405280929190818152602001828054612f4790614eb4565b8015612f945780601f10612f6957610100808354040283529160200191612f94565b820191906000526020600020905b815481529060010190602001808311612f7757829003601f168201915b505050505090506000612fb260408051602081019091526000815290565b9050805160001415612fc5575092915050565b815115612ff7578082604051602001612fdf92919061470a565b60405160208183030381529060405292505050919050565b611152846134cb565b6000818152601260205260409020600201548211156130725760405162461bcd60e51b815260206004820152602860248201527f576974686472617720616d6f756e74206e6f7420616c6c6f777320696e207468604482015267697320737461746560c01b6064820152608401610924565b610cc38383836135a3565b6000818152601160205260408120815b81548110156130f357601260008383815481106130ac576130ac614f98565b6000918252602080832090910154835282019290925260400190206003015460ff16156130e157826130dd81614f11565b9350505b806130eb81614f11565b91505061308d565b5050919050565b60006001600160e01b031982166380ac58cd60e01b148061312b57506001600160e01b03198216635b5e139f60e01b145b80610a9257506301ffc9a760e01b6001600160e01b0319831614610a92565b6000818152602081815260408083206001600160a01b0386168452909152902054806131ad5760405162461bcd60e51b8152602060048201526012602482015271496e73756666696369656e742066756e647360701b6044820152606401610924565b60008281526001602081815260408084206001600160a01b03881685529091529091205460ff16818111156131e4576131e4614f6c565b146132455760405162461bcd60e51b815260206004820152602b60248201527f436f6d706c657465207769746864726177206e6f7420616c6c6f77656420696e60448201526a207468697320737461746560a81b6064820152608401610924565b6000828152602081815260408083206001600160a01b038716808552925282209190915561327390826136c4565b60408051828152602081018490526001600160a01b038516917f510b30a02fc9b7506980950b9c615af8c13e88658555c0ea22acffd73d9ea2229101612e84565b6132be83836137dd565b6132cb60008484846133c1565b610cc35760405162461bcd60e51b815260040161092490614c5b565b60606132f28261391c565b6040518060a001604052806062815260200161503d6062913960405160200161331c929190614739565b6040516020818303038152906040529050919050565b606061333d86613a1a565b61334686613a1a565b6133538661ffff1661391c565b6133608661ffff1661391c565b61336d8661ffff1661391c565b6040516020016133819594939291906147de565b604051602081830303815290604052905095945050505050565b60606133a682613a55565b60405160200161331c91906149c9565b610cc3838383613ba9565b60006001600160a01b0384163b156134c357604051630a85bd0160e11b81526001600160a01b0385169063150b7a0290613405903390899088908890600401614a0e565b602060405180830381600087803b15801561341f57600080fd5b505af192505050801561344f575060408051601f3d908101601f1916820190925261344c91810190614591565b60015b6134a9573d80801561347d576040519150601f19603f3d011682016040523d82523d6000602084013e613482565b606091505b5080516134a15760405162461bcd60e51b815260040161092490614c5b565b805181602001fd5b6001600160e01b031916630a85bd0160e11b149050611152565b506001611152565b60606134d682612657565b61353a5760405162461bcd60e51b815260206004820152602f60248201527f4552433732314d657461646174613a2055524920717565727920666f72206e6f60448201526e3732bc34b9ba32b73a103a37b5b2b760891b6064820152608401610924565b600061355160408051602081019091526000815290565b90506000815111613571576040518060200160405280600081525061359c565b8061357b84613c61565b60405160200161358c92919061470a565b6040516020818303038152906040525b9392505050565b6000818152602081815260408083206001600160a01b03871684529091529020548210156136085760405162461bcd60e51b8152602060048201526012602482015271496e73756666696369656e742066756e647360701b6044820152606401610924565b6000818152602081815260408083206001600160a01b0387168452909152902054613634908390614e71565b6000828152602081815260408083206001600160a01b038816808552908352818420949094558483526001808352818420858552909252909120805460ff1916909117905561368390836136c4565b60408051838152602081018390526001600160a01b038516917f510b30a02fc9b7506980950b9c615af8c13e88658555c0ea22acffd73d9ea2229101612e84565b804710156137145760405162461bcd60e51b815260206004820152601d60248201527f416464726573733a20696e73756666696369656e742062616c616e63650000006044820152606401610924565b6000826001600160a01b03168260405160006040518083038185875af1925050503d8060008114613761576040519150601f19603f3d011682016040523d82523d6000602084013e613766565b606091505b5050905080610cc35760405162461bcd60e51b815260206004820152603a60248201527f416464726573733a20756e61626c6520746f2073656e642076616c75652c207260448201527f6563697069656e74206d617920686176652072657665727465640000000000006064820152608401610924565b6001600160a01b0382166138335760405162461bcd60e51b815260206004820181905260248201527f4552433732313a206d696e7420746f20746865207a65726f20616464726573736044820152606401610924565b61383c81612657565b156138895760405162461bcd60e51b815260206004820152601c60248201527f4552433732313a20746f6b656e20616c7265616479206d696e746564000000006044820152606401610924565b613895600083836133b6565b6001600160a01b03821660009081526005602052604081208054600192906138be908490614d98565b909155505060008181526004602052604080822080546001600160a01b0319166001600160a01b03861690811790915590518392907fddf252ad1be2c89b69c2b068fc378daa952ba7f163c4a11628f55a4df523b3ef908290a45050565b6060816139405750506040805180820190915260018152600360fc1b602082015290565b8160005b811561396a578061395481614f11565b91506139639050600a83614dcf565b9150613944565b60008167ffffffffffffffff81111561398557613985614fae565b6040519080825280601f01601f1916602001820160405280156139af576020820181803683370190505b5090505b8415611152576139c4600183614e71565b91506139d1600a86614f2c565b6139dc906030614d98565b60f81b8183815181106139f1576139f1614f98565b60200101906001600160f81b031916908160001a905350613a13600a86614dcf565b94506139b3565b6060613a2582613d5f565b613a32608084901b613d5f565b60405161060f60f31b60208201526022810192909252604282015260620161331c565b6060815160001415613a7557505060408051602081019091526000815290565b6000604051806060016040528060408152602001614ffd6040913990506000600384516002613aa49190614d98565b613aae9190614dcf565b613ab9906004614e2f565b67ffffffffffffffff811115613ad157613ad1614fae565b6040519080825280601f01601f191660200182016040528015613afb576020820181803683370190505b509050600182016020820185865187015b80821015613b67576003820191508151603f8160121c168501518453600184019350603f81600c1c168501518453600184019350603f8160061c168501518453600184019350603f8116850151845350600183019250613b0c565b5050600386510660018114613b835760028114613b9657613b9e565b603d6001830353603d6002830353613b9e565b603d60018303535b509195945050505050565b6001600160a01b038316613c0457613bff81600b80546000838152600c60205260408120829055600182018355919091527f0175b7a638427703f0dbe7bb9bbf987a2551717b34e79f33b5b1008d1fa01db90155565b613c27565b816001600160a01b0316836001600160a01b031614613c2757613c278382613f11565b6001600160a01b038216613c3e57610cc381613fae565b826001600160a01b0316826001600160a01b031614610cc357610cc3828261405d565b606081613c855750506040805180820190915260018152600360fc1b602082015290565b8160005b8115613caf5780613c9981614f11565b9150613ca89050600a83614dcf565b9150613c89565b60008167ffffffffffffffff811115613cca57613cca614fae565b6040519080825280601f01601f191660200182016040528015613cf4576020820181803683370190505b5090505b841561115257613d09600183614e71565b9150613d16600a86614f2c565b613d21906030614d98565b60f81b818381518110613d3657613d36614f98565b60200101906001600160f81b031916908160001a905350613d58600a86614dcf565b9450613cf8565b7aff00000000000000ff00000000000000ff00000000000000ff00006bffffffff0000000000000000604083901c90811663ffffffff60c01b84161760201c63ffffffff60601b919091166001600160e01b031984161717601081901c9182167eff00000000000000ff00000000000000ff00000000000000ff000000000000821617600890811c7bff00000000000000ff00000000000000ff00000000000000ff000000939093167fff00000000000000ff00000000000000ff00000000000000ff000000000000009290921691909117919091179081901c7e0f000f000f000f000f000f000f000f000f000f000f000f000f000f000f000f167f0f000f000f000f000f000f000f000f000f000f000f000f000f000f000f000f00600492831c161790613ead827f0606060606060606060606060606060606060606060606060606060606060606614d98565b901c7f0f0f0f0f0f0f0f0f0f0f0f0f0f0f0f0f0f0f0f0f0f0f0f0f0f0f0f0f0f0f0f0f166007613edd9190614e2f565b613f07827f3030303030303030303030303030303030303030303030303030303030303030614d98565b610a929190614d98565b60006001613f1e84611aad565b613f289190614e71565b6000838152600a6020526040902054909150808214613f7b576001600160a01b03841660009081526009602090815260408083208584528252808320548484528184208190558352600a90915290208190555b506000918252600a602090815260408084208490556001600160a01b039094168352600981528383209183525290812055565b600b54600090613fc090600190614e71565b6000838152600c6020526040812054600b8054939450909284908110613fe857613fe8614f98565b9060005260206000200154905080600b838154811061400957614009614f98565b6000918252602080832090910192909255828152600c9091526040808220849055858252812055600b80548061404157614041614f82565b6001900381819060005260206000200160009055905550505050565b600061406883611aad565b6001600160a01b0390931660009081526009602090815260408083208684528252808320859055938252600a9052919091209190915550565b8280546140ad90614eb4565b90600052602060002090601f0160209004810192826140cf5760008555614115565b82601f106140e857805160ff1916838001178555614115565b82800160010185558215614115579182015b828111156141155782518255916020019190600101906140fa565b5061262e929150614195565b82805461412d90614eb4565b90600052602060002090601f01602090048101928261414f5760008555614115565b82601f106141685782800160ff19823516178555614115565b82800160010185558215614115579182015b8281111561411557823582559160200191906001019061417a565b5b8082111561262e5760008155600101614196565b80356001600160a01b03811681146141c157600080fd5b919050565b803580151581146141c157600080fd5b60008083601f8401126141e857600080fd5b50813567ffffffffffffffff81111561420057600080fd5b60208301915083602082850101111561421857600080fd5b9250929050565b803561ffff811681146141c157600080fd5b60006020828403121561424357600080fd5b61359c826141aa565b6000806040838503121561425f57600080fd5b614268836141aa565b9150614276602084016141aa565b90509250929050565b60008060006060848603121561429457600080fd5b61429d846141aa565b92506142ab602085016141aa565b9150604084013590509250925092565b600080600080608085870312156142d157600080fd5b6142da856141aa565b93506142e8602086016141aa565b925060408501359150606085013567ffffffffffffffff8082111561430c57600080fd5b818701915087601f83011261432057600080fd5b81358181111561433257614332614fae565b604051601f8201601f19908116603f0116810190838211818310171561435a5761435a614fae565b816040528281528a602084870101111561437357600080fd5b82602086016020830137600060208483010152809550505050505092959194509250565b600080604083850312156143aa57600080fd5b6143b3836141aa565b9150614276602084016141c6565b600080604083850312156143d457600080fd5b6143dd836141aa565b946020939093013593505050565b6000602082840312156143fd57600080fd5b5035919050565b6000806040838503121561441757600080fd5b82359150614276602084016141aa565b60008060006040848603121561443c57600080fd5b83359250602084013567ffffffffffffffff81111561445a57600080fd5b614466868287016141d6565b9497909650939450505050565b60008060006060848603121561448857600080fd5b833592506144986020850161421f565b91506144a66040850161421f565b90509250925092565b600080600080608085870312156144c557600080fd5b843593506144d56020860161421f565b92506144e36040860161421f565b91506144f16060860161421f565b905092959194509250565b60008060008060008060a0878903121561451557600080fd5b863595506145256020880161421f565b94506040870135935061453a606088016141c6565b9250608087013567ffffffffffffffff81111561455657600080fd5b61456289828a016141d6565b979a9699509497509295939492505050565b60006020828403121561458657600080fd5b813561359c81614fc4565b6000602082840312156145a357600080fd5b815161359c81614fc4565b6000806000604084860312156145c357600080fd5b833567ffffffffffffffff8111156145da57600080fd5b6145e6868287016141d6565b90945092506144a69050602085016141c6565b6000806000806060858703121561460f57600080fd5b843567ffffffffffffffff81111561462657600080fd5b614632878288016141d6565b90955093506146459050602086016141c6565b91506144f1604086016141aa565b6000815180845261466b816020860160208601614e88565b601f01601f19169290920160200192915050565b81835281816020850137506000828201602090810191909152601f909101601f19169091010190565b600081516146ba818560208601614e88565b9290920192915050565b6bffffffffffffffffffffffff198460601b168152818360148301376000910160140190815292915050565b838152818360208301376000910160200190815292915050565b6000835161471c818460208801614e88565b835190830190614730818360208801614e88565b01949350505050565b74226e616d65223a2245746852696f5374617973202360581b8152825160009061476a816015850160208801614e88565b7f222c226465736372697074696f6e223a2253746179206174206c6f6467696e6760159184019182015273103330b1b4b634ba3c91161134b6b0b3b2911d1160611b603582015283516147c4816049840160208801614e88565b601160f91b60499290910191820152604a01949350505050565b7f2261747472696275746573223a5b7b2274726169745f74797065223a2266616381527134b634ba3ca4b21116113b30b63ab2911d1160711b602082015260008651614831816032850160208b01614e88565b7f227d2c7b2274726169745f74797065223a2273706163654964222c2276616c756032918401918201526332911d1160e11b6052820152865161487b816056840160208b01614e88565b7f227d2c7b2274726169745f74797065223a227374617274446179222c2276616c60569290910191820152643ab2911d1160d91b607682015285516148c781607b840160208a01614e88565b7f227d2c7b2274726169745f74797065223a226e756d6265724f6644617973222c607b929091019182015268113b30b63ab2911d1160b91b609b82015261496661495761495161491a60a48501896146a8565b7f227d2c7b2274726169745f74797065223a227175616e74697479222c2276616c8152643ab2911d1160d91b602082015260250190565b866146a8565b62227d5d60e81b815260030190565b98975050505050505050565b607b60f81b81526000835161498e816001850160208801614e88565b600b60fa1b60019184019182015283516149af816002840160208801614e88565b607d60f81b60029290910191820152600301949350505050565b7f646174613a6170706c69636174696f6e2f6a736f6e3b6261736536342c000000815260008251614a0181601d850160208701614e88565b91909101601d0192915050565b6001600160a01b0385811682528416602082015260408101839052608060608201819052600090614a4190830184614653565b9695505050505050565b600060018060a01b0380881683528615156020840152851515604084015260a06060840152614a7d60a0840186614653565b91508084166080840152509695505050505050565b6020808252825182820181905260009190848201906040850190845b81811015614aca57835183529284019291840191600101614aae565b50909695505050505050565b6020808252825182820181905260009190848201906040850190845b81811015614aca57835161ffff1683529284019291840191600101614af2565b84151581526001600160a01b03841660208201528215156040820152608060608201819052600090614a4190830184614653565b861515815285602082015261ffff85166040820152836060820152821515608082015260c060a0820152600061496660c0830184614653565b87815286602082015261ffff86166040820152846060820152831515608082015260c060a08201526000614bb760c08301848661467f565b9998505050505050505050565b838152604060208201526000614bde60408301848661467f565b95945050505050565b86815261ffff861660208201528460408201528315156060820152821515608082015260c060a0820152600061496660c0830184614653565b6020810160028310614c4257634e487b7160e01b600052602160045260246000fd5b91905290565b60208152600061359c6020830184614653565b60208082526032908201527f4552433732313a207472616e7366657220746f206e6f6e20455243373231526560408201527131b2b4bb32b91034b6b83632b6b2b73a32b960711b606082015260800190565b60208082526026908201527f4f6e6c79206c6f6467696e6720666163696c697479206f776e657220697320616040820152651b1b1bddd95960d21b606082015260800190565b6020808252601b908201527f4f6e6c79207370616365206f776e657220697320616c6c6f7765640000000000604082015260600190565b60208082526031908201527f4552433732313a207472616e736665722063616c6c6572206973206e6f74206f6040820152701ddb995c881b9bdc88185c1c1c9bdd9959607a1b606082015260800190565b600061ffff80831681851680830382111561473057614730614f40565b60008219821115614dab57614dab614f40565b500190565b600063ffffffff80831681851680830382111561473057614730614f40565b600082614dde57614dde614f56565b500490565b600061ffff80831681851681830481118215151615614e0457614e04614f40565b02949350505050565b600062ffffff80831681851681830481118215151615614e0457614e04614f40565b6000816000190483118215151615614e4957614e49614f40565b500290565b600061ffff83811690831681811015614e6957614e69614f40565b039392505050565b600082821015614e8357614e83614f40565b500390565b60005b83811015614ea3578181015183820152602001614e8b565b83811115611e355750506000910152565b600181811c90821680614ec857607f821691505b60208210811415614ee957634e487b7160e01b600052602260045260246000fd5b50919050565b600061ffff80831681811415614f0757614f07614f40565b6001019392505050565b6000600019821415614f2557614f25614f40565b5060010190565b600082614f3b57614f3b614f56565b500690565b634e487b7160e01b600052601160045260246000fd5b634e487b7160e01b600052601260045260246000fd5b634e487b7160e01b600052602160045260246000fd5b634e487b7160e01b600052603160045260246000fd5b634e487b7160e01b600052603260045260246000fd5b634e487b7160e01b600052604160045260246000fd5b6001600160e01b031981168114612c6257600080fdfe4f6e6c7920666163696c697479206f776e6572206d617920616464205370616365734142434445464748494a4b4c4d4e4f505152535455565758595a6162636465666768696a6b6c6d6e6f707172737475767778797a303132333435363738392b2f68747470733a2f2f626166796265696767376d7777706e6e6d366d6d6b3374777863346172697a6f796336696a6e617965337064636977636f6868656f37786937686d2e697066732e647765622e6c696e6b2f746f6b656e2d696d6167652e706e67a26469706673582212206227cb5f86bdf909c823a1ec1f7a653fae14f30c9bedee06c2d87fd63cc9616e64736f6c63430008070033",
  "linkReferences": {},
  "deployedLinkReferences": {}
}