{
  "_format": "hh-sol-artifact-1",
  "contractName": "EthRioStays",
  "sourceName": "contracts/EthRioStays.sol",
  "abi": [
    {
      "inputs": [],
      "stateMutability": "nonpayable",
      "type": "constructor"
    },
    {
      "anonymous": false,
      "inputs": [
        {
          "indexed": true,
          "internalType": "address",
          "name": "owner",
          "type": "address"
        },
        {
          "indexed": true,
          "internalType": "address",
          "name": "approved",
          "type": "address"
        },
        {
          "indexed": true,
          "internalType": "uint256",
          "name": "tokenId",
          "type": "uint256"
        }
      ],
      "name": "Approval",
      "type": "event"
    },
    {
      "anonymous": false,
      "inputs": [
        {
          "indexed": true,
          "internalType": "address",
          "name": "owner",
          "type": "address"
        },
        {
          "indexed": true,
          "internalType": "address",
          "name": "operator",
          "type": "address"
        },
        {
          "indexed": false,
          "internalType": "bool",
          "name": "approved",
          "type": "bool"
        }
      ],
      "name": "ApprovalForAll",
      "type": "event"
    },
    {
      "anonymous": false,
      "inputs": [
        {
          "indexed": false,
          "internalType": "uint256",
          "name": "tokenId",
          "type": "uint256"
        }
      ],
      "name": "CheckIn",
      "type": "event"
    },
    {
      "anonymous": false,
      "inputs": [
        {
          "indexed": false,
          "internalType": "uint256",
          "name": "tokenId",
          "type": "uint256"
        }
      ],
      "name": "CheckOut",
      "type": "event"
    },
    {
      "anonymous": false,
      "inputs": [
        {
          "indexed": true,
          "internalType": "address",
          "name": "payee",
          "type": "address"
        },
        {
          "indexed": false,
          "internalType": "uint256",
          "name": "weiAmount",
          "type": "uint256"
        },
        {
          "indexed": false,
          "internalType": "bytes32",
          "name": "spaceId",
          "type": "bytes32"
        }
      ],
      "name": "Deposited",
      "type": "event"
    },
    {
      "anonymous": false,
      "inputs": [
        {
          "indexed": false,
          "internalType": "bytes32",
          "name": "facilityId",
          "type": "bytes32"
        },
        {
          "indexed": false,
          "internalType": "bool",
          "name": "active",
          "type": "bool"
        }
      ],
      "name": "LodgingFacilityActiveState",
      "type": "event"
    },
    {
      "anonymous": false,
      "inputs": [
        {
          "indexed": false,
          "internalType": "bytes32",
          "name": "facilityId",
          "type": "bytes32"
        },
        {
          "indexed": true,
          "internalType": "address",
          "name": "owner",
          "type": "address"
        },
        {
          "indexed": false,
          "internalType": "string",
          "name": "dataURI",
          "type": "string"
        }
      ],
      "name": "LodgingFacilityCreated",
      "type": "event"
    },
    {
      "anonymous": false,
      "inputs": [
        {
          "indexed": false,
          "internalType": "bytes32",
          "name": "facilityId",
          "type": "bytes32"
        },
        {
          "indexed": true,
          "internalType": "address",
          "name": "prevOwner",
          "type": "address"
        },
        {
          "indexed": true,
          "internalType": "address",
          "name": "newOwner",
          "type": "address"
        }
      ],
      "name": "LodgingFacilityOwnershipTransfer",
      "type": "event"
    },
    {
      "anonymous": false,
      "inputs": [
        {
          "indexed": false,
          "internalType": "bytes32",
          "name": "facilityId",
          "type": "bytes32"
        }
      ],
      "name": "LodgingFacilityRemoved",
      "type": "event"
    },
    {
      "anonymous": false,
      "inputs": [
        {
          "indexed": false,
          "internalType": "bytes32",
          "name": "facilityId",
          "type": "bytes32"
        },
        {
          "indexed": false,
          "internalType": "string",
          "name": "dataURI",
          "type": "string"
        }
      ],
      "name": "LodgingFacilityUpdated",
      "type": "event"
    },
    {
      "anonymous": false,
      "inputs": [
        {
          "indexed": false,
          "internalType": "bytes32",
          "name": "spaceId",
          "type": "bytes32"
        },
        {
          "indexed": false,
          "internalType": "uint256",
          "name": "tokenId",
          "type": "uint256"
        }
      ],
      "name": "NewStay",
      "type": "event"
    },
    {
      "anonymous": false,
      "inputs": [
        {
          "indexed": false,
          "internalType": "bytes32",
          "name": "facilityId",
          "type": "bytes32"
        },
        {
          "indexed": false,
          "internalType": "uint64",
          "name": "capacity",
          "type": "uint64"
        },
        {
          "indexed": false,
          "internalType": "uint256",
          "name": "pricePerNightWei",
          "type": "uint256"
        },
        {
          "indexed": false,
          "internalType": "bool",
          "name": "active",
          "type": "bool"
        },
        {
          "indexed": false,
          "internalType": "string",
          "name": "dataURI",
          "type": "string"
        }
      ],
      "name": "SpaceAdded",
      "type": "event"
    },
    {
      "anonymous": false,
      "inputs": [
        {
          "indexed": false,
          "internalType": "bytes32",
          "name": "facilityId",
          "type": "bytes32"
        },
        {
          "indexed": false,
          "internalType": "uint256",
          "name": "index",
          "type": "uint256"
        },
        {
          "indexed": false,
          "internalType": "uint64",
          "name": "capacity",
          "type": "uint64"
        },
        {
          "indexed": false,
          "internalType": "uint256",
          "name": "pricePerNightWei",
          "type": "uint256"
        },
        {
          "indexed": false,
          "internalType": "bool",
          "name": "active",
          "type": "bool"
        },
        {
          "indexed": false,
          "internalType": "string",
          "name": "dataURI",
          "type": "string"
        }
      ],
      "name": "SpaceUpdated",
      "type": "event"
    },
    {
      "anonymous": false,
      "inputs": [
        {
          "indexed": true,
          "internalType": "address",
          "name": "from",
          "type": "address"
        },
        {
          "indexed": true,
          "internalType": "address",
          "name": "to",
          "type": "address"
        },
        {
          "indexed": true,
          "internalType": "uint256",
          "name": "tokenId",
          "type": "uint256"
        }
      ],
      "name": "Transfer",
      "type": "event"
    },
    {
      "anonymous": false,
      "inputs": [
        {
          "indexed": true,
          "internalType": "address",
          "name": "payee",
          "type": "address"
        },
        {
          "indexed": false,
          "internalType": "uint256",
          "name": "weiAmount",
          "type": "uint256"
        },
        {
          "indexed": false,
          "internalType": "bytes32",
          "name": "spaceId",
          "type": "bytes32"
        }
      ],
      "name": "Withdrawn",
      "type": "event"
    },
    {
      "inputs": [
        {
          "internalType": "bytes32",
          "name": "_lodgingFacilityId",
          "type": "bytes32"
        }
      ],
      "name": "activateLodgingFacility",
      "outputs": [],
      "stateMutability": "nonpayable",
      "type": "function"
    },
    {
      "inputs": [
        {
          "internalType": "bytes32",
          "name": "_lodgingFacilityId",
          "type": "bytes32"
        },
        {
          "internalType": "uint16",
          "name": "_capacity",
          "type": "uint16"
        },
        {
          "internalType": "uint256",
          "name": "_pricePerNightWei",
          "type": "uint256"
        },
        {
          "internalType": "bool",
          "name": "_active",
          "type": "bool"
        },
        {
          "internalType": "string",
          "name": "_dataURI",
          "type": "string"
        }
      ],
      "name": "addSpace",
      "outputs": [],
      "stateMutability": "nonpayable",
      "type": "function"
    },
    {
      "inputs": [
        {
          "internalType": "address",
          "name": "to",
          "type": "address"
        },
        {
          "internalType": "uint256",
          "name": "tokenId",
          "type": "uint256"
        }
      ],
      "name": "approve",
      "outputs": [],
      "stateMutability": "nonpayable",
      "type": "function"
    },
    {
      "inputs": [
        {
          "internalType": "address",
          "name": "owner",
          "type": "address"
        }
      ],
      "name": "balanceOf",
      "outputs": [
        {
          "internalType": "uint256",
          "name": "",
          "type": "uint256"
        }
      ],
      "stateMutability": "view",
      "type": "function"
    },
    {
      "inputs": [
        {
          "internalType": "uint256",
          "name": "_tokenId",
          "type": "uint256"
        }
      ],
      "name": "checkIn",
      "outputs": [],
      "stateMutability": "nonpayable",
      "type": "function"
    },
    {
      "inputs": [
        {
          "internalType": "uint256",
          "name": "_tokenId",
          "type": "uint256"
        }
      ],
      "name": "checkOut",
      "outputs": [],
      "stateMutability": "nonpayable",
      "type": "function"
    },
    {
      "inputs": [],
      "name": "dayZero",
      "outputs": [
        {
          "internalType": "uint32",
          "name": "",
          "type": "uint32"
        }
      ],
      "stateMutability": "view",
      "type": "function"
    },
    {
      "inputs": [
        {
          "internalType": "bytes32",
          "name": "_lodgingFacilityId",
          "type": "bytes32"
        }
      ],
      "name": "deactivateLodgingFacility",
      "outputs": [],
      "stateMutability": "nonpayable",
      "type": "function"
    },
    {
      "inputs": [
        {
          "internalType": "bytes32",
          "name": "_lodgingFacilityId",
          "type": "bytes32"
        }
      ],
      "name": "deleteLodgingFacility",
      "outputs": [],
      "stateMutability": "nonpayable",
      "type": "function"
    },
    {
      "inputs": [
        {
          "internalType": "address",
          "name": "payee",
          "type": "address"
        },
        {
          "internalType": "bytes32",
          "name": "spaceId",
          "type": "bytes32"
        }
      ],
      "name": "deposit",
      "outputs": [],
      "stateMutability": "payable",
      "type": "function"
    },
    {
      "inputs": [
        {
          "internalType": "address",
          "name": "payee",
          "type": "address"
        },
        {
          "internalType": "bytes32",
          "name": "spaceId",
          "type": "bytes32"
        }
      ],
      "name": "depositsOf",
      "outputs": [
        {
          "internalType": "uint256",
          "name": "",
          "type": "uint256"
        }
      ],
      "stateMutability": "view",
      "type": "function"
    },
    {
      "inputs": [
        {
          "internalType": "address",
          "name": "payee",
          "type": "address"
        },
        {
          "internalType": "bytes32",
          "name": "spaceId",
          "type": "bytes32"
        }
      ],
      "name": "depositsState",
      "outputs": [
        {
          "internalType": "enum StayEscrow.State",
          "name": "",
          "type": "uint8"
        }
      ],
      "stateMutability": "view",
      "type": "function"
    },
    {
      "inputs": [],
      "name": "getActiveLodgingFacilityIds",
      "outputs": [
        {
          "internalType": "bytes32[]",
          "name": "activeLodgingFacilityIds",
          "type": "bytes32[]"
        }
      ],
      "stateMutability": "view",
      "type": "function"
    },
    {
      "inputs": [
        {
          "internalType": "bytes32",
          "name": "_lodgingFacilityId",
          "type": "bytes32"
        }
      ],
      "name": "getActiveSpaceIdsByFacilityId",
      "outputs": [
        {
          "internalType": "bytes32[]",
          "name": "activeSpacesIds",
          "type": "bytes32[]"
        }
      ],
      "stateMutability": "view",
      "type": "function"
    },
    {
      "inputs": [],
      "name": "getAllLodgingFacilityIds",
      "outputs": [
        {
          "internalType": "bytes32[]",
          "name": "",
          "type": "bytes32[]"
        }
      ],
      "stateMutability": "view",
      "type": "function"
    },
    {
      "inputs": [
        {
          "internalType": "uint256",
          "name": "tokenId",
          "type": "uint256"
        }
      ],
      "name": "getApproved",
      "outputs": [
        {
          "internalType": "address",
          "name": "",
          "type": "address"
        }
      ],
      "stateMutability": "view",
      "type": "function"
    },
    {
      "inputs": [
        {
          "internalType": "bytes32",
          "name": "_spaceId",
          "type": "bytes32"
        },
        {
          "internalType": "uint16",
          "name": "_startDay",
          "type": "uint16"
        },
        {
          "internalType": "uint16",
          "name": "_numberOfDays",
          "type": "uint16"
        }
      ],
      "name": "getAvailability",
      "outputs": [
        {
          "internalType": "uint16[]",
          "name": "",
          "type": "uint16[]"
        }
      ],
      "stateMutability": "view",
      "type": "function"
    },
    {
      "inputs": [
        {
          "internalType": "bytes32",
          "name": "_lodgingFacilityId",
          "type": "bytes32"
        }
      ],
      "name": "getLodgingFacilityById",
      "outputs": [
        {
          "internalType": "bool",
          "name": "exists",
          "type": "bool"
        },
        {
          "internalType": "address",
          "name": "owner",
          "type": "address"
        },
        {
          "internalType": "bool",
          "name": "active",
          "type": "bool"
        },
        {
          "internalType": "string",
          "name": "dataURI",
          "type": "string"
        }
      ],
      "stateMutability": "view",
      "type": "function"
    },
    {
      "inputs": [
        {
          "internalType": "address",
          "name": "_owner",
          "type": "address"
        }
      ],
      "name": "getLodgingFacilityIdsByOwner",
      "outputs": [
        {
          "internalType": "bytes32[]",
          "name": "",
          "type": "bytes32[]"
        }
      ],
      "stateMutability": "view",
      "type": "function"
    },
    {
      "inputs": [
        {
          "internalType": "bytes32",
          "name": "_spaceId",
          "type": "bytes32"
        }
      ],
      "name": "getSpaceById",
      "outputs": [
        {
          "internalType": "bool",
          "name": "exists",
          "type": "bool"
        },
        {
          "internalType": "bytes32",
          "name": "lodgingFacilityId",
          "type": "bytes32"
        },
        {
          "internalType": "uint16",
          "name": "capacity",
          "type": "uint16"
        },
        {
          "internalType": "uint256",
          "name": "pricePerNightWei",
          "type": "uint256"
        },
        {
          "internalType": "bool",
          "name": "active",
          "type": "bool"
        },
        {
          "internalType": "string",
          "name": "dataURI",
          "type": "string"
        }
      ],
      "stateMutability": "view",
      "type": "function"
    },
    {
      "inputs": [
        {
          "internalType": "bytes32",
          "name": "_lodgingFacilityId",
          "type": "bytes32"
        }
      ],
      "name": "getSpaceIdsByFacilityId",
      "outputs": [
        {
          "internalType": "bytes32[]",
          "name": "",
          "type": "bytes32[]"
        }
      ],
      "stateMutability": "view",
      "type": "function"
    },
    {
      "inputs": [
        {
          "internalType": "address",
          "name": "owner",
          "type": "address"
        },
        {
          "internalType": "address",
          "name": "operator",
          "type": "address"
        }
      ],
      "name": "isApprovedForAll",
      "outputs": [
        {
          "internalType": "bool",
          "name": "",
          "type": "bool"
        }
      ],
      "stateMutability": "view",
      "type": "function"
    },
    {
      "inputs": [
        {
          "internalType": "bytes32",
          "name": "",
          "type": "bytes32"
        }
      ],
      "name": "lodgingFacilities",
      "outputs": [
        {
          "internalType": "address",
          "name": "owner",
          "type": "address"
        },
        {
          "internalType": "bool",
          "name": "active",
          "type": "bool"
        },
        {
          "internalType": "bool",
          "name": "exists",
          "type": "bool"
        },
        {
          "internalType": "string",
          "name": "dataURI",
          "type": "string"
        },
        {
          "internalType": "address",
          "name": "fren",
          "type": "address"
        }
      ],
      "stateMutability": "view",
      "type": "function"
    },
    {
      "inputs": [],
      "name": "lodgingFacilitySchemaURI",
      "outputs": [
        {
          "internalType": "string",
          "name": "",
          "type": "string"
        }
      ],
      "stateMutability": "view",
      "type": "function"
    },
    {
      "inputs": [],
      "name": "name",
      "outputs": [
        {
          "internalType": "string",
          "name": "",
          "type": "string"
        }
      ],
      "stateMutability": "view",
      "type": "function"
    },
    {
      "inputs": [
        {
          "internalType": "bytes32",
          "name": "_spaceId",
          "type": "bytes32"
        },
        {
          "internalType": "uint16",
          "name": "_startDay",
          "type": "uint16"
        },
        {
          "internalType": "uint16",
          "name": "_numberOfDays",
          "type": "uint16"
        },
        {
          "internalType": "uint16",
          "name": "_quantity",
          "type": "uint16"
        }
      ],
      "name": "newStay",
      "outputs": [
        {
          "internalType": "uint256",
          "name": "",
          "type": "uint256"
        }
      ],
      "stateMutability": "payable",
      "type": "function"
    },
    {
      "inputs": [
        {
          "internalType": "uint256",
          "name": "tokenId",
          "type": "uint256"
        }
      ],
      "name": "ownerOf",
      "outputs": [
        {
          "internalType": "address",
          "name": "",
          "type": "address"
        }
      ],
      "stateMutability": "view",
      "type": "function"
    },
    {
      "inputs": [
        {
          "internalType": "string",
          "name": "_dataURI",
          "type": "string"
        },
        {
          "internalType": "bool",
          "name": "_active",
          "type": "bool"
        }
      ],
      "name": "registerLodgingFacility",
      "outputs": [],
      "stateMutability": "nonpayable",
      "type": "function"
    },
    {
      "inputs": [
        {
          "internalType": "string",
          "name": "_dataURI",
          "type": "string"
        },
        {
          "internalType": "bool",
          "name": "_active",
          "type": "bool"
        },
        {
          "internalType": "address",
          "name": "_fren",
          "type": "address"
        }
      ],
      "name": "registerLodgingFacility",
      "outputs": [],
      "stateMutability": "nonpayable",
      "type": "function"
    },
    {
      "inputs": [
        {
          "internalType": "address",
          "name": "from",
          "type": "address"
        },
        {
          "internalType": "address",
          "name": "to",
          "type": "address"
        },
        {
          "internalType": "uint256",
          "name": "tokenId",
          "type": "uint256"
        }
      ],
      "name": "safeTransferFrom",
      "outputs": [],
      "stateMutability": "nonpayable",
      "type": "function"
    },
    {
      "inputs": [
        {
          "internalType": "address",
          "name": "from",
          "type": "address"
        },
        {
          "internalType": "address",
          "name": "to",
          "type": "address"
        },
        {
          "internalType": "uint256",
          "name": "tokenId",
          "type": "uint256"
        },
        {
          "internalType": "bytes",
          "name": "_data",
          "type": "bytes"
        }
      ],
      "name": "safeTransferFrom",
      "outputs": [],
      "stateMutability": "nonpayable",
      "type": "function"
    },
    {
      "inputs": [
        {
          "internalType": "address",
          "name": "operator",
          "type": "address"
        },
        {
          "internalType": "bool",
          "name": "approved",
          "type": "bool"
        }
      ],
      "name": "setApprovalForAll",
      "outputs": [],
      "stateMutability": "nonpayable",
      "type": "function"
    },
    {
      "inputs": [],
      "name": "spaceSchemaURI",
      "outputs": [
        {
          "internalType": "string",
          "name": "",
          "type": "string"
        }
      ],
      "stateMutability": "view",
      "type": "function"
    },
    {
      "inputs": [
        {
          "internalType": "bytes32",
          "name": "",
          "type": "bytes32"
        }
      ],
      "name": "spaces",
      "outputs": [
        {
          "internalType": "bytes32",
          "name": "lodgingFacilityId",
          "type": "bytes32"
        },
        {
          "internalType": "uint16",
          "name": "capacity",
          "type": "uint16"
        },
        {
          "internalType": "uint256",
          "name": "pricePerNightWei",
          "type": "uint256"
        },
        {
          "internalType": "bool",
          "name": "active",
          "type": "bool"
        },
        {
          "internalType": "bool",
          "name": "exists",
          "type": "bool"
        },
        {
          "internalType": "string",
          "name": "dataURI",
          "type": "string"
        }
      ],
      "stateMutability": "view",
      "type": "function"
    },
    {
      "inputs": [],
      "name": "staySchemaURI",
      "outputs": [
        {
          "internalType": "string",
          "name": "",
          "type": "string"
        }
      ],
      "stateMutability": "view",
      "type": "function"
    },
    {
      "inputs": [
        {
          "internalType": "bytes4",
          "name": "interfaceId",
          "type": "bytes4"
        }
      ],
      "name": "supportsInterface",
      "outputs": [
        {
          "internalType": "bool",
          "name": "",
          "type": "bool"
        }
      ],
      "stateMutability": "view",
      "type": "function"
    },
    {
      "inputs": [],
      "name": "symbol",
      "outputs": [
        {
          "internalType": "string",
          "name": "",
          "type": "string"
        }
      ],
      "stateMutability": "view",
      "type": "function"
    },
    {
      "inputs": [
        {
          "internalType": "uint256",
          "name": "index",
          "type": "uint256"
        }
      ],
      "name": "tokenByIndex",
      "outputs": [
        {
          "internalType": "uint256",
          "name": "",
          "type": "uint256"
        }
      ],
      "stateMutability": "view",
      "type": "function"
    },
    {
      "inputs": [
        {
          "internalType": "address",
          "name": "owner",
          "type": "address"
        },
        {
          "internalType": "uint256",
          "name": "index",
          "type": "uint256"
        }
      ],
      "name": "tokenOfOwnerByIndex",
      "outputs": [
        {
          "internalType": "uint256",
          "name": "",
          "type": "uint256"
        }
      ],
      "stateMutability": "view",
      "type": "function"
    },
    {
      "inputs": [
        {
          "internalType": "uint256",
          "name": "tokenId",
          "type": "uint256"
        }
      ],
      "name": "tokenURI",
      "outputs": [
        {
          "internalType": "string",
          "name": "",
          "type": "string"
        }
      ],
      "stateMutability": "view",
      "type": "function"
    },
    {
      "inputs": [],
      "name": "totalSupply",
      "outputs": [
        {
          "internalType": "uint256",
          "name": "",
          "type": "uint256"
        }
      ],
      "stateMutability": "view",
      "type": "function"
    },
    {
      "inputs": [
        {
          "internalType": "address",
          "name": "from",
          "type": "address"
        },
        {
          "internalType": "address",
          "name": "to",
          "type": "address"
        },
        {
          "internalType": "uint256",
          "name": "tokenId",
          "type": "uint256"
        }
      ],
      "name": "transferFrom",
      "outputs": [],
      "stateMutability": "nonpayable",
      "type": "function"
    },
    {
      "inputs": [
        {
          "internalType": "bytes32",
          "name": "_lodgingFacilityId",
          "type": "bytes32"
        },
        {
          "internalType": "string",
          "name": "_newDataURI",
          "type": "string"
        }
      ],
      "name": "updateLodgingFacility",
      "outputs": [],
      "stateMutability": "nonpayable",
      "type": "function"
    },
    {
      "inputs": [
        {
          "internalType": "uint256",
          "name": "_spaceIndex",
          "type": "uint256"
        },
        {
          "internalType": "uint16",
          "name": "_capacity",
          "type": "uint16"
        },
        {
          "internalType": "uint256",
          "name": "_pricePerNightWei",
          "type": "uint256"
        },
        {
          "internalType": "bool",
          "name": "_active",
          "type": "bool"
        },
        {
          "internalType": "string",
          "name": "_dataURI",
          "type": "string"
        }
      ],
      "name": "updateSpace",
      "outputs": [],
      "stateMutability": "nonpayable",
      "type": "function"
    },
    {
      "inputs": [
        {
          "internalType": "bytes32",
          "name": "_lodgingFacilityId",
          "type": "bytes32"
        },
        {
          "internalType": "address",
          "name": "_newOwner",
          "type": "address"
        }
      ],
      "name": "yieldLodgingFacility",
      "outputs": [],
      "stateMutability": "nonpayable",
      "type": "function"
    }
  ],
  "bytecode": "0x60806040523480156200001157600080fd5b50604080518082018252600b81526a45746852696f537461797360a81b60208083019182528351808501909452600584526422a929991960d91b908401528151919291620000629160029162000081565b5080516200007890600390602084019062000081565b50505062000164565b8280546200008f9062000127565b90600052602060002090601f016020900481019282620000b35760008555620000fe565b82601f10620000ce57805160ff1916838001178555620000fe565b82800160010185558215620000fe579182015b82811115620000fe578251825591602001919060010190620000e1565b506200010c92915062000110565b5090565b5b808211156200010c576000815560010162000111565b600181811c908216806200013c57607f821691505b602082108114156200015e57634e487b7160e01b600052602260045260246000fd5b50919050565b614f6480620001746000396000f3fe6080604052600436106102705760003560e01c8063650ba0a31161014f578063b88d4fde116100c1578063e95a644f1161007a578063e95a644f146107af578063e985e9c5146107cf578063e994529e14610818578063f7cdbc9d1461084a578063ffae74151461086a578063ffc1e09a1461089b57600080fd5b8063b88d4fde1461073c578063b9e1aa031461075c578063c87b56dd1461076f578063cf63247e146104f0578063e1e33b9c1461078f578063e3aae3a5146104f057600080fd5b80639518f5fa116101135780639518f5fa1461068557806395d89b41146106a55780639ff68214146106ba578063a22cb465146106e7578063a468803214610707578063b38759fd1461072757600080fd5b8063650ba0a3146105b05780636a22dd261461060257806370a08231146106225780638f201f5f1461064257806390a0b00a1461066257600080fd5b806323b872dd116101e8578063438c9cab116101ac578063438c9cab146104d0578063462ef5ed146104f05780634c18a8ec146105135780634f6ccce7146105435780635b5d206d146105635780636352211e1461059057600080fd5b806323b872dd1461041e5780632f745c591461043e578063342df9b21461045e5780633a5c94d61461049057806342842e0e146104b057600080fd5b8063095ea7b31161023a578063095ea7b31461034c57806318160ddd1461036c5780631aa9e7421461038b5780631bd2eeee146103cb5780631be378de146103eb5780631bf7509b146103fe57600080fd5b806244253614610275578062d34b541461029757806301ffc9a7146102c257806306fdde03146102f2578063081812fc14610314575b600080fd5b34801561028157600080fd5b506102956102903660046142bc565b6108bb565b005b3480156102a357600080fd5b506102ac61095d565b6040516102b9919061496c565b60405180910390f35b3480156102ce57600080fd5b506102e26102dd366004614445565b610a5f565b60405190151581526020016102b9565b3480156102fe57600080fd5b50610307610a70565b6040516102b99190614b0f565b34801561032057600080fd5b5061033461032f3660046142bc565b610b02565b6040516001600160a01b0390911681526020016102b9565b34801561035857600080fd5b50610295610367366004614292565b610b8a565b34801561037857600080fd5b50600b545b6040519081526020016102b9565b34801561039757600080fd5b5061037d6103a6366004614292565b6000908152602081815260408083206001600160a01b03949094168352929052205490565b3480156103d757600080fd5b506102956103e63660046142bc565b610ca0565b61037d6103f9366004614380565b610e64565b34801561040a57600080fd5b506102ac610419366004614102565b611162565b34801561042a57600080fd5b50610295610439366004614150565b6111ce565b34801561044a57600080fd5b5061037d610459366004614292565b6111ff565b34801561046a57600080fd5b5061047e6104793660046142bc565b611295565b6040516102b996959493929190614a20565b34801561049c57600080fd5b506102956104ab3660046143cd565b611369565b3480156104bc57600080fd5b506102956104cb366004614150565b6115bc565b3480156104dc57600080fd5b506102956104eb3660046142f8565b6115d7565b3480156104fc57600080fd5b506103076040518060200160405280600081525081565b34801561051f57600080fd5b5061053361052e3660046142bc565b611668565b6040516102b994939291906149ec565b34801561054f57600080fd5b5061037d61055e3660046142bc565b611734565b34801561056f57600080fd5b5061058361057e366004614344565b6117c7565b6040516102b991906149b0565b34801561059c57600080fd5b506103346105ab3660046142bc565b6119b0565b3480156105bc57600080fd5b506105f56105cb366004614292565b60009081526001602090815260408083206001600160a01b03949094168352929052205460ff1690565b6040516102b99190614ae7565b34801561060e57600080fd5b5061029561061d3660046142bc565b611a27565b34801561062e57600080fd5b5061037d61063d366004614102565b611ab3565b34801561064e57600080fd5b5061029561065d3660046142d5565b611b3a565b34801561066e57600080fd5b5061029561067d3660046143cd565b505050505050565b34801561069157600080fd5b506102ac6106a03660046142bc565b611bfb565b3480156106b157600080fd5b50610307611c5b565b3480156106c657600080fd5b506106d26362155d6e81565b60405163ffffffff90911681526020016102b9565b3480156106f357600080fd5b50610295610702366004614268565b611c6a565b34801561071357600080fd5b506102956107223660046142bc565b611c79565b34801561073357600080fd5b506102ac611d17565b34801561074857600080fd5b5061029561075736600461418c565b611d6e565b61029561076a366004614292565b611da6565b34801561077b57600080fd5b5061030761078a3660046142bc565b611db0565b34801561079b57600080fd5b506102956107aa36600461447f565b611dbb565b3480156107bb57600080fd5b506102956107ca3660046142bc565b611dc8565b3480156107db57600080fd5b506102e26107ea36600461411d565b6001600160a01b03918216600090815260076020908152604080832093909416825291909152205460ff1690565b34801561082457600080fd5b506108386108333660046142bc565b611f1c565b6040516102b996959493929190614a7c565b34801561085657600080fd5b506102956108653660046144ca565b611fe9565b34801561087657600080fd5b5061088a6108853660046142bc565b61225f565b6040516102b9959493929190614925565b3480156108a757600080fd5b506102ac6108b63660046142bc565b612332565b60008181526010602052604090205481906001600160a01b0316336001600160a01b0316146109055760405162461bcd60e51b81526004016108fc90614b74565b60405180910390fd5b6000828152601060209081526040808320805460ff60a01b191690558051858152918201929092527f5c33859dfe8722791b5d72ad942a0895181f8a694288ec429394f620de15032091015b60405180910390a15050565b606061096761248b565b67ffffffffffffffff81111561097f5761097f614e3e565b6040519080825280602002602001820160405280156109a8578160200160208202803683370190505b5090506000805b600e54811015610a5a5760106000600e83815481106109d0576109d0614e28565b9060005260206000200154815260200190815260200160002060000160149054906101000a900460ff1615610a4857600e8181548110610a1257610a12614e28565b9060005260206000200154838381518110610a2f57610a2f614e28565b602090810291909101015281610a4481614da1565b9250505b80610a5281614da1565b9150506109af565b505090565b6000610a6a82612503565b92915050565b606060028054610a7f90614d44565b80601f0160208091040260200160405190810160405280929190818152602001828054610aab90614d44565b8015610af85780601f10610acd57610100808354040283529160200191610af8565b820191906000526020600020905b815481529060010190602001808311610adb57829003601f168201915b5050505050905090565b6000610b0d82612528565b610b6e5760405162461bcd60e51b815260206004820152602c60248201527f4552433732313a20617070726f76656420717565727920666f72206e6f6e657860448201526b34b9ba32b73a103a37b5b2b760a11b60648201526084016108fc565b506000908152600660205260409020546001600160a01b031690565b6000610b95826119b0565b9050806001600160a01b0316836001600160a01b03161415610c035760405162461bcd60e51b815260206004820152602160248201527f4552433732313a20617070726f76616c20746f2063757272656e74206f776e656044820152603960f91b60648201526084016108fc565b336001600160a01b0382161480610c1f5750610c1f81336107ea565b610c915760405162461bcd60e51b815260206004820152603860248201527f4552433732313a20617070726f76652063616c6c6572206973206e6f74206f7760448201527f6e6572206e6f7220617070726f76656420666f7220616c6c000000000000000060648201526084016108fc565b610c9b8383612545565b505050565b60008181526014602052604090206001810154600160381b900460ff1615610d005760405162461bcd60e51b8152602060048201526013602482015272105b1c9958591e4818da1958dad959081bdd5d606a1b60448201526064016108fc565b8054600081815260126020908152604080832054835260109091529020546001600160a01b0316338114610d765760405162461bcd60e51b815260206004820152601b60248201527f4f6e6c79207370616365206f776e657220697320616c6c6f776564000000000060448201526064016108fc565b60018301544290610d939061ffff62010000820481169116614c0b565b610da49061ffff1662015180614c9d565b610db79062ffffff166362155d6e614c40565b63ffffffff161015610e0b5760405162461bcd60e51b815260206004820152601e60248201527f466f7262696464656e20756e6c65737320636865636b6f75742064617465000060448201526064016108fc565b60018301805460ff60381b1916600160381b179055610e2a81836125b3565b6040518481527f2c276699fefbad45f18509233bc03bb9cfdf41b18f32756933188bdef35fef55906020015b60405180910390a150505050565b6000610e75858561ffff16856125bd565b60008581526012602052604081206002810154909190610e958587614c73565b61ffff16610ea39190614cbf565b905080341015610eea5760405162461bcd60e51b81526020600482015260126024820152714e6565642e204d6f72652e204d6f6e65792160701b60448201526064016108fc565b60005b8561ffff168161ffff161015610fff57600088815260136020526040812061ffff871691610f1b848b614c0b565b61ffff90811682526020820192909252604001600020546001860154610f45929182169116614cde565b61ffff161015610f905760405162461bcd60e51b8152602060048201526016602482015275496e73756666696369656e7420696e76656e746f727960501b60448201526064016108fc565b60008881526013602052604081208691610faa848b614c0b565b61ffff90811682526020820192909252604001600090812080549092610fd291859116614c0b565b92506101000a81548161ffff021916908361ffff1602179055508080610ff790614d7f565b915050610eed565b5061100a3388611da6565b611018600d80546001019055565b6000611023600d5490565b905061102f3382612751565b60006110438285600001548b8b8b8b61276b565b905061104f82826127b6565b6040805160c0810182528a815261ffff808b1660208084019182528b83168486019081528b84166060860190815260006080870181815260a088018281528b8352601490955290889020965187559351600196909601805492519151945193511515600160381b0260ff60381b19941515600160301b0266ff00000000000019968816640100000000029690961666ffffff0000000019938816620100000263ffffffff1990951698909716979097179290921716939093179190911716919091179055517fe04083eb622e3cb7d063f319076c83270c24acb409a3bc13abcfb36af60f86179061114c908b908590918252602082015260400190565b60405180910390a150925050505b949350505050565b6001600160a01b0381166000908152600f60209081526040918290208054835181840281018401909452808452606093928301828280156111c257602002820191906000526020600020905b8154815260200190600101908083116111ae575b50505050509050919050565b6111d83382612841565b6111f45760405162461bcd60e51b81526004016108fc90614bba565b610c9b838383612927565b600061120a83611ab3565b821061126c5760405162461bcd60e51b815260206004820152602b60248201527f455243373231456e756d657261626c653a206f776e657220696e646578206f7560448201526a74206f6620626f756e647360a81b60648201526084016108fc565b506001600160a01b03919091166000908152600960209081526040808320938352929052205490565b6000818152601260205260409020600381015481546001830154600284015460048501805460ff6101008704811697959661ffff909516959394169260609290916112df90614d44565b80601f016020809104026020016040519081016040528092919081815260200182805461130b90614d44565b80156113585780601f1061132d57610100808354040283529160200191611358565b820191906000526020600020905b81548152906001019060200180831161133b57829003601f168201915b505050505091505091939550919395565b8561137381612ace565b61139581604051806060016040528060228152602001614e6b60229139612b36565b6113d483838080601f016020809104026020016040519081016040528093929190818152602001838380828437600092019190915250612b6f92505050565b60008184846040516020016113eb939291906145c1565b60408051808303601f19018152918152815160209283012060008181526012909352912060030154909150610100900460ff16156114625760405162461bcd60e51b8152602060048201526014602482015273537061636520616c72656164792065786973747360601b60448201526064016108fc565b6040518060c001604052808381526020018861ffff168152602001878152602001861515815260200160011515815260200185858080601f016020809104026020016040519081016040528093929190818152602001838380828437600092018290525093909452505083815260126020908152604091829020845181558482015160018201805461ffff90921661ffff199283161790559285015160028201556060850151600382018054608088015115156101000261ff0019931515939093169516949094171790925560a0840151805192935061154b9260048501929190910190613f72565b505050600082815260116020908152604080832080546001810182559084529190922001829055517f4c6dc8b7802bb24d63339569db3a7c63f0c561dbf031bf75ae9fcd29e608a883906115aa9084908a908a908a908a908a90614ab5565b60405180910390a15050505050505050565b610c9b83838360405180602001604052806000815250611d6e565b60008381526010602052604090205483906001600160a01b0316336001600160a01b0316146116185760405162461bcd60e51b81526004016108fc90614b74565b6000848152601060205260409020611634906001018484613ff2565b507fb252d91e8d424ba6f9f1647d21d7b0bbd8e2a3cbb318aaecb0d735fba9f62c7f848484604051610e5693929190614a59565b6000818152601060205260409020805460018201805460ff600160a81b84048116946001600160a01b03851694600160a01b9004909116926060926116ac90614d44565b80601f01602080910402602001604051908101604052809291908181526020018280546116d890614d44565b80156117255780601f106116fa57610100808354040283529160200191611725565b820191906000526020600020905b81548152906001019060200180831161170857829003601f168201915b50505050509150509193509193565b600061173f600b5490565b82106117a25760405162461bcd60e51b815260206004820152602c60248201527f455243373231456e756d657261626c653a20676c6f62616c20696e646578206f60448201526b7574206f6620626f756e647360a01b60648201526084016108fc565b600b82815481106117b5576117b5614e28565b90600052602060002001549050919050565b60606117d8848461ffff16846125bd565b6000848152601260209081526040808320815160c08101835281548152600182015461ffff1693810193909352600281015491830191909152600381015460ff80821615156060850152610100909104161515608083015260048101805460a08401919061184590614d44565b80601f016020809104026020016040519081016040528092919081815260200182805461187190614d44565b80156118be5780601f10611893576101008083540402835291602001916118be565b820191906000526020600020905b8154815290600101906020018083116118a157829003601f168201915b505050505081525050905060008361ffff1667ffffffffffffffff8111156118e8576118e8614e3e565b604051908082528060200260200182016040528015611911578160200160208202803683370190505b50905060005b8461ffff168161ffff1610156119a6576000878152601360205260408120906119408389614c0b565b61ffff90811682526020808301939093526040909101600020549185015161196b9290911690614cde565b828261ffff168151811061198157611981614e28565b61ffff909216602092830291909101909101528061199e81614d7f565b915050611917565b5095945050505050565b6000818152600460205260408120546001600160a01b031680610a6a5760405162461bcd60e51b815260206004820152602960248201527f4552433732313a206f776e657220717565727920666f72206e6f6e657869737460448201526832b73a103a37b5b2b760b91b60648201526084016108fc565b60008181526010602052604090205481906001600160a01b0316336001600160a01b031614611a685760405162461bcd60e51b81526004016108fc90614b74565b60008281526010602052604090819020805460ff60a81b19169055517f9cb52f05776b0f321eb9ca8c9e1b26b978036072417bf384bd406189f43864f8906109519084815260200190565b60006001600160a01b038216611b1e5760405162461bcd60e51b815260206004820152602a60248201527f4552433732313a2062616c616e636520717565727920666f7220746865207a65604482015269726f206164647265737360b01b60648201526084016108fc565b506001600160a01b031660009081526005602052604090205490565b60008281526010602052604090205482906001600160a01b0316336001600160a01b031614611b7b5760405162461bcd60e51b81526004016108fc90614b74565b6000838152601060209081526040918290205491518581526001600160a01b038581169316917f11a520c5c4bfade8b450399ea67096dba36478d23d9a45f02e32989cfe307dde910160405180910390a35060009182526010602052604090912080546001600160a01b0319166001600160a01b03909216919091179055565b6000818152601160209081526040918290208054835181840281018401909452808452606093928301828280156111c257602002820191906000526020600020908154815260200190600101908083116111ae5750505050509050919050565b606060038054610a7f90614d44565b611c75338383612bc0565b5050565b60008181526010602052604090205481906001600160a01b0316336001600160a01b031614611cba5760405162461bcd60e51b81526004016108fc90614b74565b60008281526010602052604090819020805460ff60a01b1916600160a01b179055517f5c33859dfe8722791b5d72ad942a0895181f8a694288ec429394f620de150320906109519084906001909182521515602082015260400190565b6060600e805480602002602001604051908101604052809291908181526020018280548015610af857602002820191906000526020600020905b815481526020019060010190808311611d51575050505050905090565b611d783383612841565b611d945760405162461bcd60e51b81526004016108fc90614bba565b611da084848484612c8f565b50505050565b611c758282612cc2565b6060610a6a82612d62565b610c9b8383836000611fe9565b80611dd2816119b0565b6001600160a01b0316336001600160a01b031614611e325760405162461bcd60e51b815260206004820181905260248201527f4f6e6c79207374617920746f6b656e206f776e657220697320616c6c6f77656460448201526064016108fc565b60008281526014602052604090206001810154600160301b900460ff1615611e915760405162461bcd60e51b815260206004820152601260248201527120b63932b0b23c9031b432b1b5b2b21034b760711b60448201526064016108fc565b80546000818152601260209081526040808320600281015460018701805466ff0000000000001916600160301b17905590548452601090925290912054611ee2906001600160a01b03168284612ed1565b6040518581527fdf06c27528e294967ba5e32e69b9c5fe102a58c699c44740c2c4c6afc71925359060200160405180910390a15050505050565b60126020526000908152604090208054600182015460028301546003840154600485018054949561ffff90941694929360ff808416946101009094041692909190611f6690614d44565b80601f0160208091040260200160405190810160405280929190818152602001828054611f9290614d44565b8015611fdf5780601f10611fb457610100808354040283529160200191611fdf565b820191906000526020600020905b815481529060010190602001808311611fc257829003601f168201915b5050505050905086565b61202884848080601f016020809104026020016040519081016040528093929190818152602001838380828437600092019190915250612b6f92505050565b600033858560405160200161203f93929190614595565b60408051808303601f19018152918152815160209283012060008181526010909352912054909150600160a81b900460ff16156120be5760405162461bcd60e51b815260206004820152601760248201527f466163696c69747920616c72656164792065786973747300000000000000000060448201526064016108fc565b6040518060a001604052806120d03390565b6001600160a01b03168152602001841515815260200160011515815260200186868080601f01602080910402602001604051908101604052809392919081815260200183838082843760009201829052509385525050506001600160a01b03808616602093840152848252601083526040918290208451815486860151948701511515600160a81b0260ff60a81b19951515600160a01b026001600160a81b03199092169290941691909117179290921617815560608301518051919261219f92600185019290910190613f72565b5060809190910151600290910180546001600160a01b0319166001600160a01b03909216919091179055600e805460018181019092557fbb7b4a454dc3493923482f07822329ed19e8244eff582cc204f8554c3620c3fd01829055336000818152600f60209081526040808320805495860181558352912090920183905590517f28c9a25063d40c8cf423202182ed575cc97982c1fd1771bd9721e19a38cc491d9061225090849089908990614a59565b60405180910390a25050505050565b601060205260009081526040902080546001820180546001600160a01b0383169360ff600160a01b8504811694600160a81b9004169290916122a090614d44565b80601f01602080910402602001604051908101604052809291908181526020018280546122cc90614d44565b80156123195780601f106122ee57610100808354040283529160200191612319565b820191906000526020600020905b8154815290600101906020018083116122fc57829003601f168201915b505050600290930154919250506001600160a01b031685565b606061233d82612f4e565b67ffffffffffffffff81111561235557612355614e3e565b60405190808252806020026020018201604052801561237e578160200160208202803683370190505b506000838152601160209081526040808320805482518185028101850190935280835294955092939092918301828280156123d857602002820191906000526020600020905b8154815260200190600101908083116123c4575b50505050509050600080600090505b8251811015612483576012600084838151811061240657612406614e28565b60209081029190910181015182528101919091526040016000206003015460ff16156124715782818151811061243e5761243e614e28565b602002602001015184838151811061245857612458614e28565b60209081029190910101528161246d81614da1565b9250505b8061247b81614da1565b9150506123e7565b505050919050565b6000805b600e548110156124ff5760106000600e83815481106124b0576124b0614e28565b9060005260206000200154815260200190815260200160002060000160149054906101000a900460ff16156124ed57816124e981614da1565b9250505b806124f781614da1565b91505061248f565b5090565b60006001600160e01b0319821663780e9d6360e01b1480610a6a5750610a6a82612fcb565b6000908152600460205260409020546001600160a01b0316151590565b600081815260066020526040902080546001600160a01b0319166001600160a01b038416908117909155819061257a826119b0565b6001600160a01b03167f8c5be1e5ebec7d5bd14f71427d1e84f3dd0314c0f7b2291e5b200ac8c7c3b92560405160405180910390a45050565b611c75828261301b565b6125ca6202a30042614d01565b6125d78362015180614cbf565b6125e5906362155d6e614c28565b1161262b5760405162461bcd60e51b8152602060048201526016602482015275111bdb89dd081cdd185e481a5b881d1a19481c185cdd60521b60448201526064016108fc565b60008381526012602090815260408083205483526010909152902054600160a01b900460ff1661269d5760405162461bcd60e51b815260206004820152601c60248201527f4c6f6467696e6720466163696c69747920697320696e6163746976650000000060448201526064016108fc565b60008381526012602052604090206003015460ff166126f25760405162461bcd60e51b8152602060048201526011602482015270537061636520697320696e61637469766560781b60448201526064016108fc565b60008161ffff1611610c9b5760405162461bcd60e51b815260206004820152602260248201527f4e756d626572206f6620646179732073686f756c642062652031206f72206d6f604482015261726560f01b60648201526084016108fc565b611c75828260405180602001604052806000815250613185565b60606127ab612779886131b8565b6127868888888888613203565b60405160200161279792919061484c565b60405160208183030381529060405261326c565b979650505050505050565b6127bf82612528565b6128225760405162461bcd60e51b815260206004820152602e60248201527f45524337323155524953746f726167653a2055524920736574206f66206e6f6e60448201526d32bc34b9ba32b73a103a37b5b2b760911b60648201526084016108fc565b60008281526008602090815260409091208251610c9b92840190613f72565b600061284c82612528565b6128ad5760405162461bcd60e51b815260206004820152602c60248201527f4552433732313a206f70657261746f7220717565727920666f72206e6f6e657860448201526b34b9ba32b73a103a37b5b2b760a11b60648201526084016108fc565b60006128b8836119b0565b9050806001600160a01b0316846001600160a01b031614806128f35750836001600160a01b03166128e884610b02565b6001600160a01b0316145b8061115a57506001600160a01b0380821660009081526007602090815260408083209388168352929052205460ff1661115a565b826001600160a01b031661293a826119b0565b6001600160a01b03161461299e5760405162461bcd60e51b815260206004820152602560248201527f4552433732313a207472616e736665722066726f6d20696e636f72726563742060448201526437bbb732b960d91b60648201526084016108fc565b6001600160a01b038216612a005760405162461bcd60e51b8152602060048201526024808201527f4552433732313a207472616e7366657220746f20746865207a65726f206164646044820152637265737360e01b60648201526084016108fc565b612a0b838383613287565b612a16600082612545565b6001600160a01b0383166000908152600560205260408120805460019290612a3f908490614d01565b90915550506001600160a01b0382166000908152600560205260408120805460019290612a6d908490614c28565b909155505060008181526004602052604080822080546001600160a01b0319166001600160a01b0386811691821790925591518493918716917fddf252ad1be2c89b69c2b068fc378daa952ba7f163c4a11628f55a4df523b3ef91a4505050565b600081815260106020526040902054600160a81b900460ff16612b335760405162461bcd60e51b815260206004820152601760248201527f466163696c69747920646f6573206e6f7420657869737400000000000000000060448201526064016108fc565b50565b60008281526010602052604090205481906001600160a01b03163314610c9b5760405162461bcd60e51b81526004016108fc9190614b0f565b6000815111612b335760405162461bcd60e51b815260206004820152601960248201527f4461746120555249206d7573742062652070726f76696465640000000000000060448201526064016108fc565b816001600160a01b0316836001600160a01b03161415612c225760405162461bcd60e51b815260206004820152601960248201527f4552433732313a20617070726f766520746f2063616c6c65720000000000000060448201526064016108fc565b6001600160a01b03838116600081815260076020908152604080832094871680845294825291829020805460ff191686151590811790915591519182527f17307eab39ab6107e8899845ad3d59bd9653f200f220920489ca2b5937696c31910160405180910390a3505050565b612c9a848484612927565b612ca684848484613292565b611da05760405162461bcd60e51b81526004016108fc90614b22565b6000818152602081815260408083206001600160a01b0386168452909152812080543492839291612cf4908490614c28565b909155505060008281526001602090815260408083206001600160a01b03871680855290835292819020805460ff1916905580518481529182018590527fd7eda976cf4919f13172eb15bb39c64cecb7172258c741dab31d14c855eff40291015b60405180910390a2505050565b6060612d6d82612528565b612dd35760405162461bcd60e51b815260206004820152603160248201527f45524337323155524953746f726167653a2055524920717565727920666f72206044820152703737b732bc34b9ba32b73a103a37b5b2b760791b60648201526084016108fc565b60008281526008602052604081208054612dec90614d44565b80601f0160208091040260200160405190810160405280929190818152602001828054612e1890614d44565b8015612e655780601f10612e3a57610100808354040283529160200191612e65565b820191906000526020600020905b815481529060010190602001808311612e4857829003601f168201915b505050505090506000612e8360408051602081019091526000815290565b9050805160001415612e96575092915050565b815115612ec8578082604051602001612eb09291906145db565b60405160208183030381529060405292505050919050565b61115a8461339c565b600081815260126020526040902060020154821115612f435760405162461bcd60e51b815260206004820152602860248201527f576974686472617720616d6f756e74206e6f7420616c6c6f777320696e207468604482015267697320737461746560c01b60648201526084016108fc565b610c9b838383613474565b6000818152601160205260408120815b8154811015612fc45760126000838381548110612f7d57612f7d614e28565b6000918252602080832090910154835282019290925260400190206003015460ff1615612fb25782612fae81614da1565b9350505b80612fbc81614da1565b915050612f5e565b5050919050565b60006001600160e01b031982166380ac58cd60e01b1480612ffc57506001600160e01b03198216635b5e139f60e01b145b80610a6a57506301ffc9a760e01b6001600160e01b0319831614610a6a565b6000818152602081815260408083206001600160a01b03861684529091529020548061307e5760405162461bcd60e51b8152602060048201526012602482015271496e73756666696369656e742066756e647360701b60448201526064016108fc565b60008281526001602081815260408084206001600160a01b03881685529091529091205460ff16818111156130b5576130b5614dfc565b146131165760405162461bcd60e51b815260206004820152602b60248201527f436f6d706c657465207769746864726177206e6f7420616c6c6f77656420696e60448201526a207468697320737461746560a81b60648201526084016108fc565b6000828152602081815260408083206001600160a01b03871680855292528220919091556131449082613595565b60408051828152602081018490526001600160a01b038516917f510b30a02fc9b7506980950b9c615af8c13e88658555c0ea22acffd73d9ea2229101612d55565b61318f83836136ae565b61319c6000848484613292565b610c9b5760405162461bcd60e51b81526004016108fc90614b22565b60606131c3826137ed565b6040518060a0016040528060628152602001614ecd606291396040516020016131ed92919061460a565b6040516020818303038152906040529050919050565b606061320e866138eb565b613217866138eb565b6132248661ffff166137ed565b6132318661ffff166137ed565b61323e8661ffff166137ed565b6040516020016132529594939291906146b8565b604051602081830303815290604052905095945050505050565b606061327782613926565b6040516020016131ed91906148a3565b610c9b838383613a7a565b60006001600160a01b0384163b1561339457604051630a85bd0160e11b81526001600160a01b0385169063150b7a02906132d69033908990889088906004016148e8565b602060405180830381600087803b1580156132f057600080fd5b505af1925050508015613320575060408051601f3d908101601f1916820190925261331d91810190614462565b60015b61337a573d80801561334e576040519150601f19603f3d011682016040523d82523d6000602084013e613353565b606091505b5080516133725760405162461bcd60e51b81526004016108fc90614b22565b805181602001fd5b6001600160e01b031916630a85bd0160e11b14905061115a565b50600161115a565b60606133a782612528565b61340b5760405162461bcd60e51b815260206004820152602f60248201527f4552433732314d657461646174613a2055524920717565727920666f72206e6f60448201526e3732bc34b9ba32b73a103a37b5b2b760891b60648201526084016108fc565b600061342260408051602081019091526000815290565b90506000815111613442576040518060200160405280600081525061346d565b8061344c84613b32565b60405160200161345d9291906145db565b6040516020818303038152906040525b9392505050565b6000818152602081815260408083206001600160a01b03871684529091529020548210156134d95760405162461bcd60e51b8152602060048201526012602482015271496e73756666696369656e742066756e647360701b60448201526064016108fc565b6000818152602081815260408083206001600160a01b0387168452909152902054613505908390614d01565b6000828152602081815260408083206001600160a01b038816808552908352818420949094558483526001808352818420858552909252909120805460ff191690911790556135549083613595565b60408051838152602081018390526001600160a01b038516917f510b30a02fc9b7506980950b9c615af8c13e88658555c0ea22acffd73d9ea2229101612d55565b804710156135e55760405162461bcd60e51b815260206004820152601d60248201527f416464726573733a20696e73756666696369656e742062616c616e636500000060448201526064016108fc565b6000826001600160a01b03168260405160006040518083038185875af1925050503d8060008114613632576040519150601f19603f3d011682016040523d82523d6000602084013e613637565b606091505b5050905080610c9b5760405162461bcd60e51b815260206004820152603a60248201527f416464726573733a20756e61626c6520746f2073656e642076616c75652c207260448201527f6563697069656e74206d6179206861766520726576657274656400000000000060648201526084016108fc565b6001600160a01b0382166137045760405162461bcd60e51b815260206004820181905260248201527f4552433732313a206d696e7420746f20746865207a65726f206164647265737360448201526064016108fc565b61370d81612528565b1561375a5760405162461bcd60e51b815260206004820152601c60248201527f4552433732313a20746f6b656e20616c7265616479206d696e7465640000000060448201526064016108fc565b61376660008383613287565b6001600160a01b038216600090815260056020526040812080546001929061378f908490614c28565b909155505060008181526004602052604080822080546001600160a01b0319166001600160a01b03861690811790915590518392907fddf252ad1be2c89b69c2b068fc378daa952ba7f163c4a11628f55a4df523b3ef908290a45050565b6060816138115750506040805180820190915260018152600360fc1b602082015290565b8160005b811561383b578061382581614da1565b91506138349050600a83614c5f565b9150613815565b60008167ffffffffffffffff81111561385657613856614e3e565b6040519080825280601f01601f191660200182016040528015613880576020820181803683370190505b5090505b841561115a57613895600183614d01565b91506138a2600a86614dbc565b6138ad906030614c28565b60f81b8183815181106138c2576138c2614e28565b60200101906001600160f81b031916908160001a9053506138e4600a86614c5f565b9450613884565b60606138f682613c30565b613903608084901b613c30565b60405161060f60f31b6020820152602281019290925260428201526062016131ed565b606081516000141561394657505060408051602081019091526000815290565b6000604051806060016040528060408152602001614e8d60409139905060006003845160026139759190614c28565b61397f9190614c5f565b61398a906004614cbf565b67ffffffffffffffff8111156139a2576139a2614e3e565b6040519080825280601f01601f1916602001820160405280156139cc576020820181803683370190505b509050600182016020820185865187015b80821015613a38576003820191508151603f8160121c168501518453600184019350603f81600c1c168501518453600184019350603f8160061c168501518453600184019350603f81168501518453506001830192506139dd565b5050600386510660018114613a545760028114613a6757613a6f565b603d6001830353603d6002830353613a6f565b603d60018303535b509195945050505050565b6001600160a01b038316613ad557613ad081600b80546000838152600c60205260408120829055600182018355919091527f0175b7a638427703f0dbe7bb9bbf987a2551717b34e79f33b5b1008d1fa01db90155565b613af8565b816001600160a01b0316836001600160a01b031614613af857613af88382613de2565b6001600160a01b038216613b0f57610c9b81613e7f565b826001600160a01b0316826001600160a01b031614610c9b57610c9b8282613f2e565b606081613b565750506040805180820190915260018152600360fc1b602082015290565b8160005b8115613b805780613b6a81614da1565b9150613b799050600a83614c5f565b9150613b5a565b60008167ffffffffffffffff811115613b9b57613b9b614e3e565b6040519080825280601f01601f191660200182016040528015613bc5576020820181803683370190505b5090505b841561115a57613bda600183614d01565b9150613be7600a86614dbc565b613bf2906030614c28565b60f81b818381518110613c0757613c07614e28565b60200101906001600160f81b031916908160001a905350613c29600a86614c5f565b9450613bc9565b7aff00000000000000ff00000000000000ff00000000000000ff00006bffffffff0000000000000000604083901c90811663ffffffff60c01b84161760201c63ffffffff60601b919091166001600160e01b031984161717601081901c9182167eff00000000000000ff00000000000000ff00000000000000ff000000000000821617600890811c7bff00000000000000ff00000000000000ff00000000000000ff000000939093167fff00000000000000ff00000000000000ff00000000000000ff000000000000009290921691909117919091179081901c7e0f000f000f000f000f000f000f000f000f000f000f000f000f000f000f000f167f0f000f000f000f000f000f000f000f000f000f000f000f000f000f000f000f00600492831c161790613d7e827f0606060606060606060606060606060606060606060606060606060606060606614c28565b901c7f0f0f0f0f0f0f0f0f0f0f0f0f0f0f0f0f0f0f0f0f0f0f0f0f0f0f0f0f0f0f0f0f166007613dae9190614cbf565b613dd8827f3030303030303030303030303030303030303030303030303030303030303030614c28565b610a6a9190614c28565b60006001613def84611ab3565b613df99190614d01565b6000838152600a6020526040902054909150808214613e4c576001600160a01b03841660009081526009602090815260408083208584528252808320548484528184208190558352600a90915290208190555b506000918252600a602090815260408084208490556001600160a01b039094168352600981528383209183525290812055565b600b54600090613e9190600190614d01565b6000838152600c6020526040812054600b8054939450909284908110613eb957613eb9614e28565b9060005260206000200154905080600b8381548110613eda57613eda614e28565b6000918252602080832090910192909255828152600c9091526040808220849055858252812055600b805480613f1257613f12614e12565b6001900381819060005260206000200160009055905550505050565b6000613f3983611ab3565b6001600160a01b0390931660009081526009602090815260408083208684528252808320859055938252600a9052919091209190915550565b828054613f7e90614d44565b90600052602060002090601f016020900481019282613fa05760008555613fe6565b82601f10613fb957805160ff1916838001178555613fe6565b82800160010185558215613fe6579182015b82811115613fe6578251825591602001919060010190613fcb565b506124ff929150614066565b828054613ffe90614d44565b90600052602060002090601f0160209004810192826140205760008555613fe6565b82601f106140395782800160ff19823516178555613fe6565b82800160010185558215613fe6579182015b82811115613fe657823582559160200191906001019061404b565b5b808211156124ff5760008155600101614067565b80356001600160a01b038116811461409257600080fd5b919050565b8035801515811461409257600080fd5b60008083601f8401126140b957600080fd5b50813567ffffffffffffffff8111156140d157600080fd5b6020830191508360208285010111156140e957600080fd5b9250929050565b803561ffff8116811461409257600080fd5b60006020828403121561411457600080fd5b61346d8261407b565b6000806040838503121561413057600080fd5b6141398361407b565b91506141476020840161407b565b90509250929050565b60008060006060848603121561416557600080fd5b61416e8461407b565b925061417c6020850161407b565b9150604084013590509250925092565b600080600080608085870312156141a257600080fd5b6141ab8561407b565b93506141b96020860161407b565b925060408501359150606085013567ffffffffffffffff808211156141dd57600080fd5b818701915087601f8301126141f157600080fd5b81358181111561420357614203614e3e565b604051601f8201601f19908116603f0116810190838211818310171561422b5761422b614e3e565b816040528281528a602084870101111561424457600080fd5b82602086016020830137600060208483010152809550505050505092959194509250565b6000806040838503121561427b57600080fd5b6142848361407b565b915061414760208401614097565b600080604083850312156142a557600080fd5b6142ae8361407b565b946020939093013593505050565b6000602082840312156142ce57600080fd5b5035919050565b600080604083850312156142e857600080fd5b823591506141476020840161407b565b60008060006040848603121561430d57600080fd5b83359250602084013567ffffffffffffffff81111561432b57600080fd5b614337868287016140a7565b9497909650939450505050565b60008060006060848603121561435957600080fd5b83359250614369602085016140f0565b9150614377604085016140f0565b90509250925092565b6000806000806080858703121561439657600080fd5b843593506143a6602086016140f0565b92506143b4604086016140f0565b91506143c2606086016140f0565b905092959194509250565b60008060008060008060a087890312156143e657600080fd5b863595506143f6602088016140f0565b94506040870135935061440b60608801614097565b9250608087013567ffffffffffffffff81111561442757600080fd5b61443389828a016140a7565b979a9699509497509295939492505050565b60006020828403121561445757600080fd5b813561346d81614e54565b60006020828403121561447457600080fd5b815161346d81614e54565b60008060006040848603121561449457600080fd5b833567ffffffffffffffff8111156144ab57600080fd5b6144b7868287016140a7565b9094509250614377905060208501614097565b600080600080606085870312156144e057600080fd5b843567ffffffffffffffff8111156144f757600080fd5b614503878288016140a7565b9095509350614516905060208601614097565b91506143c26040860161407b565b6000815180845261453c816020860160208601614d18565b601f01601f19169290920160200192915050565b81835281816020850137506000828201602090810191909152601f909101601f19169091010190565b6000815161458b818560208601614d18565b9290920192915050565b6bffffffffffffffffffffffff198460601b168152818360148301376000910160140190815292915050565b838152818360208301376000910160200190815292915050565b600083516145ed818460208801614d18565b835190830190614601818360208801614d18565b01949350505050565b74226e616d65223a2245746852696f5374617973202360581b81527f222c226465736372697074696f6e223a2253746179206174206c6f6467696e6760158201526a08199858da5b1a5d1e488b60aa1b60358201528251600090614675816040850160208801614d18565b681134b6b0b3b2911d1160b91b604091840191820152835161469e816049840160208801614d18565b601160f91b60499290910191820152604a01949350505050565b7f2261747472696275746573223a5b7b2274726169745f74797065223a2266616381527134b634ba3ca4b21116113b30b63ab2911d1160711b60208201526000865161470b816032850160208b01614d18565b7f227d2c7b2274726169745f74797065223a2273706163654964222c2276616c756032918401918201526332911d1160e11b60528201528651614755816056840160208b01614d18565b7f227d2c7b2274726169745f74797065223a227374617274446179222c2276616c60569290910191820152643ab2911d1160d91b607682015285516147a181607b840160208a01614d18565b7f227d2c7b2274726169745f74797065223a226e756d6265724f6644617973222c607b929091019182015268113b30b63ab2911d1160b91b609b82015261484061483161482b6147f460a4850189614579565b7f227d2c7b2274726169745f74797065223a227175616e74697479222c2276616c8152643ab2911d1160d91b602082015260250190565b86614579565b62227d5d60e81b815260030190565b98975050505050505050565b607b60f81b815260008351614868816001850160208801614d18565b600b60fa1b6001918401918201528351614889816002840160208801614d18565b607d60f81b60029290910191820152600301949350505050565b7f646174613a6170706c69636174696f6e2f6a736f6e3b6261736536342c0000008152600082516148db81601d850160208701614d18565b91909101601d0192915050565b6001600160a01b038581168252841660208201526040810183905260806060820181905260009061491b90830184614524565b9695505050505050565b600060018060a01b0380881683528615156020840152851515604084015260a0606084015261495760a0840186614524565b91508084166080840152509695505050505050565b6020808252825182820181905260009190848201906040850190845b818110156149a457835183529284019291840191600101614988565b50909695505050505050565b6020808252825182820181905260009190848201906040850190845b818110156149a457835161ffff16835292840192918401916001016149cc565b84151581526001600160a01b0384166020820152821515604082015260806060820181905260009061491b90830184614524565b861515815285602082015261ffff85166040820152836060820152821515608082015260c060a0820152600061484060c0830184614524565b838152604060208201526000614a73604083018486614550565b95945050505050565b86815261ffff861660208201528460408201528315156060820152821515608082015260c060a0820152600061484060c0830184614524565b86815261ffff86166020820152846040820152831515606082015260a06080820152600061484060a083018486614550565b6020810160028310614b0957634e487b7160e01b600052602160045260246000fd5b91905290565b60208152600061346d6020830184614524565b60208082526032908201527f4552433732313a207472616e7366657220746f206e6f6e20455243373231526560408201527131b2b4bb32b91034b6b83632b6b2b73a32b960711b606082015260800190565b60208082526026908201527f4f6e6c79206c6f6467696e6720666163696c697479206f776e657220697320616040820152651b1b1bddd95960d21b606082015260800190565b60208082526031908201527f4552433732313a207472616e736665722063616c6c6572206973206e6f74206f6040820152701ddb995c881b9bdc88185c1c1c9bdd9959607a1b606082015260800190565b600061ffff80831681851680830382111561460157614601614dd0565b60008219821115614c3b57614c3b614dd0565b500190565b600063ffffffff80831681851680830382111561460157614601614dd0565b600082614c6e57614c6e614de6565b500490565b600061ffff80831681851681830481118215151615614c9457614c94614dd0565b02949350505050565b600062ffffff80831681851681830481118215151615614c9457614c94614dd0565b6000816000190483118215151615614cd957614cd9614dd0565b500290565b600061ffff83811690831681811015614cf957614cf9614dd0565b039392505050565b600082821015614d1357614d13614dd0565b500390565b60005b83811015614d33578181015183820152602001614d1b565b83811115611da05750506000910152565b600181811c90821680614d5857607f821691505b60208210811415614d7957634e487b7160e01b600052602260045260246000fd5b50919050565b600061ffff80831681811415614d9757614d97614dd0565b6001019392505050565b6000600019821415614db557614db5614dd0565b5060010190565b600082614dcb57614dcb614de6565b500690565b634e487b7160e01b600052601160045260246000fd5b634e487b7160e01b600052601260045260246000fd5b634e487b7160e01b600052602160045260246000fd5b634e487b7160e01b600052603160045260246000fd5b634e487b7160e01b600052603260045260246000fd5b634e487b7160e01b600052604160045260246000fd5b6001600160e01b031981168114612b3357600080fdfe4f6e6c7920666163696c697479206f776e6572206d617920616464205370616365734142434445464748494a4b4c4d4e4f505152535455565758595a6162636465666768696a6b6c6d6e6f707172737475767778797a303132333435363738392b2f68747470733a2f2f626166796265696767376d7777706e6e6d366d6d6b3374777863346172697a6f796336696a6e617965337064636977636f6868656f37786937686d2e697066732e647765622e6c696e6b2f746f6b656e2d696d6167652e706e67a2646970667358221220b519bedf24da2bef297ea1685f0187e84bf8b289b22bc9a0e66b51a9d2fff22564736f6c63430008070033",
  "linkReferences": {},
  "deployedLinkReferences": {}
}